{
  "_format": "hh-sol-artifact-1",
  "contractName": "DBXeNFTFactory",
  "sourceName": "contracts/DBXeNFTFactory.sol",
  "abi": [
    {
      "inputs": [
        {
          "internalType": "address",
          "name": "dbxAddress",
          "type": "address"
        },
        {
          "internalType": "address",
          "name": "xenftAddress",
          "type": "address"
        },
        {
          "internalType": "address",
          "name": "_xenCrypto",
          "type": "address"
        }
      ],
      "stateMutability": "nonpayable",
      "type": "constructor"
    },
    {
      "anonymous": false,
      "inputs": [
        {
          "indexed": true,
          "internalType": "uint256",
          "name": "cycle",
          "type": "uint256"
        },
        {
          "indexed": false,
          "internalType": "uint256",
          "name": "DBXENFTId",
          "type": "uint256"
        },
        {
          "indexed": false,
          "internalType": "uint256",
          "name": "XENFTID",
          "type": "uint256"
        },
        {
          "indexed": false,
          "internalType": "uint256",
          "name": "fee",
          "type": "uint256"
        },
        {
          "indexed": true,
          "internalType": "address",
          "name": "minter",
          "type": "address"
        }
      ],
      "name": "DBXeNFTMinted",
      "type": "event"
    },
    {
      "anonymous": false,
      "inputs": [
        {
          "indexed": true,
          "internalType": "uint256",
          "name": "cycle",
          "type": "uint256"
        },
        {
          "indexed": true,
          "internalType": "uint256",
          "name": "tokenId",
          "type": "uint256"
        },
        {
          "indexed": false,
          "internalType": "uint256",
          "name": "fees",
          "type": "uint256"
        },
        {
          "indexed": true,
          "internalType": "address",
          "name": "owner",
          "type": "address"
        }
      ],
      "name": "FeesClaimed",
      "type": "event"
    },
    {
      "anonymous": false,
      "inputs": [
        {
          "indexed": false,
          "internalType": "uint256",
          "name": "cycle",
          "type": "uint256"
        },
        {
          "indexed": false,
          "internalType": "uint256",
          "name": "calculatedCycleReward",
          "type": "uint256"
        },
        {
          "indexed": false,
          "internalType": "uint256",
          "name": "summedCyclePowers",
          "type": "uint256"
        }
      ],
      "name": "NewCycleStarted",
      "type": "event"
    },
    {
      "anonymous": false,
      "inputs": [
        {
          "indexed": true,
          "internalType": "uint256",
          "name": "cycle",
          "type": "uint256"
        },
        {
          "indexed": true,
          "internalType": "uint256",
          "name": "tokenId",
          "type": "uint256"
        },
        {
          "indexed": false,
          "internalType": "uint256",
          "name": "amount",
          "type": "uint256"
        },
        {
          "indexed": true,
          "internalType": "address",
          "name": "owner",
          "type": "address"
        }
      ],
      "name": "Staked",
      "type": "event"
    },
    {
      "anonymous": false,
      "inputs": [
        {
          "indexed": true,
          "internalType": "uint256",
          "name": "cycle",
          "type": "uint256"
        },
        {
          "indexed": true,
          "internalType": "uint256",
          "name": "tokenId",
          "type": "uint256"
        },
        {
          "indexed": false,
          "internalType": "uint256",
          "name": "amount",
          "type": "uint256"
        },
        {
          "indexed": true,
          "internalType": "address",
          "name": "owner",
          "type": "address"
        }
      ],
      "name": "Unstaked",
      "type": "event"
    },
    {
      "anonymous": false,
      "inputs": [
        {
          "indexed": true,
          "internalType": "uint256",
          "name": "cycle",
          "type": "uint256"
        },
        {
          "indexed": false,
          "internalType": "uint256",
          "name": "dbxenftId",
          "type": "uint256"
        },
        {
          "indexed": false,
          "internalType": "uint256",
          "name": "xenftId",
          "type": "uint256"
        },
        {
          "indexed": true,
          "internalType": "address",
          "name": "owner",
          "type": "address"
        }
      ],
      "name": "XenRewardsClaimed",
      "type": "event"
    },
    {
      "inputs": [],
      "name": "BASE_XEN",
      "outputs": [
        {
          "internalType": "uint256",
          "name": "",
          "type": "uint256"
        }
      ],
      "stateMutability": "view",
      "type": "function"
    },
    {
      "inputs": [],
      "name": "MAX_BPS",
      "outputs": [
        {
          "internalType": "uint256",
          "name": "",
          "type": "uint256"
        }
      ],
      "stateMutability": "view",
      "type": "function"
    },
    {
      "inputs": [],
      "name": "MAX_PENALTY_PCT",
      "outputs": [
        {
          "internalType": "uint256",
          "name": "",
          "type": "uint256"
        }
      ],
      "stateMutability": "view",
      "type": "function"
    },
    {
      "inputs": [],
      "name": "SCALING_FACTOR",
      "outputs": [
        {
          "internalType": "uint256",
          "name": "",
          "type": "uint256"
        }
      ],
      "stateMutability": "view",
      "type": "function"
    },
    {
      "inputs": [],
      "name": "SECONDS_IN_DAY",
      "outputs": [
        {
          "internalType": "uint256",
          "name": "",
          "type": "uint256"
        }
      ],
      "stateMutability": "view",
      "type": "function"
    },
    {
      "inputs": [
        {
          "internalType": "uint256",
          "name": "",
          "type": "uint256"
        }
      ],
      "name": "baseDBXeNFTPower",
      "outputs": [
        {
          "internalType": "uint256",
          "name": "",
          "type": "uint256"
        }
      ],
      "stateMutability": "view",
      "type": "function"
    },
    {
      "inputs": [
        {
          "internalType": "uint256",
          "name": "tokenId",
          "type": "uint256"
        }
      ],
      "name": "claimFees",
      "outputs": [],
      "stateMutability": "nonpayable",
      "type": "function"
    },
    {
      "inputs": [
        {
          "internalType": "uint256",
          "name": "tokenId",
          "type": "uint256"
        }
      ],
      "name": "claimXen",
      "outputs": [],
      "stateMutability": "nonpayable",
      "type": "function"
    },
    {
      "inputs": [],
      "name": "currentCycle",
      "outputs": [
        {
          "internalType": "uint256",
          "name": "",
          "type": "uint256"
        }
      ],
      "stateMutability": "view",
      "type": "function"
    },
    {
      "inputs": [],
      "name": "currentCycleReward",
      "outputs": [
        {
          "internalType": "uint256",
          "name": "",
          "type": "uint256"
        }
      ],
      "stateMutability": "view",
      "type": "function"
    },
    {
      "inputs": [],
      "name": "currentStartedCycle",
      "outputs": [
        {
          "internalType": "uint256",
          "name": "",
          "type": "uint256"
        }
      ],
      "stateMutability": "view",
      "type": "function"
    },
    {
      "inputs": [
        {
          "internalType": "uint256",
          "name": "",
          "type": "uint256"
        }
      ],
      "name": "cycleAccruedFees",
      "outputs": [
        {
          "internalType": "uint256",
          "name": "",
          "type": "uint256"
        }
      ],
      "stateMutability": "view",
      "type": "function"
    },
    {
      "inputs": [
        {
          "internalType": "uint256",
          "name": "",
          "type": "uint256"
        }
      ],
      "name": "cycleFeesPerPowerSummed",
      "outputs": [
        {
          "internalType": "uint256",
          "name": "",
          "type": "uint256"
        }
      ],
      "stateMutability": "view",
      "type": "function"
    },
    {
      "inputs": [],
      "name": "dbxenft",
      "outputs": [
        {
          "internalType": "contract DBXENFT",
          "name": "",
          "type": "address"
        }
      ],
      "stateMutability": "view",
      "type": "function"
    },
    {
      "inputs": [
        {
          "internalType": "uint256",
          "name": "",
          "type": "uint256"
        }
      ],
      "name": "dbxenftAccruedFees",
      "outputs": [
        {
          "internalType": "uint256",
          "name": "",
          "type": "uint256"
        }
      ],
      "stateMutability": "view",
      "type": "function"
    },
    {
      "inputs": [
        {
          "internalType": "uint256",
          "name": "",
          "type": "uint256"
        }
      ],
      "name": "dbxenftEntryPower",
      "outputs": [
        {
          "internalType": "uint256",
          "name": "",
          "type": "uint256"
        }
      ],
      "stateMutability": "view",
      "type": "function"
    },
    {
      "inputs": [
        {
          "internalType": "uint256",
          "name": "",
          "type": "uint256"
        }
      ],
      "name": "dbxenftEntryPowerWithStake",
      "outputs": [
        {
          "internalType": "uint256",
          "name": "",
          "type": "uint256"
        }
      ],
      "stateMutability": "view",
      "type": "function"
    },
    {
      "inputs": [
        {
          "internalType": "uint256",
          "name": "",
          "type": "uint256"
        }
      ],
      "name": "dbxenftFirstStake",
      "outputs": [
        {
          "internalType": "uint256",
          "name": "",
          "type": "uint256"
        }
      ],
      "stateMutability": "view",
      "type": "function"
    },
    {
      "inputs": [
        {
          "internalType": "uint256",
          "name": "",
          "type": "uint256"
        }
      ],
      "name": "dbxenftPower",
      "outputs": [
        {
          "internalType": "uint256",
          "name": "",
          "type": "uint256"
        }
      ],
      "stateMutability": "view",
      "type": "function"
    },
    {
      "inputs": [
        {
          "internalType": "uint256",
          "name": "",
          "type": "uint256"
        }
      ],
      "name": "dbxenftSecondStake",
      "outputs": [
        {
          "internalType": "uint256",
          "name": "",
          "type": "uint256"
        }
      ],
      "stateMutability": "view",
      "type": "function"
    },
    {
      "inputs": [
        {
          "internalType": "uint256",
          "name": "",
          "type": "uint256"
        }
      ],
      "name": "dbxenftUnderlyingXENFT",
      "outputs": [
        {
          "internalType": "uint256",
          "name": "",
          "type": "uint256"
        }
      ],
      "stateMutability": "view",
      "type": "function"
    },
    {
      "inputs": [
        {
          "internalType": "uint256",
          "name": "",
          "type": "uint256"
        }
      ],
      "name": "dbxenftWithdrawableStake",
      "outputs": [
        {
          "internalType": "uint256",
          "name": "",
          "type": "uint256"
        }
      ],
      "stateMutability": "view",
      "type": "function"
    },
    {
      "inputs": [],
      "name": "dxn",
      "outputs": [
        {
          "internalType": "contract IERC20",
          "name": "",
          "type": "address"
        }
      ],
      "stateMutability": "view",
      "type": "function"
    },
    {
      "inputs": [],
      "name": "getCurrentCycle",
      "outputs": [
        {
          "internalType": "uint256",
          "name": "",
          "type": "uint256"
        }
      ],
      "stateMutability": "view",
      "type": "function"
    },
    {
      "inputs": [],
      "name": "i_initialTimestamp",
      "outputs": [
        {
          "internalType": "uint256",
          "name": "",
          "type": "uint256"
        }
      ],
      "stateMutability": "view",
      "type": "function"
    },
    {
      "inputs": [],
      "name": "i_periodDuration",
      "outputs": [
        {
          "internalType": "uint256",
          "name": "",
          "type": "uint256"
        }
      ],
      "stateMutability": "view",
      "type": "function"
    },
    {
      "inputs": [],
      "name": "lastCycleReward",
      "outputs": [
        {
          "internalType": "uint256",
          "name": "",
          "type": "uint256"
        }
      ],
      "stateMutability": "view",
      "type": "function"
    },
    {
      "inputs": [
        {
          "internalType": "uint256",
          "name": "",
          "type": "uint256"
        }
      ],
      "name": "lastFeeUpdateCycle",
      "outputs": [
        {
          "internalType": "uint256",
          "name": "",
          "type": "uint256"
        }
      ],
      "stateMutability": "view",
      "type": "function"
    },
    {
      "inputs": [],
      "name": "lastStartedCycle",
      "outputs": [
        {
          "internalType": "uint256",
          "name": "",
          "type": "uint256"
        }
      ],
      "stateMutability": "view",
      "type": "function"
    },
    {
      "inputs": [
        {
          "internalType": "uint256",
          "name": "xenftId",
          "type": "uint256"
        }
      ],
      "name": "mintDBXENFT",
      "outputs": [],
      "stateMutability": "payable",
      "type": "function"
    },
    {
      "inputs": [],
      "name": "pendingFees",
      "outputs": [
        {
          "internalType": "uint256",
          "name": "",
          "type": "uint256"
        }
      ],
      "stateMutability": "view",
      "type": "function"
    },
    {
      "inputs": [],
      "name": "pendingPower",
      "outputs": [
        {
          "internalType": "uint256",
          "name": "",
          "type": "uint256"
        }
      ],
      "stateMutability": "view",
      "type": "function"
    },
    {
      "inputs": [],
      "name": "pendingStakeWithdrawal",
      "outputs": [
        {
          "internalType": "uint256",
          "name": "",
          "type": "uint256"
        }
      ],
      "stateMutability": "view",
      "type": "function"
    },
    {
      "inputs": [],
      "name": "previousStartedCycle",
      "outputs": [
        {
          "internalType": "uint256",
          "name": "",
          "type": "uint256"
        }
      ],
      "stateMutability": "view",
      "type": "function"
    },
    {
      "inputs": [
        {
          "internalType": "uint256",
          "name": "",
          "type": "uint256"
        }
      ],
      "name": "rewardPerCycle",
      "outputs": [
        {
          "internalType": "uint256",
          "name": "",
          "type": "uint256"
        }
      ],
      "stateMutability": "view",
      "type": "function"
    },
    {
      "inputs": [
        {
          "internalType": "uint256",
          "name": "amount",
          "type": "uint256"
        },
        {
          "internalType": "uint256",
          "name": "tokenId",
          "type": "uint256"
        }
      ],
      "name": "stake",
      "outputs": [],
      "stateMutability": "payable",
      "type": "function"
    },
    {
      "inputs": [
        {
          "internalType": "uint256",
          "name": "",
          "type": "uint256"
        }
      ],
      "name": "summedCyclePowers",
      "outputs": [
        {
          "internalType": "uint256",
          "name": "",
          "type": "uint256"
        }
      ],
      "stateMutability": "view",
      "type": "function"
    },
    {
      "inputs": [
        {
          "internalType": "uint256",
          "name": "",
          "type": "uint256"
        }
      ],
      "name": "tokenEntryCycle",
      "outputs": [
        {
          "internalType": "uint256",
          "name": "",
          "type": "uint256"
        }
      ],
      "stateMutability": "view",
      "type": "function"
    },
    {
      "inputs": [
        {
          "internalType": "uint256",
          "name": "",
          "type": "uint256"
        }
      ],
      "name": "totalEntryPowerPerCycle",
      "outputs": [
        {
          "internalType": "uint256",
          "name": "",
          "type": "uint256"
        }
      ],
      "stateMutability": "view",
      "type": "function"
    },
    {
      "inputs": [
        {
          "internalType": "uint256",
          "name": "",
          "type": "uint256"
        }
      ],
      "name": "totalExtraEntryPower",
      "outputs": [
        {
          "internalType": "uint256",
          "name": "",
          "type": "uint256"
        }
      ],
      "stateMutability": "view",
      "type": "function"
    },
    {
      "inputs": [
        {
          "internalType": "uint256",
          "name": "tokenId",
          "type": "uint256"
        },
        {
          "internalType": "uint256",
          "name": "amount",
          "type": "uint256"
        }
      ],
      "name": "unstake",
      "outputs": [],
      "stateMutability": "nonpayable",
      "type": "function"
    },
    {
      "inputs": [],
      "name": "xenCrypto",
      "outputs": [
        {
          "internalType": "contract IXENCrypto",
          "name": "",
          "type": "address"
        }
      ],
      "stateMutability": "view",
      "type": "function"
    },
    {
      "inputs": [],
      "name": "xenft",
      "outputs": [
        {
          "internalType": "contract IXENFT",
          "name": "",
          "type": "address"
        }
      ],
      "stateMutability": "view",
      "type": "function"
    }
  ],
  "bytecode": "0x6101406040523480156200001257600080fd5b506040516200455c3803806200455c83398101604081905262000035916200012b565b60016000556001600160a01b0380841660a052828116608052811660c052620151806101005242610120526040516200006e9062000100565b604051809103906000f0801580156200008b573d6000803e3d6000fd5b506001600160a01b031660e052505069021e19e0c9bab24000006005819055600080527f7e7fa33969761a458e04f477e039a608702b4f924981d6653935a8319a08ad7b81905560146020527f4f26c3876aa9f4b92579780beea1161a61f87ebf1ec6ee865b299e447ecba99c555062000175565b6115678062002ff583390190565b80516001600160a01b03811681146200012657600080fd5b919050565b6000806000606084860312156200014157600080fd5b6200014c846200010e565b92506200015c602085016200010e565b91506200016c604085016200010e565b90509250925092565b60805160a05160c05160e0516101005161012051612db96200023c6000396000818161054901526114cc01526000818161033801526114a80152600081816104740152818161083d01528181610c69015281816110bc01528181611330015261177a0152600081816104a8015281816126c701526127af0152600081816103fd0152818161100801526112a30152600081816103820152818161092801528181610b9f0152818161151e015281816115e80152818161195101526121cd0152612db96000f3fe6080604052600436106101ec5760003560e01c806304a8a021146101f15780630ece2154146102315780630f2e12281461025e57806313e675be146102735780631b9197df146102a0578063224438d1146102cd57806326ab3f49146102e35780632c1c21b0146103105780632f7cdab014610326578063436091c11461035a578063450ed5301461037057806345bb28dc146103b1578063473284e9146103d35780635afe54d2146103eb5780635f5080b41461041f57806361a52a361461043557806368f057691461044c5780636b1d43111461046257806371141a581461049657806375e04604146104ca5780637b0472f0146104f7578063844ba7741461050a5780638bd95563146105375780638fccb3c51461056b57806391b300201461059857806395cc5d49146105ae5780639e2c8a5b146105db578063a95f1dac146105fb578063ac68a74814610611578063adc0f68614610631578063b4784d5a1461065e578063b6ef13461461068b578063bab2f552146106b8578063be26ed7f146106ce578063dbeffc87146106e3578063dd3cc78f14610710578063e1012cb51461073d578063e870fcf61461076a578063eeff86901461077d578063ef4cadc5146107aa578063f1b371e2146107cd578063f4838333146107e3578063fd967f4714610810575b600080fd5b3480156101fd57600080fd5b5061021e61020c366004612ada565b60136020526000908152604090205481565b6040519081526020015b60405180910390f35b34801561023d57600080fd5b5061021e61024c366004612ada565b600a6020526000908152604090205481565b34801561026a57600080fd5b5061021e606381565b34801561027f57600080fd5b5061021e61028e366004612ada565b601a6020526000908152604090205481565b3480156102ac57600080fd5b5061021e6102bb366004612ada565b600f6020526000908152604090205481565b3480156102d957600080fd5b5061021e60085481565b3480156102ef57600080fd5b5061021e6102fe366004612ada565b601c6020526000908152604090205481565b34801561031c57600080fd5b5061021e60095481565b34801561033257600080fd5b5061021e7f000000000000000000000000000000000000000000000000000000000000000081565b34801561036657600080fd5b5061021e60045481565b34801561037c57600080fd5b506103a47f000000000000000000000000000000000000000000000000000000000000000081565b6040516102289190612af3565b3480156103bd57600080fd5b506103d16103cc366004612ada565b610827565b005b3480156103df57600080fd5b5061021e633b9aca0081565b3480156103f757600080fd5b506103a47f000000000000000000000000000000000000000000000000000000000000000081565b34801561042b57600080fd5b5061021e60025481565b34801561044157600080fd5b5061021e6201518081565b34801561045857600080fd5b5061021e60075481565b34801561046e57600080fd5b506103a47f000000000000000000000000000000000000000000000000000000000000000081565b3480156104a257600080fd5b506103a47f000000000000000000000000000000000000000000000000000000000000000081565b3480156104d657600080fd5b5061021e6104e5366004612ada565b60126020526000908152604090205481565b6103d1610505366004612b07565b610c4b565b34801561051657600080fd5b5061021e610525366004612ada565b600d6020526000908152604090205481565b34801561054357600080fd5b5061021e7f000000000000000000000000000000000000000000000000000000000000000081565b34801561057757600080fd5b5061021e610586366004612ada565b60166020526000908152604090205481565b3480156105a457600080fd5b5061021e60055481565b3480156105ba57600080fd5b5061021e6105c9366004612ada565b60196020526000908152604090205481565b3480156105e757600080fd5b506103d16105f6366004612b07565b61109e565b34801561060757600080fd5b5061021e60065481565b34801561061d57600080fd5b506103d161062c366004612ada565b611312565b34801561063d57600080fd5b5061021e61064c366004612ada565b60146020526000908152604090205481565b34801561066a57600080fd5b5061021e610679366004612ada565b600e6020526000908152604090205481565b34801561069757600080fd5b5061021e6106a6366004612ada565b60116020526000908152604090205481565b3480156106c457600080fd5b5061021e60015481565b3480156106da57600080fd5b5061021e6114a4565b3480156106ef57600080fd5b5061021e6106fe366004612ada565b60156020526000908152604090205481565b34801561071c57600080fd5b5061021e61072b366004612ada565b600c6020526000908152604090205481565b34801561074957600080fd5b5061021e610758366004612ada565b601b6020526000908152604090205481565b6103d1610778366004612ada565b611500565b34801561078957600080fd5b5061021e610798366004612ada565b60106020526000908152604090205481565b3480156107b657600080fd5b5061021e6b1d6329f1c35ca4bfabb9f56160281b81565b3480156107d957600080fd5b5061021e60035481565b3480156107ef57600080fd5b5061021e6107fe366004612ada565b600b6020526000908152604090205481565b34801561081c57600080fd5b5061021e6298968081565b6040516331a9108f60e11b8152600481018290527f0000000000000000000000000000000000000000000000000000000000000000908290339081906001600160a01b03851690636352211e90602401602060405180830381865afa158015610894573d6000803e3d6000fd5b505050506040513d601f19601f820116820180604052508101906108b89190612b29565b6001600160a01b0316146108e75760405162461bcd60e51b81526004016108de90612b52565b60405180910390fd5b6108ef611a3c565b6108f7611a57565b61090084611b3c565b6000848152601c602052604080822054905163443aa53360e01b8152600481018290529091907f00000000000000000000000000000000000000000000000000000000000000006001600160a01b03169063443aa53390602401602060405180830381865afa158015610977573d6000803e3d6000fd5b505050506040513d601f19601f8201168201806040525081019061099b9190612b84565b60405163e90cdc8960e01b81526004810182905290915073__$15046a4eb87352c1cd8587f1d1a014d95c$__9063e90cdc8990602401602060405180830381865af41580156109ee573d6000803e3d6000fd5b505050506040513d601f19601f82011682018060405250810190610a129190612bb2565b15610a595760405162461bcd60e51b815260206004820152601760248201527616115391950e88105b1c9958591e481c995919595b5959604a1b60448201526064016108de565b6000868152600e602052604090205460015403610ab85760405162461bcd60e51b815260206004820181905260248201527f43616e206e6f7420636c61696d20647572696e6720656e747279206379636c6560448201526064016108de565b600086815260106020908152604080832054601190925290912054670de0b6b3a7640000811115610b83576000610af883670de0b6b3a764000084611f08565b60008a81526010602052604090208190559050610b158184612be3565b60008a8152601160205260409020670de0b6b3a764000090556003546004549194509003610b5a578260076000828254610b4f9190612bf6565b90915550610b819050565b60015460009081526012602052604081208054859290610b7b908490612be3565b90915550505b505b60405163f5878b9b60e01b8152600481018590523360248201527f00000000000000000000000000000000000000000000000000000000000000006001600160a01b03169063f5878b9b9060440160006040518083038186803b158015610be957600080fd5b505afa158015610bfd573d6000803e3d6000fd5b5050600154604080518c8152602081018990523394509192507fb60fc2130bad1eb610319d28cbe6fa1497a3ce92cabb147ee9beb72f643552d0910160405180910390a35050505050505050565b610c53611ff8565b6040516331a9108f60e11b8152600481018290527f0000000000000000000000000000000000000000000000000000000000000000908290339081906001600160a01b03851690636352211e90602401602060405180830381865afa158015610cc0573d6000803e3d6000fd5b505050506040513d601f19601f82011682018060405250810190610ce49190612b29565b6001600160a01b031614610d0a5760405162461bcd60e51b81526004016108de90612b52565b610d12611a3c565b610d1a611a57565b610d2384611b3c565b60008511610d6b5760405162461bcd60e51b8152602060048201526015602482015274444258656e3a20616d6f756e74206973207a65726f60581b60448201526064016108de565b6000848152600d602052604081205490819003610dc35760405162461bcd60e51b81526020600482015260166024820152751110961953919508191bd95cc81b9bdd08195e1a5cdd60521b60448201526064016108de565b6000610dce87612051565b905080341015610e1e5760405162461bcd60e51b815260206004820152601b60248201527a56616c7565206c657373207468616e207374616b696e672066656560281b60448201526064016108de565b6001546003548103610e53576000818152600a602052604081208054849290610e48908490612bf6565b90915550610e6b9050565b8160086000828254610e659190612bf6565b90915550505b6000610e78826001612bf6565b6000898152601560205260409020549091508114801590610ea757506000888152601660205260409020548114155b15610efe576000888152601560205260408120549003610ed7576000888152601560205260409020819055610efe565b6000888152601660205260408120549003610efe5760008881526016602052604090208190555b6000888152601760209081526040808320848452909152812080548b9290610f27908490612bf6565b9091555050600088815260186020526040812080548b9290610f4a908490612bf6565b90915550506003546000898152601160205260408120549003610fc7576000610f738b87612065565b905085600f60008481526020019081526020016000206000828254610f989190612bf6565b90915550506000828152600c602052604081208054839290610fbb908490612bf6565b90915550610ffb915050565b600089815260116020526040812054610fe0908c612065565b90508060096000828254610ff49190612bf6565b9091555050505b6110306001600160a01b037f00000000000000000000000000000000000000000000000000000000000000001633308d61207b565b6110433361103e8634612be3565b6120d3565b336001600160a01b031689847fa169c4f2ed3a01cba92af71efc2549d8a0a6dc86a1f2e5ca0d66148d26225adf8d60405161108091815260200190565b60405180910390a4505050505050505061109a6001600055565b5050565b6110a6611ff8565b6040516331a9108f60e11b8152600481018390527f0000000000000000000000000000000000000000000000000000000000000000908390339081906001600160a01b03851690636352211e90602401602060405180830381865afa158015611113573d6000803e3d6000fd5b505050506040513d601f19601f820116820180604052508101906111379190612b29565b6001600160a01b03161461115d5760405162461bcd60e51b81526004016108de90612b52565b611165611a3c565b61116d611a57565b61117685611b3c565b6000858152601b60205260409020546111e15760405162461bcd60e51b815260206004820152602760248201527f444258654e46543a204e6f20776974686472617761626c652044584e2061766160448201526634b630b136329760c91b60648201526084016108de565b6000858152601160205260408120546111fa9086612065565b905084601b6000888152602001908152602001600020600082825461121f9190612be3565b909155505060008681526010602052604081208054839290611242908490612be3565b90915550506003546004540361126f5780600760008282546112649190612bf6565b909155506112969050565b60015460009081526012602052604081208054839290611290908490612be3565b90915550505b6112ca6001600160a01b037f000000000000000000000000000000000000000000000000000000000000000016338761217a565b600154604051868152339188917fe58f1bc928f89a539038781e3855b3646edb6dacfabffbc4f320f272e6bb4d6c9060200160405180910390a45050505061109a6001600055565b61131a611ff8565b6040516331a9108f60e11b8152600481018290527f0000000000000000000000000000000000000000000000000000000000000000908290339081906001600160a01b03851690636352211e90602401602060405180830381865afa158015611387573d6000803e3d6000fd5b505050506040513d601f19601f820116820180604052508101906113ab9190612b29565b6001600160a01b0316146113d15760405162461bcd60e51b81526004016108de90612b52565b6113d9611a3c565b6113e1611a57565b6113ea84611b3c565b600084815260196020526040902054806114405760405162461bcd60e51b8152602060048201526017602482015276646258454e46543a20616d6f756e74206973207a65726f60481b60448201526064016108de565b60008581526019602052604081205561145933826120d3565b600154604051828152339187917fd387de5fb65e567ab6f6d2ec34cae5e68788022d82dbd9aa7f787f0a8d1563c09060200160405180910390a4505050506114a16001600055565b50565b60007f00000000000000000000000000000000000000000000000000000000000000006114f17f000000000000000000000000000000000000000000000000000000000000000042612be3565b6114fb9190612c1f565b905090565b611508611ff8565b6040516331a9108f60e11b8152600481018290527f0000000000000000000000000000000000000000000000000000000000000000908290339081906001600160a01b03851690636352211e90602401602060405180830381865afa158015611575573d6000803e3d6000fd5b505050506040513d601f19601f820116820180604052508101906115999190612b29565b6001600160a01b0316146115bf5760405162461bcd60e51b81526004016108de90612b52565b6115c7611a3c565b6115cf611a57565b60405163443aa53360e01b8152600481018590526000907f00000000000000000000000000000000000000000000000000000000000000006001600160a01b03169063443aa53390602401602060405180830381865afa158015611637573d6000803e3d6000fd5b505050506040513d601f19601f8201168201806040525081019061165b9190612b84565b60405163111f105d60e31b8152600481018290529091506000908190819073__$15046a4eb87352c1cd8587f1d1a014d95c$__906388f882e89060240161012060405180830381865af41580156116b6573d6000803e3d6000fd5b505050506040513d601f19601f820116820180604052508101906116da9190612c41565b98505050505050509250925060008082156116fe5766038d7ea4c680009150611718565b6117088a876121aa565b9050611715818587612308565b91505b813410156117605760405162461bcd60e51b81526020600482015260156024820152745061796d656e74206c657373207468616e2066656560581b60448201526064016108de565b604051630632cd2960e31b81526000906001600160a01b037f000000000000000000000000000000000000000000000000000000000000000016906331966948906117af903390600401612af3565b6020604051808303816000875af11580156117ce573d6000803e3d6000fd5b505050506040513d601f19601f820116820180604052508101906117f29190612b84565b600154909150841561189d576000828152601160209081526040808320670de0b6b3a764000090819055601090925290912055801561184957600454611839906001612bf6565b6000838152601a60205260409020555b60035481036118835760008181526012602052604081208054670de0b6b3a76400009290611878908490612bf6565b909155506119069050565b670de0b6b3a7640000600960008282546118789190612bf6565b6118a56123a8565b6000828152600d60209081526040808320869055600e8252808320849055838352600b909152812080548592906118dd908490612bf6565b90915550508015611906576004546118f6906001612bf6565b6000838152601a60205260409020555b6000818152600a6020526040902054611920908590612bf6565b600a6000838152602001908152602001600020819055508b601c6000848152602001908152602001600020819055507f00000000000000000000000000000000000000000000000000000000000000006001600160a01b03166323b872dd33308f6040518463ffffffff1660e01b815260040161199f93929190612cbf565b600060405180830381600087803b1580156119b957600080fd5b505af11580156119cd573d6000803e3d6000fd5b505050506119e133853461103e9190612be3565b336001600160a01b0316817f351a36c9c7d284a243725ea280c7ca2b2b1b02bf301dd57d03cbc43956164e78848f88604051611a1f93929190612ce3565b60405180910390a350505050505050505050506114a16001600055565b6000611a466114a4565b90506001548111156114a157600155565b60035460015414611a7a57600454611a70906001612bf6565b6002556003546004555b600454600154118015611aae5750601360006004546001611a9b9190612bf6565b8152602001908152602001600020546000145b15611b3a57600454600090815260126020908152604080832054600a909252822054611aea906b1d6329f1c35ca4bfabb9f56160281b90612cf9565b611af49190612c1f565b600254600090815260136020526040902054909150611b14908290612bf6565b601360006004546001611b279190612bf6565b8152602081019190915260400160002055505b565b6000818152600e6020908152604080832054601190925290912054158015611b65575080600154115b15611bcb576000828152600d60209081526040808320548484526014835281842054600b909352922054611b9a929190611f08565b6000838152601160209081526040808320849055601090915281208054909190611bc5908490612bf6565b90915550505b60045460015481108015611bf75750611be5816001612bf6565b6000848152601a602052604090205414155b15611ddc576000838152601a602090815260408083205483526013918290528220546b1d6329f1c35ca4bfabb9f56160281b92909190611c38856001612bf6565b815260200190815260200160002054611c519190612be3565b600085815260106020526040902054611c6a9190612cf9565b611c749190612c1f565b60008481526019602052604081208054909190611c92908490612bf6565b90915550506000838152601860205260409020548015611dc057600084815260156020526040812054611cc790600190612be3565b60008681526011602052604081205491925090611ce49084612065565b9050818414158015611cf857508360035414155b15611d8d576b1d6329f1c35ca4bfabb9f56160281b60136000611d1c856001612bf6565b81526020019081526020016000205460136000876001611d3c9190612bf6565b815260200190815260200160002054611d559190612be3565b611d5f9083612cf9565b611d699190612c1f565b60008781526019602052604081208054909190611d87908490612bf6565b90915550505b6000868152601860209081526040808320839055601090915281208054839290611db8908490612bf6565b909155505050505b611dcb826001612bf6565b6000858152601a6020526040902055505b6000838152601560205260409020548015801590611dfb575080600154115b15611f02576000848152601760209081526040808320848452825280832054878452601b9092528220805491928392611e35908490612bf6565b9091555050600085815260176020908152604080832085845282528083208390558783526015825280832083905560169091529020548015611eff57806001541115611ee2576000868152601760209081526040808320848452825280832054898452601b9092528220805491928392611eb0908490612bf6565b909155505050600086815260176020908152604080832084845282528083208390558883526016909152812055611eff565b600086815260156020908152604080832084905560169091528120555b50505b50505050565b6000808060001985870985870292508281108382030391505080600003611f4257838281611f3857611f38612c09565b0492505050611ff1565b808411611f895760405162461bcd60e51b81526020600482015260156024820152744d6174683a206d756c446976206f766572666c6f7760581b60448201526064016108de565b600084868809851960019081018716968790049682860381900495909211909303600082900391909104909201919091029190911760038402600290811880860282030280860282030280860282030280860282030280860282030280860290910302029150505b9392505050565b60026000540361204a5760405162461bcd60e51b815260206004820152601f60248201527f5265656e7472616e637947756172643a207265656e7472616e742063616c6c0060448201526064016108de565b6002600055565b600061205f6103e883612c1f565b92915050565b6000611ff1838368056bc75e2d63100000611f08565b611f02846323b872dd60e01b85858560405160240161209c93929190612cbf565b60408051601f198184030181529190526020810180516001600160e01b03166001600160e01b0319909316929092179091526125c7565b6000826001600160a01b03168260405160006040518083038185875af1925050503d8060008114612120576040519150601f19603f3d011682016040523d82523d6000602084013e612125565b606091505b50509050806121755760405162461bcd60e51b815260206004820152601c60248201527b111096195b8e8819985a5b1959081d1bc81cd95b9908185b5bdd5b9d60221b60448201526064016108de565b505050565b6040516001600160a01b03831660248201526044810182905261217590849063a9059cbb60e01b9060640161209c565b60405163a1a53fa160e01b81526004810183905260009081906001600160a01b037f0000000000000000000000000000000000000000000000000000000000000000169063a1a53fa190602401602060405180830381865afa158015612214573d6000803e3d6000fd5b505050506040513d601f19601f820116820180604052508101906122389190612b84565b905060008060008060008773__$15046a4eb87352c1cd8587f1d1a014d95c$__6388f882e890916040518263ffffffff1660e01b815260040161227d91815260200190565b61012060405180830381865af415801561229b573d6000803e3d6000fd5b505050506040513d601f19601f820116820180604052508101906122bf9190612c41565b505050509450945094509450945060006122dc848787868661269c565b90506122e88782612cf9565b6122fa90670de0b6b3a7640000612cf9565b9a9950505050505050505050565b600080612315838561283c565b905060006123248260006128c7565b9050600061233482612c7d612cf9565b9050600061234582624c4b406128dd565b905060006123568262989680612be3565b9050600061236782624c4b406128c7565b905060006123798b8362989680611f08565b905061239966038d7ea4c68000612394633b9aca0084612c1f565b6128c7565b9b9a5050505050505050505050565b60015460008181526014602052604081205490036114a15760055460068190556000906123d790606490612c1f565b6006546123e49190612bf6565b6005819055600083815260146020526040902081905560085490915015612431576008546000838152600a602052604081208054909190612426908490612bf6565b909155505060006008555b6004546000818152600f6020526040902054156124c8576000818152600f6020908152604080832054600654600b909352908320546124709290611f08565b6000838152600c6020908152604080832054600f909252822054929350909161249b91908490611f08565b9050806012600087815260200190815260200160002060008282546124c09190612bf6565b909155505050505b600954156124fc57600954600084815260126020526040812080549091906124f1908490612bf6565b909155505060006009555b600383905560008181526012602052604090205461251b908390612bf6565b60008481526012602052604081208054909190612539908490612bf6565b9091555050600754156125725760075460008481526012602052604081208054909190612567908490612be3565b909155505060006007555b7f0666a61c1092f5b86c2cfe6ea1ad0d9a36032c4fb92d285b4e43f662d48f19b46001548360126000878152602001908152602001600020546040516125ba93929190612ce3565b60405180910390a1505050565b600061261c826040518060400160405280602081526020017f5361666545524332303a206c6f772d6c6576656c2063616c6c206661696c6564815250856001600160a01b03166128ec9092919063ffffffff16565b905080516000148061263d57508080602001905181019061263d9190612bb2565b6121755760405162461bcd60e51b815260206004820152602a60248201527f5361666545524332303a204552433230206f7065726174696f6e20646964206e6044820152691bdd081cdd58d8d9595960b21b60648201526084016108de565b600080844211156126c25760006126b38642612be3565b90506126be81612903565b9150505b6000877f00000000000000000000000000000000000000000000000000000000000000006001600160a01b0316631c2440826040518163ffffffff1660e01b8152600401602060405180830381865afa158015612723573d6000803e3d6000fd5b505050506040513d601f19601f820116820180604052508101906127479190612b84565b6127519190612be3565b9050600060028211612764576002612766565b815b90506000612776866103e8612bf6565b60405163587e8fe160e11b81526004810184905260248101899052604481018b9052606481018290529091506000906001600160a01b037f0000000000000000000000000000000000000000000000000000000000000000169063b0fd1fc290608401602060405180830381865afa1580156127f6573d6000803e3d6000fd5b505050506040513d601f19601f8201168201806040525081019061281a9190612b84565b905060646128288682612be3565b6128329083612cf9565b6123999190612c1f565b60008060008342101561287457620151806128574286612be3565b6128619190612c1f565b915061286d8286612be3565b90506128aa565b60009150620151806128868542612be3565b6128936201518088612cf9565b61289d9190612bf6565b6128a79190612c1f565b90505b818111156128bf576128bc8282612be3565b92505b505092915050565b60008183116128d65781611ff1565b5090919050565b60008183106128d65781611ff1565b60606128fb8484600085612961565b949350505050565b6000806129136201518084612c1f565b905060068111156129275750606392915050565b600060016007612938846003612bf6565b6001901b6129469190612c1f565b6129509190612be3565b905060638110611ff15760636128fb565b6060824710156129c25760405162461bcd60e51b815260206004820152602660248201527f416464726573733a20696e73756666696369656e742062616c616e636520666f6044820152651c8818d85b1b60d21b60648201526084016108de565b600080866001600160a01b031685876040516129de9190612d34565b60006040518083038185875af1925050503d8060008114612a1b576040519150601f19603f3d011682016040523d82523d6000602084013e612a20565b606091505b5091509150612a3187838387612a3c565b979650505050505050565b60608315612aab578251600003612aa4576001600160a01b0385163b612aa45760405162461bcd60e51b815260206004820152601d60248201527f416464726573733a2063616c6c20746f206e6f6e2d636f6e747261637400000060448201526064016108de565b50816128fb565b6128fb8383815115612ac05781518083602001fd5b8060405162461bcd60e51b81526004016108de9190612d50565b600060208284031215612aec57600080fd5b5035919050565b6001600160a01b0391909116815260200190565b60008060408385031215612b1a57600080fd5b50508035926020909101359150565b600060208284031215612b3b57600080fd5b81516001600160a01b0381168114611ff157600080fd5b602080825260189082015277596f7520646f206e6f74206f776e2074686973204e46542160401b604082015260600190565b600060208284031215612b9657600080fd5b5051919050565b80518015158114612bad57600080fd5b919050565b600060208284031215612bc457600080fd5b611ff182612b9d565b634e487b7160e01b600052601160045260246000fd5b8181038181111561205f5761205f612bcd565b8082018082111561205f5761205f612bcd565b634e487b7160e01b600052601260045260246000fd5b600082612c3c57634e487b7160e01b600052601260045260246000fd5b500490565b60008060008060008060008060006101208a8c031215612c6057600080fd5b8951985060208a0151975060408a0151965060608a0151955060808a0151945060a08a01519350612c9360c08b01612b9d565b9250612ca160e08b01612b9d565b9150612cb06101008b01612b9d565b90509295985092959850929598565b6001600160a01b039384168152919092166020820152604081019190915260600190565b9283526020830191909152604082015260600190565b808202811582820484141761205f5761205f612bcd565b60005b83811015612d2b578181015183820152602001612d13565b50506000910152565b60008251612d46818460208701612d10565b9190910192915050565b6020815260008251806020840152612d6f816040850160208701612d10565b601f01601f1916919091016040019291505056fea2646970667358221220b3af1bdbffc53d656a48aa31ab10a0dfba58340311f89f0d2decc80a4c150ebb64736f6c6343000812003360a06040523480156200001157600080fd5b506040518060400160405280600981526020016811109611538813919560ba1b815250604051806040016040528060078152602001661110961153919560ca1b815250816000908162000065919062000126565b50600162000074828262000126565b50503360805250620001f2565b634e487b7160e01b600052604160045260246000fd5b600181811c90821680620000ac57607f821691505b602082108103620000cd57634e487b7160e01b600052602260045260246000fd5b50919050565b601f8211156200012157600081815260208120601f850160051c81016020861015620000fc5750805b601f850160051c820191505b818110156200011d5782815560010162000108565b5050505b505050565b81516001600160401b0381111562000142576200014262000081565b6200015a8162000153845462000097565b84620000d3565b602080601f831160018114620001925760008415620001795750858301515b600019600386901b1c1916600185901b1785556200011d565b600085815260208120601f198616915b82811015620001c357888601518255948401946001909101908401620001a2565b5085821015620001e25787850151600019600388901b60f8161c191681555b5050505050600190811b01905550565b60805161135262000215600039600081816101e7015261049201526113526000f3fe608060405234801561001057600080fd5b50600436106100c55760003560e01c806301ffc9a7146100ca57806306fdde03146100f2578063081812fc14610107578063095ea7b31461013257806323b872dd14610147578063319669481461015a57806342842e0e1461017b5780636352211e1461018e57806370a08231146101a157806395d89b41146101b4578063a22cb465146101bc578063b88d4fde146101cf578063c45a0155146101e2578063c87b56dd14610209578063e985e9c51461021c575b600080fd5b6100dd6100d8366004610e30565b61022f565b60405190151581526020015b60405180910390f35b6100fa610281565b6040516100e99190610e9d565b61011a610115366004610eb0565b610313565b6040516001600160a01b0390911681526020016100e9565b610145610140366004610ee5565b61033a565b005b610145610155366004610f0f565b610454565b61016d610168366004610f4b565b610485565b6040519081526020016100e9565b610145610189366004610f0f565b610520565b61011a61019c366004610eb0565b61053b565b61016d6101af366004610f4b565b61056f565b6100fa6105f5565b6101456101ca366004610f66565b610604565b6101456101dd366004610fb8565b610613565b61011a7f000000000000000000000000000000000000000000000000000000000000000081565b6100fa610217366004610eb0565b61064b565b6100dd61022a366004611093565b6106bf565b60006001600160e01b031982166380ac58cd60e01b148061026057506001600160e01b03198216635b5e139f60e01b145b8061027b57506301ffc9a760e01b6001600160e01b03198316145b92915050565b606060008054610290906110c6565b80601f01602080910402602001604051908101604052809291908181526020018280546102bc906110c6565b80156103095780601f106102de57610100808354040283529160200191610309565b820191906000526020600020905b8154815290600101906020018083116102ec57829003601f168201915b5050505050905090565b600061031e826106ed565b506000908152600460205260409020546001600160a01b031690565b60006103458261053b565b9050806001600160a01b0316836001600160a01b0316036103b75760405162461bcd60e51b815260206004820152602160248201527f4552433732313a20617070726f76616c20746f2063757272656e74206f776e656044820152603960f91b60648201526084015b60405180910390fd5b336001600160a01b03821614806103d357506103d381336106bf565b6104455760405162461bcd60e51b815260206004820152603d60248201527f4552433732313a20617070726f76652063616c6c6572206973206e6f7420746f60448201527f6b656e206f776e6572206f7220617070726f76656420666f7220616c6c00000060648201526084016103ae565b61044f8383610715565b505050565b61045e3382610783565b61047a5760405162461bcd60e51b81526004016103ae90611100565b61044f8383836107e2565b6000336001600160a01b037f000000000000000000000000000000000000000000000000000000000000000016146104f75760405162461bcd60e51b815260206004820152601560248201527413db9b1e48199858dd1bdc9e4818d85b881b5a5b9d605a1b60448201526064016103ae565b61050382600654610934565b506006805490819060006105168361114d565b9190505550919050565b61044f83838360405180602001604052806000815250610613565b6000806105478361094e565b90506001600160a01b03811661027b5760405162461bcd60e51b81526004016103ae90611174565b60006001600160a01b0382166105d95760405162461bcd60e51b815260206004820152602960248201527f4552433732313a2061646472657373207a65726f206973206e6f7420612076616044820152683634b21037bbb732b960b91b60648201526084016103ae565b506001600160a01b031660009081526003602052604090205490565b606060018054610290906110c6565b61060f338383610969565b5050565b61061d3383610783565b6106395760405162461bcd60e51b81526004016103ae90611100565b61064584848484610a33565b50505050565b6060610656826106ed565b600061066d60408051602081019091526000815290565b9050600081511161068d57604051806020016040528060008152506106b8565b8061069784610a66565b6040516020016106a89291906111a6565b6040516020818303038152906040525b9392505050565b6001600160a01b03918216600090815260056020908152604080832093909416825291909152205460ff1690565b6106f681610af8565b6107125760405162461bcd60e51b81526004016103ae90611174565b50565b600081815260046020526040902080546001600160a01b0319166001600160a01b038416908117909155819061074a8261053b565b6001600160a01b03167f8c5be1e5ebec7d5bd14f71427d1e84f3dd0314c0f7b2291e5b200ac8c7c3b92560405160405180910390a45050565b60008061078f8361053b565b9050806001600160a01b0316846001600160a01b031614806107b657506107b681856106bf565b806107da5750836001600160a01b03166107cf84610313565b6001600160a01b0316145b949350505050565b826001600160a01b03166107f58261053b565b6001600160a01b03161461081b5760405162461bcd60e51b81526004016103ae906111d5565b6001600160a01b03821661087d5760405162461bcd60e51b8152602060048201526024808201527f4552433732313a207472616e7366657220746f20746865207a65726f206164646044820152637265737360e01b60648201526084016103ae565b826001600160a01b03166108908261053b565b6001600160a01b0316146108b65760405162461bcd60e51b81526004016103ae906111d5565b600081815260046020908152604080832080546001600160a01b03199081169091556001600160a01b0387811680865260038552838620805460001901905590871680865283862080546001019055868652600290945282852080549092168417909155905184936000805160206112fd83398151915291a4505050565b61060f828260405180602001604052806000815250610b15565b6000908152600260205260409020546001600160a01b031690565b816001600160a01b0316836001600160a01b0316036109c65760405162461bcd60e51b815260206004820152601960248201527822a9219b99189d1030b8383937bb32903a379031b0b63632b960391b60448201526064016103ae565b6001600160a01b03838116600081815260056020908152604080832094871680845294825291829020805460ff191686151590811790915591519182527f17307eab39ab6107e8899845ad3d59bd9653f200f220920489ca2b5937696c31910160405180910390a3505050565b610a3e8484846107e2565b610a4a84848484610b48565b6106455760405162461bcd60e51b81526004016103ae9061121a565b60606000610a7383610c49565b60010190506000816001600160401b03811115610a9257610a92610fa2565b6040519080825280601f01601f191660200182016040528015610abc576020820181803683370190505b5090508181016020015b600019016f181899199a1a9b1b9c1cb0b131b232b360811b600a86061a8153600a8504945084610ac657509392505050565b600080610b048361094e565b6001600160a01b0316141592915050565b610b1f8383610d1f565b610b2c6000848484610b48565b61044f5760405162461bcd60e51b81526004016103ae9061121a565b60006001600160a01b0384163b15610c3e57604051630a85bd0160e11b81526001600160a01b0385169063150b7a0290610b8c90339089908890889060040161126c565b6020604051808303816000875af1925050508015610bc7575060408051601f3d908101601f19168201909252610bc4918101906112a9565b60015b610c24573d808015610bf5576040519150601f19603f3d011682016040523d82523d6000602084013e610bfa565b606091505b508051600003610c1c5760405162461bcd60e51b81526004016103ae9061121a565b805181602001fd5b6001600160e01b031916630a85bd0160e11b1490506107da565b506001949350505050565b60008072184f03e93ff9f4daa797ed6e38ed64bf6a1f0160401b8310610c885772184f03e93ff9f4daa797ed6e38ed64bf6a1f0160401b830492506040015b6904ee2d6d415b85acef8160201b8310610cb2576904ee2d6d415b85acef8160201b830492506020015b662386f26fc100008310610cd057662386f26fc10000830492506010015b6305f5e1008310610ce8576305f5e100830492506008015b6127108310610cfc57612710830492506004015b60648310610d0e576064830492506002015b600a831061027b5760010192915050565b6001600160a01b038216610d755760405162461bcd60e51b815260206004820181905260248201527f4552433732313a206d696e7420746f20746865207a65726f206164647265737360448201526064016103ae565b610d7e81610af8565b15610d9b5760405162461bcd60e51b81526004016103ae906112c6565b610da481610af8565b15610dc15760405162461bcd60e51b81526004016103ae906112c6565b6001600160a01b038216600081815260036020908152604080832080546001019055848352600290915280822080546001600160a01b0319168417905551839291906000805160206112fd833981519152908290a45050565b6001600160e01b03198116811461071257600080fd5b600060208284031215610e4257600080fd5b81356106b881610e1a565b60005b83811015610e68578181015183820152602001610e50565b50506000910152565b60008151808452610e89816020860160208601610e4d565b601f01601f19169290920160200192915050565b6020815260006106b86020830184610e71565b600060208284031215610ec257600080fd5b5035919050565b80356001600160a01b0381168114610ee057600080fd5b919050565b60008060408385031215610ef857600080fd5b610f0183610ec9565b946020939093013593505050565b600080600060608486031215610f2457600080fd5b610f2d84610ec9565b9250610f3b60208501610ec9565b9150604084013590509250925092565b600060208284031215610f5d57600080fd5b6106b882610ec9565b60008060408385031215610f7957600080fd5b610f8283610ec9565b915060208301358015158114610f9757600080fd5b809150509250929050565b634e487b7160e01b600052604160045260246000fd5b60008060008060808587031215610fce57600080fd5b610fd785610ec9565b9350610fe560208601610ec9565b92506040850135915060608501356001600160401b038082111561100857600080fd5b818701915087601f83011261101c57600080fd5b81358181111561102e5761102e610fa2565b604051601f8201601f19908116603f0116810190838211818310171561105657611056610fa2565b816040528281528a602084870101111561106f57600080fd5b82602086016020830137600060208483010152809550505050505092959194509250565b600080604083850312156110a657600080fd5b6110af83610ec9565b91506110bd60208401610ec9565b90509250929050565b600181811c908216806110da57607f821691505b6020821081036110fa57634e487b7160e01b600052602260045260246000fd5b50919050565b6020808252602d908201527f4552433732313a2063616c6c6572206973206e6f7420746f6b656e206f776e6560408201526c1c881bdc88185c1c1c9bdd9959609a1b606082015260800190565b60006001820161116d57634e487b7160e01b600052601160045260246000fd5b5060010190565b602080825260189082015277115490cdcc8c4e881a5b9d985b1a59081d1bdad95b88125160421b604082015260600190565b600083516111b8818460208801610e4d565b8351908301906111cc818360208801610e4d565b01949350505050565b60208082526025908201527f4552433732313a207472616e736665722066726f6d20696e636f72726563742060408201526437bbb732b960d91b606082015260800190565b60208082526032908201527f4552433732313a207472616e7366657220746f206e6f6e20455243373231526560408201527131b2b4bb32b91034b6b83632b6b2b73a32b960711b606082015260800190565b6001600160a01b038581168252841660208201526040810183905260806060820181905260009061129f90830184610e71565b9695505050505050565b6000602082840312156112bb57600080fd5b81516106b881610e1a565b6020808252601c908201527b115490cdcc8c4e881d1bdad95b88185b1c9958591e481b5a5b9d195960221b60408201526060019056feddf252ad1be2c89b69c2b068fc378daa952ba7f163c4a11628f55a4df523b3efa2646970667358221220bd60c86c7908b3936ae39d620263e7dfeeefccb1a7661885bfb6cca683123d1d64736f6c63430008120033",
  "linkReferences": {
    "contracts/libs/MintInfo.sol": {
      "MintInfo": [
        {
          "length": 20,
          "start": 3056
        },
        {
          "length": 20,
          "start": 6327
        },
        {
          "length": 20,
          "start": 9345
        }
      ]
    }
  },
  "deployedLinkReferences": {
    "contracts/libs/MintInfo.sol": {
      "MintInfo": [
        {
          "length": 20,
          "start": 2484
        },
        {
          "length": 20,
          "start": 5755
        },
        {
          "length": 20,
          "start": 8773
        }
      ]
    }
  }
}