{
    "_format": "hh-sol-artifact-1",
    "contractName": "DBXENFT",
    "sourceName": "contracts/DBXENFT.sol",
    "abi": [
        {
            "inputs": [],
            "stateMutability": "nonpayable",
            "type": "constructor"
        },
        {
            "inputs": [
                {
                    "internalType": "address",
                    "name": "operator",
                    "type": "address"
                }
            ],
            "name": "OperatorNotAllowed",
            "type": "error"
        },
        {
            "anonymous": false,
            "inputs": [
                {
                    "indexed": true,
                    "internalType": "address",
                    "name": "owner",
                    "type": "address"
                },
                {
                    "indexed": true,
                    "internalType": "address",
                    "name": "approved",
                    "type": "address"
                },
                {
                    "indexed": true,
                    "internalType": "uint256",
                    "name": "tokenId",
                    "type": "uint256"
                }
            ],
            "name": "Approval",
            "type": "event"
        },
        {
            "anonymous": false,
            "inputs": [
                {
                    "indexed": true,
                    "internalType": "address",
                    "name": "owner",
                    "type": "address"
                },
                {
                    "indexed": true,
                    "internalType": "address",
                    "name": "operator",
                    "type": "address"
                },
                {
                    "indexed": false,
                    "internalType": "bool",
                    "name": "approved",
                    "type": "bool"
                }
            ],
            "name": "ApprovalForAll",
            "type": "event"
        },
        {
            "anonymous": false,
            "inputs": [
                {
                    "indexed": true,
                    "internalType": "bytes32",
                    "name": "role",
                    "type": "bytes32"
                },
                {
                    "indexed": true,
                    "internalType": "bytes32",
                    "name": "previousAdminRole",
                    "type": "bytes32"
                },
                {
                    "indexed": true,
                    "internalType": "bytes32",
                    "name": "newAdminRole",
                    "type": "bytes32"
                }
            ],
            "name": "RoleAdminChanged",
            "type": "event"
        },
        {
            "anonymous": false,
            "inputs": [
                {
                    "indexed": true,
                    "internalType": "bytes32",
                    "name": "role",
                    "type": "bytes32"
                },
                {
                    "indexed": true,
                    "internalType": "address",
                    "name": "account",
                    "type": "address"
                },
                {
                    "indexed": true,
                    "internalType": "address",
                    "name": "sender",
                    "type": "address"
                }
            ],
            "name": "RoleGranted",
            "type": "event"
        },
        {
            "anonymous": false,
            "inputs": [
                {
                    "indexed": true,
                    "internalType": "bytes32",
                    "name": "role",
                    "type": "bytes32"
                },
                {
                    "indexed": true,
                    "internalType": "address",
                    "name": "account",
                    "type": "address"
                },
                {
                    "indexed": true,
                    "internalType": "address",
                    "name": "sender",
                    "type": "address"
                }
            ],
            "name": "RoleRevoked",
            "type": "event"
        },
        {
            "anonymous": false,
            "inputs": [
                {
                    "indexed": true,
                    "internalType": "address",
                    "name": "from",
                    "type": "address"
                },
                {
                    "indexed": true,
                    "internalType": "address",
                    "name": "to",
                    "type": "address"
                },
                {
                    "indexed": true,
                    "internalType": "uint256",
                    "name": "tokenId",
                    "type": "uint256"
                }
            ],
            "name": "Transfer",
            "type": "event"
        },
        {
            "inputs": [],
            "name": "ADMIN_ADDRESS",
            "outputs": [
                {
                    "internalType": "address",
                    "name": "",
                    "type": "address"
                }
            ],
            "stateMutability": "view",
            "type": "function"
        },
        {
            "inputs": [],
            "name": "DEFAULT_ADMIN_ROLE",
            "outputs": [
                {
                    "internalType": "bytes32",
                    "name": "",
                    "type": "bytes32"
                }
            ],
            "stateMutability": "view",
            "type": "function"
        },
        {
            "inputs": [],
            "name": "OPERATOR_FILTER_REGISTRY",
            "outputs": [
                {
                    "internalType": "contract IOperatorFilterRegistry",
                    "name": "",
                    "type": "address"
                }
            ],
            "stateMutability": "view",
            "type": "function"
        },
        {
            "inputs": [
                {
                    "internalType": "address",
                    "name": "operator",
                    "type": "address"
                },
                {
                    "internalType": "uint256",
                    "name": "tokenId",
                    "type": "uint256"
                }
            ],
            "name": "approve",
            "outputs": [],
            "stateMutability": "nonpayable",
            "type": "function"
        },
        {
            "inputs": [
                {
                    "internalType": "address",
                    "name": "owner",
                    "type": "address"
                }
            ],
            "name": "balanceOf",
            "outputs": [
                {
                    "internalType": "uint256",
                    "name": "",
                    "type": "uint256"
                }
            ],
            "stateMutability": "view",
            "type": "function"
        },
        {
            "inputs": [],
            "name": "baseExtension",
            "outputs": [
                {
                    "internalType": "string",
                    "name": "",
                    "type": "string"
                }
            ],
            "stateMutability": "view",
            "type": "function"
        },
        {
            "inputs": [],
            "name": "baseURI",
            "outputs": [
                {
                    "internalType": "string",
                    "name": "",
                    "type": "string"
                }
            ],
            "stateMutability": "view",
            "type": "function"
        },
        {
            "inputs": [
                {
                    "internalType": "uint256",
                    "name": "tokenId",
                    "type": "uint256"
                }
            ],
            "name": "burn",
            "outputs": [],
            "stateMutability": "nonpayable",
            "type": "function"
        },
        {
            "inputs": [],
            "name": "factory",
            "outputs": [
                {
                    "internalType": "address",
                    "name": "",
                    "type": "address"
                }
            ],
            "stateMutability": "view",
            "type": "function"
        },
        {
            "inputs": [
                {
                    "internalType": "uint256",
                    "name": "tokenId",
                    "type": "uint256"
                }
            ],
            "name": "getApproved",
            "outputs": [
                {
                    "internalType": "address",
                    "name": "",
                    "type": "address"
                }
            ],
            "stateMutability": "view",
            "type": "function"
        },
        {
            "inputs": [
                {
                    "internalType": "bytes32",
                    "name": "role",
                    "type": "bytes32"
                }
            ],
            "name": "getRoleAdmin",
            "outputs": [
                {
                    "internalType": "bytes32",
                    "name": "",
                    "type": "bytes32"
                }
            ],
            "stateMutability": "view",
            "type": "function"
        },
        {
            "inputs": [
                {
                    "internalType": "bytes32",
                    "name": "role",
                    "type": "bytes32"
                },
                {
                    "internalType": "address",
                    "name": "account",
                    "type": "address"
                }
            ],
            "name": "grantRole",
            "outputs": [],
            "stateMutability": "nonpayable",
            "type": "function"
        },
        {
            "inputs": [
                {
                    "internalType": "bytes32",
                    "name": "role",
                    "type": "bytes32"
                },
                {
                    "internalType": "address",
                    "name": "account",
                    "type": "address"
                }
            ],
            "name": "hasRole",
            "outputs": [
                {
                    "internalType": "bool",
                    "name": "",
                    "type": "bool"
                }
            ],
            "stateMutability": "view",
            "type": "function"
        },
        {
            "inputs": [
                {
                    "internalType": "address",
                    "name": "owner",
                    "type": "address"
                },
                {
                    "internalType": "address",
                    "name": "operator",
                    "type": "address"
                }
            ],
            "name": "isApprovedForAll",
            "outputs": [
                {
                    "internalType": "bool",
                    "name": "",
                    "type": "bool"
                }
            ],
            "stateMutability": "view",
            "type": "function"
        },
        {
            "inputs": [
                {
                    "internalType": "address",
                    "name": "_to",
                    "type": "address"
                }
            ],
            "name": "mintDBXENFT",
            "outputs": [
                {
                    "internalType": "uint256",
                    "name": "tokenId",
                    "type": "uint256"
                }
            ],
            "stateMutability": "nonpayable",
            "type": "function"
        },
        {
            "inputs": [],
            "name": "name",
            "outputs": [
                {
                    "internalType": "string",
                    "name": "",
                    "type": "string"
                }
            ],
            "stateMutability": "view",
            "type": "function"
        },
        {
            "inputs": [
                {
                    "internalType": "uint256",
                    "name": "tokenId",
                    "type": "uint256"
                }
            ],
            "name": "ownerOf",
            "outputs": [
                {
                    "internalType": "address",
                    "name": "",
                    "type": "address"
                }
            ],
            "stateMutability": "view",
            "type": "function"
        },
        {
            "inputs": [
                {
                    "internalType": "bytes32",
                    "name": "role",
                    "type": "bytes32"
                },
                {
                    "internalType": "address",
                    "name": "account",
                    "type": "address"
                }
            ],
            "name": "renounceRole",
            "outputs": [],
            "stateMutability": "nonpayable",
            "type": "function"
        },
        {
            "inputs": [
                {
                    "internalType": "bytes32",
                    "name": "role",
                    "type": "bytes32"
                },
                {
                    "internalType": "address",
                    "name": "account",
                    "type": "address"
                }
            ],
            "name": "revokeRole",
            "outputs": [],
            "stateMutability": "nonpayable",
            "type": "function"
        },
        {
            "inputs": [
                {
                    "internalType": "address",
                    "name": "from",
                    "type": "address"
                },
                {
                    "internalType": "address",
                    "name": "to",
                    "type": "address"
                },
                {
                    "internalType": "uint256",
                    "name": "tokenId",
                    "type": "uint256"
                }
            ],
            "name": "safeTransferFrom",
            "outputs": [],
            "stateMutability": "nonpayable",
            "type": "function"
        },
        {
            "inputs": [
                {
                    "internalType": "address",
                    "name": "from",
                    "type": "address"
                },
                {
                    "internalType": "address",
                    "name": "to",
                    "type": "address"
                },
                {
                    "internalType": "uint256",
                    "name": "tokenId",
                    "type": "uint256"
                },
                {
                    "internalType": "bytes",
                    "name": "data",
                    "type": "bytes"
                }
            ],
            "name": "safeTransferFrom",
            "outputs": [],
            "stateMutability": "nonpayable",
            "type": "function"
        },
        {
            "inputs": [
                {
                    "internalType": "address",
                    "name": "_newAdminAddress",
                    "type": "address"
                }
            ],
            "name": "setAdminAddress",
            "outputs": [],
            "stateMutability": "nonpayable",
            "type": "function"
        },
        {
            "inputs": [
                {
                    "internalType": "address",
                    "name": "operator",
                    "type": "address"
                },
                {
                    "internalType": "bool",
                    "name": "approved",
                    "type": "bool"
                }
            ],
            "name": "setApprovalForAll",
            "outputs": [],
            "stateMutability": "nonpayable",
            "type": "function"
        },
        {
            "inputs": [
                {
                    "internalType": "string",
                    "name": "_newBaseExtension",
                    "type": "string"
                }
            ],
            "name": "setBaseExtension",
            "outputs": [],
            "stateMutability": "nonpayable",
            "type": "function"
        },
        {
            "inputs": [
                {
                    "internalType": "string",
                    "name": "uri",
                    "type": "string"
                }
            ],
            "name": "setBasedURI",
            "outputs": [],
            "stateMutability": "nonpayable",
            "type": "function"
        },
        {
            "inputs": [
                {
                    "internalType": "bytes4",
                    "name": "interfaceId",
                    "type": "bytes4"
                }
            ],
            "name": "supportsInterface",
            "outputs": [
                {
                    "internalType": "bool",
                    "name": "",
                    "type": "bool"
                }
            ],
            "stateMutability": "view",
            "type": "function"
        },
        {
            "inputs": [],
            "name": "symbol",
            "outputs": [
                {
                    "internalType": "string",
                    "name": "",
                    "type": "string"
                }
            ],
            "stateMutability": "view",
            "type": "function"
        },
        {
            "inputs": [
                {
                    "internalType": "uint256",
                    "name": "index",
                    "type": "uint256"
                }
            ],
            "name": "tokenByIndex",
            "outputs": [
                {
                    "internalType": "uint256",
                    "name": "",
                    "type": "uint256"
                }
            ],
            "stateMutability": "view",
            "type": "function"
        },
        {
            "inputs": [
                {
                    "internalType": "address",
                    "name": "owner",
                    "type": "address"
                },
                {
                    "internalType": "uint256",
                    "name": "index",
                    "type": "uint256"
                }
            ],
            "name": "tokenOfOwnerByIndex",
            "outputs": [
                {
                    "internalType": "uint256",
                    "name": "",
                    "type": "uint256"
                }
            ],
            "stateMutability": "view",
            "type": "function"
        },
        {
            "inputs": [
                {
                    "internalType": "uint256",
                    "name": "tokenId",
                    "type": "uint256"
                }
            ],
            "name": "tokenURI",
            "outputs": [
                {
                    "internalType": "string",
                    "name": "",
                    "type": "string"
                }
            ],
            "stateMutability": "view",
            "type": "function"
        },
        {
            "inputs": [],
            "name": "totalSupply",
            "outputs": [
                {
                    "internalType": "uint256",
                    "name": "",
                    "type": "uint256"
                }
            ],
            "stateMutability": "view",
            "type": "function"
        },
        {
            "inputs": [
                {
                    "internalType": "address",
                    "name": "from",
                    "type": "address"
                },
                {
                    "internalType": "address",
                    "name": "to",
                    "type": "address"
                },
                {
                    "internalType": "uint256",
                    "name": "tokenId",
                    "type": "uint256"
                }
            ],
            "name": "transferFrom",
            "outputs": [],
            "stateMutability": "nonpayable",
            "type": "function"
        },
        {
            "inputs": [
                {
                    "internalType": "address",
                    "name": "_owner",
                    "type": "address"
                }
            ],
            "name": "walletOfOwner",
            "outputs": [
                {
                    "internalType": "uint256[]",
                    "name": "",
                    "type": "uint256[]"
                }
            ],
            "stateMutability": "view",
            "type": "function"
        }
    ],
    "bytecode": "0x6001600c55600d80546001600160a01b03191673a907b9ad914be4e2e0ad5b5fecd3c6cad959ee5a17905560e0604052600560a090815264173539b7b760d91b60c052600f90620000519082620002c4565b503480156200005f57600080fd5b50733cc6cdda760b79bafa08df41ecfa224f810dceb660016040518060400160405280600981526020016811109611538813919560ba1b815250604051806040016040528060078152602001661110961153919560ca1b8152508160009081620000ca9190620002c4565b506001620000d98282620002c4565b50506001600b55506daaeb6d7670e522a718067333cd4e3b15620002135780156200016d57604051633e9f1edf60e11b81526daaeb6d7670e522a718067333cd4e90637d3e3dbe9062000133903090869060040162000390565b600060405180830381600087803b1580156200014e57600080fd5b505af115801562000163573d6000803e3d6000fd5b5050505062000213565b6001600160a01b03821615620001b25760405163a0af290360e01b81526daaeb6d7670e522a718067333cd4e9063a0af29039062000133903090869060040162000390565b604051632210724360e11b81523060048201526daaeb6d7670e522a718067333cd4e90634420e48690602401600060405180830381600087803b158015620001f957600080fd5b505af11580156200020e573d6000803e3d6000fd5b505050505b505033608052620003aa565b634e487b7160e01b600052604160045260246000fd5b600181811c908216806200024a57607f821691505b6020821081036200026b57634e487b7160e01b600052602260045260246000fd5b50919050565b601f821115620002bf57600081815260208120601f850160051c810160208610156200029a5750805b601f850160051c820191505b81811015620002bb57828155600101620002a6565b5050505b505050565b81516001600160401b03811115620002e057620002e06200021f565b620002f881620002f1845462000235565b8462000271565b602080601f831160018114620003305760008415620003175750858301515b600019600386901b1c1916600185901b178555620002bb565b600085815260208120601f198616915b82811015620003615788860151825594840194600190910190840162000340565b5085821015620003805787850151600019600388901b60f8161c191681555b5050505050600190811b01905550565b6001600160a01b0392831681529116602082015260400190565b6080516126aa620003cd60003960008181610383015261069c01526126aa6000f3fe608060405234801561001057600080fd5b506004361061018b5760003560e01c806301ffc9a71461019057806306fdde03146101b8578063081812fc146101cd578063095ea7b3146101ed57806318160ddd1461020257806323b872dd14610214578063248a9ca3146102275780632c1e816d1461023a5780632f2ff15d1461024d5780632f745c5914610260578063319669481461027357806336568abe1461028657806341f434341461029957806342842e0e146102ae57806342966c68146102c1578063438b6300146102d45780634f6ccce7146102f45780636352211e146103075780636c0360eb1461031a57806370a082311461032257806391d148541461033557806395d89b4114610348578063a217fddf14610350578063a22cb46514610358578063b88d4fde1461036b578063c45a01551461037e578063c6682862146103a5578063c87b56dd146103ad578063d547741f146103c0578063da3ef23f146103d3578063e985e9c5146103e6578063ede029fc146103f9578063f57ad9891461040c575b600080fd5b6101a361019e366004611e1a565b61041f565b60405190151581526020015b60405180910390f35b6101c0610430565b6040516101af9190611e87565b6101e06101db366004611e9a565b6104c2565b6040516101af9190611eb3565b6102006101fb366004611ede565b6104e9565b005b6008545b6040519081526020016101af565b610200610222366004611f08565b610502565b610206610235366004611e9a565b61052d565b610200610248366004611f44565b610542565b61020061025b366004611f5f565b6105d5565b61020661026e366004611ede565b6105f1565b610206610281366004611f44565b610687565b610200610294366004611f5f565b61073c565b6101e06daaeb6d7670e522a718067333cd4e81565b6102006102bc366004611f08565b6107ba565b6102006102cf366004611e9a565b6107df565b6102e76102e2366004611f44565b610812565b6040516101af9190611f8b565b610206610302366004611e9a565b6108b3565b6101e0610315366004611e9a565b610946565b6101c061097a565b610206610330366004611f44565b610a08565b6101a3610343366004611f5f565b610a8e565b6101c0610ab9565b610206600081565b610200610366366004611fdd565b610ac8565b61020061037936600461209f565b610adc565b6101e07f000000000000000000000000000000000000000000000000000000000000000081565b6101c0610b09565b6101c06103bb366004611e9a565b610b16565b6102006103ce366004611f5f565b610be4565b6102006103e136600461211a565b610c00565b6101a36103f4366004612162565b610c75565b61020061040736600461211a565b610ca3565b600d546101e0906001600160a01b031681565b600061042a82610d15565b92915050565b60606000805461043f9061218c565b80601f016020809104026020016040519081016040528092919081815260200182805461046b9061218c565b80156104b85780601f1061048d576101008083540402835291602001916104b8565b820191906000526020600020905b81548152906001019060200180831161049b57829003601f168201915b5050505050905090565b60006104cd82610d3a565b506000908152600460205260409020546001600160a01b031690565b816104f381610d5f565b6104fd8383610e0f565b505050565b826001600160a01b038116331461051c5761051c33610d5f565b610527848484610f1f565b50505050565b6000908152600a602052604090206001015490565b600d546001600160a01b031633146105b35760405162461bcd60e51b815260206004820152602960248201527f444258454e46543a204f6e6c79206164646d696e2063616e20736574206e657760448201526820616464726573732160b81b60648201526084015b60405180910390fd5b600d80546001600160a01b0319166001600160a01b0392909216919091179055565b6105de8261052d565b6105e781610f4f565b6104fd8383610f59565b60006105fc83610a08565b821061065e5760405162461bcd60e51b815260206004820152602b60248201527f455243373231456e756d657261626c653a206f776e657220696e646578206f7560448201526a74206f6620626f756e647360a81b60648201526084016105aa565b506001600160a01b03919091166000908152600660209081526040808320938352929052205490565b6000610691610fdf565b336001600160a01b037f000000000000000000000000000000000000000000000000000000000000000016146107095760405162461bcd60e51b815260206004820152601e60248201527f444258454e46543a204f6e6c7920666163746f72792063616e206d696e74000060448201526064016105aa565b61071582600c54611038565b50600c80549081906000610728836121dc565b91905055506107376001600b55565b919050565b6001600160a01b03811633146107ac5760405162461bcd60e51b815260206004820152602f60248201527f416363657373436f6e74726f6c3a2063616e206f6e6c792072656e6f756e636560448201526e103937b632b9903337b91039b2b63360891b60648201526084016105aa565b6107b68282611052565b5050565b826001600160a01b03811633146107d4576107d433610d5f565b6105278484846110b9565b6107ea335b826110d4565b6108065760405162461bcd60e51b81526004016105aa906121f5565b61080f81611133565b50565b6060600061081f83610a08565b90506000816001600160401b0381111561083b5761083b612014565b604051908082528060200260200182016040528015610864578160200160208202803683370190505b50905060005b828110156108ab5761087c85826105f1565b82828151811061088e5761088e612242565b6020908102919091010152806108a3816121dc565b91505061086a565b509392505050565b60006108be60085490565b82106109215760405162461bcd60e51b815260206004820152602c60248201527f455243373231456e756d657261626c653a20676c6f62616c20696e646578206f60448201526b7574206f6620626f756e647360a01b60648201526084016105aa565b6008828154811061093457610934612242565b90600052602060002001549050919050565b6000806109528361113c565b90506001600160a01b03811661042a5760405162461bcd60e51b81526004016105aa90612258565b600e80546109879061218c565b80601f01602080910402602001604051908101604052809291908181526020018280546109b39061218c565b8015610a005780601f106109d557610100808354040283529160200191610a00565b820191906000526020600020905b8154815290600101906020018083116109e357829003601f168201915b505050505081565b60006001600160a01b038216610a725760405162461bcd60e51b815260206004820152602960248201527f4552433732313a2061646472657373207a65726f206973206e6f7420612076616044820152683634b21037bbb732b960b91b60648201526084016105aa565b506001600160a01b031660009081526003602052604090205490565b6000918252600a602090815260408084206001600160a01b0393909316845291905290205460ff1690565b60606001805461043f9061218c565b81610ad281610d5f565b6104fd8383611157565b836001600160a01b0381163314610af657610af633610d5f565b610b0285858585611162565b5050505050565b600f80546109879061218c565b6060610b2182611194565b610b855760405162461bcd60e51b815260206004820152602f60248201527f4552433732314d657461646174613a2055524920717565727920666f72206e6f60448201526e3732bc34b9ba32b73a103a37b5b2b760891b60648201526084016105aa565b6000610b8f6111b1565b90506000815111610baf5760405180602001604052806000815250610bdd565b80610bb9846111c0565b600f604051602001610bcd9392919061228a565b6040516020818303038152906040525b9392505050565b610bed8261052d565b610bf681610f4f565b6104fd8383611052565b600d546001600160a01b03163314610c695760405162461bcd60e51b815260206004820152602660248201527f444258454e46543a204f6e6c792061646d696e207365742062617365457874656044820152656e73696f6e2160d01b60648201526084016105aa565b600f6107b68282612378565b6001600160a01b03918216600090815260056020908152604080832093909416825291909152205460ff1690565b600d546001600160a01b03163314610d095760405162461bcd60e51b8152602060048201526024808201527f444258454e46543a204f6e6c792061646d696e2063616e2073657420626173656044820152635552492160e01b60648201526084016105aa565b600e6107b68282612378565b60006001600160e01b03198216637965db0b60e01b148061042a575061042a82611252565b610d4381611194565b61080f5760405162461bcd60e51b81526004016105aa90612258565b6daaeb6d7670e522a718067333cd4e3b1561080f57604051633185c44d60e21b81523060048201526001600160a01b03821660248201526daaeb6d7670e522a718067333cd4e9063c617113490604401602060405180830381865afa158015610dcc573d6000803e3d6000fd5b505050506040513d601f19601f82011682018060405250810190610df09190612437565b61080f5780604051633b79c77360e21b81526004016105aa9190611eb3565b6000610e1a82610946565b9050806001600160a01b0316836001600160a01b031603610e875760405162461bcd60e51b815260206004820152602160248201527f4552433732313a20617070726f76616c20746f2063757272656e74206f776e656044820152603960f91b60648201526084016105aa565b336001600160a01b0382161480610ea35750610ea38133610c75565b610f155760405162461bcd60e51b815260206004820152603d60248201527f4552433732313a20617070726f76652063616c6c6572206973206e6f7420746f60448201527f6b656e206f776e6572206f7220617070726f76656420666f7220616c6c00000060648201526084016105aa565b6104fd8383611277565b610f28336107e4565b610f445760405162461bcd60e51b81526004016105aa906121f5565b6104fd8383836112e5565b61080f8133611444565b610f638282610a8e565b6107b6576000828152600a602090815260408083206001600160a01b03851684529091529020805460ff19166001179055610f9b3390565b6001600160a01b0316816001600160a01b0316837f2f8788117e7eff1d82e926ec794901d17c78024a50270940304540a733656f0d60405160405180910390a45050565b6002600b54036110315760405162461bcd60e51b815260206004820152601f60248201527f5265656e7472616e637947756172643a207265656e7472616e742063616c6c0060448201526064016105aa565b6002600b55565b6107b682826040518060200160405280600081525061149d565b61105c8282610a8e565b156107b6576000828152600a602090815260408083206001600160a01b0385168085529252808320805460ff1916905551339285917ff6391f5c32d9c69d2a47ea670b442974b53935d1edc7fd64eb21e047a839171b9190a45050565b6104fd83838360405180602001604052806000815250610adc565b6000806110e083610946565b9050806001600160a01b0316846001600160a01b0316148061110757506111078185610c75565b8061112b5750836001600160a01b0316611120846104c2565b6001600160a01b0316145b949350505050565b61080f816114d0565b6000908152600260205260409020546001600160a01b031690565b6107b6338383611561565b61116c33836110d4565b6111885760405162461bcd60e51b81526004016105aa906121f5565b6105278484848461162b565b6000806111a08361113c565b6001600160a01b0316141592915050565b6060600e805461043f9061218c565b606060006111cd8361165e565b60010190506000816001600160401b038111156111ec576111ec612014565b6040519080825280601f01601f191660200182016040528015611216576020820181803683370190505b5090508181016020015b600019016f181899199a1a9b1b9c1cb0b131b232b360811b600a86061a8153600a850494508461122057509392505050565b60006001600160e01b0319821663780e9d6360e01b148061042a575061042a82611734565b600081815260046020526040902080546001600160a01b0319166001600160a01b03841690811790915581906112ac82610946565b6001600160a01b03167f8c5be1e5ebec7d5bd14f71427d1e84f3dd0314c0f7b2291e5b200ac8c7c3b92560405160405180910390a45050565b826001600160a01b03166112f882610946565b6001600160a01b03161461131e5760405162461bcd60e51b81526004016105aa90612454565b6001600160a01b0382166113805760405162461bcd60e51b8152602060048201526024808201527f4552433732313a207472616e7366657220746f20746865207a65726f206164646044820152637265737360e01b60648201526084016105aa565b61138d8383836001611784565b826001600160a01b03166113a082610946565b6001600160a01b0316146113c65760405162461bcd60e51b81526004016105aa90612454565b600081815260046020908152604080832080546001600160a01b03199081169091556001600160a01b03878116808652600385528386208054600019019055908716808652838620805460010190558686526002909452828520805490921684179091559051849360008051602061265583398151915291a4505050565b61144e8282610a8e565b6107b65761145b81611790565b6114668360206117a2565b604051602001611477929190612499565b60408051601f198184030181529082905262461bcd60e51b82526105aa91600401611e87565b6114a7838361193d565b6114b46000848484611a46565b6104fd5760405162461bcd60e51b81526004016105aa90612508565b60006114db82610946565b90506114eb816000846001611784565b6114f482610946565b600083815260046020908152604080832080546001600160a01b03199081169091556001600160a01b038516808552600384528285208054600019019055878552600290935281842080549091169055519293508492600080516020612655833981519152908390a45050565b816001600160a01b0316836001600160a01b0316036115be5760405162461bcd60e51b815260206004820152601960248201527822a9219b99189d1030b8383937bb32903a379031b0b63632b960391b60448201526064016105aa565b6001600160a01b03838116600081815260056020908152604080832094871680845294825291829020805460ff191686151590811790915591519182527f17307eab39ab6107e8899845ad3d59bd9653f200f220920489ca2b5937696c31910160405180910390a3505050565b6116368484846112e5565b61164284848484611a46565b6105275760405162461bcd60e51b81526004016105aa90612508565b60008072184f03e93ff9f4daa797ed6e38ed64bf6a1f0160401b831061169d5772184f03e93ff9f4daa797ed6e38ed64bf6a1f0160401b830492506040015b6904ee2d6d415b85acef8160201b83106116c7576904ee2d6d415b85acef8160201b830492506020015b662386f26fc1000083106116e557662386f26fc10000830492506010015b6305f5e10083106116fd576305f5e100830492506008015b612710831061171157612710830492506004015b60648310611723576064830492506002015b600a831061042a5760010192915050565b60006001600160e01b031982166380ac58cd60e01b148061176557506001600160e01b03198216635b5e139f60e01b145b8061042a57506301ffc9a760e01b6001600160e01b031983161461042a565b61052784848484611b47565b606061042a6001600160a01b03831660145b606060006117b183600261255a565b6117bc906002612571565b6001600160401b038111156117d3576117d3612014565b6040519080825280601f01601f1916602001820160405280156117fd576020820181803683370190505b509050600360fc1b8160008151811061181857611818612242565b60200101906001600160f81b031916908160001a905350600f60fb1b8160018151811061184757611847612242565b60200101906001600160f81b031916908160001a905350600061186b84600261255a565b611876906001612571565b90505b60018111156118ee576f181899199a1a9b1b9c1cb0b131b232b360811b85600f16601081106118aa576118aa612242565b1a60f81b8282815181106118c0576118c0612242565b60200101906001600160f81b031916908160001a90535060049490941c936118e781612584565b9050611879565b508315610bdd5760405162461bcd60e51b815260206004820181905260248201527f537472696e67733a20686578206c656e67746820696e73756666696369656e7460448201526064016105aa565b6001600160a01b0382166119935760405162461bcd60e51b815260206004820181905260248201527f4552433732313a206d696e7420746f20746865207a65726f206164647265737360448201526064016105aa565b61199c81611194565b156119b95760405162461bcd60e51b81526004016105aa9061259b565b6119c7600083836001611784565b6119d081611194565b156119ed5760405162461bcd60e51b81526004016105aa9061259b565b6001600160a01b038216600081815260036020908152604080832080546001019055848352600290915280822080546001600160a01b031916841790555183929190600080516020612655833981519152908290a45050565b60006001600160a01b0384163b15611b3c57604051630a85bd0160e11b81526001600160a01b0385169063150b7a0290611a8a9033908990889088906004016125d1565b6020604051808303816000875af1925050508015611ac5575060408051601f3d908101601f19168201909252611ac29181019061260e565b60015b611b22573d808015611af3576040519150601f19603f3d011682016040523d82523d6000602084013e611af8565b606091505b508051600003611b1a5760405162461bcd60e51b81526004016105aa90612508565b805181602001fd5b6001600160e01b031916630a85bd0160e11b14905061112b565b506001949350505050565b6001811115611bb65760405162461bcd60e51b815260206004820152603560248201527f455243373231456e756d657261626c653a20636f6e7365637574697665207472604482015274185b9cd9995c9cc81b9bdd081cdd5c1c1bdc9d1959605a1b60648201526084016105aa565b816001600160a01b038516611c1257611c0d81600880546000838152600960205260408120829055600182018355919091527ff3f7a9fe364faab93b216da50a3214154f22a0a2b415b23a84c8169e8b636ee30155565b611c35565b836001600160a01b0316856001600160a01b031614611c3557611c358582611c74565b6001600160a01b038416611c5157611c4c81611d11565b610b02565b846001600160a01b0316846001600160a01b031614610b0257610b028482611dc0565b60006001611c8184610a08565b611c8b919061262b565b600083815260076020526040902054909150808214611cde576001600160a01b03841660009081526006602090815260408083208584528252808320548484528184208190558352600790915290208190555b5060009182526007602090815260408084208490556001600160a01b039094168352600681528383209183525290812055565b600854600090611d239060019061262b565b60008381526009602052604081205460088054939450909284908110611d4b57611d4b612242565b906000526020600020015490508060088381548110611d6c57611d6c612242565b6000918252602080832090910192909255828152600990915260408082208490558582528120556008805480611da457611da461263e565b6001900381819060005260206000200160009055905550505050565b6000611dcb83610a08565b6001600160a01b039093166000908152600660209081526040808320868452825280832085905593825260079052919091209190915550565b6001600160e01b03198116811461080f57600080fd5b600060208284031215611e2c57600080fd5b8135610bdd81611e04565b60005b83811015611e52578181015183820152602001611e3a565b50506000910152565b60008151808452611e73816020860160208601611e37565b601f01601f19169290920160200192915050565b602081526000610bdd6020830184611e5b565b600060208284031215611eac57600080fd5b5035919050565b6001600160a01b0391909116815260200190565b80356001600160a01b038116811461073757600080fd5b60008060408385031215611ef157600080fd5b611efa83611ec7565b946020939093013593505050565b600080600060608486031215611f1d57600080fd5b611f2684611ec7565b9250611f3460208501611ec7565b9150604084013590509250925092565b600060208284031215611f5657600080fd5b610bdd82611ec7565b60008060408385031215611f7257600080fd5b82359150611f8260208401611ec7565b90509250929050565b6020808252825182820181905260009190848201906040850190845b81811015611fc357835183529284019291840191600101611fa7565b50909695505050505050565b801515811461080f57600080fd5b60008060408385031215611ff057600080fd5b611ff983611ec7565b9150602083013561200981611fcf565b809150509250929050565b634e487b7160e01b600052604160045260246000fd5b60006001600160401b038084111561204457612044612014565b604051601f8501601f19908116603f0116810190828211818310171561206c5761206c612014565b8160405280935085815286868601111561208557600080fd5b858560208301376000602087830101525050509392505050565b600080600080608085870312156120b557600080fd5b6120be85611ec7565b93506120cc60208601611ec7565b92506040850135915060608501356001600160401b038111156120ee57600080fd5b8501601f810187136120ff57600080fd5b61210e8782356020840161202a565b91505092959194509250565b60006020828403121561212c57600080fd5b81356001600160401b0381111561214257600080fd5b8201601f8101841361215357600080fd5b61112b8482356020840161202a565b6000806040838503121561217557600080fd5b61217e83611ec7565b9150611f8260208401611ec7565b600181811c908216806121a057607f821691505b6020821081036121c057634e487b7160e01b600052602260045260246000fd5b50919050565b634e487b7160e01b600052601160045260246000fd5b6000600182016121ee576121ee6121c6565b5060010190565b6020808252602d908201527f4552433732313a2063616c6c6572206973206e6f7420746f6b656e206f776e6560408201526c1c881bdc88185c1c1c9bdd9959609a1b606082015260800190565b634e487b7160e01b600052603260045260246000fd5b602080825260189082015277115490cdcc8c4e881a5b9d985b1a59081d1bdad95b88125160421b604082015260600190565b60008451602061229d8285838a01611e37565b8551918401916122b08184848a01611e37565b85549201916000906122c18161218c565b600182811680156122d957600181146122ee5761231a565b60ff198416875282151583028701945061231a565b896000528560002060005b84811015612312578154898201529083019087016122f9565b505082870194505b50929a9950505050505050505050565b601f8211156104fd57600081815260208120601f850160051c810160208610156123515750805b601f850160051c820191505b818110156123705782815560010161235d565b505050505050565b81516001600160401b0381111561239157612391612014565b6123a58161239f845461218c565b8461232a565b602080601f8311600181146123da57600084156123c25750858301515b600019600386901b1c1916600185901b178555612370565b600085815260208120601f198616915b82811015612409578886015182559484019460019091019084016123ea565b50858210156124275787850151600019600388901b60f8161c191681555b5050505050600190811b01905550565b60006020828403121561244957600080fd5b8151610bdd81611fcf565b60208082526025908201527f4552433732313a207472616e736665722066726f6d20696e636f72726563742060408201526437bbb732b960d91b606082015260800190565b76020b1b1b2b9b9a1b7b73a3937b61d1030b1b1b7bab73a1604d1b8152600083516124cb816017850160208801611e37565b7001034b99036b4b9b9b4b733903937b6329607d1b60179184019182015283516124fc816028840160208801611e37565b01602801949350505050565b60208082526032908201527f4552433732313a207472616e7366657220746f206e6f6e20455243373231526560408201527131b2b4bb32b91034b6b83632b6b2b73a32b960711b606082015260800190565b808202811582820484141761042a5761042a6121c6565b8082018082111561042a5761042a6121c6565b600081612593576125936121c6565b506000190190565b6020808252601c908201527b115490cdcc8c4e881d1bdad95b88185b1c9958591e481b5a5b9d195960221b604082015260600190565b6001600160a01b038581168252841660208201526040810183905260806060820181905260009061260490830184611e5b565b9695505050505050565b60006020828403121561262057600080fd5b8151610bdd81611e04565b8181038181111561042a5761042a6121c6565b634e487b7160e01b600052603160045260246000fdfeddf252ad1be2c89b69c2b068fc378daa952ba7f163c4a11628f55a4df523b3efa2646970667358221220b4147f69d217310b5feb6aeda2a1d4f2da45a7649abc5e05b4e3b0cf88e73ff164736f6c63430008120033",
    "linkReferences": {},
    "deployedLinkReferences": {}
}