{
    "_format": "hh-sol-artifact-1",
    "contractName": "MockXENCrypto",
    "sourceName": "contracts/MockXENCrypto.sol",
    "abi": [
        {
            "inputs": [],
            "stateMutability": "nonpayable",
            "type": "constructor"
        },
        {
            "anonymous": false,
            "inputs": [
                {
                    "indexed": true,
                    "internalType": "address",
                    "name": "owner",
                    "type": "address"
                },
                {
                    "indexed": true,
                    "internalType": "address",
                    "name": "spender",
                    "type": "address"
                },
                {
                    "indexed": false,
                    "internalType": "uint256",
                    "name": "value",
                    "type": "uint256"
                }
            ],
            "name": "Approval",
            "type": "event"
        },
        {
            "anonymous": false,
            "inputs": [
                {
                    "indexed": true,
                    "internalType": "address",
                    "name": "user",
                    "type": "address"
                },
                {
                    "indexed": false,
                    "internalType": "uint256",
                    "name": "rewardAmount",
                    "type": "uint256"
                }
            ],
            "name": "MintClaimed",
            "type": "event"
        },
        {
            "anonymous": false,
            "inputs": [
                {
                    "indexed": true,
                    "internalType": "address",
                    "name": "user",
                    "type": "address"
                },
                {
                    "indexed": false,
                    "internalType": "uint256",
                    "name": "term",
                    "type": "uint256"
                },
                {
                    "indexed": false,
                    "internalType": "uint256",
                    "name": "rank",
                    "type": "uint256"
                }
            ],
            "name": "RankClaimed",
            "type": "event"
        },
        {
            "anonymous": false,
            "inputs": [
                {
                    "indexed": true,
                    "internalType": "address",
                    "name": "user",
                    "type": "address"
                },
                {
                    "indexed": false,
                    "internalType": "uint256",
                    "name": "amount",
                    "type": "uint256"
                },
                {
                    "indexed": false,
                    "internalType": "uint256",
                    "name": "term",
                    "type": "uint256"
                }
            ],
            "name": "Staked",
            "type": "event"
        },
        {
            "anonymous": false,
            "inputs": [
                {
                    "indexed": true,
                    "internalType": "address",
                    "name": "from",
                    "type": "address"
                },
                {
                    "indexed": true,
                    "internalType": "address",
                    "name": "to",
                    "type": "address"
                },
                {
                    "indexed": false,
                    "internalType": "uint256",
                    "name": "value",
                    "type": "uint256"
                }
            ],
            "name": "Transfer",
            "type": "event"
        },
        {
            "anonymous": false,
            "inputs": [
                {
                    "indexed": true,
                    "internalType": "address",
                    "name": "user",
                    "type": "address"
                },
                {
                    "indexed": false,
                    "internalType": "uint256",
                    "name": "amount",
                    "type": "uint256"
                },
                {
                    "indexed": false,
                    "internalType": "uint256",
                    "name": "reward",
                    "type": "uint256"
                }
            ],
            "name": "Withdrawn",
            "type": "event"
        },
        {
            "inputs": [],
            "name": "AUTHORS",
            "outputs": [
                {
                    "internalType": "string",
                    "name": "",
                    "type": "string"
                }
            ],
            "stateMutability": "view",
            "type": "function"
        },
        {
            "inputs": [],
            "name": "DAYS_IN_YEAR",
            "outputs": [
                {
                    "internalType": "uint256",
                    "name": "",
                    "type": "uint256"
                }
            ],
            "stateMutability": "view",
            "type": "function"
        },
        {
            "inputs": [],
            "name": "EAA_PM_START",
            "outputs": [
                {
                    "internalType": "uint256",
                    "name": "",
                    "type": "uint256"
                }
            ],
            "stateMutability": "view",
            "type": "function"
        },
        {
            "inputs": [],
            "name": "EAA_PM_STEP",
            "outputs": [
                {
                    "internalType": "uint256",
                    "name": "",
                    "type": "uint256"
                }
            ],
            "stateMutability": "view",
            "type": "function"
        },
        {
            "inputs": [],
            "name": "EAA_RANK_STEP",
            "outputs": [
                {
                    "internalType": "uint256",
                    "name": "",
                    "type": "uint256"
                }
            ],
            "stateMutability": "view",
            "type": "function"
        },
        {
            "inputs": [],
            "name": "GENESIS_RANK",
            "outputs": [
                {
                    "internalType": "uint256",
                    "name": "",
                    "type": "uint256"
                }
            ],
            "stateMutability": "view",
            "type": "function"
        },
        {
            "inputs": [],
            "name": "MAX_PENALTY_PCT",
            "outputs": [
                {
                    "internalType": "uint256",
                    "name": "",
                    "type": "uint256"
                }
            ],
            "stateMutability": "view",
            "type": "function"
        },
        {
            "inputs": [],
            "name": "MAX_TERM_END",
            "outputs": [
                {
                    "internalType": "uint256",
                    "name": "",
                    "type": "uint256"
                }
            ],
            "stateMutability": "view",
            "type": "function"
        },
        {
            "inputs": [],
            "name": "MAX_TERM_START",
            "outputs": [
                {
                    "internalType": "uint256",
                    "name": "",
                    "type": "uint256"
                }
            ],
            "stateMutability": "view",
            "type": "function"
        },
        {
            "inputs": [],
            "name": "MIN_TERM",
            "outputs": [
                {
                    "internalType": "uint256",
                    "name": "",
                    "type": "uint256"
                }
            ],
            "stateMutability": "view",
            "type": "function"
        },
        {
            "inputs": [],
            "name": "REWARD_AMPLIFIER_END",
            "outputs": [
                {
                    "internalType": "uint256",
                    "name": "",
                    "type": "uint256"
                }
            ],
            "stateMutability": "view",
            "type": "function"
        },
        {
            "inputs": [],
            "name": "REWARD_AMPLIFIER_START",
            "outputs": [
                {
                    "internalType": "uint256",
                    "name": "",
                    "type": "uint256"
                }
            ],
            "stateMutability": "view",
            "type": "function"
        },
        {
            "inputs": [],
            "name": "SECONDS_IN_DAY",
            "outputs": [
                {
                    "internalType": "uint256",
                    "name": "",
                    "type": "uint256"
                }
            ],
            "stateMutability": "view",
            "type": "function"
        },
        {
            "inputs": [],
            "name": "TERM_AMPLIFIER",
            "outputs": [
                {
                    "internalType": "uint256",
                    "name": "",
                    "type": "uint256"
                }
            ],
            "stateMutability": "view",
            "type": "function"
        },
        {
            "inputs": [],
            "name": "TERM_AMPLIFIER_THRESHOLD",
            "outputs": [
                {
                    "internalType": "uint256",
                    "name": "",
                    "type": "uint256"
                }
            ],
            "stateMutability": "view",
            "type": "function"
        },
        {
            "inputs": [],
            "name": "WITHDRAWAL_WINDOW_DAYS",
            "outputs": [
                {
                    "internalType": "uint256",
                    "name": "",
                    "type": "uint256"
                }
            ],
            "stateMutability": "view",
            "type": "function"
        },
        {
            "inputs": [],
            "name": "XEN_APY_DAYS_STEP",
            "outputs": [
                {
                    "internalType": "uint256",
                    "name": "",
                    "type": "uint256"
                }
            ],
            "stateMutability": "view",
            "type": "function"
        },
        {
            "inputs": [],
            "name": "XEN_APY_END",
            "outputs": [
                {
                    "internalType": "uint256",
                    "name": "",
                    "type": "uint256"
                }
            ],
            "stateMutability": "view",
            "type": "function"
        },
        {
            "inputs": [],
            "name": "XEN_APY_START",
            "outputs": [
                {
                    "internalType": "uint256",
                    "name": "",
                    "type": "uint256"
                }
            ],
            "stateMutability": "view",
            "type": "function"
        },
        {
            "inputs": [],
            "name": "XEN_MIN_BURN",
            "outputs": [
                {
                    "internalType": "uint256",
                    "name": "",
                    "type": "uint256"
                }
            ],
            "stateMutability": "view",
            "type": "function"
        },
        {
            "inputs": [],
            "name": "XEN_MIN_STAKE",
            "outputs": [
                {
                    "internalType": "uint256",
                    "name": "",
                    "type": "uint256"
                }
            ],
            "stateMutability": "view",
            "type": "function"
        },
        {
            "inputs": [],
            "name": "activeMinters",
            "outputs": [
                {
                    "internalType": "uint256",
                    "name": "",
                    "type": "uint256"
                }
            ],
            "stateMutability": "view",
            "type": "function"
        },
        {
            "inputs": [],
            "name": "activeStakes",
            "outputs": [
                {
                    "internalType": "uint256",
                    "name": "",
                    "type": "uint256"
                }
            ],
            "stateMutability": "view",
            "type": "function"
        },
        {
            "inputs": [
                {
                    "internalType": "address",
                    "name": "owner",
                    "type": "address"
                },
                {
                    "internalType": "address",
                    "name": "spender",
                    "type": "address"
                }
            ],
            "name": "allowance",
            "outputs": [
                {
                    "internalType": "uint256",
                    "name": "",
                    "type": "uint256"
                }
            ],
            "stateMutability": "view",
            "type": "function"
        },
        {
            "inputs": [
                {
                    "internalType": "address",
                    "name": "spender",
                    "type": "address"
                },
                {
                    "internalType": "uint256",
                    "name": "amount",
                    "type": "uint256"
                }
            ],
            "name": "approve",
            "outputs": [
                {
                    "internalType": "bool",
                    "name": "",
                    "type": "bool"
                }
            ],
            "stateMutability": "nonpayable",
            "type": "function"
        },
        {
            "inputs": [
                {
                    "internalType": "address",
                    "name": "account",
                    "type": "address"
                }
            ],
            "name": "balanceOf",
            "outputs": [
                {
                    "internalType": "uint256",
                    "name": "",
                    "type": "uint256"
                }
            ],
            "stateMutability": "view",
            "type": "function"
        },
        {
            "inputs": [
                {
                    "internalType": "address",
                    "name": "user",
                    "type": "address"
                },
                {
                    "internalType": "uint256",
                    "name": "amount",
                    "type": "uint256"
                }
            ],
            "name": "burn",
            "outputs": [],
            "stateMutability": "nonpayable",
            "type": "function"
        },
        {
            "inputs": [],
            "name": "claimMintReward",
            "outputs": [],
            "stateMutability": "nonpayable",
            "type": "function"
        },
        {
            "inputs": [
                {
                    "internalType": "address",
                    "name": "other",
                    "type": "address"
                },
                {
                    "internalType": "uint256",
                    "name": "pct",
                    "type": "uint256"
                }
            ],
            "name": "claimMintRewardAndShare",
            "outputs": [],
            "stateMutability": "nonpayable",
            "type": "function"
        },
        {
            "inputs": [
                {
                    "internalType": "uint256",
                    "name": "pct",
                    "type": "uint256"
                },
                {
                    "internalType": "uint256",
                    "name": "term",
                    "type": "uint256"
                }
            ],
            "name": "claimMintRewardAndStake",
            "outputs": [],
            "stateMutability": "nonpayable",
            "type": "function"
        },
        {
            "inputs": [
                {
                    "internalType": "uint256",
                    "name": "term",
                    "type": "uint256"
                }
            ],
            "name": "claimRank",
            "outputs": [],
            "stateMutability": "nonpayable",
            "type": "function"
        },
        {
            "inputs": [],
            "name": "decimals",
            "outputs": [
                {
                    "internalType": "uint8",
                    "name": "",
                    "type": "uint8"
                }
            ],
            "stateMutability": "view",
            "type": "function"
        },
        {
            "inputs": [
                {
                    "internalType": "address",
                    "name": "spender",
                    "type": "address"
                },
                {
                    "internalType": "uint256",
                    "name": "subtractedValue",
                    "type": "uint256"
                }
            ],
            "name": "decreaseAllowance",
            "outputs": [
                {
                    "internalType": "bool",
                    "name": "",
                    "type": "bool"
                }
            ],
            "stateMutability": "nonpayable",
            "type": "function"
        },
        {
            "inputs": [],
            "name": "genesisTs",
            "outputs": [
                {
                    "internalType": "uint256",
                    "name": "",
                    "type": "uint256"
                }
            ],
            "stateMutability": "view",
            "type": "function"
        },
        {
            "inputs": [],
            "name": "getCurrentAMP",
            "outputs": [
                {
                    "internalType": "uint256",
                    "name": "",
                    "type": "uint256"
                }
            ],
            "stateMutability": "view",
            "type": "function"
        },
        {
            "inputs": [],
            "name": "getCurrentAPY",
            "outputs": [
                {
                    "internalType": "uint256",
                    "name": "",
                    "type": "uint256"
                }
            ],
            "stateMutability": "view",
            "type": "function"
        },
        {
            "inputs": [],
            "name": "getCurrentEAAR",
            "outputs": [
                {
                    "internalType": "uint256",
                    "name": "",
                    "type": "uint256"
                }
            ],
            "stateMutability": "view",
            "type": "function"
        },
        {
            "inputs": [],
            "name": "getCurrentMaxTerm",
            "outputs": [
                {
                    "internalType": "uint256",
                    "name": "",
                    "type": "uint256"
                }
            ],
            "stateMutability": "view",
            "type": "function"
        },
        {
            "inputs": [
                {
                    "internalType": "uint256",
                    "name": "rankDelta",
                    "type": "uint256"
                },
                {
                    "internalType": "uint256",
                    "name": "amplifier",
                    "type": "uint256"
                },
                {
                    "internalType": "uint256",
                    "name": "term",
                    "type": "uint256"
                },
                {
                    "internalType": "uint256",
                    "name": "eaa",
                    "type": "uint256"
                }
            ],
            "name": "getGrossReward",
            "outputs": [
                {
                    "internalType": "uint256",
                    "name": "",
                    "type": "uint256"
                }
            ],
            "stateMutability": "pure",
            "type": "function"
        },
        {
            "inputs": [],
            "name": "getUserMint",
            "outputs": [
                {
                    "components": [
                        {
                            "internalType": "address",
                            "name": "user",
                            "type": "address"
                        },
                        {
                            "internalType": "uint256",
                            "name": "term",
                            "type": "uint256"
                        },
                        {
                            "internalType": "uint256",
                            "name": "maturityTs",
                            "type": "uint256"
                        },
                        {
                            "internalType": "uint256",
                            "name": "rank",
                            "type": "uint256"
                        },
                        {
                            "internalType": "uint256",
                            "name": "amplifier",
                            "type": "uint256"
                        },
                        {
                            "internalType": "uint256",
                            "name": "eaaRate",
                            "type": "uint256"
                        }
                    ],
                    "internalType": "struct MockXENCrypto.MintInfo",
                    "name": "",
                    "type": "tuple"
                }
            ],
            "stateMutability": "view",
            "type": "function"
        },
        {
            "inputs": [],
            "name": "getUserStake",
            "outputs": [
                {
                    "components": [
                        {
                            "internalType": "uint256",
                            "name": "term",
                            "type": "uint256"
                        },
                        {
                            "internalType": "uint256",
                            "name": "maturityTs",
                            "type": "uint256"
                        },
                        {
                            "internalType": "uint256",
                            "name": "amount",
                            "type": "uint256"
                        },
                        {
                            "internalType": "uint256",
                            "name": "apy",
                            "type": "uint256"
                        }
                    ],
                    "internalType": "struct MockXENCrypto.StakeInfo",
                    "name": "",
                    "type": "tuple"
                }
            ],
            "stateMutability": "view",
            "type": "function"
        },
        {
            "inputs": [],
            "name": "globalRank",
            "outputs": [
                {
                    "internalType": "uint256",
                    "name": "",
                    "type": "uint256"
                }
            ],
            "stateMutability": "view",
            "type": "function"
        },
        {
            "inputs": [
                {
                    "internalType": "address",
                    "name": "spender",
                    "type": "address"
                },
                {
                    "internalType": "uint256",
                    "name": "addedValue",
                    "type": "uint256"
                }
            ],
            "name": "increaseAllowance",
            "outputs": [
                {
                    "internalType": "bool",
                    "name": "",
                    "type": "bool"
                }
            ],
            "stateMutability": "nonpayable",
            "type": "function"
        },
        {
            "inputs": [],
            "name": "name",
            "outputs": [
                {
                    "internalType": "string",
                    "name": "",
                    "type": "string"
                }
            ],
            "stateMutability": "view",
            "type": "function"
        },
        {
            "inputs": [
                {
                    "internalType": "uint256",
                    "name": "amount",
                    "type": "uint256"
                },
                {
                    "internalType": "uint256",
                    "name": "term",
                    "type": "uint256"
                }
            ],
            "name": "stake",
            "outputs": [],
            "stateMutability": "nonpayable",
            "type": "function"
        },
        {
            "inputs": [],
            "name": "symbol",
            "outputs": [
                {
                    "internalType": "string",
                    "name": "",
                    "type": "string"
                }
            ],
            "stateMutability": "view",
            "type": "function"
        },
        {
            "inputs": [],
            "name": "totalSupply",
            "outputs": [
                {
                    "internalType": "uint256",
                    "name": "",
                    "type": "uint256"
                }
            ],
            "stateMutability": "view",
            "type": "function"
        },
        {
            "inputs": [],
            "name": "totalXenStaked",
            "outputs": [
                {
                    "internalType": "uint256",
                    "name": "",
                    "type": "uint256"
                }
            ],
            "stateMutability": "view",
            "type": "function"
        },
        {
            "inputs": [
                {
                    "internalType": "address",
                    "name": "to",
                    "type": "address"
                },
                {
                    "internalType": "uint256",
                    "name": "amount",
                    "type": "uint256"
                }
            ],
            "name": "transfer",
            "outputs": [
                {
                    "internalType": "bool",
                    "name": "",
                    "type": "bool"
                }
            ],
            "stateMutability": "nonpayable",
            "type": "function"
        },
        {
            "inputs": [
                {
                    "internalType": "address",
                    "name": "from",
                    "type": "address"
                },
                {
                    "internalType": "address",
                    "name": "to",
                    "type": "address"
                },
                {
                    "internalType": "uint256",
                    "name": "amount",
                    "type": "uint256"
                }
            ],
            "name": "transferFrom",
            "outputs": [
                {
                    "internalType": "bool",
                    "name": "",
                    "type": "bool"
                }
            ],
            "stateMutability": "nonpayable",
            "type": "function"
        },
        {
            "inputs": [
                {
                    "internalType": "address",
                    "name": "",
                    "type": "address"
                }
            ],
            "name": "userBurns",
            "outputs": [
                {
                    "internalType": "uint256",
                    "name": "",
                    "type": "uint256"
                }
            ],
            "stateMutability": "view",
            "type": "function"
        },
        {
            "inputs": [
                {
                    "internalType": "address",
                    "name": "",
                    "type": "address"
                }
            ],
            "name": "userMints",
            "outputs": [
                {
                    "internalType": "address",
                    "name": "user",
                    "type": "address"
                },
                {
                    "internalType": "uint256",
                    "name": "term",
                    "type": "uint256"
                },
                {
                    "internalType": "uint256",
                    "name": "maturityTs",
                    "type": "uint256"
                },
                {
                    "internalType": "uint256",
                    "name": "rank",
                    "type": "uint256"
                },
                {
                    "internalType": "uint256",
                    "name": "amplifier",
                    "type": "uint256"
                },
                {
                    "internalType": "uint256",
                    "name": "eaaRate",
                    "type": "uint256"
                }
            ],
            "stateMutability": "view",
            "type": "function"
        },
        {
            "inputs": [
                {
                    "internalType": "address",
                    "name": "",
                    "type": "address"
                }
            ],
            "name": "userStakes",
            "outputs": [
                {
                    "internalType": "uint256",
                    "name": "term",
                    "type": "uint256"
                },
                {
                    "internalType": "uint256",
                    "name": "maturityTs",
                    "type": "uint256"
                },
                {
                    "internalType": "uint256",
                    "name": "amount",
                    "type": "uint256"
                },
                {
                    "internalType": "uint256",
                    "name": "apy",
                    "type": "uint256"
                }
            ],
            "stateMutability": "view",
            "type": "function"
        },
        {
            "inputs": [],
            "name": "withdraw",
            "outputs": [],
            "stateMutability": "nonpayable",
            "type": "function"
        }
    ],
    "bytecode": "0x60a060405260016005553480156200001657600080fd5b506040518060400160405280600a81526020016958454e2043727970746f60b01b815250604051806040016040528060038152602001622c22a760e91b815250816003908162000067919062000128565b50600462000076828262000128565b50504260805250620001f4565b634e487b7160e01b600052604160045260246000fd5b600181811c90821680620000ae57607f821691505b602082108103620000cf57634e487b7160e01b600052602260045260246000fd5b50919050565b601f8211156200012357600081815260208120601f850160051c81016020861015620000fe5750805b601f850160051c820191505b818110156200011f578281556001016200010a565b5050505b505050565b81516001600160401b0381111562000144576200014462000083565b6200015c8162000155845462000099565b84620000d5565b602080601f8311600181146200019457600084156200017b5750858301515b600019600386901b1c1916600185901b1785556200011f565b600085815260208120601f198616915b82811015620001c557888601518255948401946001909101908401620001a4565b5085821015620001e45787850151600019600388901b60f8161c191681555b5050505050600190811b01905550565b60805161281c6200021e6000396000818161062d01528181611fcc015261202f015261281c6000f3fe608060405234801561001057600080fd5b50600436106102725760003560e01c80630237893214610277578063069612a51461029357806306fdde031461029c578063095ea7b3146102b15780630bfae56b146102d45780630f2e1228146102dc578063110d7fc2146102e457806316f9c8fd146102ec57806318160ddd146103275780631c2440821461032f5780631c560305146103385780631c6f212e1461034d57806323b872dd146103555780632a62d966146102e4578063313ce5671461036857806332870fda14610377578063395093511461037f5780633ccfd60b14610392578063451257151461039a57806352c7f8dc146103a2578063543d36521461034d5780635bccb4c4146103aa57806361a52a36146103bd5780637010d7a1146103c757806370a082311461041f57806372475f94146104485780637b0472f0146104505780637e7aa62e146104635780638979c87c1461046b5780638da7ad2314610473578063909a2ff6146104c857806395d89b41146104d0578063962ca496146104d857806399202454146104e05780639dc29fac146104e85780639ff054df146104fb578063a457c2d71461050e578063a9059cbb14610521578063b0fd1fc214610534578063b21d35f214610547578063b4800cdc14610550578063ba3ec74114610559578063bcfe394f1461034d578063c0c6525914610561578063c56f0bab14610569578063ce653d5f14610571578063dd62ed3e14610591578063df282331146105a4578063e3af6d0a14610628578063e81917b41461064f578063ed2f236914610658578063f060482914610661578063f340faed14610669578063fed7426914610673575b600080fd5b61028061016d81565b6040519081526020015b60405180910390f35b61028060085481565b6102a461067b565b60405161028a9190612375565b6102c46102bf3660046123df565b61070d565b604051901515815260200161028a565b610280610727565b610280606381565b610280600081565b6102f4610738565b60405161028a91908151815260208083015190820152604080830151908201526060918201519181019190915260800190565b600254610280565b61028060055481565b61034b6103463660046123df565b6107a9565b005b610280600181565b6102c4610363366004612409565b6109f8565b6040516012815260200161028a565b610280605a81565b6102c461038d3660046123df565b610a1c565b61034b610a3e565b610280610b9a565b61034b610ba9565b61034b6103b8366004612445565b610cba565b6102806201518081565b6103cf610f4d565b60405161028a919081516001600160a01b031681526020808301519082015260408083015190820152606080830151908201526080808301519082015260a0918201519181019190915260c00190565b61028061042d366004612467565b6001600160a01b031660009081526020819052604090205490565b610280600f81565b61034b61045e366004612445565b610ff2565b610280600281565b610280611158565b6104a8610481366004612467565b600a6020526000908152604090208054600182015460028301546003909301549192909184565b60408051948552602085019390935291830152606082015260800161028a565b610280606481565b6102a4611162565b610280611171565b61028061117b565b61034b6104f63660046123df565b611185565b61034b610509366004612482565b611337565b6102c461051c3660046123df565b6115aa565b6102c461052f3660046123df565b611625565b61028061054236600461249b565b611633565b61028061138881565b61028060065481565b6102a46116c2565b6102806116de565b610280600781565b61028061057f366004612467565b600b6020526000908152604090205481565b61028061059f3660046124cd565b6116ed565b6105f16105b2366004612467565b6009602052600090815260409020805460018201546002830154600384015460048501546005909501546001600160a01b039094169492939192909186565b604080516001600160a01b0390971687526020870195909552938501929092526060840152608083015260a082015260c00161028a565b6102807f000000000000000000000000000000000000000000000000000000000000000081565b610280610bb881565b61028060075481565b610280611718565b610280620186a081565b610280601481565b60606003805461068a90612500565b80601f01602080910402602001604051908101604052809291908181526020018280546106b690612500565b80156107035780601f106106d857610100808354040283529160200191610703565b820191906000526020600020905b8154815290600101906020018083116106e657829003601f168201915b5050505050905090565b60003361071b818585611731565b60019150505b92915050565b610735620151806064612550565b81565b6107636040518060800160405280600081526020016000815260200160008152602001600081525090565b50336000908152600a6020908152604091829020825160808101845281548152600182015492810192909252600281015492820192909252600390910154606082015290565b33600090815260096020908152604091829020825160c08101845281546001600160a01b03908116825260018301549382019390935260028201549381019390935260038101546060840152600481015460808401526005015460a083015283166108695760405162461bcd60e51b815260206004820152602560248201527f4352616e6b3a2043616e6e6f742073686172652077697468207a65726f206164604482015264647265737360d81b60648201526084015b60405180910390fd5b600082116108b95760405162461bcd60e51b815260206004820181905260248201527f4352616e6b3a2043616e6e6f74207368617265207a65726f2070657263656e746044820152606401610860565b606582106109095760405162461bcd60e51b815260206004820181905260248201527f4352616e6b3a2043616e6e6f74207368617265203130302b2070657263656e746044820152606401610860565b600081606001511161092d5760405162461bcd60e51b815260040161086090612567565b806040015142116109505760405162461bcd60e51b815260040161086090612596565b600061097382606001518360200151846040015185608001518660a00151611856565b61098590670de0b6b3a7640000612550565b9050600060646109958584612550565b61099f91906125e1565b905060006109ad8284612603565b90506109ba335b8261194d565b6109c4868361194d565b6109cc6119fa565b6040518381523390600080516020612782833981519152906020015b60405180910390a2505050505050565b600033610a06858285611a4e565b610a11858585611ac8565b506001949350505050565b60003361071b818585610a2f83836116ed565b610a399190612616565b611731565b336000908152600a6020908152604091829020825160808101845281548152600182015492810192909252600281015492820183905260030154606082015290610ac15760405162461bcd60e51b815260206004820152601460248201527358454e3a206e6f207374616b652065786973747360601b6044820152606401610860565b6000610adf8260400151836000015184602001518560600151611c5a565b600780549192506000610af183612629565b9190505550816040015160086000828254610b0c9190612603565b90915550610b2b905033828460400151610b269190612616565b61194d565b336001600160a01b03167f92ccf450a286a957af52509bc1c9939d1a6a481783e142e41e2499f0bb66ebc6836040015183604051610b6a929190612640565b60405180910390a25050336000908152600a60205260408120818155600181018290556002810182905560030155565b6000610ba4611cb8565b905090565b33600090815260096020908152604091829020825160c08101845281546001600160a01b031681526001820154928101929092526002810154928201929092526003820154606082018190526004830154608083015260059092015460a082015290610c275760405162461bcd60e51b815260040161086090612567565b80604001514211610c4a5760405162461bcd60e51b815260040161086090612596565b6000610c6d82606001518360200151846040015185608001518660a00151611856565b610c7f90670de0b6b3a7640000612550565b9050610c8a336109b4565b610c926119fa565b6040518181523390600080516020612782833981519152906020015b60405180910390a25050565b33600090815260096020908152604091829020825160c08101845281546001600160a01b03168152600182015492810192909252600281015492820192909252600382015460608201526004820154608082015260059091015460a082015260658310610d695760405162461bcd60e51b815260206004820181905260248201527f4352616e6b3a2043616e6e6f74207368617265203e3130302070657263656e746044820152606401610860565b6000816060015111610d8d5760405162461bcd60e51b815260040161086090612567565b80604001514211610db05760405162461bcd60e51b815260040161086090612596565b6000610dd382606001518360200151846040015185608001518660a00151611856565b610de590670de0b6b3a7640000612550565b905060006064610df58684612550565b610dff91906125e1565b90506000610e0d8284612603565b9050610e18336109b4565b610e206119fa565b60405183815233906000805160206127828339815191529060200160405180910390a260008211610e635760405162461bcd60e51b81526004016108609061264e565b6001610e726201518082612550565b610e7c9190612603565b610e896201518087612550565b11610ea65760405162461bcd60e51b81526004016108609061267c565b610eb5620151806103e8612550565b610ec0906001612616565b610ecd6201518087612550565b10610eea5760405162461bcd60e51b8152600401610860906126af565b336000908152600a602052604090206002015415610f1a5760405162461bcd60e51b8152600401610860906126e2565b610f248286611db7565b336001600160a01b031660008051602061276283398151915283876040516109e8929190612640565b610f8f6040518060c0016040528060006001600160a01b0316815260200160008152602001600081526020016000815260200160008152602001600081525090565b5033600090815260096020908152604091829020825160c08101845281546001600160a01b03168152600182015492810192909252600281015492820192909252600382015460608201526004820154608082015260059091015460a082015290565b81610ffc3361042d565b10156110445760405162461bcd60e51b815260206004820152601760248201527658454e3a206e6f7420656e6f7567682062616c616e636560481b6044820152606401610860565b600082116110645760405162461bcd60e51b81526004016108609061264e565b60016110736201518082612550565b61107d9190612603565b61108a6201518083612550565b116110a75760405162461bcd60e51b81526004016108609061267c565b6110b6620151806103e8612550565b6110c1906001612616565b6110ce6201518083612550565b106110eb5760405162461bcd60e51b8152600401610860906126af565b336000908152600a60205260409020600201541561111b5760405162461bcd60e51b8152600401610860906126e2565b6111253383611e5a565b61112f8282611db7565b336001600160a01b03166000805160206127628339815191528383604051610cae929190612640565b6000610ba4611f72565b60606004805461068a90612500565b6000610ba4611fb6565b6000610ba4612023565b600081116111cd5760405162461bcd60e51b8152602060048201526015602482015274109d5c9b8e8810995b1bddc81b5a5b881b1a5b5a5d605a1b6044820152606401610860565b336040516301ffc9a760e01b815263543746b160e01b60048201526001600160a01b0391909116906301ffc9a790602401602060405180830381865afa15801561121b573d6000803e3d6000fd5b505050506040513d601f19601f8201168201806040525081019061123f919061270d565b61128b5760405162461bcd60e51b815260206004820152601e60248201527f4275726e3a206e6f74206120737570706f7274656420636f6e747261637400006044820152606401610860565b611296823383611a4e565b6112a08282611e5a565b6001600160a01b0382166000908152600b6020526040812080548392906112c8908490612616565b9091555033905060405163543746b160e01b81526001600160a01b03848116600483015260248201849052919091169063543746b190604401600060405180830381600087803b15801561131b57600080fd5b505af115801561132f573d6000803e3d6000fd5b505050505050565b60006113466201518083612550565b905060016113576201518082612550565b6113619190612603565b81116113ab5760405162461bcd60e51b815260206004820152601960248201527821a930b7359d102a32b936903632b9b9903a3430b71036b4b760391b6044820152606401610860565b6113b3611cb8565b6113be906001612616565b811061141b5760405162461bcd60e51b815260206004820152602660248201527f4352616e6b3a205465726d206d6f7265207468616e2063757272656e74206d6160448201526578207465726d60d01b6064820152608401610860565b336000908152600960205260409020600301541561147b5760405162461bcd60e51b815260206004820152601f60248201527f4352616e6b3a204d696e7420616c726561647920696e2070726f6772657373006044820152606401610860565b60006040518060c0016040528061148f3390565b6001600160a01b03168152602081018590526040016114ae8442612616565b815260200160055481526020016114c3612023565b81526020016114d0611f72565b9052336000908152600960209081526040808320845181546001600160a01b0319166001600160a01b039091161781559184015160018301558301516002820155606083015160038201556080830151600482015560a083015160059091015560068054929350906115418361272f565b919050555061154d3390565b6001600160a01b03167fe9149e1b5059238baed02fa659dbf4bd932fbcf760a431330df4d934bc942f37846005600081548092919061158b9061272f565b9190505560405161159d929190612640565b60405180910390a2505050565b600033816115b882866116ed565b9050838110156116185760405162461bcd60e51b815260206004820152602560248201527f45524332303a2064656372656173656420616c6c6f77616e63652062656c6f77604482015264207a65726f60d81b6064820152608401610860565b610a118286868403611731565b60003361071b818585611ac8565b60008061164a611642876120f8565b600f0b612115565b9050600061168661165a856120f8565b61167d611666886120f8565b61167d6116728b6120f8565b600f88900b906121ef565b600f0b906121ef565b90506116ac6116a46116996103e86120f8565b600f84900b9061222d565b600f0b612284565b6001600160401b0316925050505b949350505050565b6040518060600160405280602581526020016127c26025913981565b610735620151806103e8612550565b6001600160a01b03918216600090815260016020908152604080832093909416825291909152205490565b60016117276201518082612550565b6107359190612603565b6001600160a01b0383166117935760405162461bcd60e51b8152602060048201526024808201527f45524332303a20617070726f76652066726f6d20746865207a65726f206164646044820152637265737360e01b6064820152608401610860565b6001600160a01b0382166117f45760405162461bcd60e51b815260206004820152602260248201527f45524332303a20617070726f766520746f20746865207a65726f206164647265604482015261737360f01b6064820152608401610860565b6001600160a01b0383811660008181526001602090815260408083209487168084529482529182902085905590518481527f8c5be1e5ebec7d5bd14f71427d1e84f3dd0314c0f7b2291e5b200ac8c7c3b92591015b60405180910390a3505050565b6000806118638542612603565b90506000611870826122a0565b9050600073__$6ad30996409d058139477db06ae39abaac$__636d5433e68a60055461189c9190612603565b60026040518363ffffffff1660e01b81526004016118bb929190612640565b602060405180830381865af41580156118d8573d6000803e3d6000fd5b505050506040513d601f19601f820116820180604052508101906118fc9190612748565b9050600061190c866103e8612616565b9050600061191c83898c85611633565b9050606461192a8582612603565b6119349083612550565b61193e91906125e1565b9b9a5050505050505050505050565b6001600160a01b0382166119a35760405162461bcd60e51b815260206004820152601f60248201527f45524332303a206d696e7420746f20746865207a65726f2061646472657373006044820152606401610860565b80600260008282546119b59190612616565b90915550506001600160a01b038216600081815260208181526040808320805486019055518481526000805160206127a2833981519152910160405180910390a35050565b33600090815260096020526040812080546001600160a01b0319168155600181018290556002810182905560038101829055600481018290556005018190556006805491611a4783612629565b9190505550565b6000611a5a84846116ed565b90506000198114611ac25781811015611ab55760405162461bcd60e51b815260206004820152601d60248201527f45524332303a20696e73756666696369656e7420616c6c6f77616e63650000006044820152606401610860565b611ac28484848403611731565b50505050565b6001600160a01b038316611b2c5760405162461bcd60e51b815260206004820152602560248201527f45524332303a207472616e736665722066726f6d20746865207a65726f206164604482015264647265737360d81b6064820152608401610860565b6001600160a01b038216611b8e5760405162461bcd60e51b815260206004820152602360248201527f45524332303a207472616e7366657220746f20746865207a65726f206164647260448201526265737360e81b6064820152608401610860565b6001600160a01b03831660009081526020819052604090205481811015611c065760405162461bcd60e51b815260206004820152602660248201527f45524332303a207472616e7366657220616d6f756e7420657863656564732062604482015265616c616e636560d01b6064820152608401610860565b6001600160a01b03848116600081815260208181526040808320878703905593871680835291849020805487019055925185815290926000805160206127a2833981519152910160405180910390a3611ac2565b600082421115611cad57600061016d611c738685612550565b611c8090620f4240612550565b611c8a91906125e1565b90506305f5e100611c9b8288612550565b611ca591906125e1565b9150506116ba565b506000949350505050565b60006113886005541115611da9576000611ce66116a4611cd8600f6120f8565b61167d6116426005546120f8565b6001600160401b031690506000611d006201518083612550565b611d0e620151806064612550565b611d189190612616565b905073__$6ad30996409d058139477db06ae39abaac$__637ae2b5c782611d44620151806103e8612550565b6040518363ffffffff1660e01b8152600401611d61929190612640565b602060405180830381865af4158015611d7e573d6000803e3d6000fd5b505050506040513d601f19601f82011682018060405250810190611da29190612748565b9250505090565b610ba4620151806064612550565b60405180608001604052808281526020016201518083611dd79190612550565b611de19042612616565b8152602001838152602001611df4611fb6565b9052336000908152600a602090815260408083208451815591840151600183015583015160028201556060909201516003909201919091556007805491611e3a8361272f565b91905055508160086000828254611e519190612616565b90915550505050565b6001600160a01b038216611eba5760405162461bcd60e51b815260206004820152602160248201527f45524332303a206275726e2066726f6d20746865207a65726f206164647265736044820152607360f81b6064820152608401610860565b6001600160a01b03821660009081526020819052604090205481811015611f2e5760405162461bcd60e51b815260206004820152602260248201527f45524332303a206275726e20616d6f756e7420657863656564732062616c616e604482015261636560f01b6064820152608401610860565b6001600160a01b0383166000818152602081815260408083208686039055600280548790039055518581529192916000805160206127a28339815191529101611849565b600080620186a06005546001611f889190612550565b611f9291906125e1565b90506064811115611fa557600091505090565b611fb0816064612603565b91505090565b600080611fc7605a62015180612550565b611ff17f000000000000000000000000000000000000000000000000000000000000000042612603565b611ffb91906125e1565b90508061200a60026014612603565b101561201857600291505090565b611fb0816014612603565b600080620151806120547f000000000000000000000000000000000000000000000000000000000000000042612603565b61205e91906125e1565b9050610bb88110156120f05773__$6ad30996409d058139477db06ae39abaac$__636d5433e661209083610bb8612603565b60016040518363ffffffff1660e01b81526004016120af929190612640565b602060405180830381865af41580156120cc573d6000803e3d6000fd5b505050506040513d601f19601f82011682018060405250810190611fb09190612748565b600191505090565b600060016001603f1b0382111561210e57600080fd5b5060401b90565b60008082600f0b1361212657600080fd5b6000600f83900b600160401b8112612140576040918201911d5b600160201b8112612153576020918201911d5b620100008112612165576010918201911d5b6101008112612176576008918201911d5b60108112612186576004918201911d5b60048112612196576002918201911d5b600281126121a5576001820191505b603f19820160401b600f85900b607f8490031b6001603f1b5b60008113156121e45790800260ff81901c8281029390930192607f011c9060011d6121be565b509095945050505050565b6000600f83810b9083900b0260401d60016001607f1b0319811280159061221d575060016001607f1b038113155b61222657600080fd5b9392505050565b600081600f0b60000361223f57600080fd5b600082600f0b604085600f0b901b8161225a5761225a6125cb565b05905060016001607f1b0319811280159061221d575060016001607f1b0381131561222657600080fd5b60008082600f0b121561229657600080fd5b50600f0b60401d90565b6000806122b062015180846125e1565b90506122be60016007612603565b8111156122ce5750606392915050565b6000600160076122df846003612616565b6001901b6122ed91906125e1565b6122f79190612603565b604051637ae2b5c760e01b815290915073__$6ad30996409d058139477db06ae39abaac$__90637ae2b5c790612334908490606390600401612640565b602060405180830381865af4158015612351573d6000803e3d6000fd5b505050506040513d601f19601f820116820180604052508101906116ba9190612748565b600060208083528351808285015260005b818110156123a257858101830151858201604001528201612386565b506000604082860101526040601f19601f8301168501019250505092915050565b80356001600160a01b03811681146123da57600080fd5b919050565b600080604083850312156123f257600080fd5b6123fb836123c3565b946020939093013593505050565b60008060006060848603121561241e57600080fd5b612427846123c3565b9250612435602085016123c3565b9150604084013590509250925092565b6000806040838503121561245857600080fd5b50508035926020909101359150565b60006020828403121561247957600080fd5b612226826123c3565b60006020828403121561249457600080fd5b5035919050565b600080600080608085870312156124b157600080fd5b5050823594602084013594506040840135936060013592509050565b600080604083850312156124e057600080fd5b6124e9836123c3565b91506124f7602084016123c3565b90509250929050565b600181811c9082168061251457607f821691505b60208210810361253457634e487b7160e01b600052602260045260246000fd5b50919050565b634e487b7160e01b600052601160045260246000fd5b80820281158282048414176107215761072161253a565b6020808252601590820152744352616e6b3a204e6f206d696e742065786973747360581b604082015260600190565b6020808252818101527f4352616e6b3a204d696e74206d61747572697479206e6f742072656163686564604082015260600190565b634e487b7160e01b600052601260045260246000fd5b6000826125fe57634e487b7160e01b600052601260045260246000fd5b500490565b818103818111156107215761072161253a565b808201808211156107215761072161253a565b6000816126385761263861253a565b506000190190565b918252602082015260400190565b60208082526014908201527358454e3a2042656c6f77206d696e207374616b6560601b604082015260600190565b60208082526019908201527858454e3a2042656c6f77206d696e207374616b65207465726d60381b604082015260600190565b60208082526019908201527858454e3a2041626f7665206d6178207374616b65207465726d60381b604082015260600190565b60208082526011908201527058454e3a207374616b652065786973747360781b604082015260600190565b60006020828403121561271f57600080fd5b8151801515811461222657600080fd5b6000600182016127415761274161253a565b5060010190565b60006020828403121561275a57600080fd5b505191905056fe1449c6dd7851abc30abf37f57715f492010519147cc2652fbc38202c18a6ee90d74752b13281df13701575f3a507e9b1242e0b5fb040143211c481c1fce573a6ddf252ad1be2c89b69c2b068fc378daa952ba7f163c4a11628f55a4df523b3ef404d724a61636b4c6576696e20406c62656c79616576206661697263727970746f2e6f7267a2646970667358221220d5b2fa076e1ad2004b1603126eeb5a195a7ac7403476a6f816d953d7c695614764736f6c63430008110033",
    "linkReferences": {
        "contracts/Math.sol": {
            "Math": [
                {
                    "length": 20,
                    "start": 6804
                },
                {
                    "length": 20,
                    "start": 7994
                },
                {
                    "length": 20,
                    "start": 8842
                },
                {
                    "length": 20,
                    "start": 9511
                }
            ]
        }
    },
    "deployedLinkReferences": {
        "contracts/Math.sol": {
            "Math": [
                {
                    "length": 20,
                    "start": 6262
                },
                {
                    "length": 20,
                    "start": 7452
                },
                {
                    "length": 20,
                    "start": 8300
                },
                {
                    "length": 20,
                    "start": 8969
                }
            ]
        }
    }
}