{
  "_format": "hh-sol-artifact-1",
  "contractName": "Forwarder",
  "sourceName": "contracts/Forwarder.sol",
  "abi": [
    {
      "inputs": [],
      "stateMutability": "nonpayable",
      "type": "constructor"
    },
    {
      "anonymous": false,
      "inputs": [
        {
          "indexed": true,
          "internalType": "bytes32",
          "name": "domainSeparator",
          "type": "bytes32"
        },
        {
          "indexed": false,
          "internalType": "bytes",
          "name": "domainValue",
          "type": "bytes"
        }
      ],
      "name": "DomainRegistered",
      "type": "event"
    },
    {
      "anonymous": false,
      "inputs": [
        {
          "indexed": true,
          "internalType": "bytes32",
          "name": "typeHash",
          "type": "bytes32"
        },
        {
          "indexed": false,
          "internalType": "string",
          "name": "typeStr",
          "type": "string"
        }
      ],
      "name": "RequestTypeRegistered",
      "type": "event"
    },
    {
      "inputs": [],
      "name": "EIP712_DOMAIN_TYPE",
      "outputs": [
        {
          "internalType": "string",
          "name": "",
          "type": "string"
        }
      ],
      "stateMutability": "view",
      "type": "function"
    },
    {
      "inputs": [],
      "name": "GENERIC_PARAMS",
      "outputs": [
        {
          "internalType": "string",
          "name": "",
          "type": "string"
        }
      ],
      "stateMutability": "view",
      "type": "function"
    },
    {
      "inputs": [
        {
          "components": [
            {
              "internalType": "address",
              "name": "from",
              "type": "address"
            },
            {
              "internalType": "address",
              "name": "to",
              "type": "address"
            },
            {
              "internalType": "uint256",
              "name": "value",
              "type": "uint256"
            },
            {
              "internalType": "uint256",
              "name": "gas",
              "type": "uint256"
            },
            {
              "internalType": "uint256",
              "name": "nonce",
              "type": "uint256"
            },
            {
              "internalType": "bytes",
              "name": "data",
              "type": "bytes"
            },
            {
              "internalType": "uint256",
              "name": "validUntilTime",
              "type": "uint256"
            }
          ],
          "internalType": "struct IForwarder.ForwardRequest",
          "name": "req",
          "type": "tuple"
        },
        {
          "internalType": "bytes32",
          "name": "requestTypeHash",
          "type": "bytes32"
        },
        {
          "internalType": "bytes",
          "name": "suffixData",
          "type": "bytes"
        }
      ],
      "name": "_getEncoded",
      "outputs": [
        {
          "internalType": "bytes",
          "name": "",
          "type": "bytes"
        }
      ],
      "stateMutability": "pure",
      "type": "function"
    },
    {
      "inputs": [
        {
          "internalType": "bytes32",
          "name": "",
          "type": "bytes32"
        }
      ],
      "name": "domains",
      "outputs": [
        {
          "internalType": "bool",
          "name": "",
          "type": "bool"
        }
      ],
      "stateMutability": "view",
      "type": "function"
    },
    {
      "inputs": [
        {
          "components": [
            {
              "internalType": "address",
              "name": "from",
              "type": "address"
            },
            {
              "internalType": "address",
              "name": "to",
              "type": "address"
            },
            {
              "internalType": "uint256",
              "name": "value",
              "type": "uint256"
            },
            {
              "internalType": "uint256",
              "name": "gas",
              "type": "uint256"
            },
            {
              "internalType": "uint256",
              "name": "nonce",
              "type": "uint256"
            },
            {
              "internalType": "bytes",
              "name": "data",
              "type": "bytes"
            },
            {
              "internalType": "uint256",
              "name": "validUntilTime",
              "type": "uint256"
            }
          ],
          "internalType": "struct IForwarder.ForwardRequest",
          "name": "req",
          "type": "tuple"
        },
        {
          "internalType": "bytes32",
          "name": "domainSeparator",
          "type": "bytes32"
        },
        {
          "internalType": "bytes32",
          "name": "requestTypeHash",
          "type": "bytes32"
        },
        {
          "internalType": "bytes",
          "name": "suffixData",
          "type": "bytes"
        },
        {
          "internalType": "bytes",
          "name": "sig",
          "type": "bytes"
        }
      ],
      "name": "execute",
      "outputs": [
        {
          "internalType": "bool",
          "name": "success",
          "type": "bool"
        },
        {
          "internalType": "bytes",
          "name": "ret",
          "type": "bytes"
        }
      ],
      "stateMutability": "payable",
      "type": "function"
    },
    {
      "inputs": [
        {
          "internalType": "address",
          "name": "from",
          "type": "address"
        }
      ],
      "name": "getNonce",
      "outputs": [
        {
          "internalType": "uint256",
          "name": "",
          "type": "uint256"
        }
      ],
      "stateMutability": "view",
      "type": "function"
    },
    {
      "inputs": [
        {
          "internalType": "string",
          "name": "name",
          "type": "string"
        },
        {
          "internalType": "string",
          "name": "version",
          "type": "string"
        }
      ],
      "name": "registerDomainSeparator",
      "outputs": [],
      "stateMutability": "nonpayable",
      "type": "function"
    },
    {
      "inputs": [
        {
          "internalType": "string",
          "name": "typeName",
          "type": "string"
        },
        {
          "internalType": "string",
          "name": "typeSuffix",
          "type": "string"
        }
      ],
      "name": "registerRequestType",
      "outputs": [],
      "stateMutability": "nonpayable",
      "type": "function"
    },
    {
      "inputs": [
        {
          "internalType": "bytes4",
          "name": "interfaceId",
          "type": "bytes4"
        }
      ],
      "name": "supportsInterface",
      "outputs": [
        {
          "internalType": "bool",
          "name": "",
          "type": "bool"
        }
      ],
      "stateMutability": "view",
      "type": "function"
    },
    {
      "inputs": [
        {
          "internalType": "bytes32",
          "name": "",
          "type": "bytes32"
        }
      ],
      "name": "typeHashes",
      "outputs": [
        {
          "internalType": "bool",
          "name": "",
          "type": "bool"
        }
      ],
      "stateMutability": "view",
      "type": "function"
    },
    {
      "inputs": [
        {
          "components": [
            {
              "internalType": "address",
              "name": "from",
              "type": "address"
            },
            {
              "internalType": "address",
              "name": "to",
              "type": "address"
            },
            {
              "internalType": "uint256",
              "name": "value",
              "type": "uint256"
            },
            {
              "internalType": "uint256",
              "name": "gas",
              "type": "uint256"
            },
            {
              "internalType": "uint256",
              "name": "nonce",
              "type": "uint256"
            },
            {
              "internalType": "bytes",
              "name": "data",
              "type": "bytes"
            },
            {
              "internalType": "uint256",
              "name": "validUntilTime",
              "type": "uint256"
            }
          ],
          "internalType": "struct IForwarder.ForwardRequest",
          "name": "req",
          "type": "tuple"
        },
        {
          "internalType": "bytes32",
          "name": "domainSeparator",
          "type": "bytes32"
        },
        {
          "internalType": "bytes32",
          "name": "requestTypeHash",
          "type": "bytes32"
        },
        {
          "internalType": "bytes",
          "name": "suffixData",
          "type": "bytes"
        },
        {
          "internalType": "bytes",
          "name": "sig",
          "type": "bytes"
        }
      ],
      "name": "verify",
      "outputs": [],
      "stateMutability": "view",
      "type": "function"
    },
    {
      "stateMutability": "payable",
      "type": "receive"
    }
  ],
  "bytecode": "0x60806040523480156200001157600080fd5b5060006040518060a00160405280606181526020016200146f60619139604051602001620000409190620000ee565b60408051601f1981840301815291905290506200005d8162000064565b5062000167565b8051602080830191909120600081815291829052604091829020805460ff19166001179055905181907f64d6bce64323458c44643c51fe45113efc882082f7b7fd5f09f0d69d2eedb20290620000bc90859062000132565b60405180910390a25050565b60005b83811015620000e5578181015183820152602001620000cb565b50506000910152565b6e08cdee4eec2e4c8a4cae2eacae6e85608b1b8152600082516200011a81600f850160208701620000c8565b602960f81b600f939091019283015250601001919050565b602081526000825180602084015262000153816040850160208701620000c8565b601f01601f19169190910160400192915050565b6112f880620001776000396000f3fe6080604052600436106100905760003560e01c806301ffc9a71461009c578063066a310c146100d157806321fe98df146100f35780632d0335ab146101235780639c7b459214610167578063ad9f99c714610189578063c3f28abd146101a9578063c722f177146101be578063d9210be5146101ee578063e024dc7f1461020e578063e2b62f2d1461022f57600080fd5b3661009757005b600080fd5b3480156100a857600080fd5b506100bc6100b7366004610d4e565b61024f565b60405190151581526020015b60405180910390f35b3480156100dd57600080fd5b506100e6610286565b6040516100c89190610dcf565b3480156100ff57600080fd5b506100bc61010e366004610de2565b60006020819052908152604090205460ff1681565b34801561012f57600080fd5b5061015961013e366004610dfb565b6001600160a01b031660009081526002602052604090205490565b6040519081526020016100c8565b34801561017357600080fd5b50610187610182366004610e65565b6102a2565b005b34801561019557600080fd5b506101876101a4366004610ee8565b610399565b3480156101b557600080fd5b506100e66103ba565b3480156101ca57600080fd5b506100bc6101d9366004610de2565b60016020526000908152604090205460ff1681565b3480156101fa57600080fd5b50610187610209366004610e65565b6103d6565b61022161021c366004610ee8565b6104d9565b6040516100c8929190610f8f565b34801561023b57600080fd5b506100e661024a366004610fb2565b6106d7565b60006001600160e01b031982166309788f9960e21b148061028057506301ffc9a760e01b6001600160e01b03198316145b92915050565b6040518060a00160405280606181526020016112106061913981565b60004690506000604051806080016040528060528152602001611271605291398051906020012086866040516102d9929190611008565b604051809103902085856040516102f1929190611008565b6040805191829003822060208301949094528101919091526060810191909152608081018390523060a082015260c00160408051601f198184030181528282528051602080830191909120600081815260019283905293909320805460ff1916909117905592509081907f4bc68689cbe89a4a6333a3ab0a70093874da3e5bfb71e93102027f3f073687d890610388908590610dcf565b60405180910390a250505050505050565b6103a287610771565b6103b1878787878787876107c8565b50505050505050565b6040518060800160405280605281526020016112716052913981565b60005b838110156104845760008585838181106103f5576103f5611018565b909101356001600160f81b031916915050600560fb1b81148015906104285750602960f81b6001600160f81b0319821614155b6104715760405162461bcd60e51b81526020600482015260156024820152744657443a20696e76616c696420747970656e616d6560581b60448201526064015b60405180910390fd5b508061047c81611044565b9150506103d9565b50600084846040518060a00160405280606181526020016112106061913985856040516020016104b895949392919061105d565b60405160208183030381529060405290506104d281610991565b5050505050565b600060606104ec898989898989896107c8565b6104f5896109f3565b60c089013515806105095750428960c00135115b61054c5760405162461bcd60e51b81526020600482015260146024820152731195d10e881c995c5d595cdd08195e1c1a5c995960621b6044820152606401610468565b600060408a01351561055d5750619c405b600061056c60a08c018c6110ab565b61057960208e018e610dfb565b60405160200161058b939291906110f1565b60408051601f1981840301815291905290506105ab8260608d0135611112565b60405a6105b990603f611125565b6105c3919061113c565b10156106095760405162461bcd60e51b81526020600482015260156024820152744657443a20696e73756666696369656e742067617360581b6044820152606401610468565b61061960408c0160208d01610dfb565b6001600160a01b03168b606001358c604001358360405161063a919061115e565b600060405180830381858888f193505050503d8060008114610678576040519150601f19603f3d011682016040523d82523d6000602084013e61067d565b606091505b50909450925060408b0135158015906106965750600047115b156106c95760405133904780156108fc02916000818181858888f193505050501580156106c7573d6000803e3d6000fd5b505b505097509795505050505050565b6060836106e76020870187610dfb565b6001600160a01b03166107006040880160208901610dfb565b6001600160a01b03166040880135606089013560808a013561072560a08c018c6110ab565b604051610733929190611008565b6040519081900381206107589796959493929160c08e0135908c908c9060200161117a565b6040516020818303038152906040529050949350505050565b6080810135600260006107876020850185610dfb565b6001600160a01b03166001600160a01b0316815260200190815260200160002054146107c55760405162461bcd60e51b8152600401610468906111cc565b50565b60008681526001602052604090205460ff166108265760405162461bcd60e51b815260206004820152601d60248201527f4657443a20756e7265676973746572656420646f6d61696e207365702e0000006044820152606401610468565b60008581526020819052604090205460ff166108815760405162461bcd60e51b815260206004820152601a60248201527908cae887440eadce4caced2e6e8cae4cac840e8f2e0cad0c2e6d60331b6044820152606401610468565b600086610890898888886106d7565b80516020918201206040516108bc93920161190160f01b81526002810192909252602282015260420190565b60408051601f198184030181529190528051602090910120905032158061094157506108eb6020890189610dfb565b6001600160a01b031661093684848080601f0160208091040260200160405190810160405280939291908181526020018383808284376000920191909152508693925050610a519050565b6001600160a01b0316145b6109875760405162461bcd60e51b815260206004820152601760248201527608cae887440e6d2cedcc2e8eae4ca40dad2e6dac2e8c6d604b1b6044820152606401610468565b5050505050505050565b8051602080830191909120600081815291829052604091829020805460ff19166001179055905181907f64d6bce64323458c44643c51fe45113efc882082f7b7fd5f09f0d69d2eedb202906109e7908590610dcf565b60405180910390a25050565b608081013560026000610a096020850185610dfb565b6001600160a01b0316815260208101919091526040016000908120805491610a3083611044565b91905055146107c55760405162461bcd60e51b8152600401610468906111cc565b6000806000610a608585610a75565b91509150610a6d81610aba565b509392505050565b6000808251604103610aab5760208301516040840151606085015160001a610a9f87828585610c6b565b94509450505050610ab3565b506000905060025b9250929050565b6000816004811115610ace57610ace6111f9565b03610ad65750565b6001816004811115610aea57610aea6111f9565b03610b325760405162461bcd60e51b815260206004820152601860248201527745434453413a20696e76616c6964207369676e617475726560401b6044820152606401610468565b6002816004811115610b4657610b466111f9565b03610b935760405162461bcd60e51b815260206004820152601f60248201527f45434453413a20696e76616c6964207369676e6174757265206c656e677468006044820152606401610468565b6003816004811115610ba757610ba76111f9565b03610bff5760405162461bcd60e51b815260206004820152602260248201527f45434453413a20696e76616c6964207369676e6174757265202773272076616c604482015261756560f01b6064820152608401610468565b6004816004811115610c1357610c136111f9565b036107c55760405162461bcd60e51b815260206004820152602260248201527f45434453413a20696e76616c6964207369676e6174757265202776272076616c604482015261756560f01b6064820152608401610468565b6000806fa2a8918ca85bafe22016d0b997e4df60600160ff1b03831115610c985750600090506003610d45565b8460ff16601b14158015610cb057508460ff16601c14155b15610cc15750600090506004610d45565b6040805160008082526020820180845289905260ff881692820192909252606081018690526080810185905260019060a0016020604051602081039080840390855afa158015610d15573d6000803e3d6000fd5b5050604051601f1901519150506001600160a01b038116610d3e57600060019250925050610d45565b9150600090505b94509492505050565b600060208284031215610d6057600080fd5b81356001600160e01b031981168114610d7857600080fd5b9392505050565b60005b83811015610d9a578181015183820152602001610d82565b50506000910152565b60008151808452610dbb816020860160208601610d7f565b601f01601f19169290920160200192915050565b602081526000610d786020830184610da3565b600060208284031215610df457600080fd5b5035919050565b600060208284031215610e0d57600080fd5b81356001600160a01b0381168114610d7857600080fd5b60008083601f840112610e3657600080fd5b5081356001600160401b03811115610e4d57600080fd5b602083019150836020828501011115610ab357600080fd5b60008060008060408587031215610e7b57600080fd5b84356001600160401b0380821115610e9257600080fd5b610e9e88838901610e24565b90965094506020870135915080821115610eb757600080fd5b50610ec487828801610e24565b95989497509550505050565b600060e08284031215610ee257600080fd5b50919050565b600080600080600080600060a0888a031215610f0357600080fd5b87356001600160401b0380821115610f1a57600080fd5b610f268b838c01610ed0565b985060208a0135975060408a0135965060608a0135915080821115610f4a57600080fd5b610f568b838c01610e24565b909650945060808a0135915080821115610f6f57600080fd5b50610f7c8a828b01610e24565b989b979a50959850939692959293505050565b8215158152604060208201526000610faa6040830184610da3565b949350505050565b60008060008060608587031215610fc857600080fd5b84356001600160401b0380821115610fdf57600080fd5b610feb88838901610ed0565b9550602087013594506040870135915080821115610eb757600080fd5b8183823760009101908152919050565b634e487b7160e01b600052603260045260246000fd5b634e487b7160e01b600052601160045260246000fd5b6000600182016110565761105661102e565b5060010190565b848682376000858201600560fb1b81528551611080816001840160208a01610d7f565b600b60fa1b600192909101918201528385600283013760009301600201928352509095945050505050565b6000808335601e198436030181126110c257600080fd5b8301803591506001600160401b038211156110dc57600080fd5b602001915036819003821315610ab357600080fd5b8284823760609190911b6001600160601b0319169101908152601401919050565b808201808211156102805761028061102e565b80820281158282048414176102805761028061102e565b60008261115957634e487b7160e01b600052601260045260246000fd5b500490565b60008251611170818460208701610d7f565b9190910192915050565b8a81528960208201528860408201528760608201528660808201528560a08201528460c08201528360e082015260006101008385828501376000929093019092019081529a9950505050505050505050565b60208082526013908201527208cae887440dcdedcc6ca40dad2e6dac2e8c6d606b1b604082015260600190565b634e487b7160e01b600052602160045260246000fdfe616464726573732066726f6d2c6164647265737320746f2c75696e743235362076616c75652c75696e74323536206761732c75696e74323536206e6f6e63652c627974657320646174612c75696e743235362076616c6964556e74696c54696d65454950373132446f6d61696e28737472696e67206e616d652c737472696e672076657273696f6e2c75696e7432353620636861696e49642c6164647265737320766572696679696e67436f6e747261637429a2646970667358221220c8d6965e3600bd455574759d9bcfec049440d8e45fd10a59a9f94adfb9337f3664736f6c63430008110033616464726573732066726f6d2c6164647265737320746f2c75696e743235362076616c75652c75696e74323536206761732c75696e74323536206e6f6e63652c627974657320646174612c75696e743235362076616c6964556e74696c54696d65",
  "linkReferences": {},
  "deployedLinkReferences": {}
}