{
  "_format": "hh-sol-artifact-1",
  "contractName": "Forwarder",
  "sourceName": "contracts/Forwarder.sol",
  "abi": [
    {
      "inputs": [],
      "stateMutability": "nonpayable",
      "type": "constructor"
    },
    {
      "anonymous": false,
      "inputs": [
        {
          "indexed": true,
          "internalType": "bytes32",
          "name": "domainSeparator",
          "type": "bytes32"
        },
        {
          "indexed": false,
          "internalType": "bytes",
          "name": "domainValue",
          "type": "bytes"
        }
      ],
      "name": "DomainRegistered",
      "type": "event"
    },
    {
      "anonymous": false,
      "inputs": [
        {
          "indexed": true,
          "internalType": "bytes32",
          "name": "typeHash",
          "type": "bytes32"
        },
        {
          "indexed": false,
          "internalType": "string",
          "name": "typeStr",
          "type": "string"
        }
      ],
      "name": "RequestTypeRegistered",
      "type": "event"
    },
    {
      "inputs": [],
      "name": "EIP712_DOMAIN_TYPE",
      "outputs": [
        {
          "internalType": "string",
          "name": "",
          "type": "string"
        }
      ],
      "stateMutability": "view",
      "type": "function"
    },
    {
      "inputs": [],
      "name": "GENERIC_PARAMS",
      "outputs": [
        {
          "internalType": "string",
          "name": "",
          "type": "string"
        }
      ],
      "stateMutability": "view",
      "type": "function"
    },
    {
      "inputs": [
        {
          "components": [
            {
              "internalType": "address",
              "name": "from",
              "type": "address"
            },
            {
              "internalType": "address",
              "name": "to",
              "type": "address"
            },
            {
              "internalType": "uint256",
              "name": "value",
              "type": "uint256"
            },
            {
              "internalType": "uint256",
              "name": "gas",
              "type": "uint256"
            },
            {
              "internalType": "uint256",
              "name": "nonce",
              "type": "uint256"
            },
            {
              "internalType": "bytes",
              "name": "data",
              "type": "bytes"
            },
            {
              "internalType": "uint256",
              "name": "validUntilTime",
              "type": "uint256"
            }
          ],
          "internalType": "struct IForwarder.ForwardRequest",
          "name": "req",
          "type": "tuple"
        },
        {
          "internalType": "bytes32",
          "name": "requestTypeHash",
          "type": "bytes32"
        },
        {
          "internalType": "bytes",
          "name": "suffixData",
          "type": "bytes"
        }
      ],
      "name": "_getEncoded",
      "outputs": [
        {
          "internalType": "bytes",
          "name": "",
          "type": "bytes"
        }
      ],
      "stateMutability": "pure",
      "type": "function"
    },
    {
      "inputs": [
        {
          "internalType": "bytes32",
          "name": "",
          "type": "bytes32"
        }
      ],
      "name": "domains",
      "outputs": [
        {
          "internalType": "bool",
          "name": "",
          "type": "bool"
        }
      ],
      "stateMutability": "view",
      "type": "function"
    },
    {
      "inputs": [
        {
          "components": [
            {
              "internalType": "address",
              "name": "from",
              "type": "address"
            },
            {
              "internalType": "address",
              "name": "to",
              "type": "address"
            },
            {
              "internalType": "uint256",
              "name": "value",
              "type": "uint256"
            },
            {
              "internalType": "uint256",
              "name": "gas",
              "type": "uint256"
            },
            {
              "internalType": "uint256",
              "name": "nonce",
              "type": "uint256"
            },
            {
              "internalType": "bytes",
              "name": "data",
              "type": "bytes"
            },
            {
              "internalType": "uint256",
              "name": "validUntilTime",
              "type": "uint256"
            }
          ],
          "internalType": "struct IForwarder.ForwardRequest",
          "name": "req",
          "type": "tuple"
        },
        {
          "internalType": "bytes32",
          "name": "domainSeparator",
          "type": "bytes32"
        },
        {
          "internalType": "bytes32",
          "name": "requestTypeHash",
          "type": "bytes32"
        },
        {
          "internalType": "bytes",
          "name": "suffixData",
          "type": "bytes"
        },
        {
          "internalType": "bytes",
          "name": "sig",
          "type": "bytes"
        }
      ],
      "name": "execute",
      "outputs": [
        {
          "internalType": "bool",
          "name": "success",
          "type": "bool"
        },
        {
          "internalType": "bytes",
          "name": "ret",
          "type": "bytes"
        }
      ],
      "stateMutability": "payable",
      "type": "function"
    },
    {
      "inputs": [
        {
          "internalType": "address",
          "name": "from",
          "type": "address"
        }
      ],
      "name": "getNonce",
      "outputs": [
        {
          "internalType": "uint256",
          "name": "",
          "type": "uint256"
        }
      ],
      "stateMutability": "view",
      "type": "function"
    },
    {
      "inputs": [
        {
          "internalType": "string",
          "name": "name",
          "type": "string"
        },
        {
          "internalType": "string",
          "name": "version",
          "type": "string"
        }
      ],
      "name": "registerDomainSeparator",
      "outputs": [],
      "stateMutability": "nonpayable",
      "type": "function"
    },
    {
      "inputs": [
        {
          "internalType": "string",
          "name": "typeName",
          "type": "string"
        },
        {
          "internalType": "string",
          "name": "typeSuffix",
          "type": "string"
        }
      ],
      "name": "registerRequestType",
      "outputs": [],
      "stateMutability": "nonpayable",
      "type": "function"
    },
    {
      "inputs": [
        {
          "internalType": "bytes4",
          "name": "interfaceId",
          "type": "bytes4"
        }
      ],
      "name": "supportsInterface",
      "outputs": [
        {
          "internalType": "bool",
          "name": "",
          "type": "bool"
        }
      ],
      "stateMutability": "view",
      "type": "function"
    },
    {
      "inputs": [
        {
          "internalType": "bytes32",
          "name": "",
          "type": "bytes32"
        }
      ],
      "name": "typeHashes",
      "outputs": [
        {
          "internalType": "bool",
          "name": "",
          "type": "bool"
        }
      ],
      "stateMutability": "view",
      "type": "function"
    },
    {
      "inputs": [
        {
          "components": [
            {
              "internalType": "address",
              "name": "from",
              "type": "address"
            },
            {
              "internalType": "address",
              "name": "to",
              "type": "address"
            },
            {
              "internalType": "uint256",
              "name": "value",
              "type": "uint256"
            },
            {
              "internalType": "uint256",
              "name": "gas",
              "type": "uint256"
            },
            {
              "internalType": "uint256",
              "name": "nonce",
              "type": "uint256"
            },
            {
              "internalType": "bytes",
              "name": "data",
              "type": "bytes"
            },
            {
              "internalType": "uint256",
              "name": "validUntilTime",
              "type": "uint256"
            }
          ],
          "internalType": "struct IForwarder.ForwardRequest",
          "name": "req",
          "type": "tuple"
        },
        {
          "internalType": "bytes32",
          "name": "domainSeparator",
          "type": "bytes32"
        },
        {
          "internalType": "bytes32",
          "name": "requestTypeHash",
          "type": "bytes32"
        },
        {
          "internalType": "bytes",
          "name": "suffixData",
          "type": "bytes"
        },
        {
          "internalType": "bytes",
          "name": "sig",
          "type": "bytes"
        }
      ],
      "name": "verify",
      "outputs": [],
      "stateMutability": "view",
      "type": "function"
    },
    {
      "stateMutability": "payable",
      "type": "receive"
    }
  ],
  "bytecode": "0x60806040523480156200001157600080fd5b5060006040518060a0016040528060618152602001620013da60619139604051602001620000409190620000ee565b60408051601f1981840301815291905290506200005d8162000064565b5062000167565b8051602080830191909120600081815291829052604091829020805460ff19166001179055905181907f64d6bce64323458c44643c51fe45113efc882082f7b7fd5f09f0d69d2eedb20290620000bc90859062000132565b60405180910390a25050565b60005b83811015620000e5578181015183820152602001620000cb565b50506000910152565b6e08cdee4eec2e4c8a4cae2eacae6e85608b1b8152600082516200011a81600f850160208701620000c8565b602960f81b600f939091019283015250601001919050565b602081526000825180602084015262000153816040850160208701620000c8565b601f01601f19169190910160400192915050565b61126380620001776000396000f3fe6080604052600436106100905760003560e01c806301ffc9a71461009c578063066a310c146100d157806321fe98df146100f35780632d0335ab146101235780639c7b459214610167578063ad9f99c714610189578063c3f28abd146101a9578063c722f177146101be578063d9210be5146101ee578063e024dc7f1461020e578063e2b62f2d1461022f57600080fd5b3661009757005b600080fd5b3480156100a857600080fd5b506100bc6100b7366004610cb9565b61024f565b60405190151581526020015b60405180910390f35b3480156100dd57600080fd5b506100e6610286565b6040516100c89190610d3a565b3480156100ff57600080fd5b506100bc61010e366004610d4d565b60006020819052908152604090205460ff1681565b34801561012f57600080fd5b5061015961013e366004610d66565b6001600160a01b031660009081526002602052604090205490565b6040519081526020016100c8565b34801561017357600080fd5b50610187610182366004610dd0565b6102a2565b005b34801561019557600080fd5b506101876101a4366004610e53565b610399565b3480156101b557600080fd5b506100e66103ba565b3480156101ca57600080fd5b506100bc6101d9366004610d4d565b60016020526000908152604090205460ff1681565b3480156101fa57600080fd5b50610187610209366004610dd0565b6103d6565b61022161021c366004610e53565b6104d9565b6040516100c8929190610efa565b34801561023b57600080fd5b506100e661024a366004610f1d565b6106d7565b60006001600160e01b031982166309788f9960e21b148061028057506301ffc9a760e01b6001600160e01b03198316145b92915050565b6040518060a001604052806061815260200161117b6061913981565b600046905060006040518060800160405280605281526020016111dc605291398051906020012086866040516102d9929190610f73565b604051809103902085856040516102f1929190610f73565b6040805191829003822060208301949094528101919091526060810191909152608081018390523060a082015260c00160408051601f198184030181528282528051602080830191909120600081815260019283905293909320805460ff1916909117905592509081907f4bc68689cbe89a4a6333a3ab0a70093874da3e5bfb71e93102027f3f073687d890610388908590610d3a565b60405180910390a250505050505050565b6103a287610771565b6103b1878787878787876107c8565b50505050505050565b6040518060800160405280605281526020016111dc6052913981565b60005b838110156104845760008585838181106103f5576103f5610f83565b909101356001600160f81b031916915050600560fb1b81148015906104285750602960f81b6001600160f81b0319821614155b6104715760405162461bcd60e51b81526020600482015260156024820152744657443a20696e76616c696420747970656e616d6560581b60448201526064015b60405180910390fd5b508061047c81610faf565b9150506103d9565b50600084846040518060a001604052806061815260200161117b6061913985856040516020016104b8959493929190610fc8565b60405160208183030381529060405290506104d281610991565b5050505050565b600060606104ec898989898989896107c8565b6104f5896109f3565b60c089013515806105095750428960c00135115b61054c5760405162461bcd60e51b81526020600482015260146024820152731195d10e881c995c5d595cdd08195e1c1a5c995960621b6044820152606401610468565b600060408a01351561055d5750619c405b600061056c60a08c018c611016565b61057960208e018e610d66565b60405160200161058b9392919061105c565b60408051601f1981840301815291905290506105ab8260608d013561107d565b60405a6105b990603f611090565b6105c391906110a7565b10156106095760405162461bcd60e51b81526020600482015260156024820152744657443a20696e73756666696369656e742067617360581b6044820152606401610468565b61061960408c0160208d01610d66565b6001600160a01b03168b606001358c604001358360405161063a91906110c9565b600060405180830381858888f193505050503d8060008114610678576040519150601f19603f3d011682016040523d82523d6000602084013e61067d565b606091505b50909450925060408b0135158015906106965750600047115b156106c95760405133904780156108fc02916000818181858888f193505050501580156106c7573d6000803e3d6000fd5b505b505097509795505050505050565b6060836106e76020870187610d66565b6001600160a01b03166107006040880160208901610d66565b6001600160a01b03166040880135606089013560808a013561072560a08c018c611016565b604051610733929190610f73565b6040519081900381206107589796959493929160c08e0135908c908c906020016110e5565b6040516020818303038152906040529050949350505050565b6080810135600260006107876020850185610d66565b6001600160a01b03166001600160a01b0316815260200190815260200160002054146107c55760405162461bcd60e51b815260040161046890611137565b50565b60008681526001602052604090205460ff166108265760405162461bcd60e51b815260206004820152601d60248201527f4657443a20756e7265676973746572656420646f6d61696e207365702e0000006044820152606401610468565b60008581526020819052604090205460ff166108815760405162461bcd60e51b815260206004820152601a60248201527908cae887440eadce4caced2e6e8cae4cac840e8f2e0cad0c2e6d60331b6044820152606401610468565b600086610890898888886106d7565b80516020918201206040516108bc93920161190160f01b81526002810192909252602282015260420190565b60408051601f198184030181529190528051602090910120905032158061094157506108eb6020890189610d66565b6001600160a01b031661093684848080601f0160208091040260200160405190810160405280939291908181526020018383808284376000920191909152508693925050610a519050565b6001600160a01b0316145b6109875760405162461bcd60e51b815260206004820152601760248201527608cae887440e6d2cedcc2e8eae4ca40dad2e6dac2e8c6d604b1b6044820152606401610468565b5050505050505050565b8051602080830191909120600081815291829052604091829020805460ff19166001179055905181907f64d6bce64323458c44643c51fe45113efc882082f7b7fd5f09f0d69d2eedb202906109e7908590610d3a565b60405180910390a25050565b608081013560026000610a096020850185610d66565b6001600160a01b0316815260208101919091526040016000908120805491610a3083610faf565b91905055146107c55760405162461bcd60e51b815260040161046890611137565b6000806000610a608585610a75565b91509150610a6d81610aba565b509392505050565b6000808251604103610aab5760208301516040840151606085015160001a610a9f87828585610bff565b94509450505050610ab3565b506000905060025b9250929050565b6000816004811115610ace57610ace611164565b03610ad65750565b6001816004811115610aea57610aea611164565b03610b325760405162461bcd60e51b815260206004820152601860248201527745434453413a20696e76616c6964207369676e617475726560401b6044820152606401610468565b6002816004811115610b4657610b46611164565b03610b935760405162461bcd60e51b815260206004820152601f60248201527f45434453413a20696e76616c6964207369676e6174757265206c656e677468006044820152606401610468565b6003816004811115610ba757610ba7611164565b036107c55760405162461bcd60e51b815260206004820152602260248201527f45434453413a20696e76616c6964207369676e6174757265202773272076616c604482015261756560f01b6064820152608401610468565b6000806fa2a8918ca85bafe22016d0b997e4df60600160ff1b03831115610c2c5750600090506003610cb0565b6040805160008082526020820180845289905260ff881692820192909252606081018690526080810185905260019060a0016020604051602081039080840390855afa158015610c80573d6000803e3d6000fd5b5050604051601f1901519150506001600160a01b038116610ca957600060019250925050610cb0565b9150600090505b94509492505050565b600060208284031215610ccb57600080fd5b81356001600160e01b031981168114610ce357600080fd5b9392505050565b60005b83811015610d05578181015183820152602001610ced565b50506000910152565b60008151808452610d26816020860160208601610cea565b601f01601f19169290920160200192915050565b602081526000610ce36020830184610d0e565b600060208284031215610d5f57600080fd5b5035919050565b600060208284031215610d7857600080fd5b81356001600160a01b0381168114610ce357600080fd5b60008083601f840112610da157600080fd5b5081356001600160401b03811115610db857600080fd5b602083019150836020828501011115610ab357600080fd5b60008060008060408587031215610de657600080fd5b84356001600160401b0380821115610dfd57600080fd5b610e0988838901610d8f565b90965094506020870135915080821115610e2257600080fd5b50610e2f87828801610d8f565b95989497509550505050565b600060e08284031215610e4d57600080fd5b50919050565b600080600080600080600060a0888a031215610e6e57600080fd5b87356001600160401b0380821115610e8557600080fd5b610e918b838c01610e3b565b985060208a0135975060408a0135965060608a0135915080821115610eb557600080fd5b610ec18b838c01610d8f565b909650945060808a0135915080821115610eda57600080fd5b50610ee78a828b01610d8f565b989b979a50959850939692959293505050565b8215158152604060208201526000610f156040830184610d0e565b949350505050565b60008060008060608587031215610f3357600080fd5b84356001600160401b0380821115610f4a57600080fd5b610f5688838901610e3b565b9550602087013594506040870135915080821115610e2257600080fd5b8183823760009101908152919050565b634e487b7160e01b600052603260045260246000fd5b634e487b7160e01b600052601160045260246000fd5b600060018201610fc157610fc1610f99565b5060010190565b848682376000858201600560fb1b81528551610feb816001840160208a01610cea565b600b60fa1b600192909101918201528385600283013760009301600201928352509095945050505050565b6000808335601e1984360301811261102d57600080fd5b8301803591506001600160401b0382111561104757600080fd5b602001915036819003821315610ab357600080fd5b8284823760609190911b6001600160601b0319169101908152601401919050565b8082018082111561028057610280610f99565b808202811582820484141761028057610280610f99565b6000826110c457634e487b7160e01b600052601260045260246000fd5b500490565b600082516110db818460208701610cea565b9190910192915050565b8a81528960208201528860408201528760608201528660808201528560a08201528460c08201528360e082015260006101008385828501376000929093019092019081529a9950505050505050505050565b60208082526013908201527208cae887440dcdedcc6ca40dad2e6dac2e8c6d606b1b604082015260600190565b634e487b7160e01b600052602160045260246000fdfe616464726573732066726f6d2c6164647265737320746f2c75696e743235362076616c75652c75696e74323536206761732c75696e74323536206e6f6e63652c627974657320646174612c75696e743235362076616c6964556e74696c54696d65454950373132446f6d61696e28737472696e67206e616d652c737472696e672076657273696f6e2c75696e7432353620636861696e49642c6164647265737320766572696679696e67436f6e747261637429a264697066735822122016f9e18981bd1af30181df2f3c9ed7728bbd8bd3efc9e38c5b2943c6e282375a64736f6c63430008110033616464726573732066726f6d2c6164647265737320746f2c75696e743235362076616c75652c75696e74323536206761732c75696e74323536206e6f6e63652c627974657320646174612c75696e743235362076616c6964556e74696c54696d65",
  "linkReferences": {},
  "deployedLinkReferences": {}
}