{
	"contracts/Forwarder.sol": {
		"Forwarder": {
			"abi": [
				{
					"inputs": [],
					"stateMutability": "nonpayable",
					"type": "constructor"
				},
				{
					"anonymous": false,
					"inputs": [
						{
							"indexed": true,
							"internalType": "bytes32",
							"name": "domainSeparator",
							"type": "bytes32"
						},
						{
							"indexed": false,
							"internalType": "bytes",
							"name": "domainValue",
							"type": "bytes"
						}
					],
					"name": "DomainRegistered",
					"type": "event"
				},
				{
					"anonymous": false,
					"inputs": [
						{
							"indexed": true,
							"internalType": "bytes32",
							"name": "typeHash",
							"type": "bytes32"
						},
						{
							"indexed": false,
							"internalType": "string",
							"name": "typeStr",
							"type": "string"
						}
					],
					"name": "RequestTypeRegistered",
					"type": "event"
				},
				{
					"inputs": [],
					"name": "EIP712_DOMAIN_TYPE",
					"outputs": [
						{
							"internalType": "string",
							"name": "",
							"type": "string"
						}
					],
					"stateMutability": "view",
					"type": "function"
				},
				{
					"inputs": [],
					"name": "GENERIC_PARAMS",
					"outputs": [
						{
							"internalType": "string",
							"name": "",
							"type": "string"
						}
					],
					"stateMutability": "view",
					"type": "function"
				},
				{
					"inputs": [
						{
							"components": [
								{
									"internalType": "address",
									"name": "from",
									"type": "address"
								},
								{
									"internalType": "address",
									"name": "to",
									"type": "address"
								},
								{
									"internalType": "uint256",
									"name": "value",
									"type": "uint256"
								},
								{
									"internalType": "uint256",
									"name": "gas",
									"type": "uint256"
								},
								{
									"internalType": "uint256",
									"name": "nonce",
									"type": "uint256"
								},
								{
									"internalType": "bytes",
									"name": "data",
									"type": "bytes"
								},
								{
									"internalType": "uint256",
									"name": "validUntilTime",
									"type": "uint256"
								}
							],
							"internalType": "struct IForwarder.ForwardRequest",
							"name": "req",
							"type": "tuple"
						},
						{
							"internalType": "bytes32",
							"name": "requestTypeHash",
							"type": "bytes32"
						},
						{
							"internalType": "bytes",
							"name": "suffixData",
							"type": "bytes"
						}
					],
					"name": "_getEncoded",
					"outputs": [
						{
							"internalType": "bytes",
							"name": "",
							"type": "bytes"
						}
					],
					"stateMutability": "pure",
					"type": "function"
				},
				{
					"inputs": [
						{
							"internalType": "bytes32",
							"name": "",
							"type": "bytes32"
						}
					],
					"name": "domains",
					"outputs": [
						{
							"internalType": "bool",
							"name": "",
							"type": "bool"
						}
					],
					"stateMutability": "view",
					"type": "function"
				},
				{
					"inputs": [
						{
							"components": [
								{
									"internalType": "address",
									"name": "from",
									"type": "address"
								},
								{
									"internalType": "address",
									"name": "to",
									"type": "address"
								},
								{
									"internalType": "uint256",
									"name": "value",
									"type": "uint256"
								},
								{
									"internalType": "uint256",
									"name": "gas",
									"type": "uint256"
								},
								{
									"internalType": "uint256",
									"name": "nonce",
									"type": "uint256"
								},
								{
									"internalType": "bytes",
									"name": "data",
									"type": "bytes"
								},
								{
									"internalType": "uint256",
									"name": "validUntilTime",
									"type": "uint256"
								}
							],
							"internalType": "struct IForwarder.ForwardRequest",
							"name": "req",
							"type": "tuple"
						},
						{
							"internalType": "bytes32",
							"name": "domainSeparator",
							"type": "bytes32"
						},
						{
							"internalType": "bytes32",
							"name": "requestTypeHash",
							"type": "bytes32"
						},
						{
							"internalType": "bytes",
							"name": "suffixData",
							"type": "bytes"
						},
						{
							"internalType": "bytes",
							"name": "sig",
							"type": "bytes"
						}
					],
					"name": "execute",
					"outputs": [
						{
							"internalType": "bool",
							"name": "success",
							"type": "bool"
						},
						{
							"internalType": "bytes",
							"name": "ret",
							"type": "bytes"
						}
					],
					"stateMutability": "payable",
					"type": "function"
				},
				{
					"inputs": [
						{
							"internalType": "address",
							"name": "from",
							"type": "address"
						}
					],
					"name": "getNonce",
					"outputs": [
						{
							"internalType": "uint256",
							"name": "",
							"type": "uint256"
						}
					],
					"stateMutability": "view",
					"type": "function"
				},
				{
					"inputs": [
						{
							"internalType": "string",
							"name": "name",
							"type": "string"
						},
						{
							"internalType": "string",
							"name": "version",
							"type": "string"
						}
					],
					"name": "registerDomainSeparator",
					"outputs": [],
					"stateMutability": "nonpayable",
					"type": "function"
				},
				{
					"inputs": [
						{
							"internalType": "string",
							"name": "typeName",
							"type": "string"
						},
						{
							"internalType": "string",
							"name": "typeSuffix",
							"type": "string"
						}
					],
					"name": "registerRequestType",
					"outputs": [],
					"stateMutability": "nonpayable",
					"type": "function"
				},
				{
					"inputs": [
						{
							"internalType": "bytes4",
							"name": "interfaceId",
							"type": "bytes4"
						}
					],
					"name": "supportsInterface",
					"outputs": [
						{
							"internalType": "bool",
							"name": "",
							"type": "bool"
						}
					],
					"stateMutability": "view",
					"type": "function"
				},
				{
					"inputs": [
						{
							"internalType": "bytes32",
							"name": "",
							"type": "bytes32"
						}
					],
					"name": "typeHashes",
					"outputs": [
						{
							"internalType": "bool",
							"name": "",
							"type": "bool"
						}
					],
					"stateMutability": "view",
					"type": "function"
				},
				{
					"inputs": [
						{
							"components": [
								{
									"internalType": "address",
									"name": "from",
									"type": "address"
								},
								{
									"internalType": "address",
									"name": "to",
									"type": "address"
								},
								{
									"internalType": "uint256",
									"name": "value",
									"type": "uint256"
								},
								{
									"internalType": "uint256",
									"name": "gas",
									"type": "uint256"
								},
								{
									"internalType": "uint256",
									"name": "nonce",
									"type": "uint256"
								},
								{
									"internalType": "bytes",
									"name": "data",
									"type": "bytes"
								},
								{
									"internalType": "uint256",
									"name": "validUntilTime",
									"type": "uint256"
								}
							],
							"internalType": "struct IForwarder.ForwardRequest",
							"name": "req",
							"type": "tuple"
						},
						{
							"internalType": "bytes32",
							"name": "domainSeparator",
							"type": "bytes32"
						},
						{
							"internalType": "bytes32",
							"name": "requestTypeHash",
							"type": "bytes32"
						},
						{
							"internalType": "bytes",
							"name": "suffixData",
							"type": "bytes"
						},
						{
							"internalType": "bytes",
							"name": "sig",
							"type": "bytes"
						}
					],
					"name": "verify",
					"outputs": [],
					"stateMutability": "view",
					"type": "function"
				},
				{
					"stateMutability": "payable",
					"type": "receive"
				}
			],
			"devdoc": {
				"kind": "dev",
				"methods": {
					"execute((address,address,uint256,uint256,uint256,bytes,uint256),bytes32,bytes32,bytes,bytes)": {
						"params": {
							"domainSeparator": "The domain used when signing this request.",
							"forwardRequest": "All requested transaction parameters.",
							"requestTypeHash": "The request type used when signing this request.",
							"signature": "The client signature to be validated.",
							"suffixData": "The ABI-encoded extension data for the current `RequestType` used when signing this request."
						},
						"returns": {
							"ret": "The byte array returned by the underlying `CALL` to the target address.",
							"success": "The success flag of the underlying `CALL` to the target address."
						}
					},
					"getNonce(address)": {
						"params": {
							"from": "The address of a sender."
						},
						"returns": {
							"_0": "The nonce for this address."
						}
					},
					"registerDomainSeparator(string,string)": {
						"params": {
							"name": "The domain's display name.",
							"version": "The domain/protocol version."
						}
					},
					"registerRequestType(string,string)": {
						"params": {
							"typeName": "The name of the request type.",
							"typeSuffix": "Any extra data after the generic params. Must contain add at least one param. The generic ForwardRequest type is always registered by the constructor."
						}
					},
					"supportsInterface(bytes4)": {
						"details": "Returns true if this contract implements the interface defined by `interfaceId`. See the corresponding https://eips.ethereum.org/EIPS/eip-165#how-interfaces-are-identified[EIP section] to learn more about how these ids are created. This function call must use less than 30 000 gas."
					}
				},
				"title": "The Forwarder Implementation",
				"version": 1
			},
			"evm": {
				"assembly": "    /* \"contracts/Forwarder.sol\":447:6690  contract Forwarder is IForwarder, ERC165 {... */\n  mstore(0x40, 0x80)\n    /* \"contracts/Forwarder.sol\":1333:1506  constructor() {... */\n  callvalue\n  dup1\n  iszero\n  tag_1\n  jumpi\n  0x00\n  dup1\n  revert\ntag_1:\n  pop\n    /* \"contracts/Forwarder.sol\":1357:1382  string memory requestType */\n  0x00\n    /* \"contracts/Forwarder.sol\":1428:1442  GENERIC_PARAMS */\n  mload(0x40)\n  dup1\n  0xa0\n  add\n  0x40\n  mstore\n  dup1\n  0x61\n  dup2\n  mstore\n  0x20\n  add\n  data_33f12fe95872be7be9c474c0e99a56a1b0cad386a14d26df2bb11622e5368f9b\n  0x61\n  swap2\n  codecopy\n    /* \"contracts/Forwarder.sol\":1392:1448  abi.encodePacked(\"ForwardRequest(\", GENERIC_PARAMS, \")\") */\n  add(0x20, mload(0x40))\n  tag_4\n  swap2\n  swap1\n  tag_5\n  jump\t// in\ntag_4:\n  mload(0x40)\n  0x20\n  dup2\n  dup4\n  sub\n  sub\n  dup2\n  mstore\n  swap1\n  0x40\n  mstore\n    /* \"contracts/Forwarder.sol\":1357:1449  string memory requestType = string(abi.encodePacked(\"ForwardRequest(\", GENERIC_PARAMS, \")\")) */\n  swap1\n  pop\n    /* \"contracts/Forwarder.sol\":1459:1499  registerRequestTypeInternal(requestType) */\n  tag_6\n    /* \"contracts/Forwarder.sol\":1487:1498  requestType */\n  dup2\n    /* \"contracts/Forwarder.sol\":1459:1486  registerRequestTypeInternal */\n  shl(0x20, tag_7)\n    /* \"contracts/Forwarder.sol\":1459:1499  registerRequestTypeInternal(requestType) */\n  0x20\n  shr\n  jump\t// in\ntag_6:\n    /* \"contracts/Forwarder.sol\":1347:1506  {... */\n  pop\n    /* \"contracts/Forwarder.sol\":447:6690  contract Forwarder is IForwarder, ERC165 {... */\n  jump(tag_8)\n    /* \"contracts/Forwarder.sol\":4822:5078  function registerRequestTypeInternal(string memory requestType) internal {... */\ntag_7:\n    /* \"contracts/Forwarder.sol\":4906:4929  bytes32 requestTypehash */\n  0x00\n    /* \"contracts/Forwarder.sol\":4948:4959  requestType */\n  dup2\n    /* \"contracts/Forwarder.sol\":4932:4961  keccak256(bytes(requestType)) */\n  dup1\n  mload\n  swap1\n  0x20\n  add\n  keccak256\n    /* \"contracts/Forwarder.sol\":4906:4961  bytes32 requestTypehash = keccak256(bytes(requestType)) */\n  swap1\n  pop\n    /* \"contracts/Forwarder.sol\":5001:5005  true */\n  0x01\n    /* \"contracts/Forwarder.sol\":4971:4981  typeHashes */\n  0x00\n    /* \"contracts/Forwarder.sol\":4971:4998  typeHashes[requestTypehash] */\n  dup1\n    /* \"contracts/Forwarder.sol\":4982:4997  requestTypehash */\n  dup4\n    /* \"contracts/Forwarder.sol\":4971:4998  typeHashes[requestTypehash] */\n  dup2\n  mstore\n  0x20\n  add\n  swap1\n  dup2\n  mstore\n  0x20\n  add\n  0x00\n  keccak256\n  0x00\n    /* \"contracts/Forwarder.sol\":4971:5005  typeHashes[requestTypehash] = true */\n  0x0100\n  exp\n  dup2\n  sload\n  dup2\n  0xff\n  mul\n  not\n  and\n  swap1\n  dup4\n  iszero\n  iszero\n  mul\n  or\n  swap1\n  sstore\n  pop\n    /* \"contracts/Forwarder.sol\":5042:5057  requestTypehash */\n  dup1\n    /* \"contracts/Forwarder.sol\":5020:5071  RequestTypeRegistered(requestTypehash, requestType) */\n  0x64d6bce64323458c44643c51fe45113efc882082f7b7fd5f09f0d69d2eedb202\n    /* \"contracts/Forwarder.sol\":5059:5070  requestType */\n  dup4\n    /* \"contracts/Forwarder.sol\":5020:5071  RequestTypeRegistered(requestTypehash, requestType) */\n  mload(0x40)\n  tag_10\n  swap2\n  swap1\n  tag_11\n  jump\t// in\ntag_10:\n  mload(0x40)\n  dup1\n  swap2\n  sub\n  swap1\n  log2\n    /* \"contracts/Forwarder.sol\":4895:5078  {... */\n  pop\n    /* \"contracts/Forwarder.sol\":4822:5078  function registerRequestTypeInternal(string memory requestType) internal {... */\n  pop\n  jump\t// out\n    /* \"#utility.yul\":7:155   */\ntag_12:\n    /* \"#utility.yul\":109:120   */\n  0x00\n    /* \"#utility.yul\":146:149   */\n  dup2\n    /* \"#utility.yul\":131:149   */\n  swap1\n  pop\n    /* \"#utility.yul\":7:155   */\n  swap3\n  swap2\n  pop\n  pop\n  jump\t// out\n    /* \"#utility.yul\":161:330   */\ntag_13:\n    /* \"#utility.yul\":301:318   */\n  0x466f727761726452657175657374280000000000000000000000000000000000\n    /* \"#utility.yul\":297:298   */\n  0x00\n    /* \"#utility.yul\":289:295   */\n  dup3\n    /* \"#utility.yul\":285:299   */\n  add\n    /* \"#utility.yul\":278:319   */\n  mstore\n    /* \"#utility.yul\":161:330   */\n  pop\n  jump\t// out\n    /* \"#utility.yul\":340:758   */\ntag_14:\n    /* \"#utility.yul\":500:503   */\n  0x00\n    /* \"#utility.yul\":525:610   */\n  tag_27\n    /* \"#utility.yul\":607:609   */\n  0x0f\n    /* \"#utility.yul\":602:605   */\n  dup4\n    /* \"#utility.yul\":525:610   */\n  tag_12\n  jump\t// in\ntag_27:\n    /* \"#utility.yul\":518:610   */\n  swap2\n  pop\n    /* \"#utility.yul\":623:716   */\n  tag_28\n    /* \"#utility.yul\":712:715   */\n  dup3\n    /* \"#utility.yul\":623:716   */\n  tag_13\n  jump\t// in\ntag_28:\n    /* \"#utility.yul\":745:747   */\n  0x0f\n    /* \"#utility.yul\":740:743   */\n  dup3\n    /* \"#utility.yul\":736:748   */\n  add\n    /* \"#utility.yul\":729:748   */\n  swap1\n  pop\n    /* \"#utility.yul\":340:758   */\n  swap2\n  swap1\n  pop\n  jump\t// out\n    /* \"#utility.yul\":768:875   */\ntag_15:\n    /* \"#utility.yul\":820:826   */\n  0x00\n    /* \"#utility.yul\":858:863   */\n  dup2\n    /* \"#utility.yul\":852:864   */\n  mload\n    /* \"#utility.yul\":842:864   */\n  swap1\n  pop\n    /* \"#utility.yul\":768:875   */\n  swap2\n  swap1\n  pop\n  jump\t// out\n    /* \"#utility.yul\":885:1159   */\ntag_16:\n    /* \"#utility.yul\":970:971   */\n  0x00\n    /* \"#utility.yul\":984:1109   */\ntag_31:\n    /* \"#utility.yul\":998:1004   */\n  dup4\n    /* \"#utility.yul\":995:996   */\n  dup2\n    /* \"#utility.yul\":992:1005   */\n  lt\n    /* \"#utility.yul\":984:1109   */\n  iszero\n  tag_33\n  jumpi\n    /* \"#utility.yul\":1091:1092   */\n  dup1\n    /* \"#utility.yul\":1086:1089   */\n  dup3\n    /* \"#utility.yul\":1082:1093   */\n  add\n    /* \"#utility.yul\":1076:1094   */\n  mload\n    /* \"#utility.yul\":1072:1073   */\n  dup2\n    /* \"#utility.yul\":1067:1070   */\n  dup5\n    /* \"#utility.yul\":1063:1074   */\n  add\n    /* \"#utility.yul\":1056:1095   */\n  mstore\n    /* \"#utility.yul\":1020:1022   */\n  0x20\n    /* \"#utility.yul\":1017:1018   */\n  dup2\n    /* \"#utility.yul\":1013:1023   */\n  add\n    /* \"#utility.yul\":1008:1023   */\n  swap1\n  pop\n    /* \"#utility.yul\":984:1109   */\n  jump(tag_31)\ntag_33:\n    /* \"#utility.yul\":1147:1148   */\n  0x00\n    /* \"#utility.yul\":1138:1144   */\n  dup5\n    /* \"#utility.yul\":1133:1136   */\n  dup5\n    /* \"#utility.yul\":1129:1145   */\n  add\n    /* \"#utility.yul\":1122:1149   */\n  mstore\n    /* \"#utility.yul\":947:1159   */\n  pop\n    /* \"#utility.yul\":885:1159   */\n  pop\n  pop\n  pop\n  jump\t// out\n    /* \"#utility.yul\":1169:1579   */\ntag_17:\n    /* \"#utility.yul\":1275:1278   */\n  0x00\n    /* \"#utility.yul\":1307:1346   */\n  tag_35\n    /* \"#utility.yul\":1340:1345   */\n  dup3\n    /* \"#utility.yul\":1307:1346   */\n  tag_15\n  jump\t// in\ntag_35:\n    /* \"#utility.yul\":1366:1455   */\n  tag_36\n    /* \"#utility.yul\":1448:1454   */\n  dup2\n    /* \"#utility.yul\":1443:1446   */\n  dup6\n    /* \"#utility.yul\":1366:1455   */\n  tag_12\n  jump\t// in\ntag_36:\n    /* \"#utility.yul\":1359:1455   */\n  swap4\n  pop\n    /* \"#utility.yul\":1468:1533   */\n  tag_37\n    /* \"#utility.yul\":1526:1532   */\n  dup2\n    /* \"#utility.yul\":1521:1524   */\n  dup6\n    /* \"#utility.yul\":1514:1518   */\n  0x20\n    /* \"#utility.yul\":1507:1512   */\n  dup7\n    /* \"#utility.yul\":1503:1519   */\n  add\n    /* \"#utility.yul\":1468:1533   */\n  tag_16\n  jump\t// in\ntag_37:\n    /* \"#utility.yul\":1562:1568   */\n  dup1\n    /* \"#utility.yul\":1557:1560   */\n  dup5\n    /* \"#utility.yul\":1553:1569   */\n  add\n    /* \"#utility.yul\":1546:1569   */\n  swap2\n  pop\n    /* \"#utility.yul\":1279:1579   */\n  pop\n    /* \"#utility.yul\":1169:1579   */\n  swap3\n  swap2\n  pop\n  pop\n  jump\t// out\n    /* \"#utility.yul\":1589:1740   */\ntag_18:\n    /* \"#utility.yul\":1729:1732   */\n  0x2900000000000000000000000000000000000000000000000000000000000000\n    /* \"#utility.yul\":1725:1726   */\n  0x00\n    /* \"#utility.yul\":1717:1723   */\n  dup3\n    /* \"#utility.yul\":1713:1727   */\n  add\n    /* \"#utility.yul\":1706:1733   */\n  mstore\n    /* \"#utility.yul\":1589:1740   */\n  pop\n  jump\t// out\n    /* \"#utility.yul\":1746:2146   */\ntag_19:\n    /* \"#utility.yul\":1906:1909   */\n  0x00\n    /* \"#utility.yul\":1927:2011   */\n  tag_40\n    /* \"#utility.yul\":2009:2010   */\n  0x01\n    /* \"#utility.yul\":2004:2007   */\n  dup4\n    /* \"#utility.yul\":1927:2011   */\n  tag_12\n  jump\t// in\ntag_40:\n    /* \"#utility.yul\":1920:2011   */\n  swap2\n  pop\n    /* \"#utility.yul\":2020:2113   */\n  tag_41\n    /* \"#utility.yul\":2109:2112   */\n  dup3\n    /* \"#utility.yul\":2020:2113   */\n  tag_18\n  jump\t// in\ntag_41:\n    /* \"#utility.yul\":2138:2139   */\n  0x01\n    /* \"#utility.yul\":2133:2136   */\n  dup3\n    /* \"#utility.yul\":2129:2140   */\n  add\n    /* \"#utility.yul\":2122:2140   */\n  swap1\n  pop\n    /* \"#utility.yul\":1746:2146   */\n  swap2\n  swap1\n  pop\n  jump\t// out\n    /* \"#utility.yul\":2152:2959   */\ntag_5:\n    /* \"#utility.yul\":2486:2489   */\n  0x00\n    /* \"#utility.yul\":2508:2656   */\n  tag_43\n    /* \"#utility.yul\":2652:2655   */\n  dup3\n    /* \"#utility.yul\":2508:2656   */\n  tag_14\n  jump\t// in\ntag_43:\n    /* \"#utility.yul\":2501:2656   */\n  swap2\n  pop\n    /* \"#utility.yul\":2673:2768   */\n  tag_44\n    /* \"#utility.yul\":2764:2767   */\n  dup3\n    /* \"#utility.yul\":2755:2761   */\n  dup5\n    /* \"#utility.yul\":2673:2768   */\n  tag_17\n  jump\t// in\ntag_44:\n    /* \"#utility.yul\":2666:2768   */\n  swap2\n  pop\n    /* \"#utility.yul\":2785:2933   */\n  tag_45\n    /* \"#utility.yul\":2929:2932   */\n  dup3\n    /* \"#utility.yul\":2785:2933   */\n  tag_19\n  jump\t// in\ntag_45:\n    /* \"#utility.yul\":2778:2933   */\n  swap2\n  pop\n    /* \"#utility.yul\":2950:2953   */\n  dup2\n    /* \"#utility.yul\":2943:2953   */\n  swap1\n  pop\n    /* \"#utility.yul\":2152:2959   */\n  swap3\n  swap2\n  pop\n  pop\n  jump\t// out\n    /* \"#utility.yul\":2965:3134   */\ntag_20:\n    /* \"#utility.yul\":3049:3060   */\n  0x00\n    /* \"#utility.yul\":3083:3089   */\n  dup3\n    /* \"#utility.yul\":3078:3081   */\n  dup3\n    /* \"#utility.yul\":3071:3090   */\n  mstore\n    /* \"#utility.yul\":3123:3127   */\n  0x20\n    /* \"#utility.yul\":3118:3121   */\n  dup3\n    /* \"#utility.yul\":3114:3128   */\n  add\n    /* \"#utility.yul\":3099:3128   */\n  swap1\n  pop\n    /* \"#utility.yul\":2965:3134   */\n  swap3\n  swap2\n  pop\n  pop\n  jump\t// out\n    /* \"#utility.yul\":3140:3242   */\ntag_21:\n    /* \"#utility.yul\":3181:3187   */\n  0x00\n    /* \"#utility.yul\":3232:3234   */\n  0x1f\n    /* \"#utility.yul\":3228:3235   */\n  not\n    /* \"#utility.yul\":3223:3225   */\n  0x1f\n    /* \"#utility.yul\":3216:3221   */\n  dup4\n    /* \"#utility.yul\":3212:3226   */\n  add\n    /* \"#utility.yul\":3208:3236   */\n  and\n    /* \"#utility.yul\":3198:3236   */\n  swap1\n  pop\n    /* \"#utility.yul\":3140:3242   */\n  swap2\n  swap1\n  pop\n  jump\t// out\n    /* \"#utility.yul\":3248:3625   */\ntag_22:\n    /* \"#utility.yul\":3336:3339   */\n  0x00\n    /* \"#utility.yul\":3364:3403   */\n  tag_49\n    /* \"#utility.yul\":3397:3402   */\n  dup3\n    /* \"#utility.yul\":3364:3403   */\n  tag_15\n  jump\t// in\ntag_49:\n    /* \"#utility.yul\":3419:3490   */\n  tag_50\n    /* \"#utility.yul\":3483:3489   */\n  dup2\n    /* \"#utility.yul\":3478:3481   */\n  dup6\n    /* \"#utility.yul\":3419:3490   */\n  tag_20\n  jump\t// in\ntag_50:\n    /* \"#utility.yul\":3412:3490   */\n  swap4\n  pop\n    /* \"#utility.yul\":3499:3564   */\n  tag_51\n    /* \"#utility.yul\":3557:3563   */\n  dup2\n    /* \"#utility.yul\":3552:3555   */\n  dup6\n    /* \"#utility.yul\":3545:3549   */\n  0x20\n    /* \"#utility.yul\":3538:3543   */\n  dup7\n    /* \"#utility.yul\":3534:3550   */\n  add\n    /* \"#utility.yul\":3499:3564   */\n  tag_16\n  jump\t// in\ntag_51:\n    /* \"#utility.yul\":3589:3618   */\n  tag_52\n    /* \"#utility.yul\":3611:3617   */\n  dup2\n    /* \"#utility.yul\":3589:3618   */\n  tag_21\n  jump\t// in\ntag_52:\n    /* \"#utility.yul\":3584:3587   */\n  dup5\n    /* \"#utility.yul\":3580:3619   */\n  add\n    /* \"#utility.yul\":3573:3619   */\n  swap2\n  pop\n    /* \"#utility.yul\":3340:3625   */\n  pop\n    /* \"#utility.yul\":3248:3625   */\n  swap3\n  swap2\n  pop\n  pop\n  jump\t// out\n    /* \"#utility.yul\":3631:3944   */\ntag_11:\n    /* \"#utility.yul\":3744:3748   */\n  0x00\n    /* \"#utility.yul\":3782:3784   */\n  0x20\n    /* \"#utility.yul\":3771:3780   */\n  dup3\n    /* \"#utility.yul\":3767:3785   */\n  add\n    /* \"#utility.yul\":3759:3785   */\n  swap1\n  pop\n    /* \"#utility.yul\":3831:3840   */\n  dup2\n    /* \"#utility.yul\":3825:3829   */\n  dup2\n    /* \"#utility.yul\":3821:3841   */\n  sub\n    /* \"#utility.yul\":3817:3818   */\n  0x00\n    /* \"#utility.yul\":3806:3815   */\n  dup4\n    /* \"#utility.yul\":3802:3819   */\n  add\n    /* \"#utility.yul\":3795:3842   */\n  mstore\n    /* \"#utility.yul\":3859:3937   */\n  tag_54\n    /* \"#utility.yul\":3932:3936   */\n  dup2\n    /* \"#utility.yul\":3923:3929   */\n  dup5\n    /* \"#utility.yul\":3859:3937   */\n  tag_22\n  jump\t// in\ntag_54:\n    /* \"#utility.yul\":3851:3937   */\n  swap1\n  pop\n    /* \"#utility.yul\":3631:3944   */\n  swap3\n  swap2\n  pop\n  pop\n  jump\t// out\n    /* \"contracts/Forwarder.sol\":447:6690  contract Forwarder is IForwarder, ERC165 {... */\ntag_8:\n  dataSize(sub_0)\n  dup1\n  dataOffset(sub_0)\n  0x00\n  codecopy\n  0x00\n  return\nstop\ndata_33f12fe95872be7be9c474c0e99a56a1b0cad386a14d26df2bb11622e5368f9b 616464726573732066726f6d2c6164647265737320746f2c75696e743235362076616c75652c75696e74323536206761732c75696e74323536206e6f6e63652c627974657320646174612c75696e743235362076616c6964556e74696c54696d65\n\nsub_0: assembly {\n        /* \"contracts/Forwarder.sol\":447:6690  contract Forwarder is IForwarder, ERC165 {... */\n      mstore(0x40, 0x80)\n      jumpi(tag_1, lt(calldatasize, 0x04))\n      shr(0xe0, calldataload(0x00))\n      dup1\n      0xad9f99c7\n      gt\n      tag_14\n      jumpi\n      dup1\n      0xad9f99c7\n      eq\n      tag_8\n      jumpi\n      dup1\n      0xc3f28abd\n      eq\n      tag_9\n      jumpi\n      dup1\n      0xc722f177\n      eq\n      tag_10\n      jumpi\n      dup1\n      0xd9210be5\n      eq\n      tag_11\n      jumpi\n      dup1\n      0xe024dc7f\n      eq\n      tag_12\n      jumpi\n      dup1\n      0xe2b62f2d\n      eq\n      tag_13\n      jumpi\n      jump(tag_2)\n    tag_14:\n      dup1\n      0x01ffc9a7\n      eq\n      tag_3\n      jumpi\n      dup1\n      0x066a310c\n      eq\n      tag_4\n      jumpi\n      dup1\n      0x21fe98df\n      eq\n      tag_5\n      jumpi\n      dup1\n      0x2d0335ab\n      eq\n      tag_6\n      jumpi\n      dup1\n      0x9c7b4592\n      eq\n      tag_7\n      jumpi\n      jump(tag_2)\n    tag_1:\n      jumpi(tag_2, calldatasize)\n      stop\n    tag_2:\n      0x00\n      dup1\n      revert\n        /* \"contracts/Forwarder.sol\":1540:1767  function supportsInterface(bytes4 interfaceId) public view virtual override(IERC165, ERC165) returns (bool) {... */\n    tag_3:\n      callvalue\n      dup1\n      iszero\n      tag_17\n      jumpi\n      0x00\n      dup1\n      revert\n    tag_17:\n      pop\n      tag_18\n      0x04\n      dup1\n      calldatasize\n      sub\n      dup2\n      add\n      swap1\n      tag_19\n      swap2\n      swap1\n      tag_20\n      jump\t// in\n    tag_19:\n      tag_21\n      jump\t// in\n    tag_18:\n      mload(0x40)\n      tag_22\n      swap2\n      swap1\n      tag_23\n      jump\t// in\n    tag_22:\n      mload(0x40)\n      dup1\n      swap2\n      sub\n      swap1\n      return\n        /* \"contracts/Forwarder.sol\":616:755  string public constant GENERIC_PARAMS = \"address from,address to,uint256 value,uint256 gas,uint256 nonce,bytes data,uint256 validUntilTime\" */\n    tag_4:\n      callvalue\n      dup1\n      iszero\n      tag_24\n      jumpi\n      0x00\n      dup1\n      revert\n    tag_24:\n      pop\n      tag_25\n      tag_26\n      jump\t// in\n    tag_25:\n      mload(0x40)\n      tag_27\n      swap2\n      swap1\n      tag_28\n      jump\t// in\n    tag_27:\n      mload(0x40)\n      dup1\n      swap2\n      sub\n      swap1\n      return\n        /* \"contracts/Forwarder.sol\":897:939  mapping(bytes32 => bool) public typeHashes */\n    tag_5:\n      callvalue\n      dup1\n      iszero\n      tag_29\n      jumpi\n      0x00\n      dup1\n      revert\n    tag_29:\n      pop\n      tag_30\n      0x04\n      dup1\n      calldatasize\n      sub\n      dup2\n      add\n      swap1\n      tag_31\n      swap2\n      swap1\n      tag_32\n      jump\t// in\n    tag_31:\n      tag_33\n      jump\t// in\n    tag_30:\n      mload(0x40)\n      tag_34\n      swap2\n      swap1\n      tag_23\n      jump\t// in\n    tag_34:\n      mload(0x40)\n      dup1\n      swap2\n      sub\n      swap1\n      return\n        /* \"contracts/Forwarder.sol\":1212:1327  function getNonce(address from)... */\n    tag_6:\n      callvalue\n      dup1\n      iszero\n      tag_35\n      jumpi\n      0x00\n      dup1\n      revert\n    tag_35:\n      pop\n      tag_36\n      0x04\n      dup1\n      calldatasize\n      sub\n      dup2\n      add\n      swap1\n      tag_37\n      swap2\n      swap1\n      tag_38\n      jump\t// in\n    tag_37:\n      tag_39\n      jump\t// in\n    tag_36:\n      mload(0x40)\n      tag_40\n      swap2\n      swap1\n      tag_41\n      jump\t// in\n    tag_40:\n      mload(0x40)\n      dup1\n      swap2\n      sub\n      swap1\n      return\n        /* \"contracts/Forwarder.sol\":4216:4816  function registerDomainSeparator(string calldata name, string calldata version) external override {... */\n    tag_7:\n      callvalue\n      dup1\n      iszero\n      tag_42\n      jumpi\n      0x00\n      dup1\n      revert\n    tag_42:\n      pop\n      tag_43\n      0x04\n      dup1\n      calldatasize\n      sub\n      dup2\n      add\n      swap1\n      tag_44\n      swap2\n      swap1\n      tag_45\n      jump\t// in\n    tag_44:\n      tag_46\n      jump\t// in\n    tag_43:\n      stop\n        /* \"contracts/Forwarder.sol\":1804:2124  function verify(... */\n    tag_8:\n      callvalue\n      dup1\n      iszero\n      tag_47\n      jumpi\n      0x00\n      dup1\n      revert\n    tag_47:\n      pop\n      tag_48\n      0x04\n      dup1\n      calldatasize\n      sub\n      dup2\n      add\n      swap1\n      tag_49\n      swap2\n      swap1\n      tag_50\n      jump\t// in\n    tag_49:\n      tag_51\n      jump\t// in\n    tag_48:\n      stop\n        /* \"contracts/Forwarder.sol\":762:890  string public constant EIP712_DOMAIN_TYPE = \"EIP712Domain(string name,string version,uint256 chainId,address verifyingContract)\" */\n    tag_9:\n      callvalue\n      dup1\n      iszero\n      tag_52\n      jumpi\n      0x00\n      dup1\n      revert\n    tag_52:\n      pop\n      tag_53\n      tag_54\n      jump\t// in\n    tag_53:\n      mload(0x40)\n      tag_55\n      swap2\n      swap1\n      tag_28\n      jump\t// in\n    tag_55:\n      mload(0x40)\n      dup1\n      swap2\n      sub\n      swap1\n      return\n        /* \"contracts/Forwarder.sol\":945:984  mapping(bytes32 => bool) public domains */\n    tag_10:\n      callvalue\n      dup1\n      iszero\n      tag_56\n      jumpi\n      0x00\n      dup1\n      revert\n    tag_56:\n      pop\n      tag_57\n      0x04\n      dup1\n      calldatasize\n      sub\n      dup2\n      add\n      swap1\n      tag_58\n      swap2\n      swap1\n      tag_32\n      jump\t// in\n    tag_58:\n      tag_59\n      jump\t// in\n    tag_57:\n      mload(0x40)\n      tag_60\n      swap2\n      swap1\n      tag_23\n      jump\t// in\n    tag_60:\n      mload(0x40)\n      dup1\n      swap2\n      sub\n      swap1\n      return\n        /* \"contracts/Forwarder.sol\":3725:4179  function registerRequestType(string calldata typeName, string calldata typeSuffix) external override {... */\n    tag_11:\n      callvalue\n      dup1\n      iszero\n      tag_61\n      jumpi\n      0x00\n      dup1\n      revert\n    tag_61:\n      pop\n      tag_62\n      0x04\n      dup1\n      calldatasize\n      sub\n      dup2\n      add\n      swap1\n      tag_63\n      swap2\n      swap1\n      tag_45\n      jump\t// in\n    tag_63:\n      tag_64\n      jump\t// in\n    tag_62:\n      stop\n        /* \"contracts/Forwarder.sol\":2161:3384  function execute(... */\n    tag_12:\n      tag_65\n      0x04\n      dup1\n      calldatasize\n      sub\n      dup2\n      add\n      swap1\n      tag_66\n      swap2\n      swap1\n      tag_50\n      jump\t// in\n    tag_66:\n      tag_67\n      jump\t// in\n    tag_65:\n      mload(0x40)\n      tag_68\n      swap3\n      swap2\n      swap1\n      tag_69\n      jump\t// in\n    tag_68:\n      mload(0x40)\n      dup1\n      swap2\n      sub\n      swap1\n      return\n        /* \"contracts/Forwarder.sol\":5959:6688  function _getEncoded(... */\n    tag_13:\n      callvalue\n      dup1\n      iszero\n      tag_70\n      jumpi\n      0x00\n      dup1\n      revert\n    tag_70:\n      pop\n      tag_71\n      0x04\n      dup1\n      calldatasize\n      sub\n      dup2\n      add\n      swap1\n      tag_72\n      swap2\n      swap1\n      tag_73\n      jump\t// in\n    tag_72:\n      tag_74\n      jump\t// in\n    tag_71:\n      mload(0x40)\n      tag_75\n      swap2\n      swap1\n      tag_76\n      jump\t// in\n    tag_75:\n      mload(0x40)\n      dup1\n      swap2\n      sub\n      swap1\n      return\n        /* \"contracts/Forwarder.sol\":1540:1767  function supportsInterface(bytes4 interfaceId) public view virtual override(IERC165, ERC165) returns (bool) {... */\n    tag_21:\n        /* \"contracts/Forwarder.sol\":1642:1646  bool */\n      0x00\n        /* \"contracts/Forwarder.sol\":1680:1708  type(IForwarder).interfaceId */\n      0x25e23e6400000000000000000000000000000000000000000000000000000000\n        /* \"contracts/Forwarder.sol\":1665:1708  interfaceId == type(IForwarder).interfaceId */\n      not(0xffffffffffffffffffffffffffffffffffffffffffffffffffffffff)\n      and\n        /* \"contracts/Forwarder.sol\":1665:1676  interfaceId */\n      dup3\n        /* \"contracts/Forwarder.sol\":1665:1708  interfaceId == type(IForwarder).interfaceId */\n      not(0xffffffffffffffffffffffffffffffffffffffffffffffffffffffff)\n      and\n      eq\n        /* \"contracts/Forwarder.sol\":1665:1760  interfaceId == type(IForwarder).interfaceId ||... */\n      dup1\n      tag_78\n      jumpi\n      pop\n        /* \"contracts/Forwarder.sol\":1724:1760  super.supportsInterface(interfaceId) */\n      tag_79\n        /* \"contracts/Forwarder.sol\":1748:1759  interfaceId */\n      dup3\n        /* \"contracts/Forwarder.sol\":1724:1747  super.supportsInterface */\n      tag_80\n        /* \"contracts/Forwarder.sol\":1724:1760  super.supportsInterface(interfaceId) */\n      jump\t// in\n    tag_79:\n        /* \"contracts/Forwarder.sol\":1665:1760  interfaceId == type(IForwarder).interfaceId ||... */\n    tag_78:\n        /* \"contracts/Forwarder.sol\":1658:1760  return interfaceId == type(IForwarder).interfaceId ||... */\n      swap1\n      pop\n        /* \"contracts/Forwarder.sol\":1540:1767  function supportsInterface(bytes4 interfaceId) public view virtual override(IERC165, ERC165) returns (bool) {... */\n      swap2\n      swap1\n      pop\n      jump\t// out\n        /* \"contracts/Forwarder.sol\":616:755  string public constant GENERIC_PARAMS = \"address from,address to,uint256 value,uint256 gas,uint256 nonce,bytes data,uint256 validUntilTime\" */\n    tag_26:\n      mload(0x40)\n      dup1\n      0xa0\n      add\n      0x40\n      mstore\n      dup1\n      0x61\n      dup2\n      mstore\n      0x20\n      add\n      data_33f12fe95872be7be9c474c0e99a56a1b0cad386a14d26df2bb11622e5368f9b\n      0x61\n      swap2\n      codecopy\n      dup2\n      jump\t// out\n        /* \"contracts/Forwarder.sol\":897:939  mapping(bytes32 => bool) public typeHashes */\n    tag_33:\n      mstore(0x20, 0x00)\n      dup1\n      0x00\n      mstore\n      keccak256(0x00, 0x40)\n      0x00\n      swap2\n      pop\n      sload\n      swap1\n      0x0100\n      exp\n      swap1\n      div\n      0xff\n      and\n      dup2\n      jump\t// out\n        /* \"contracts/Forwarder.sol\":1212:1327  function getNonce(address from)... */\n    tag_39:\n        /* \"contracts/Forwarder.sol\":1282:1289  uint256 */\n      0x00\n        /* \"contracts/Forwarder.sol\":1308:1314  nonces */\n      0x02\n        /* \"contracts/Forwarder.sol\":1308:1320  nonces[from] */\n      0x00\n        /* \"contracts/Forwarder.sol\":1315:1319  from */\n      dup4\n        /* \"contracts/Forwarder.sol\":1308:1320  nonces[from] */\n      0xffffffffffffffffffffffffffffffffffffffff\n      and\n      0xffffffffffffffffffffffffffffffffffffffff\n      and\n      dup2\n      mstore\n      0x20\n      add\n      swap1\n      dup2\n      mstore\n      0x20\n      add\n      0x00\n      keccak256\n      sload\n        /* \"contracts/Forwarder.sol\":1301:1320  return nonces[from] */\n      swap1\n      pop\n        /* \"contracts/Forwarder.sol\":1212:1327  function getNonce(address from)... */\n      swap2\n      swap1\n      pop\n      jump\t// out\n        /* \"contracts/Forwarder.sol\":4216:4816  function registerDomainSeparator(string calldata name, string calldata version) external override {... */\n    tag_46:\n        /* \"contracts/Forwarder.sol\":4324:4339  uint256 chainId */\n      0x00\n        /* \"contracts/Forwarder.sol\":4430:4439  chainid() */\n      chainid\n        /* \"contracts/Forwarder.sol\":4419:4439  chainId := chainid() */\n      swap1\n      pop\n        /* \"contracts/Forwarder.sol\":4451:4475  bytes memory domainValue */\n      0x00\n        /* \"contracts/Forwarder.sol\":4518:4536  EIP712_DOMAIN_TYPE */\n      mload(0x40)\n      dup1\n      0x80\n      add\n      0x40\n      mstore\n      dup1\n      0x52\n      dup2\n      mstore\n      0x20\n      add\n      data_8b73c3c69bb8fe3d512ecc4cf759cc79239f7b179b0ffacaa9a75d522b39400f\n      0x52\n      swap2\n      codecopy\n        /* \"contracts/Forwarder.sol\":4502:4538  keccak256(bytes(EIP712_DOMAIN_TYPE)) */\n      dup1\n      mload\n      swap1\n      0x20\n      add\n      keccak256\n        /* \"contracts/Forwarder.sol\":4568:4572  name */\n      dup7\n      dup7\n        /* \"contracts/Forwarder.sol\":4552:4574  keccak256(bytes(name)) */\n      mload(0x40)\n      tag_83\n      swap3\n      swap2\n      swap1\n      tag_84\n      jump\t// in\n    tag_83:\n      mload(0x40)\n      dup1\n      swap2\n      sub\n      swap1\n      keccak256\n        /* \"contracts/Forwarder.sol\":4604:4611  version */\n      dup6\n      dup6\n        /* \"contracts/Forwarder.sol\":4588:4613  keccak256(bytes(version)) */\n      mload(0x40)\n      tag_85\n      swap3\n      swap2\n      swap1\n      tag_84\n      jump\t// in\n    tag_85:\n      mload(0x40)\n      dup1\n      swap2\n      sub\n      swap1\n      keccak256\n        /* \"contracts/Forwarder.sol\":4627:4634  chainId */\n      dup5\n        /* \"contracts/Forwarder.sol\":4656:4660  this */\n      address\n        /* \"contracts/Forwarder.sol\":4478:4662  abi.encode(... */\n      add(0x20, mload(0x40))\n      tag_86\n      swap6\n      swap5\n      swap4\n      swap3\n      swap2\n      swap1\n      tag_87\n      jump\t// in\n    tag_86:\n      mload(0x40)\n      0x20\n      dup2\n      dup4\n      sub\n      sub\n      dup2\n      mstore\n      swap1\n      0x40\n      mstore\n        /* \"contracts/Forwarder.sol\":4451:4662  bytes memory domainValue = abi.encode(... */\n      swap1\n      pop\n        /* \"contracts/Forwarder.sol\":4673:4691  bytes32 domainHash */\n      0x00\n        /* \"contracts/Forwarder.sol\":4704:4715  domainValue */\n      dup2\n        /* \"contracts/Forwarder.sol\":4694:4716  keccak256(domainValue) */\n      dup1\n      mload\n      swap1\n      0x20\n      add\n      keccak256\n        /* \"contracts/Forwarder.sol\":4673:4716  bytes32 domainHash = keccak256(domainValue) */\n      swap1\n      pop\n        /* \"contracts/Forwarder.sol\":4749:4753  true */\n      0x01\n        /* \"contracts/Forwarder.sol\":4727:4734  domains */\n      dup1\n        /* \"contracts/Forwarder.sol\":4727:4746  domains[domainHash] */\n      0x00\n        /* \"contracts/Forwarder.sol\":4735:4745  domainHash */\n      dup4\n        /* \"contracts/Forwarder.sol\":4727:4746  domains[domainHash] */\n      dup2\n      mstore\n      0x20\n      add\n      swap1\n      dup2\n      mstore\n      0x20\n      add\n      0x00\n      keccak256\n      0x00\n        /* \"contracts/Forwarder.sol\":4727:4753  domains[domainHash] = true */\n      0x0100\n      exp\n      dup2\n      sload\n      dup2\n      0xff\n      mul\n      not\n      and\n      swap1\n      dup4\n      iszero\n      iszero\n      mul\n      or\n      swap1\n      sstore\n      pop\n        /* \"contracts/Forwarder.sol\":4785:4795  domainHash */\n      dup1\n        /* \"contracts/Forwarder.sol\":4768:4809  DomainRegistered(domainHash, domainValue) */\n      0x4bc68689cbe89a4a6333a3ab0a70093874da3e5bfb71e93102027f3f073687d8\n        /* \"contracts/Forwarder.sol\":4797:4808  domainValue */\n      dup4\n        /* \"contracts/Forwarder.sol\":4768:4809  DomainRegistered(domainHash, domainValue) */\n      mload(0x40)\n      tag_88\n      swap2\n      swap1\n      tag_76\n      jump\t// in\n    tag_88:\n      mload(0x40)\n      dup1\n      swap2\n      sub\n      swap1\n      log2\n        /* \"contracts/Forwarder.sol\":4314:4816  {... */\n      pop\n      pop\n      pop\n        /* \"contracts/Forwarder.sol\":4216:4816  function registerDomainSeparator(string calldata name, string calldata version) external override {... */\n      pop\n      pop\n      pop\n      pop\n      jump\t// out\n        /* \"contracts/Forwarder.sol\":1804:2124  function verify(... */\n    tag_51:\n        /* \"contracts/Forwarder.sol\":2024:2041  _verifyNonce(req) */\n      tag_90\n        /* \"contracts/Forwarder.sol\":2037:2040  req */\n      dup8\n        /* \"contracts/Forwarder.sol\":2024:2036  _verifyNonce */\n      tag_91\n        /* \"contracts/Forwarder.sol\":2024:2041  _verifyNonce(req) */\n      jump\t// in\n    tag_90:\n        /* \"contracts/Forwarder.sol\":2051:2117  _verifySig(req, domainSeparator, requestTypeHash, suffixData, sig) */\n      tag_92\n        /* \"contracts/Forwarder.sol\":2062:2065  req */\n      dup8\n        /* \"contracts/Forwarder.sol\":2067:2082  domainSeparator */\n      dup8\n        /* \"contracts/Forwarder.sol\":2084:2099  requestTypeHash */\n      dup8\n        /* \"contracts/Forwarder.sol\":2101:2111  suffixData */\n      dup8\n      dup8\n        /* \"contracts/Forwarder.sol\":2113:2116  sig */\n      dup8\n      dup8\n        /* \"contracts/Forwarder.sol\":2051:2061  _verifySig */\n      tag_93\n        /* \"contracts/Forwarder.sol\":2051:2117  _verifySig(req, domainSeparator, requestTypeHash, suffixData, sig) */\n      jump\t// in\n    tag_92:\n        /* \"contracts/Forwarder.sol\":1804:2124  function verify(... */\n      pop\n      pop\n      pop\n      pop\n      pop\n      pop\n      pop\n      jump\t// out\n        /* \"contracts/Forwarder.sol\":762:890  string public constant EIP712_DOMAIN_TYPE = \"EIP712Domain(string name,string version,uint256 chainId,address verifyingContract)\" */\n    tag_54:\n      mload(0x40)\n      dup1\n      0x80\n      add\n      0x40\n      mstore\n      dup1\n      0x52\n      dup2\n      mstore\n      0x20\n      add\n      data_8b73c3c69bb8fe3d512ecc4cf759cc79239f7b179b0ffacaa9a75d522b39400f\n      0x52\n      swap2\n      codecopy\n      dup2\n      jump\t// out\n        /* \"contracts/Forwarder.sol\":945:984  mapping(bytes32 => bool) public domains */\n    tag_59:\n      mstore(0x20, 0x01)\n      dup1\n      0x00\n      mstore\n      keccak256(0x00, 0x40)\n      0x00\n      swap2\n      pop\n      sload\n      swap1\n      0x0100\n      exp\n      swap1\n      div\n      0xff\n      and\n      dup2\n      jump\t// out\n        /* \"contracts/Forwarder.sol\":3725:4179  function registerRequestType(string calldata typeName, string calldata typeSuffix) external override {... */\n    tag_64:\n        /* \"contracts/Forwarder.sol\":3842:3851  uint256 i */\n      0x00\n        /* \"contracts/Forwarder.sol\":3837:4012  for (uint256 i = 0; i < bytes(typeName).length; i++) {... */\n    tag_95:\n        /* \"contracts/Forwarder.sol\":3867:3875  typeName */\n      dup5\n      dup5\n        /* \"contracts/Forwarder.sol\":3861:3883  bytes(typeName).length */\n      swap1\n      pop\n        /* \"contracts/Forwarder.sol\":3857:3858  i */\n      dup2\n        /* \"contracts/Forwarder.sol\":3857:3883  i < bytes(typeName).length */\n      lt\n        /* \"contracts/Forwarder.sol\":3837:4012  for (uint256 i = 0; i < bytes(typeName).length; i++) {... */\n      iszero\n      tag_96\n      jumpi\n        /* \"contracts/Forwarder.sol\":3904:3912  bytes1 c */\n      0x00\n        /* \"contracts/Forwarder.sol\":3921:3929  typeName */\n      dup6\n      dup6\n        /* \"contracts/Forwarder.sol\":3931:3932  i */\n      dup4\n        /* \"contracts/Forwarder.sol\":3915:3933  bytes(typeName)[i] */\n      dup2\n      dup2\n      lt\n      tag_98\n      jumpi\n      tag_99\n      tag_100\n      jump\t// in\n    tag_99:\n    tag_98:\n      swap1\n      pop\n      add\n      calldataload\n      0xf8\n      shr\n      0xf8\n      shl\n        /* \"contracts/Forwarder.sol\":3904:3933  bytes1 c = bytes(typeName)[i] */\n      swap1\n      pop\n        /* \"contracts/Forwarder.sol\":3955:3963  c != \"(\" */\n      0x2800000000000000000000000000000000000000000000000000000000000000\n        /* \"contracts/Forwarder.sol\":3955:3956  c */\n      dup2\n        /* \"contracts/Forwarder.sol\":3955:3963  c != \"(\" */\n      not(0xffffffffffffffffffffffffffffffffffffffffffffffffffffffffffffff)\n      and\n      eq\n      iszero\n        /* \"contracts/Forwarder.sol\":3955:3975  c != \"(\" && c != \")\" */\n      dup1\n      iszero\n      tag_101\n      jumpi\n      pop\n        /* \"contracts/Forwarder.sol\":3967:3975  c != \")\" */\n      0x2900000000000000000000000000000000000000000000000000000000000000\n        /* \"contracts/Forwarder.sol\":3967:3968  c */\n      dup2\n        /* \"contracts/Forwarder.sol\":3967:3975  c != \")\" */\n      not(0xffffffffffffffffffffffffffffffffffffffffffffffffffffffffffffff)\n      and\n      eq\n      iszero\n        /* \"contracts/Forwarder.sol\":3955:3975  c != \"(\" && c != \")\" */\n    tag_101:\n        /* \"contracts/Forwarder.sol\":3947:4001  require(c != \"(\" && c != \")\", \"FWD: invalid typename\") */\n      tag_102\n      jumpi\n      mload(0x40)\n      0x08c379a000000000000000000000000000000000000000000000000000000000\n      dup2\n      mstore\n      0x04\n      add\n      tag_103\n      swap1\n      tag_104\n      jump\t// in\n    tag_103:\n      mload(0x40)\n      dup1\n      swap2\n      sub\n      swap1\n      revert\n    tag_102:\n        /* \"contracts/Forwarder.sol\":3890:4012  {... */\n      pop\n        /* \"contracts/Forwarder.sol\":3885:3888  i++ */\n      dup1\n      dup1\n      tag_105\n      swap1\n      tag_106\n      jump\t// in\n    tag_105:\n      swap2\n      pop\n      pop\n        /* \"contracts/Forwarder.sol\":3837:4012  for (uint256 i = 0; i < bytes(typeName).length; i++) {... */\n      jump(tag_95)\n    tag_96:\n      pop\n        /* \"contracts/Forwarder.sol\":4022:4047  string memory requestType */\n      0x00\n        /* \"contracts/Forwarder.sol\":4074:4082  typeName */\n      dup5\n      dup5\n        /* \"contracts/Forwarder.sol\":4089:4103  GENERIC_PARAMS */\n      mload(0x40)\n      dup1\n      0xa0\n      add\n      0x40\n      mstore\n      dup1\n      0x61\n      dup2\n      mstore\n      0x20\n      add\n      data_33f12fe95872be7be9c474c0e99a56a1b0cad386a14d26df2bb11622e5368f9b\n      0x61\n      swap2\n      codecopy\n        /* \"contracts/Forwarder.sol\":4110:4120  typeSuffix */\n      dup6\n      dup6\n        /* \"contracts/Forwarder.sol\":4057:4121  abi.encodePacked(typeName, \"(\", GENERIC_PARAMS, \",\", typeSuffix) */\n      add(0x20, mload(0x40))\n      tag_107\n      swap6\n      swap5\n      swap4\n      swap3\n      swap2\n      swap1\n      tag_108\n      jump\t// in\n    tag_107:\n      mload(0x40)\n      0x20\n      dup2\n      dup4\n      sub\n      sub\n      dup2\n      mstore\n      swap1\n      0x40\n      mstore\n        /* \"contracts/Forwarder.sol\":4022:4122  string memory requestType = string(abi.encodePacked(typeName, \"(\", GENERIC_PARAMS, \",\", typeSuffix)) */\n      swap1\n      pop\n        /* \"contracts/Forwarder.sol\":4132:4172  registerRequestTypeInternal(requestType) */\n      tag_109\n        /* \"contracts/Forwarder.sol\":4160:4171  requestType */\n      dup2\n        /* \"contracts/Forwarder.sol\":4132:4159  registerRequestTypeInternal */\n      tag_110\n        /* \"contracts/Forwarder.sol\":4132:4172  registerRequestTypeInternal(requestType) */\n      jump\t// in\n    tag_109:\n        /* \"contracts/Forwarder.sol\":3826:4179  {... */\n      pop\n        /* \"contracts/Forwarder.sol\":3725:4179  function registerRequestType(string calldata typeName, string calldata typeSuffix) external override {... */\n      pop\n      pop\n      pop\n      pop\n      jump\t// out\n        /* \"contracts/Forwarder.sol\":2161:3384  function execute(... */\n    tag_67:\n        /* \"contracts/Forwarder.sol\":2397:2409  bool success */\n      0x00\n        /* \"contracts/Forwarder.sol\":2411:2427  bytes memory ret */\n      0x60\n        /* \"contracts/Forwarder.sol\":2439:2505  _verifySig(req, domainSeparator, requestTypeHash, suffixData, sig) */\n      tag_112\n        /* \"contracts/Forwarder.sol\":2450:2453  req */\n      dup10\n        /* \"contracts/Forwarder.sol\":2455:2470  domainSeparator */\n      dup10\n        /* \"contracts/Forwarder.sol\":2472:2487  requestTypeHash */\n      dup10\n        /* \"contracts/Forwarder.sol\":2489:2499  suffixData */\n      dup10\n      dup10\n        /* \"contracts/Forwarder.sol\":2501:2504  sig */\n      dup10\n      dup10\n        /* \"contracts/Forwarder.sol\":2439:2449  _verifySig */\n      tag_93\n        /* \"contracts/Forwarder.sol\":2439:2505  _verifySig(req, domainSeparator, requestTypeHash, suffixData, sig) */\n      jump\t// in\n    tag_112:\n        /* \"contracts/Forwarder.sol\":2515:2541  _verifyAndUpdateNonce(req) */\n      tag_113\n        /* \"contracts/Forwarder.sol\":2537:2540  req */\n      dup10\n        /* \"contracts/Forwarder.sol\":2515:2536  _verifyAndUpdateNonce */\n      tag_114\n        /* \"contracts/Forwarder.sol\":2515:2541  _verifyAndUpdateNonce(req) */\n      jump\t// in\n    tag_113:\n        /* \"contracts/Forwarder.sol\":2582:2583  0 */\n      0x00\n        /* \"contracts/Forwarder.sol\":2560:2563  req */\n      dup10\n        /* \"contracts/Forwarder.sol\":2560:2578  req.validUntilTime */\n      0xc0\n      add\n      calldataload\n        /* \"contracts/Forwarder.sol\":2560:2583  req.validUntilTime == 0 */\n      eq\n        /* \"contracts/Forwarder.sol\":2560:2623  req.validUntilTime == 0 || req.validUntilTime > block.timestamp */\n      dup1\n      tag_115\n      jumpi\n      pop\n        /* \"contracts/Forwarder.sol\":2608:2623  block.timestamp */\n      timestamp\n        /* \"contracts/Forwarder.sol\":2587:2590  req */\n      dup10\n        /* \"contracts/Forwarder.sol\":2587:2605  req.validUntilTime */\n      0xc0\n      add\n      calldataload\n        /* \"contracts/Forwarder.sol\":2587:2623  req.validUntilTime > block.timestamp */\n      gt\n        /* \"contracts/Forwarder.sol\":2560:2623  req.validUntilTime == 0 || req.validUntilTime > block.timestamp */\n    tag_115:\n        /* \"contracts/Forwarder.sol\":2552:2648  require(req.validUntilTime == 0 || req.validUntilTime > block.timestamp, \"FWD: request expired\") */\n      tag_116\n      jumpi\n      mload(0x40)\n      0x08c379a000000000000000000000000000000000000000000000000000000000\n      dup2\n      mstore\n      0x04\n      add\n      tag_117\n      swap1\n      tag_118\n      jump\t// in\n    tag_117:\n      mload(0x40)\n      dup1\n      swap2\n      sub\n      swap1\n      revert\n    tag_116:\n        /* \"contracts/Forwarder.sol\":2659:2681  uint256 gasForTransfer */\n      0x00\n        /* \"contracts/Forwarder.sol\":2713:2714  0 */\n      dup1\n        /* \"contracts/Forwarder.sol\":2700:2703  req */\n      dup11\n        /* \"contracts/Forwarder.sol\":2700:2709  req.value */\n      0x40\n      add\n      calldataload\n        /* \"contracts/Forwarder.sol\":2700:2714  req.value != 0 */\n      eq\n        /* \"contracts/Forwarder.sol\":2695:2824  if ( req.value != 0 ) {... */\n      tag_119\n      jumpi\n        /* \"contracts/Forwarder.sol\":2748:2753  40000 */\n      0x9c40\n        /* \"contracts/Forwarder.sol\":2731:2753  gasForTransfer = 40000 */\n      swap1\n      pop\n        /* \"contracts/Forwarder.sol\":2695:2824  if ( req.value != 0 ) {... */\n    tag_119:\n        /* \"contracts/Forwarder.sol\":2833:2854  bytes memory callData */\n      0x00\n        /* \"contracts/Forwarder.sol\":2874:2877  req */\n      dup11\n        /* \"contracts/Forwarder.sol\":2874:2882  req.data */\n      dup1\n      0xa0\n      add\n      swap1\n      tag_120\n      swap2\n      swap1\n      tag_121\n      jump\t// in\n    tag_120:\n        /* \"contracts/Forwarder.sol\":2884:2887  req */\n      dup13\n        /* \"contracts/Forwarder.sol\":2884:2892  req.from */\n      0x00\n      add\n      0x20\n      dup2\n      add\n      swap1\n      tag_122\n      swap2\n      swap1\n      tag_38\n      jump\t// in\n    tag_122:\n        /* \"contracts/Forwarder.sol\":2857:2893  abi.encodePacked(req.data, req.from) */\n      add(0x20, mload(0x40))\n      tag_123\n      swap4\n      swap3\n      swap2\n      swap1\n      tag_124\n      jump\t// in\n    tag_123:\n      mload(0x40)\n      0x20\n      dup2\n      dup4\n      sub\n      sub\n      dup2\n      mstore\n      swap1\n      0x40\n      mstore\n        /* \"contracts/Forwarder.sol\":2833:2893  bytes memory callData = abi.encodePacked(req.data, req.from) */\n      swap1\n      pop\n        /* \"contracts/Forwarder.sol\":2940:2954  gasForTransfer */\n      dup2\n        /* \"contracts/Forwarder.sol\":2930:2933  req */\n      dup12\n        /* \"contracts/Forwarder.sol\":2930:2937  req.gas */\n      0x60\n      add\n      calldataload\n        /* \"contracts/Forwarder.sol\":2930:2954  req.gas + gasForTransfer */\n      tag_125\n      swap2\n      swap1\n      tag_126\n      jump\t// in\n    tag_125:\n        /* \"contracts/Forwarder.sol\":2924:2926  64 */\n      0x40\n        /* \"contracts/Forwarder.sol\":2921:2923  63 */\n      0x3f\n        /* \"contracts/Forwarder.sol\":2911:2920  gasleft() */\n      gas\n        /* \"contracts/Forwarder.sol\":2911:2923  gasleft()*63 */\n      tag_127\n      swap2\n      swap1\n      tag_128\n      jump\t// in\n    tag_127:\n        /* \"contracts/Forwarder.sol\":2911:2926  gasleft()*63/64 */\n      tag_129\n      swap2\n      swap1\n      tag_130\n      jump\t// in\n    tag_129:\n        /* \"contracts/Forwarder.sol\":2911:2954  gasleft()*63/64 >= req.gas + gasForTransfer */\n      lt\n      iszero\n        /* \"contracts/Forwarder.sol\":2903:2980  require(gasleft()*63/64 >= req.gas + gasForTransfer, \"FWD: insufficient gas\") */\n      tag_131\n      jumpi\n      mload(0x40)\n      0x08c379a000000000000000000000000000000000000000000000000000000000\n      dup2\n      mstore\n      0x04\n      add\n      tag_132\n      swap1\n      tag_133\n      jump\t// in\n    tag_132:\n      mload(0x40)\n      dup1\n      swap2\n      sub\n      swap1\n      revert\n    tag_131:\n        /* \"contracts/Forwarder.sol\":3065:3068  req */\n      dup11\n        /* \"contracts/Forwarder.sol\":3065:3071  req.to */\n      0x20\n      add\n      0x20\n      dup2\n      add\n      swap1\n      tag_134\n      swap2\n      swap1\n      tag_38\n      jump\t// in\n    tag_134:\n        /* \"contracts/Forwarder.sol\":3065:3076  req.to.call */\n      0xffffffffffffffffffffffffffffffffffffffff\n      and\n        /* \"contracts/Forwarder.sol\":3083:3086  req */\n      dup12\n        /* \"contracts/Forwarder.sol\":3083:3090  req.gas */\n      0x60\n      add\n      calldataload\n        /* \"contracts/Forwarder.sol\":3100:3103  req */\n      dup13\n        /* \"contracts/Forwarder.sol\":3100:3109  req.value */\n      0x40\n      add\n      calldataload\n        /* \"contracts/Forwarder.sol\":3111:3119  callData */\n      dup4\n        /* \"contracts/Forwarder.sol\":3065:3120  req.to.call{gas : req.gas, value : req.value}(callData) */\n      mload(0x40)\n      tag_135\n      swap2\n      swap1\n      tag_136\n      jump\t// in\n    tag_135:\n      0x00\n      mload(0x40)\n      dup1\n      dup4\n      sub\n      dup2\n      dup6\n      dup9\n      dup9\n      call\n      swap4\n      pop\n      pop\n      pop\n      pop\n      returndatasize\n      dup1\n      0x00\n      dup2\n      eq\n      tag_139\n      jumpi\n      mload(0x40)\n      swap2\n      pop\n      and(add(returndatasize, 0x3f), not(0x1f))\n      dup3\n      add\n      0x40\n      mstore\n      returndatasize\n      dup3\n      mstore\n      returndatasize\n      0x00\n      0x20\n      dup5\n      add\n      returndatacopy\n      jump(tag_138)\n    tag_139:\n      0x60\n      swap2\n      pop\n    tag_138:\n      pop\n        /* \"contracts/Forwarder.sol\":3049:3120  (success,ret) = req.to.call{gas : req.gas, value : req.value}(callData) */\n      dup1\n      swap5\n      pop\n      dup2\n      swap6\n      pop\n      pop\n      pop\n        /* \"contracts/Forwarder.sol\":3148:3149  0 */\n      0x00\n        /* \"contracts/Forwarder.sol\":3135:3138  req */\n      dup12\n        /* \"contracts/Forwarder.sol\":3135:3144  req.value */\n      0x40\n      add\n      calldataload\n        /* \"contracts/Forwarder.sol\":3135:3149  req.value != 0 */\n      eq\n      iszero\n        /* \"contracts/Forwarder.sol\":3135:3176  req.value != 0 && address(this).balance>0 */\n      dup1\n      iszero\n      tag_140\n      jumpi\n      pop\n        /* \"contracts/Forwarder.sol\":3175:3176  0 */\n      0x00\n        /* \"contracts/Forwarder.sol\":3153:3174  address(this).balance */\n      selfbalance\n        /* \"contracts/Forwarder.sol\":3153:3176  address(this).balance>0 */\n      gt\n        /* \"contracts/Forwarder.sol\":3135:3176  req.value != 0 && address(this).balance>0 */\n    tag_140:\n        /* \"contracts/Forwarder.sol\":3130:3347  if ( req.value != 0 && address(this).balance>0 ) {... */\n      iszero\n      tag_141\n      jumpi\n        /* \"contracts/Forwarder.sol\":3293:3303  msg.sender */\n      caller\n        /* \"contracts/Forwarder.sol\":3285:3313  payable(msg.sender).transfer */\n      0xffffffffffffffffffffffffffffffffffffffff\n      and\n        /* \"contracts/Forwarder.sol\":3285:3336  payable(msg.sender).transfer(address(this).balance) */\n      0x08fc\n        /* \"contracts/Forwarder.sol\":3314:3335  address(this).balance */\n      selfbalance\n        /* \"contracts/Forwarder.sol\":3285:3336  payable(msg.sender).transfer(address(this).balance) */\n      swap1\n      dup2\n      iszero\n      mul\n      swap1\n      mload(0x40)\n      0x00\n      mload(0x40)\n      dup1\n      dup4\n      sub\n      dup2\n      dup6\n      dup9\n      dup9\n      call\n      swap4\n      pop\n      pop\n      pop\n      pop\n      iszero\n      dup1\n      iszero\n      tag_143\n      jumpi\n      returndatasize\n      0x00\n      dup1\n      returndatacopy\n      revert(0x00, returndatasize)\n    tag_143:\n      pop\n        /* \"contracts/Forwarder.sol\":3130:3347  if ( req.value != 0 && address(this).balance>0 ) {... */\n    tag_141:\n        /* \"contracts/Forwarder.sol\":3357:3377  return (success,ret) */\n      pop\n      pop\n        /* \"contracts/Forwarder.sol\":2161:3384  function execute(... */\n      swap8\n      pop\n      swap8\n      swap6\n      pop\n      pop\n      pop\n      pop\n      pop\n      pop\n      jump\t// out\n        /* \"contracts/Forwarder.sol\":5959:6688  function _getEncoded(... */\n    tag_74:\n        /* \"contracts/Forwarder.sol\":6133:6145  bytes memory */\n      0x60\n        /* \"contracts/Forwarder.sol\":6422:6437  requestTypeHash */\n      dup4\n        /* \"contracts/Forwarder.sol\":6467:6470  req */\n      dup6\n        /* \"contracts/Forwarder.sol\":6467:6475  req.from */\n      0x00\n      add\n      0x20\n      dup2\n      add\n      swap1\n      tag_145\n      swap2\n      swap1\n      tag_38\n      jump\t// in\n    tag_145:\n        /* \"contracts/Forwarder.sol\":6451:6477  uint256(uint160(req.from)) */\n      0xffffffffffffffffffffffffffffffffffffffff\n      and\n        /* \"contracts/Forwarder.sol\":6507:6510  req */\n      dup7\n        /* \"contracts/Forwarder.sol\":6507:6513  req.to */\n      0x20\n      add\n      0x20\n      dup2\n      add\n      swap1\n      tag_146\n      swap2\n      swap1\n      tag_38\n      jump\t// in\n    tag_146:\n        /* \"contracts/Forwarder.sol\":6491:6515  uint256(uint160(req.to)) */\n      0xffffffffffffffffffffffffffffffffffffffff\n      and\n        /* \"contracts/Forwarder.sol\":6529:6532  req */\n      dup8\n        /* \"contracts/Forwarder.sol\":6529:6538  req.value */\n      0x40\n      add\n      calldataload\n        /* \"contracts/Forwarder.sol\":6552:6555  req */\n      dup9\n        /* \"contracts/Forwarder.sol\":6552:6559  req.gas */\n      0x60\n      add\n      calldataload\n        /* \"contracts/Forwarder.sol\":6573:6576  req */\n      dup10\n        /* \"contracts/Forwarder.sol\":6573:6582  req.nonce */\n      0x80\n      add\n      calldataload\n        /* \"contracts/Forwarder.sol\":6606:6609  req */\n      dup11\n        /* \"contracts/Forwarder.sol\":6606:6614  req.data */\n      dup1\n      0xa0\n      add\n      swap1\n      tag_147\n      swap2\n      swap1\n      tag_121\n      jump\t// in\n    tag_147:\n        /* \"contracts/Forwarder.sol\":6596:6615  keccak256(req.data) */\n      mload(0x40)\n      tag_148\n      swap3\n      swap2\n      swap1\n      tag_84\n      jump\t// in\n    tag_148:\n      mload(0x40)\n      dup1\n      swap2\n      sub\n      swap1\n      keccak256\n        /* \"contracts/Forwarder.sol\":6629:6632  req */\n      dup12\n        /* \"contracts/Forwarder.sol\":6629:6647  req.validUntilTime */\n      0xc0\n      add\n      calldataload\n        /* \"contracts/Forwarder.sol\":6661:6671  suffixData */\n      dup11\n      dup11\n        /* \"contracts/Forwarder.sol\":6392:6681  abi.encodePacked(... */\n      add(0x20, mload(0x40))\n      tag_149\n      swap11\n      swap10\n      swap9\n      swap8\n      swap7\n      swap6\n      swap5\n      swap4\n      swap3\n      swap2\n      swap1\n      tag_150\n      jump\t// in\n    tag_149:\n      mload(0x40)\n      0x20\n      dup2\n      dup4\n      sub\n      sub\n      dup2\n      mstore\n      swap1\n      0x40\n      mstore\n        /* \"contracts/Forwarder.sol\":6385:6681  return abi.encodePacked(... */\n      swap1\n      pop\n        /* \"contracts/Forwarder.sol\":5959:6688  function _getEncoded(... */\n      swap5\n      swap4\n      pop\n      pop\n      pop\n      pop\n      jump\t// out\n        /* \"@openzeppelin/contracts/utils/introspection/ERC165.sol\":829:984  function supportsInterface(bytes4 interfaceId) public view virtual override returns (bool) {... */\n    tag_80:\n        /* \"@openzeppelin/contracts/utils/introspection/ERC165.sol\":914:918  bool */\n      0x00\n        /* \"@openzeppelin/contracts/utils/introspection/ERC165.sol\":952:977  type(IERC165).interfaceId */\n      0x01ffc9a700000000000000000000000000000000000000000000000000000000\n        /* \"@openzeppelin/contracts/utils/introspection/ERC165.sol\":937:977  interfaceId == type(IERC165).interfaceId */\n      not(0xffffffffffffffffffffffffffffffffffffffffffffffffffffffff)\n      and\n        /* \"@openzeppelin/contracts/utils/introspection/ERC165.sol\":937:948  interfaceId */\n      dup3\n        /* \"@openzeppelin/contracts/utils/introspection/ERC165.sol\":937:977  interfaceId == type(IERC165).interfaceId */\n      not(0xffffffffffffffffffffffffffffffffffffffffffffffffffffffff)\n      and\n      eq\n        /* \"@openzeppelin/contracts/utils/introspection/ERC165.sol\":930:977  return interfaceId == type(IERC165).interfaceId */\n      swap1\n      pop\n        /* \"@openzeppelin/contracts/utils/introspection/ERC165.sol\":829:984  function supportsInterface(bytes4 interfaceId) public view virtual override returns (bool) {... */\n      swap2\n      swap1\n      pop\n      jump\t// out\n        /* \"contracts/Forwarder.sol\":3390:3533  function _verifyNonce(ForwardRequest calldata req) internal view {... */\n    tag_91:\n        /* \"contracts/Forwarder.sol\":3493:3496  req */\n      dup1\n        /* \"contracts/Forwarder.sol\":3493:3502  req.nonce */\n      0x80\n      add\n      calldataload\n        /* \"contracts/Forwarder.sol\":3473:3479  nonces */\n      0x02\n        /* \"contracts/Forwarder.sol\":3473:3489  nonces[req.from] */\n      0x00\n        /* \"contracts/Forwarder.sol\":3480:3483  req */\n      dup4\n        /* \"contracts/Forwarder.sol\":3480:3488  req.from */\n      0x00\n      add\n      0x20\n      dup2\n      add\n      swap1\n      tag_153\n      swap2\n      swap1\n      tag_38\n      jump\t// in\n    tag_153:\n        /* \"contracts/Forwarder.sol\":3473:3489  nonces[req.from] */\n      0xffffffffffffffffffffffffffffffffffffffff\n      and\n      0xffffffffffffffffffffffffffffffffffffffff\n      and\n      dup2\n      mstore\n      0x20\n      add\n      swap1\n      dup2\n      mstore\n      0x20\n      add\n      0x00\n      keccak256\n      sload\n        /* \"contracts/Forwarder.sol\":3473:3502  nonces[req.from] == req.nonce */\n      eq\n        /* \"contracts/Forwarder.sol\":3465:3526  require(nonces[req.from] == req.nonce, \"FWD: nonce mismatch\") */\n      tag_154\n      jumpi\n      mload(0x40)\n      0x08c379a000000000000000000000000000000000000000000000000000000000\n      dup2\n      mstore\n      0x04\n      add\n      tag_155\n      swap1\n      tag_156\n      jump\t// in\n    tag_155:\n      mload(0x40)\n      dup1\n      swap2\n      sub\n      swap1\n      revert\n    tag_154:\n        /* \"contracts/Forwarder.sol\":3390:3533  function _verifyNonce(ForwardRequest calldata req) internal view {... */\n      pop\n      jump\t// out\n        /* \"contracts/Forwarder.sol\":5084:5817  function _verifySig(... */\n    tag_93:\n        /* \"contracts/Forwarder.sol\":5327:5334  domains */\n      0x01\n        /* \"contracts/Forwarder.sol\":5327:5351  domains[domainSeparator] */\n      0x00\n        /* \"contracts/Forwarder.sol\":5335:5350  domainSeparator */\n      dup8\n        /* \"contracts/Forwarder.sol\":5327:5351  domains[domainSeparator] */\n      dup2\n      mstore\n      0x20\n      add\n      swap1\n      dup2\n      mstore\n      0x20\n      add\n      0x00\n      keccak256\n      0x00\n      swap1\n      sload\n      swap1\n      0x0100\n      exp\n      swap1\n      div\n      0xff\n      and\n        /* \"contracts/Forwarder.sol\":5319:5385  require(domains[domainSeparator], \"FWD: unregistered domain sep.\") */\n      tag_158\n      jumpi\n      mload(0x40)\n      0x08c379a000000000000000000000000000000000000000000000000000000000\n      dup2\n      mstore\n      0x04\n      add\n      tag_159\n      swap1\n      tag_160\n      jump\t// in\n    tag_159:\n      mload(0x40)\n      dup1\n      swap2\n      sub\n      swap1\n      revert\n    tag_158:\n        /* \"contracts/Forwarder.sol\":5403:5413  typeHashes */\n      0x00\n        /* \"contracts/Forwarder.sol\":5403:5430  typeHashes[requestTypeHash] */\n      dup1\n        /* \"contracts/Forwarder.sol\":5414:5429  requestTypeHash */\n      dup7\n        /* \"contracts/Forwarder.sol\":5403:5430  typeHashes[requestTypeHash] */\n      dup2\n      mstore\n      0x20\n      add\n      swap1\n      dup2\n      mstore\n      0x20\n      add\n      0x00\n      keccak256\n      0x00\n      swap1\n      sload\n      swap1\n      0x0100\n      exp\n      swap1\n      div\n      0xff\n      and\n        /* \"contracts/Forwarder.sol\":5395:5461  require(typeHashes[requestTypeHash], \"FWD: unregistered typehash\") */\n      tag_161\n      jumpi\n      mload(0x40)\n      0x08c379a000000000000000000000000000000000000000000000000000000000\n      dup2\n      mstore\n      0x04\n      add\n      tag_162\n      swap1\n      tag_163\n      jump\t// in\n    tag_162:\n      mload(0x40)\n      dup1\n      swap2\n      sub\n      swap1\n      revert\n    tag_161:\n        /* \"contracts/Forwarder.sol\":5471:5485  bytes32 digest */\n      0x00\n        /* \"contracts/Forwarder.sol\":5544:5559  domainSeparator */\n      dup7\n        /* \"contracts/Forwarder.sol\":5587:5632  _getEncoded(req, requestTypeHash, suffixData) */\n      tag_164\n        /* \"contracts/Forwarder.sol\":5599:5602  req */\n      dup10\n        /* \"contracts/Forwarder.sol\":5604:5619  requestTypeHash */\n      dup9\n        /* \"contracts/Forwarder.sol\":5621:5631  suffixData */\n      dup9\n      dup9\n        /* \"contracts/Forwarder.sol\":5587:5598  _getEncoded */\n      tag_74\n        /* \"contracts/Forwarder.sol\":5587:5632  _getEncoded(req, requestTypeHash, suffixData) */\n      jump\t// in\n    tag_164:\n        /* \"contracts/Forwarder.sol\":5577:5633  keccak256(_getEncoded(req, requestTypeHash, suffixData)) */\n      dup1\n      mload\n      swap1\n      0x20\n      add\n      keccak256\n        /* \"contracts/Forwarder.sol\":5498:5647  abi.encodePacked(... */\n      add(0x20, mload(0x40))\n      tag_165\n      swap3\n      swap2\n      swap1\n      tag_166\n      jump\t// in\n    tag_165:\n      mload(0x40)\n      0x20\n      dup2\n      dup4\n      sub\n      sub\n      dup2\n      mstore\n      swap1\n      0x40\n      mstore\n        /* \"contracts/Forwarder.sol\":5488:5648  keccak256(abi.encodePacked(... */\n      dup1\n      mload\n      swap1\n      0x20\n      add\n      keccak256\n        /* \"contracts/Forwarder.sol\":5471:5648  bytes32 digest = keccak256(abi.encodePacked(... */\n      swap1\n      pop\n        /* \"contracts/Forwarder.sol\":567:609  0x0000000000000000000000000000000000000000 */\n      0x00\n        /* \"contracts/Forwarder.sol\":5719:5747  tx.origin == DRY_RUN_ADDRESS */\n      0xffffffffffffffffffffffffffffffffffffffff\n      and\n        /* \"contracts/Forwarder.sol\":5719:5728  tx.origin */\n      origin\n        /* \"contracts/Forwarder.sol\":5719:5747  tx.origin == DRY_RUN_ADDRESS */\n      0xffffffffffffffffffffffffffffffffffffffff\n      and\n      eq\n        /* \"contracts/Forwarder.sol\":5719:5782  tx.origin == DRY_RUN_ADDRESS || digest.recover(sig) == req.from */\n      dup1\n      tag_167\n      jumpi\n      pop\n        /* \"contracts/Forwarder.sol\":5774:5777  req */\n      dup8\n        /* \"contracts/Forwarder.sol\":5774:5782  req.from */\n      0x00\n      add\n      0x20\n      dup2\n      add\n      swap1\n      tag_168\n      swap2\n      swap1\n      tag_38\n      jump\t// in\n    tag_168:\n        /* \"contracts/Forwarder.sol\":5751:5782  digest.recover(sig) == req.from */\n      0xffffffffffffffffffffffffffffffffffffffff\n      and\n        /* \"contracts/Forwarder.sol\":5751:5770  digest.recover(sig) */\n      tag_169\n        /* \"contracts/Forwarder.sol\":5766:5769  sig */\n      dup5\n      dup5\n        /* \"contracts/Forwarder.sol\":5751:5770  digest.recover(sig) */\n      dup1\n      dup1\n      0x1f\n      add\n      0x20\n      dup1\n      swap2\n      div\n      mul\n      0x20\n      add\n      mload(0x40)\n      swap1\n      dup2\n      add\n      0x40\n      mstore\n      dup1\n      swap4\n      swap3\n      swap2\n      swap1\n      dup2\n      dup2\n      mstore\n      0x20\n      add\n      dup4\n      dup4\n      dup1\n      dup3\n      dup5\n      calldatacopy\n      0x00\n      dup2\n      dup5\n      add\n      mstore\n      not(0x1f)\n      0x1f\n      dup3\n      add\n      and\n      swap1\n      pop\n      dup1\n      dup4\n      add\n      swap3\n      pop\n      pop\n      pop\n      pop\n      pop\n      pop\n      pop\n        /* \"contracts/Forwarder.sol\":5751:5757  digest */\n      dup4\n        /* \"contracts/Forwarder.sol\":5751:5765  digest.recover */\n      tag_170\n      swap1\n        /* \"contracts/Forwarder.sol\":5751:5770  digest.recover(sig) */\n      swap2\n      swap1\n      0xffffffff\n      and\n      jump\t// in\n    tag_169:\n        /* \"contracts/Forwarder.sol\":5751:5782  digest.recover(sig) == req.from */\n      0xffffffffffffffffffffffffffffffffffffffff\n      and\n      eq\n        /* \"contracts/Forwarder.sol\":5719:5782  tx.origin == DRY_RUN_ADDRESS || digest.recover(sig) == req.from */\n    tag_167:\n        /* \"contracts/Forwarder.sol\":5711:5810  require(tx.origin == DRY_RUN_ADDRESS || digest.recover(sig) == req.from, \"FWD: signature mismatch\") */\n      tag_171\n      jumpi\n      mload(0x40)\n      0x08c379a000000000000000000000000000000000000000000000000000000000\n      dup2\n      mstore\n      0x04\n      add\n      tag_172\n      swap1\n      tag_173\n      jump\t// in\n    tag_172:\n      mload(0x40)\n      dup1\n      swap2\n      sub\n      swap1\n      revert\n    tag_171:\n        /* \"contracts/Forwarder.sol\":5309:5817  {... */\n      pop\n        /* \"contracts/Forwarder.sol\":5084:5817  function _verifySig(... */\n      pop\n      pop\n      pop\n      pop\n      pop\n      pop\n      pop\n      jump\t// out\n        /* \"contracts/Forwarder.sol\":4822:5078  function registerRequestTypeInternal(string memory requestType) internal {... */\n    tag_110:\n        /* \"contracts/Forwarder.sol\":4906:4929  bytes32 requestTypehash */\n      0x00\n        /* \"contracts/Forwarder.sol\":4948:4959  requestType */\n      dup2\n        /* \"contracts/Forwarder.sol\":4932:4961  keccak256(bytes(requestType)) */\n      dup1\n      mload\n      swap1\n      0x20\n      add\n      keccak256\n        /* \"contracts/Forwarder.sol\":4906:4961  bytes32 requestTypehash = keccak256(bytes(requestType)) */\n      swap1\n      pop\n        /* \"contracts/Forwarder.sol\":5001:5005  true */\n      0x01\n        /* \"contracts/Forwarder.sol\":4971:4981  typeHashes */\n      0x00\n        /* \"contracts/Forwarder.sol\":4971:4998  typeHashes[requestTypehash] */\n      dup1\n        /* \"contracts/Forwarder.sol\":4982:4997  requestTypehash */\n      dup4\n        /* \"contracts/Forwarder.sol\":4971:4998  typeHashes[requestTypehash] */\n      dup2\n      mstore\n      0x20\n      add\n      swap1\n      dup2\n      mstore\n      0x20\n      add\n      0x00\n      keccak256\n      0x00\n        /* \"contracts/Forwarder.sol\":4971:5005  typeHashes[requestTypehash] = true */\n      0x0100\n      exp\n      dup2\n      sload\n      dup2\n      0xff\n      mul\n      not\n      and\n      swap1\n      dup4\n      iszero\n      iszero\n      mul\n      or\n      swap1\n      sstore\n      pop\n        /* \"contracts/Forwarder.sol\":5042:5057  requestTypehash */\n      dup1\n        /* \"contracts/Forwarder.sol\":5020:5071  RequestTypeRegistered(requestTypehash, requestType) */\n      0x64d6bce64323458c44643c51fe45113efc882082f7b7fd5f09f0d69d2eedb202\n        /* \"contracts/Forwarder.sol\":5059:5070  requestType */\n      dup4\n        /* \"contracts/Forwarder.sol\":5020:5071  RequestTypeRegistered(requestTypehash, requestType) */\n      mload(0x40)\n      tag_175\n      swap2\n      swap1\n      tag_28\n      jump\t// in\n    tag_175:\n      mload(0x40)\n      dup1\n      swap2\n      sub\n      swap1\n      log2\n        /* \"contracts/Forwarder.sol\":4895:5078  {... */\n      pop\n        /* \"contracts/Forwarder.sol\":4822:5078  function registerRequestTypeInternal(string memory requestType) internal {... */\n      pop\n      jump\t// out\n        /* \"contracts/Forwarder.sol\":3539:3688  function _verifyAndUpdateNonce(ForwardRequest calldata req) internal {... */\n    tag_114:\n        /* \"contracts/Forwarder.sol\":3648:3651  req */\n      dup1\n        /* \"contracts/Forwarder.sol\":3648:3657  req.nonce */\n      0x80\n      add\n      calldataload\n        /* \"contracts/Forwarder.sol\":3626:3632  nonces */\n      0x02\n        /* \"contracts/Forwarder.sol\":3626:3642  nonces[req.from] */\n      0x00\n        /* \"contracts/Forwarder.sol\":3633:3636  req */\n      dup4\n        /* \"contracts/Forwarder.sol\":3633:3641  req.from */\n      0x00\n      add\n      0x20\n      dup2\n      add\n      swap1\n      tag_177\n      swap2\n      swap1\n      tag_38\n      jump\t// in\n    tag_177:\n        /* \"contracts/Forwarder.sol\":3626:3642  nonces[req.from] */\n      0xffffffffffffffffffffffffffffffffffffffff\n      and\n      0xffffffffffffffffffffffffffffffffffffffff\n      and\n      dup2\n      mstore\n      0x20\n      add\n      swap1\n      dup2\n      mstore\n      0x20\n      add\n      0x00\n      keccak256\n      0x00\n        /* \"contracts/Forwarder.sol\":3626:3644  nonces[req.from]++ */\n      dup2\n      sload\n      dup1\n      swap3\n      swap2\n      swap1\n      tag_178\n      swap1\n      tag_106\n      jump\t// in\n    tag_178:\n      swap2\n      swap1\n      pop\n      sstore\n        /* \"contracts/Forwarder.sol\":3626:3657  nonces[req.from]++ == req.nonce */\n      eq\n        /* \"contracts/Forwarder.sol\":3618:3681  require(nonces[req.from]++ == req.nonce, \"FWD: nonce mismatch\") */\n      tag_179\n      jumpi\n      mload(0x40)\n      0x08c379a000000000000000000000000000000000000000000000000000000000\n      dup2\n      mstore\n      0x04\n      add\n      tag_180\n      swap1\n      tag_156\n      jump\t// in\n    tag_180:\n      mload(0x40)\n      dup1\n      swap2\n      sub\n      swap1\n      revert\n    tag_179:\n        /* \"contracts/Forwarder.sol\":3539:3688  function _verifyAndUpdateNonce(ForwardRequest calldata req) internal {... */\n      pop\n      jump\t// out\n        /* \"@openzeppelin/contracts/utils/cryptography/ECDSA.sol\":3759:3986  function recover(bytes32 hash, bytes memory signature) internal pure returns (address) {... */\n    tag_170:\n        /* \"@openzeppelin/contracts/utils/cryptography/ECDSA.sol\":3837:3844  address */\n      0x00\n        /* \"@openzeppelin/contracts/utils/cryptography/ECDSA.sol\":3857:3874  address recovered */\n      dup1\n        /* \"@openzeppelin/contracts/utils/cryptography/ECDSA.sol\":3876:3894  RecoverError error */\n      0x00\n        /* \"@openzeppelin/contracts/utils/cryptography/ECDSA.sol\":3898:3925  tryRecover(hash, signature) */\n      tag_182\n        /* \"@openzeppelin/contracts/utils/cryptography/ECDSA.sol\":3909:3913  hash */\n      dup6\n        /* \"@openzeppelin/contracts/utils/cryptography/ECDSA.sol\":3915:3924  signature */\n      dup6\n        /* \"@openzeppelin/contracts/utils/cryptography/ECDSA.sol\":3898:3908  tryRecover */\n      tag_183\n        /* \"@openzeppelin/contracts/utils/cryptography/ECDSA.sol\":3898:3925  tryRecover(hash, signature) */\n      jump\t// in\n    tag_182:\n        /* \"@openzeppelin/contracts/utils/cryptography/ECDSA.sol\":3856:3925  (address recovered, RecoverError error) = tryRecover(hash, signature) */\n      swap2\n      pop\n      swap2\n      pop\n        /* \"@openzeppelin/contracts/utils/cryptography/ECDSA.sol\":3935:3953  _throwError(error) */\n      tag_184\n        /* \"@openzeppelin/contracts/utils/cryptography/ECDSA.sol\":3947:3952  error */\n      dup2\n        /* \"@openzeppelin/contracts/utils/cryptography/ECDSA.sol\":3935:3946  _throwError */\n      tag_185\n        /* \"@openzeppelin/contracts/utils/cryptography/ECDSA.sol\":3935:3953  _throwError(error) */\n      jump\t// in\n    tag_184:\n        /* \"@openzeppelin/contracts/utils/cryptography/ECDSA.sol\":3970:3979  recovered */\n      dup2\n        /* \"@openzeppelin/contracts/utils/cryptography/ECDSA.sol\":3963:3979  return recovered */\n      swap3\n      pop\n      pop\n      pop\n        /* \"@openzeppelin/contracts/utils/cryptography/ECDSA.sol\":3759:3986  function recover(bytes32 hash, bytes memory signature) internal pure returns (address) {... */\n      swap3\n      swap2\n      pop\n      pop\n      jump\t// out\n        /* \"@openzeppelin/contracts/utils/cryptography/ECDSA.sol\":2243:2973  function tryRecover(bytes32 hash, bytes memory signature) internal pure returns (address, RecoverError) {... */\n    tag_183:\n        /* \"@openzeppelin/contracts/utils/cryptography/ECDSA.sol\":2324:2331  address */\n      0x00\n        /* \"@openzeppelin/contracts/utils/cryptography/ECDSA.sol\":2333:2345  RecoverError */\n      dup1\n        /* \"@openzeppelin/contracts/utils/cryptography/ECDSA.sol\":2381:2383  65 */\n      0x41\n        /* \"@openzeppelin/contracts/utils/cryptography/ECDSA.sol\":2361:2370  signature */\n      dup4\n        /* \"@openzeppelin/contracts/utils/cryptography/ECDSA.sol\":2361:2377  signature.length */\n      mload\n        /* \"@openzeppelin/contracts/utils/cryptography/ECDSA.sol\":2361:2383  signature.length == 65 */\n      sub\n        /* \"@openzeppelin/contracts/utils/cryptography/ECDSA.sol\":2357:2967  if (signature.length == 65) {... */\n      tag_187\n      jumpi\n        /* \"@openzeppelin/contracts/utils/cryptography/ECDSA.sol\":2399:2408  bytes32 r */\n      0x00\n        /* \"@openzeppelin/contracts/utils/cryptography/ECDSA.sol\":2422:2431  bytes32 s */\n      dup1\n        /* \"@openzeppelin/contracts/utils/cryptography/ECDSA.sol\":2445:2452  uint8 v */\n      0x00\n        /* \"@openzeppelin/contracts/utils/cryptography/ECDSA.sol\":2697:2701  0x20 */\n      0x20\n        /* \"@openzeppelin/contracts/utils/cryptography/ECDSA.sol\":2686:2695  signature */\n      dup7\n        /* \"@openzeppelin/contracts/utils/cryptography/ECDSA.sol\":2682:2702  add(signature, 0x20) */\n      add\n        /* \"@openzeppelin/contracts/utils/cryptography/ECDSA.sol\":2676:2703  mload(add(signature, 0x20)) */\n      mload\n        /* \"@openzeppelin/contracts/utils/cryptography/ECDSA.sol\":2671:2703  r := mload(add(signature, 0x20)) */\n      swap3\n      pop\n        /* \"@openzeppelin/contracts/utils/cryptography/ECDSA.sol\":2746:2750  0x40 */\n      0x40\n        /* \"@openzeppelin/contracts/utils/cryptography/ECDSA.sol\":2735:2744  signature */\n      dup7\n        /* \"@openzeppelin/contracts/utils/cryptography/ECDSA.sol\":2731:2751  add(signature, 0x40) */\n      add\n        /* \"@openzeppelin/contracts/utils/cryptography/ECDSA.sol\":2725:2752  mload(add(signature, 0x40)) */\n      mload\n        /* \"@openzeppelin/contracts/utils/cryptography/ECDSA.sol\":2720:2752  s := mload(add(signature, 0x40)) */\n      swap2\n      pop\n        /* \"@openzeppelin/contracts/utils/cryptography/ECDSA.sol\":2803:2807  0x60 */\n      0x60\n        /* \"@openzeppelin/contracts/utils/cryptography/ECDSA.sol\":2792:2801  signature */\n      dup7\n        /* \"@openzeppelin/contracts/utils/cryptography/ECDSA.sol\":2788:2808  add(signature, 0x60) */\n      add\n        /* \"@openzeppelin/contracts/utils/cryptography/ECDSA.sol\":2782:2809  mload(add(signature, 0x60)) */\n      mload\n        /* \"@openzeppelin/contracts/utils/cryptography/ECDSA.sol\":2779:2780  0 */\n      0x00\n        /* \"@openzeppelin/contracts/utils/cryptography/ECDSA.sol\":2774:2810  byte(0, mload(add(signature, 0x60))) */\n      byte\n        /* \"@openzeppelin/contracts/utils/cryptography/ECDSA.sol\":2769:2810  v := byte(0, mload(add(signature, 0x60))) */\n      swap1\n      pop\n        /* \"@openzeppelin/contracts/utils/cryptography/ECDSA.sol\":2844:2869  tryRecover(hash, v, r, s) */\n      tag_188\n        /* \"@openzeppelin/contracts/utils/cryptography/ECDSA.sol\":2855:2859  hash */\n      dup8\n        /* \"@openzeppelin/contracts/utils/cryptography/ECDSA.sol\":2861:2862  v */\n      dup3\n        /* \"@openzeppelin/contracts/utils/cryptography/ECDSA.sol\":2864:2865  r */\n      dup6\n        /* \"@openzeppelin/contracts/utils/cryptography/ECDSA.sol\":2867:2868  s */\n      dup6\n        /* \"@openzeppelin/contracts/utils/cryptography/ECDSA.sol\":2844:2854  tryRecover */\n      tag_189\n        /* \"@openzeppelin/contracts/utils/cryptography/ECDSA.sol\":2844:2869  tryRecover(hash, v, r, s) */\n      jump\t// in\n    tag_188:\n        /* \"@openzeppelin/contracts/utils/cryptography/ECDSA.sol\":2837:2869  return tryRecover(hash, v, r, s) */\n      swap5\n      pop\n      swap5\n      pop\n      pop\n      pop\n      pop\n      jump(tag_186)\n        /* \"@openzeppelin/contracts/utils/cryptography/ECDSA.sol\":2357:2967  if (signature.length == 65) {... */\n    tag_187:\n        /* \"@openzeppelin/contracts/utils/cryptography/ECDSA.sol\":2916:2917  0 */\n      0x00\n        /* \"@openzeppelin/contracts/utils/cryptography/ECDSA.sol\":2920:2955  RecoverError.InvalidSignatureLength */\n      0x02\n        /* \"@openzeppelin/contracts/utils/cryptography/ECDSA.sol\":2900:2956  return (address(0), RecoverError.InvalidSignatureLength) */\n      swap2\n      pop\n      swap2\n      pop\n        /* \"@openzeppelin/contracts/utils/cryptography/ECDSA.sol\":2243:2973  function tryRecover(bytes32 hash, bytes memory signature) internal pure returns (address, RecoverError) {... */\n    tag_186:\n      swap3\n      pop\n      swap3\n      swap1\n      pop\n      jump\t// out\n        /* \"@openzeppelin/contracts/utils/cryptography/ECDSA.sol\":548:1179  function _throwError(RecoverError error) private pure {... */\n    tag_185:\n        /* \"@openzeppelin/contracts/utils/cryptography/ECDSA.sol\":625:645  RecoverError.NoError */\n      0x00\n        /* \"@openzeppelin/contracts/utils/cryptography/ECDSA.sol\":616:645  error == RecoverError.NoError */\n      0x04\n      dup2\n      gt\n      iszero\n      tag_192\n      jumpi\n      tag_193\n      tag_194\n      jump\t// in\n    tag_193:\n    tag_192:\n        /* \"@openzeppelin/contracts/utils/cryptography/ECDSA.sol\":616:621  error */\n      dup2\n        /* \"@openzeppelin/contracts/utils/cryptography/ECDSA.sol\":616:645  error == RecoverError.NoError */\n      0x04\n      dup2\n      gt\n      iszero\n      tag_195\n      jumpi\n      tag_196\n      tag_194\n      jump\t// in\n    tag_196:\n    tag_195:\n      sub\n        /* \"@openzeppelin/contracts/utils/cryptography/ECDSA.sol\":612:1173  if (error == RecoverError.NoError) {... */\n      iszero\n        /* \"@openzeppelin/contracts/utils/cryptography/ECDSA.sol\":661:668  return; */\n      tag_191\n        /* \"@openzeppelin/contracts/utils/cryptography/ECDSA.sol\":612:1173  if (error == RecoverError.NoError) {... */\n      jumpi\n        /* \"@openzeppelin/contracts/utils/cryptography/ECDSA.sol\":721:750  RecoverError.InvalidSignature */\n      0x01\n        /* \"@openzeppelin/contracts/utils/cryptography/ECDSA.sol\":712:750  error == RecoverError.InvalidSignature */\n      0x04\n      dup2\n      gt\n      iszero\n      tag_199\n      jumpi\n      tag_200\n      tag_194\n      jump\t// in\n    tag_200:\n    tag_199:\n        /* \"@openzeppelin/contracts/utils/cryptography/ECDSA.sol\":712:717  error */\n      dup2\n        /* \"@openzeppelin/contracts/utils/cryptography/ECDSA.sol\":712:750  error == RecoverError.InvalidSignature */\n      0x04\n      dup2\n      gt\n      iszero\n      tag_201\n      jumpi\n      tag_202\n      tag_194\n      jump\t// in\n    tag_202:\n    tag_201:\n      sub\n        /* \"@openzeppelin/contracts/utils/cryptography/ECDSA.sol\":708:1173  if (error == RecoverError.InvalidSignature) {... */\n      tag_203\n      jumpi\n        /* \"@openzeppelin/contracts/utils/cryptography/ECDSA.sol\":766:800  revert(\"ECDSA: invalid signature\") */\n      mload(0x40)\n      0x08c379a000000000000000000000000000000000000000000000000000000000\n      dup2\n      mstore\n      0x04\n      add\n      tag_204\n      swap1\n      tag_205\n      jump\t// in\n    tag_204:\n      mload(0x40)\n      dup1\n      swap2\n      sub\n      swap1\n      revert\n        /* \"@openzeppelin/contracts/utils/cryptography/ECDSA.sol\":708:1173  if (error == RecoverError.InvalidSignature) {... */\n    tag_203:\n        /* \"@openzeppelin/contracts/utils/cryptography/ECDSA.sol\":830:865  RecoverError.InvalidSignatureLength */\n      0x02\n        /* \"@openzeppelin/contracts/utils/cryptography/ECDSA.sol\":821:865  error == RecoverError.InvalidSignatureLength */\n      0x04\n      dup2\n      gt\n      iszero\n      tag_207\n      jumpi\n      tag_208\n      tag_194\n      jump\t// in\n    tag_208:\n    tag_207:\n        /* \"@openzeppelin/contracts/utils/cryptography/ECDSA.sol\":821:826  error */\n      dup2\n        /* \"@openzeppelin/contracts/utils/cryptography/ECDSA.sol\":821:865  error == RecoverError.InvalidSignatureLength */\n      0x04\n      dup2\n      gt\n      iszero\n      tag_209\n      jumpi\n      tag_210\n      tag_194\n      jump\t// in\n    tag_210:\n    tag_209:\n      sub\n        /* \"@openzeppelin/contracts/utils/cryptography/ECDSA.sol\":817:1173  if (error == RecoverError.InvalidSignatureLength) {... */\n      tag_211\n      jumpi\n        /* \"@openzeppelin/contracts/utils/cryptography/ECDSA.sol\":881:922  revert(\"ECDSA: invalid signature length\") */\n      mload(0x40)\n      0x08c379a000000000000000000000000000000000000000000000000000000000\n      dup2\n      mstore\n      0x04\n      add\n      tag_212\n      swap1\n      tag_213\n      jump\t// in\n    tag_212:\n      mload(0x40)\n      dup1\n      swap2\n      sub\n      swap1\n      revert\n        /* \"@openzeppelin/contracts/utils/cryptography/ECDSA.sol\":817:1173  if (error == RecoverError.InvalidSignatureLength) {... */\n    tag_211:\n        /* \"@openzeppelin/contracts/utils/cryptography/ECDSA.sol\":952:982  RecoverError.InvalidSignatureS */\n      0x03\n        /* \"@openzeppelin/contracts/utils/cryptography/ECDSA.sol\":943:982  error == RecoverError.InvalidSignatureS */\n      0x04\n      dup2\n      gt\n      iszero\n      tag_215\n      jumpi\n      tag_216\n      tag_194\n      jump\t// in\n    tag_216:\n    tag_215:\n        /* \"@openzeppelin/contracts/utils/cryptography/ECDSA.sol\":943:948  error */\n      dup2\n        /* \"@openzeppelin/contracts/utils/cryptography/ECDSA.sol\":943:982  error == RecoverError.InvalidSignatureS */\n      0x04\n      dup2\n      gt\n      iszero\n      tag_217\n      jumpi\n      tag_218\n      tag_194\n      jump\t// in\n    tag_218:\n    tag_217:\n      sub\n        /* \"@openzeppelin/contracts/utils/cryptography/ECDSA.sol\":939:1173  if (error == RecoverError.InvalidSignatureS) {... */\n      tag_219\n      jumpi\n        /* \"@openzeppelin/contracts/utils/cryptography/ECDSA.sol\":998:1042  revert(\"ECDSA: invalid signature 's' value\") */\n      mload(0x40)\n      0x08c379a000000000000000000000000000000000000000000000000000000000\n      dup2\n      mstore\n      0x04\n      add\n      tag_220\n      swap1\n      tag_221\n      jump\t// in\n    tag_220:\n      mload(0x40)\n      dup1\n      swap2\n      sub\n      swap1\n      revert\n        /* \"@openzeppelin/contracts/utils/cryptography/ECDSA.sol\":939:1173  if (error == RecoverError.InvalidSignatureS) {... */\n    tag_219:\n        /* \"@openzeppelin/contracts/utils/cryptography/ECDSA.sol\":1072:1102  RecoverError.InvalidSignatureV */\n      0x04\n        /* \"@openzeppelin/contracts/utils/cryptography/ECDSA.sol\":1063:1102  error == RecoverError.InvalidSignatureV */\n      dup1\n      dup2\n      gt\n      iszero\n      tag_223\n      jumpi\n      tag_224\n      tag_194\n      jump\t// in\n    tag_224:\n    tag_223:\n        /* \"@openzeppelin/contracts/utils/cryptography/ECDSA.sol\":1063:1068  error */\n      dup2\n        /* \"@openzeppelin/contracts/utils/cryptography/ECDSA.sol\":1063:1102  error == RecoverError.InvalidSignatureV */\n      0x04\n      dup2\n      gt\n      iszero\n      tag_225\n      jumpi\n      tag_226\n      tag_194\n      jump\t// in\n    tag_226:\n    tag_225:\n      sub\n        /* \"@openzeppelin/contracts/utils/cryptography/ECDSA.sol\":1059:1173  if (error == RecoverError.InvalidSignatureV) {... */\n      tag_227\n      jumpi\n        /* \"@openzeppelin/contracts/utils/cryptography/ECDSA.sol\":1118:1162  revert(\"ECDSA: invalid signature 'v' value\") */\n      mload(0x40)\n      0x08c379a000000000000000000000000000000000000000000000000000000000\n      dup2\n      mstore\n      0x04\n      add\n      tag_228\n      swap1\n      tag_229\n      jump\t// in\n    tag_228:\n      mload(0x40)\n      dup1\n      swap2\n      sub\n      swap1\n      revert\n        /* \"@openzeppelin/contracts/utils/cryptography/ECDSA.sol\":1059:1173  if (error == RecoverError.InvalidSignatureV) {... */\n    tag_227:\n        /* \"@openzeppelin/contracts/utils/cryptography/ECDSA.sol\":548:1179  function _throwError(RecoverError error) private pure {... */\n    tag_191:\n      pop\n      jump\t// out\n        /* \"@openzeppelin/contracts/utils/cryptography/ECDSA.sol\":5167:6770  function tryRecover(... */\n    tag_189:\n        /* \"@openzeppelin/contracts/utils/cryptography/ECDSA.sol\":5293:5300  address */\n      0x00\n        /* \"@openzeppelin/contracts/utils/cryptography/ECDSA.sol\":5302:5314  RecoverError */\n      dup1\n        /* \"@openzeppelin/contracts/utils/cryptography/ECDSA.sol\":6217:6283  0x7FFFFFFFFFFFFFFFFFFFFFFFFFFFFFFF5D576E7357A4501DDFE92F46681B20A0 */\n      0x7fffffffffffffffffffffffffffffff5d576e7357a4501ddfe92f46681b20a0\n        /* \"@openzeppelin/contracts/utils/cryptography/ECDSA.sol\":6212:6213  s */\n      dup4\n        /* \"@openzeppelin/contracts/utils/cryptography/ECDSA.sol\":6204:6214  uint256(s) */\n      0x00\n      shr\n        /* \"@openzeppelin/contracts/utils/cryptography/ECDSA.sol\":6204:6283  uint256(s) > 0x7FFFFFFFFFFFFFFFFFFFFFFFFFFFFFFF5D576E7357A4501DDFE92F46681B20A0 */\n      gt\n        /* \"@openzeppelin/contracts/utils/cryptography/ECDSA.sol\":6200:6361  if (uint256(s) > 0x7FFFFFFFFFFFFFFFFFFFFFFFFFFFFFFF5D576E7357A4501DDFE92F46681B20A0) {... */\n      iszero\n      tag_231\n      jumpi\n        /* \"@openzeppelin/contracts/utils/cryptography/ECDSA.sol\":6315:6316  0 */\n      0x00\n        /* \"@openzeppelin/contracts/utils/cryptography/ECDSA.sol\":6319:6349  RecoverError.InvalidSignatureS */\n      0x03\n        /* \"@openzeppelin/contracts/utils/cryptography/ECDSA.sol\":6299:6350  return (address(0), RecoverError.InvalidSignatureS) */\n      swap2\n      pop\n      swap2\n      pop\n      jump(tag_230)\n        /* \"@openzeppelin/contracts/utils/cryptography/ECDSA.sol\":6200:6361  if (uint256(s) > 0x7FFFFFFFFFFFFFFFFFFFFFFFFFFFFFFF5D576E7357A4501DDFE92F46681B20A0) {... */\n    tag_231:\n        /* \"@openzeppelin/contracts/utils/cryptography/ECDSA.sol\":6379:6381  27 */\n      0x1b\n        /* \"@openzeppelin/contracts/utils/cryptography/ECDSA.sol\":6374:6375  v */\n      dup6\n        /* \"@openzeppelin/contracts/utils/cryptography/ECDSA.sol\":6374:6381  v != 27 */\n      0xff\n      and\n      eq\n      iszero\n        /* \"@openzeppelin/contracts/utils/cryptography/ECDSA.sol\":6374:6392  v != 27 && v != 28 */\n      dup1\n      iszero\n      tag_232\n      jumpi\n      pop\n        /* \"@openzeppelin/contracts/utils/cryptography/ECDSA.sol\":6390:6392  28 */\n      0x1c\n        /* \"@openzeppelin/contracts/utils/cryptography/ECDSA.sol\":6385:6386  v */\n      dup6\n        /* \"@openzeppelin/contracts/utils/cryptography/ECDSA.sol\":6385:6392  v != 28 */\n      0xff\n      and\n      eq\n      iszero\n        /* \"@openzeppelin/contracts/utils/cryptography/ECDSA.sol\":6374:6392  v != 27 && v != 28 */\n    tag_232:\n        /* \"@openzeppelin/contracts/utils/cryptography/ECDSA.sol\":6370:6470  if (v != 27 && v != 28) {... */\n      iszero\n      tag_233\n      jumpi\n        /* \"@openzeppelin/contracts/utils/cryptography/ECDSA.sol\":6424:6425  0 */\n      0x00\n        /* \"@openzeppelin/contracts/utils/cryptography/ECDSA.sol\":6428:6458  RecoverError.InvalidSignatureV */\n      0x04\n        /* \"@openzeppelin/contracts/utils/cryptography/ECDSA.sol\":6408:6459  return (address(0), RecoverError.InvalidSignatureV) */\n      swap2\n      pop\n      swap2\n      pop\n      jump(tag_230)\n        /* \"@openzeppelin/contracts/utils/cryptography/ECDSA.sol\":6370:6470  if (v != 27 && v != 28) {... */\n    tag_233:\n        /* \"@openzeppelin/contracts/utils/cryptography/ECDSA.sol\":6564:6578  address signer */\n      0x00\n        /* \"@openzeppelin/contracts/utils/cryptography/ECDSA.sol\":6581:6605  ecrecover(hash, v, r, s) */\n      0x01\n        /* \"@openzeppelin/contracts/utils/cryptography/ECDSA.sol\":6591:6595  hash */\n      dup8\n        /* \"@openzeppelin/contracts/utils/cryptography/ECDSA.sol\":6597:6598  v */\n      dup8\n        /* \"@openzeppelin/contracts/utils/cryptography/ECDSA.sol\":6600:6601  r */\n      dup8\n        /* \"@openzeppelin/contracts/utils/cryptography/ECDSA.sol\":6603:6604  s */\n      dup8\n        /* \"@openzeppelin/contracts/utils/cryptography/ECDSA.sol\":6581:6605  ecrecover(hash, v, r, s) */\n      mload(0x40)\n      0x00\n      dup2\n      mstore\n      0x20\n      add\n      0x40\n      mstore\n      mload(0x40)\n      tag_234\n      swap5\n      swap4\n      swap3\n      swap2\n      swap1\n      tag_235\n      jump\t// in\n    tag_234:\n      0x20\n      mload(0x40)\n      0x20\n      dup2\n      sub\n      swap1\n      dup1\n      dup5\n      sub\n      swap1\n      dup6\n      gas\n      staticcall\n      iszero\n      dup1\n      iszero\n      tag_237\n      jumpi\n      returndatasize\n      0x00\n      dup1\n      returndatacopy\n      revert(0x00, returndatasize)\n    tag_237:\n      pop\n      pop\n      pop\n      mload(sub(mload(0x40), 0x20))\n        /* \"@openzeppelin/contracts/utils/cryptography/ECDSA.sol\":6564:6605  address signer = ecrecover(hash, v, r, s) */\n      swap1\n      pop\n        /* \"@openzeppelin/contracts/utils/cryptography/ECDSA.sol\":6637:6638  0 */\n      0x00\n        /* \"@openzeppelin/contracts/utils/cryptography/ECDSA.sol\":6619:6639  signer == address(0) */\n      0xffffffffffffffffffffffffffffffffffffffff\n      and\n        /* \"@openzeppelin/contracts/utils/cryptography/ECDSA.sol\":6619:6625  signer */\n      dup2\n        /* \"@openzeppelin/contracts/utils/cryptography/ECDSA.sol\":6619:6639  signer == address(0) */\n      0xffffffffffffffffffffffffffffffffffffffff\n      and\n      sub\n        /* \"@openzeppelin/contracts/utils/cryptography/ECDSA.sol\":6615:6716  if (signer == address(0)) {... */\n      tag_238\n      jumpi\n        /* \"@openzeppelin/contracts/utils/cryptography/ECDSA.sol\":6671:6672  0 */\n      0x00\n        /* \"@openzeppelin/contracts/utils/cryptography/ECDSA.sol\":6675:6704  RecoverError.InvalidSignature */\n      0x01\n        /* \"@openzeppelin/contracts/utils/cryptography/ECDSA.sol\":6655:6705  return (address(0), RecoverError.InvalidSignature) */\n      swap3\n      pop\n      swap3\n      pop\n      pop\n      jump(tag_230)\n        /* \"@openzeppelin/contracts/utils/cryptography/ECDSA.sol\":6615:6716  if (signer == address(0)) {... */\n    tag_238:\n        /* \"@openzeppelin/contracts/utils/cryptography/ECDSA.sol\":6734:6740  signer */\n      dup1\n        /* \"@openzeppelin/contracts/utils/cryptography/ECDSA.sol\":6742:6762  RecoverError.NoError */\n      0x00\n        /* \"@openzeppelin/contracts/utils/cryptography/ECDSA.sol\":6726:6763  return (signer, RecoverError.NoError) */\n      swap3\n      pop\n      swap3\n      pop\n      pop\n        /* \"@openzeppelin/contracts/utils/cryptography/ECDSA.sol\":5167:6770  function tryRecover(... */\n    tag_230:\n      swap5\n      pop\n      swap5\n      swap3\n      pop\n      pop\n      pop\n      jump\t// out\n        /* \"#utility.yul\":88:205   */\n    tag_240:\n        /* \"#utility.yul\":197:198   */\n      0x00\n        /* \"#utility.yul\":194:195   */\n      dup1\n        /* \"#utility.yul\":187:199   */\n      revert\n        /* \"#utility.yul\":211:328   */\n    tag_241:\n        /* \"#utility.yul\":320:321   */\n      0x00\n        /* \"#utility.yul\":317:318   */\n      dup1\n        /* \"#utility.yul\":310:322   */\n      revert\n        /* \"#utility.yul\":334:483   */\n    tag_242:\n        /* \"#utility.yul\":370:377   */\n      0x00\n        /* \"#utility.yul\":410:476   */\n      0xffffffff00000000000000000000000000000000000000000000000000000000\n        /* \"#utility.yul\":403:408   */\n      dup3\n        /* \"#utility.yul\":399:477   */\n      and\n        /* \"#utility.yul\":388:477   */\n      swap1\n      pop\n        /* \"#utility.yul\":334:483   */\n      swap2\n      swap1\n      pop\n      jump\t// out\n        /* \"#utility.yul\":489:609   */\n    tag_243:\n        /* \"#utility.yul\":561:584   */\n      tag_329\n        /* \"#utility.yul\":578:583   */\n      dup2\n        /* \"#utility.yul\":561:584   */\n      tag_242\n      jump\t// in\n    tag_329:\n        /* \"#utility.yul\":554:559   */\n      dup2\n        /* \"#utility.yul\":551:585   */\n      eq\n        /* \"#utility.yul\":541:603   */\n      tag_330\n      jumpi\n        /* \"#utility.yul\":599:600   */\n      0x00\n        /* \"#utility.yul\":596:597   */\n      dup1\n        /* \"#utility.yul\":589:601   */\n      revert\n        /* \"#utility.yul\":541:603   */\n    tag_330:\n        /* \"#utility.yul\":489:609   */\n      pop\n      jump\t// out\n        /* \"#utility.yul\":615:752   */\n    tag_244:\n        /* \"#utility.yul\":660:665   */\n      0x00\n        /* \"#utility.yul\":698:704   */\n      dup2\n        /* \"#utility.yul\":685:705   */\n      calldataload\n        /* \"#utility.yul\":676:705   */\n      swap1\n      pop\n        /* \"#utility.yul\":714:746   */\n      tag_332\n        /* \"#utility.yul\":740:745   */\n      dup2\n        /* \"#utility.yul\":714:746   */\n      tag_243\n      jump\t// in\n    tag_332:\n        /* \"#utility.yul\":615:752   */\n      swap3\n      swap2\n      pop\n      pop\n      jump\t// out\n        /* \"#utility.yul\":758:1085   */\n    tag_20:\n        /* \"#utility.yul\":816:822   */\n      0x00\n        /* \"#utility.yul\":865:867   */\n      0x20\n        /* \"#utility.yul\":853:862   */\n      dup3\n        /* \"#utility.yul\":844:851   */\n      dup5\n        /* \"#utility.yul\":840:863   */\n      sub\n        /* \"#utility.yul\":836:868   */\n      slt\n        /* \"#utility.yul\":833:952   */\n      iszero\n      tag_334\n      jumpi\n        /* \"#utility.yul\":871:950   */\n      tag_335\n      tag_240\n      jump\t// in\n    tag_335:\n        /* \"#utility.yul\":833:952   */\n    tag_334:\n        /* \"#utility.yul\":991:992   */\n      0x00\n        /* \"#utility.yul\":1016:1068   */\n      tag_336\n        /* \"#utility.yul\":1060:1067   */\n      dup5\n        /* \"#utility.yul\":1051:1057   */\n      dup3\n        /* \"#utility.yul\":1040:1049   */\n      dup6\n        /* \"#utility.yul\":1036:1058   */\n      add\n        /* \"#utility.yul\":1016:1068   */\n      tag_244\n      jump\t// in\n    tag_336:\n        /* \"#utility.yul\":1006:1068   */\n      swap2\n      pop\n        /* \"#utility.yul\":962:1078   */\n      pop\n        /* \"#utility.yul\":758:1085   */\n      swap3\n      swap2\n      pop\n      pop\n      jump\t// out\n        /* \"#utility.yul\":1091:1181   */\n    tag_245:\n        /* \"#utility.yul\":1125:1132   */\n      0x00\n        /* \"#utility.yul\":1168:1173   */\n      dup2\n        /* \"#utility.yul\":1161:1174   */\n      iszero\n        /* \"#utility.yul\":1154:1175   */\n      iszero\n        /* \"#utility.yul\":1143:1175   */\n      swap1\n      pop\n        /* \"#utility.yul\":1091:1181   */\n      swap2\n      swap1\n      pop\n      jump\t// out\n        /* \"#utility.yul\":1187:1296   */\n    tag_246:\n        /* \"#utility.yul\":1268:1289   */\n      tag_339\n        /* \"#utility.yul\":1283:1288   */\n      dup2\n        /* \"#utility.yul\":1268:1289   */\n      tag_245\n      jump\t// in\n    tag_339:\n        /* \"#utility.yul\":1263:1266   */\n      dup3\n        /* \"#utility.yul\":1256:1290   */\n      mstore\n        /* \"#utility.yul\":1187:1296   */\n      pop\n      pop\n      jump\t// out\n        /* \"#utility.yul\":1302:1512   */\n    tag_23:\n        /* \"#utility.yul\":1389:1393   */\n      0x00\n        /* \"#utility.yul\":1427:1429   */\n      0x20\n        /* \"#utility.yul\":1416:1425   */\n      dup3\n        /* \"#utility.yul\":1412:1430   */\n      add\n        /* \"#utility.yul\":1404:1430   */\n      swap1\n      pop\n        /* \"#utility.yul\":1440:1505   */\n      tag_341\n        /* \"#utility.yul\":1502:1503   */\n      0x00\n        /* \"#utility.yul\":1491:1500   */\n      dup4\n        /* \"#utility.yul\":1487:1504   */\n      add\n        /* \"#utility.yul\":1478:1484   */\n      dup5\n        /* \"#utility.yul\":1440:1505   */\n      tag_246\n      jump\t// in\n    tag_341:\n        /* \"#utility.yul\":1302:1512   */\n      swap3\n      swap2\n      pop\n      pop\n      jump\t// out\n        /* \"#utility.yul\":1518:1617   */\n    tag_247:\n        /* \"#utility.yul\":1570:1576   */\n      0x00\n        /* \"#utility.yul\":1604:1609   */\n      dup2\n        /* \"#utility.yul\":1598:1610   */\n      mload\n        /* \"#utility.yul\":1588:1610   */\n      swap1\n      pop\n        /* \"#utility.yul\":1518:1617   */\n      swap2\n      swap1\n      pop\n      jump\t// out\n        /* \"#utility.yul\":1623:1792   */\n    tag_248:\n        /* \"#utility.yul\":1707:1718   */\n      0x00\n        /* \"#utility.yul\":1741:1747   */\n      dup3\n        /* \"#utility.yul\":1736:1739   */\n      dup3\n        /* \"#utility.yul\":1729:1748   */\n      mstore\n        /* \"#utility.yul\":1781:1785   */\n      0x20\n        /* \"#utility.yul\":1776:1779   */\n      dup3\n        /* \"#utility.yul\":1772:1786   */\n      add\n        /* \"#utility.yul\":1757:1786   */\n      swap1\n      pop\n        /* \"#utility.yul\":1623:1792   */\n      swap3\n      swap2\n      pop\n      pop\n      jump\t// out\n        /* \"#utility.yul\":1798:2044   */\n    tag_249:\n        /* \"#utility.yul\":1879:1880   */\n      0x00\n        /* \"#utility.yul\":1889:2002   */\n    tag_345:\n        /* \"#utility.yul\":1903:1909   */\n      dup4\n        /* \"#utility.yul\":1900:1901   */\n      dup2\n        /* \"#utility.yul\":1897:1910   */\n      lt\n        /* \"#utility.yul\":1889:2002   */\n      iszero\n      tag_347\n      jumpi\n        /* \"#utility.yul\":1988:1989   */\n      dup1\n        /* \"#utility.yul\":1983:1986   */\n      dup3\n        /* \"#utility.yul\":1979:1990   */\n      add\n        /* \"#utility.yul\":1973:1991   */\n      mload\n        /* \"#utility.yul\":1969:1970   */\n      dup2\n        /* \"#utility.yul\":1964:1967   */\n      dup5\n        /* \"#utility.yul\":1960:1971   */\n      add\n        /* \"#utility.yul\":1953:1992   */\n      mstore\n        /* \"#utility.yul\":1925:1927   */\n      0x20\n        /* \"#utility.yul\":1922:1923   */\n      dup2\n        /* \"#utility.yul\":1918:1928   */\n      add\n        /* \"#utility.yul\":1913:1928   */\n      swap1\n      pop\n        /* \"#utility.yul\":1889:2002   */\n      jump(tag_345)\n    tag_347:\n        /* \"#utility.yul\":2036:2037   */\n      0x00\n        /* \"#utility.yul\":2027:2033   */\n      dup5\n        /* \"#utility.yul\":2022:2025   */\n      dup5\n        /* \"#utility.yul\":2018:2034   */\n      add\n        /* \"#utility.yul\":2011:2038   */\n      mstore\n        /* \"#utility.yul\":1860:2044   */\n      pop\n        /* \"#utility.yul\":1798:2044   */\n      pop\n      pop\n      pop\n      jump\t// out\n        /* \"#utility.yul\":2050:2152   */\n    tag_250:\n        /* \"#utility.yul\":2091:2097   */\n      0x00\n        /* \"#utility.yul\":2142:2144   */\n      0x1f\n        /* \"#utility.yul\":2138:2145   */\n      not\n        /* \"#utility.yul\":2133:2135   */\n      0x1f\n        /* \"#utility.yul\":2126:2131   */\n      dup4\n        /* \"#utility.yul\":2122:2136   */\n      add\n        /* \"#utility.yul\":2118:2146   */\n      and\n        /* \"#utility.yul\":2108:2146   */\n      swap1\n      pop\n        /* \"#utility.yul\":2050:2152   */\n      swap2\n      swap1\n      pop\n      jump\t// out\n        /* \"#utility.yul\":2158:2535   */\n    tag_251:\n        /* \"#utility.yul\":2246:2249   */\n      0x00\n        /* \"#utility.yul\":2274:2313   */\n      tag_350\n        /* \"#utility.yul\":2307:2312   */\n      dup3\n        /* \"#utility.yul\":2274:2313   */\n      tag_247\n      jump\t// in\n    tag_350:\n        /* \"#utility.yul\":2329:2400   */\n      tag_351\n        /* \"#utility.yul\":2393:2399   */\n      dup2\n        /* \"#utility.yul\":2388:2391   */\n      dup6\n        /* \"#utility.yul\":2329:2400   */\n      tag_248\n      jump\t// in\n    tag_351:\n        /* \"#utility.yul\":2322:2400   */\n      swap4\n      pop\n        /* \"#utility.yul\":2409:2474   */\n      tag_352\n        /* \"#utility.yul\":2467:2473   */\n      dup2\n        /* \"#utility.yul\":2462:2465   */\n      dup6\n        /* \"#utility.yul\":2455:2459   */\n      0x20\n        /* \"#utility.yul\":2448:2453   */\n      dup7\n        /* \"#utility.yul\":2444:2460   */\n      add\n        /* \"#utility.yul\":2409:2474   */\n      tag_249\n      jump\t// in\n    tag_352:\n        /* \"#utility.yul\":2499:2528   */\n      tag_353\n        /* \"#utility.yul\":2521:2527   */\n      dup2\n        /* \"#utility.yul\":2499:2528   */\n      tag_250\n      jump\t// in\n    tag_353:\n        /* \"#utility.yul\":2494:2497   */\n      dup5\n        /* \"#utility.yul\":2490:2529   */\n      add\n        /* \"#utility.yul\":2483:2529   */\n      swap2\n      pop\n        /* \"#utility.yul\":2250:2535   */\n      pop\n        /* \"#utility.yul\":2158:2535   */\n      swap3\n      swap2\n      pop\n      pop\n      jump\t// out\n        /* \"#utility.yul\":2541:2854   */\n    tag_28:\n        /* \"#utility.yul\":2654:2658   */\n      0x00\n        /* \"#utility.yul\":2692:2694   */\n      0x20\n        /* \"#utility.yul\":2681:2690   */\n      dup3\n        /* \"#utility.yul\":2677:2695   */\n      add\n        /* \"#utility.yul\":2669:2695   */\n      swap1\n      pop\n        /* \"#utility.yul\":2741:2750   */\n      dup2\n        /* \"#utility.yul\":2735:2739   */\n      dup2\n        /* \"#utility.yul\":2731:2751   */\n      sub\n        /* \"#utility.yul\":2727:2728   */\n      0x00\n        /* \"#utility.yul\":2716:2725   */\n      dup4\n        /* \"#utility.yul\":2712:2729   */\n      add\n        /* \"#utility.yul\":2705:2752   */\n      mstore\n        /* \"#utility.yul\":2769:2847   */\n      tag_355\n        /* \"#utility.yul\":2842:2846   */\n      dup2\n        /* \"#utility.yul\":2833:2839   */\n      dup5\n        /* \"#utility.yul\":2769:2847   */\n      tag_251\n      jump\t// in\n    tag_355:\n        /* \"#utility.yul\":2761:2847   */\n      swap1\n      pop\n        /* \"#utility.yul\":2541:2854   */\n      swap3\n      swap2\n      pop\n      pop\n      jump\t// out\n        /* \"#utility.yul\":2860:2937   */\n    tag_252:\n        /* \"#utility.yul\":2897:2904   */\n      0x00\n        /* \"#utility.yul\":2926:2931   */\n      dup2\n        /* \"#utility.yul\":2915:2931   */\n      swap1\n      pop\n        /* \"#utility.yul\":2860:2937   */\n      swap2\n      swap1\n      pop\n      jump\t// out\n        /* \"#utility.yul\":2943:3065   */\n    tag_253:\n        /* \"#utility.yul\":3016:3040   */\n      tag_358\n        /* \"#utility.yul\":3034:3039   */\n      dup2\n        /* \"#utility.yul\":3016:3040   */\n      tag_252\n      jump\t// in\n    tag_358:\n        /* \"#utility.yul\":3009:3014   */\n      dup2\n        /* \"#utility.yul\":3006:3041   */\n      eq\n        /* \"#utility.yul\":2996:3059   */\n      tag_359\n      jumpi\n        /* \"#utility.yul\":3055:3056   */\n      0x00\n        /* \"#utility.yul\":3052:3053   */\n      dup1\n        /* \"#utility.yul\":3045:3057   */\n      revert\n        /* \"#utility.yul\":2996:3059   */\n    tag_359:\n        /* \"#utility.yul\":2943:3065   */\n      pop\n      jump\t// out\n        /* \"#utility.yul\":3071:3210   */\n    tag_254:\n        /* \"#utility.yul\":3117:3122   */\n      0x00\n        /* \"#utility.yul\":3155:3161   */\n      dup2\n        /* \"#utility.yul\":3142:3162   */\n      calldataload\n        /* \"#utility.yul\":3133:3162   */\n      swap1\n      pop\n        /* \"#utility.yul\":3171:3204   */\n      tag_361\n        /* \"#utility.yul\":3198:3203   */\n      dup2\n        /* \"#utility.yul\":3171:3204   */\n      tag_253\n      jump\t// in\n    tag_361:\n        /* \"#utility.yul\":3071:3210   */\n      swap3\n      swap2\n      pop\n      pop\n      jump\t// out\n        /* \"#utility.yul\":3216:3545   */\n    tag_32:\n        /* \"#utility.yul\":3275:3281   */\n      0x00\n        /* \"#utility.yul\":3324:3326   */\n      0x20\n        /* \"#utility.yul\":3312:3321   */\n      dup3\n        /* \"#utility.yul\":3303:3310   */\n      dup5\n        /* \"#utility.yul\":3299:3322   */\n      sub\n        /* \"#utility.yul\":3295:3327   */\n      slt\n        /* \"#utility.yul\":3292:3411   */\n      iszero\n      tag_363\n      jumpi\n        /* \"#utility.yul\":3330:3409   */\n      tag_364\n      tag_240\n      jump\t// in\n    tag_364:\n        /* \"#utility.yul\":3292:3411   */\n    tag_363:\n        /* \"#utility.yul\":3450:3451   */\n      0x00\n        /* \"#utility.yul\":3475:3528   */\n      tag_365\n        /* \"#utility.yul\":3520:3527   */\n      dup5\n        /* \"#utility.yul\":3511:3517   */\n      dup3\n        /* \"#utility.yul\":3500:3509   */\n      dup6\n        /* \"#utility.yul\":3496:3518   */\n      add\n        /* \"#utility.yul\":3475:3528   */\n      tag_254\n      jump\t// in\n    tag_365:\n        /* \"#utility.yul\":3465:3528   */\n      swap2\n      pop\n        /* \"#utility.yul\":3421:3538   */\n      pop\n        /* \"#utility.yul\":3216:3545   */\n      swap3\n      swap2\n      pop\n      pop\n      jump\t// out\n        /* \"#utility.yul\":3551:3677   */\n    tag_255:\n        /* \"#utility.yul\":3588:3595   */\n      0x00\n        /* \"#utility.yul\":3628:3670   */\n      0xffffffffffffffffffffffffffffffffffffffff\n        /* \"#utility.yul\":3621:3626   */\n      dup3\n        /* \"#utility.yul\":3617:3671   */\n      and\n        /* \"#utility.yul\":3606:3671   */\n      swap1\n      pop\n        /* \"#utility.yul\":3551:3677   */\n      swap2\n      swap1\n      pop\n      jump\t// out\n        /* \"#utility.yul\":3683:3779   */\n    tag_256:\n        /* \"#utility.yul\":3720:3727   */\n      0x00\n        /* \"#utility.yul\":3749:3773   */\n      tag_368\n        /* \"#utility.yul\":3767:3772   */\n      dup3\n        /* \"#utility.yul\":3749:3773   */\n      tag_255\n      jump\t// in\n    tag_368:\n        /* \"#utility.yul\":3738:3773   */\n      swap1\n      pop\n        /* \"#utility.yul\":3683:3779   */\n      swap2\n      swap1\n      pop\n      jump\t// out\n        /* \"#utility.yul\":3785:3907   */\n    tag_257:\n        /* \"#utility.yul\":3858:3882   */\n      tag_370\n        /* \"#utility.yul\":3876:3881   */\n      dup2\n        /* \"#utility.yul\":3858:3882   */\n      tag_256\n      jump\t// in\n    tag_370:\n        /* \"#utility.yul\":3851:3856   */\n      dup2\n        /* \"#utility.yul\":3848:3883   */\n      eq\n        /* \"#utility.yul\":3838:3901   */\n      tag_371\n      jumpi\n        /* \"#utility.yul\":3897:3898   */\n      0x00\n        /* \"#utility.yul\":3894:3895   */\n      dup1\n        /* \"#utility.yul\":3887:3899   */\n      revert\n        /* \"#utility.yul\":3838:3901   */\n    tag_371:\n        /* \"#utility.yul\":3785:3907   */\n      pop\n      jump\t// out\n        /* \"#utility.yul\":3913:4052   */\n    tag_258:\n        /* \"#utility.yul\":3959:3964   */\n      0x00\n        /* \"#utility.yul\":3997:4003   */\n      dup2\n        /* \"#utility.yul\":3984:4004   */\n      calldataload\n        /* \"#utility.yul\":3975:4004   */\n      swap1\n      pop\n        /* \"#utility.yul\":4013:4046   */\n      tag_373\n        /* \"#utility.yul\":4040:4045   */\n      dup2\n        /* \"#utility.yul\":4013:4046   */\n      tag_257\n      jump\t// in\n    tag_373:\n        /* \"#utility.yul\":3913:4052   */\n      swap3\n      swap2\n      pop\n      pop\n      jump\t// out\n        /* \"#utility.yul\":4058:4387   */\n    tag_38:\n        /* \"#utility.yul\":4117:4123   */\n      0x00\n        /* \"#utility.yul\":4166:4168   */\n      0x20\n        /* \"#utility.yul\":4154:4163   */\n      dup3\n        /* \"#utility.yul\":4145:4152   */\n      dup5\n        /* \"#utility.yul\":4141:4164   */\n      sub\n        /* \"#utility.yul\":4137:4169   */\n      slt\n        /* \"#utility.yul\":4134:4253   */\n      iszero\n      tag_375\n      jumpi\n        /* \"#utility.yul\":4172:4251   */\n      tag_376\n      tag_240\n      jump\t// in\n    tag_376:\n        /* \"#utility.yul\":4134:4253   */\n    tag_375:\n        /* \"#utility.yul\":4292:4293   */\n      0x00\n        /* \"#utility.yul\":4317:4370   */\n      tag_377\n        /* \"#utility.yul\":4362:4369   */\n      dup5\n        /* \"#utility.yul\":4353:4359   */\n      dup3\n        /* \"#utility.yul\":4342:4351   */\n      dup6\n        /* \"#utility.yul\":4338:4360   */\n      add\n        /* \"#utility.yul\":4317:4370   */\n      tag_258\n      jump\t// in\n    tag_377:\n        /* \"#utility.yul\":4307:4370   */\n      swap2\n      pop\n        /* \"#utility.yul\":4263:4380   */\n      pop\n        /* \"#utility.yul\":4058:4387   */\n      swap3\n      swap2\n      pop\n      pop\n      jump\t// out\n        /* \"#utility.yul\":4393:4470   */\n    tag_259:\n        /* \"#utility.yul\":4430:4437   */\n      0x00\n        /* \"#utility.yul\":4459:4464   */\n      dup2\n        /* \"#utility.yul\":4448:4464   */\n      swap1\n      pop\n        /* \"#utility.yul\":4393:4470   */\n      swap2\n      swap1\n      pop\n      jump\t// out\n        /* \"#utility.yul\":4476:4594   */\n    tag_260:\n        /* \"#utility.yul\":4563:4587   */\n      tag_380\n        /* \"#utility.yul\":4581:4586   */\n      dup2\n        /* \"#utility.yul\":4563:4587   */\n      tag_259\n      jump\t// in\n    tag_380:\n        /* \"#utility.yul\":4558:4561   */\n      dup3\n        /* \"#utility.yul\":4551:4588   */\n      mstore\n        /* \"#utility.yul\":4476:4594   */\n      pop\n      pop\n      jump\t// out\n        /* \"#utility.yul\":4600:4822   */\n    tag_41:\n        /* \"#utility.yul\":4693:4697   */\n      0x00\n        /* \"#utility.yul\":4731:4733   */\n      0x20\n        /* \"#utility.yul\":4720:4729   */\n      dup3\n        /* \"#utility.yul\":4716:4734   */\n      add\n        /* \"#utility.yul\":4708:4734   */\n      swap1\n      pop\n        /* \"#utility.yul\":4744:4815   */\n      tag_382\n        /* \"#utility.yul\":4812:4813   */\n      0x00\n        /* \"#utility.yul\":4801:4810   */\n      dup4\n        /* \"#utility.yul\":4797:4814   */\n      add\n        /* \"#utility.yul\":4788:4794   */\n      dup5\n        /* \"#utility.yul\":4744:4815   */\n      tag_260\n      jump\t// in\n    tag_382:\n        /* \"#utility.yul\":4600:4822   */\n      swap3\n      swap2\n      pop\n      pop\n      jump\t// out\n        /* \"#utility.yul\":4828:4945   */\n    tag_261:\n        /* \"#utility.yul\":4937:4938   */\n      0x00\n        /* \"#utility.yul\":4934:4935   */\n      dup1\n        /* \"#utility.yul\":4927:4939   */\n      revert\n        /* \"#utility.yul\":4951:5068   */\n    tag_262:\n        /* \"#utility.yul\":5060:5061   */\n      0x00\n        /* \"#utility.yul\":5057:5058   */\n      dup1\n        /* \"#utility.yul\":5050:5062   */\n      revert\n        /* \"#utility.yul\":5074:5191   */\n    tag_263:\n        /* \"#utility.yul\":5183:5184   */\n      0x00\n        /* \"#utility.yul\":5180:5181   */\n      dup1\n        /* \"#utility.yul\":5173:5185   */\n      revert\n        /* \"#utility.yul\":5211:5764   */\n    tag_264:\n        /* \"#utility.yul\":5269:5277   */\n      0x00\n        /* \"#utility.yul\":5279:5285   */\n      dup1\n        /* \"#utility.yul\":5329:5332   */\n      dup4\n        /* \"#utility.yul\":5322:5326   */\n      0x1f\n        /* \"#utility.yul\":5314:5320   */\n      dup5\n        /* \"#utility.yul\":5310:5327   */\n      add\n        /* \"#utility.yul\":5306:5333   */\n      slt\n        /* \"#utility.yul\":5296:5418   */\n      tag_387\n      jumpi\n        /* \"#utility.yul\":5337:5416   */\n      tag_388\n      tag_261\n      jump\t// in\n    tag_388:\n        /* \"#utility.yul\":5296:5418   */\n    tag_387:\n        /* \"#utility.yul\":5450:5456   */\n      dup3\n        /* \"#utility.yul\":5437:5457   */\n      calldataload\n        /* \"#utility.yul\":5427:5457   */\n      swap1\n      pop\n        /* \"#utility.yul\":5480:5498   */\n      0xffffffffffffffff\n        /* \"#utility.yul\":5472:5478   */\n      dup2\n        /* \"#utility.yul\":5469:5499   */\n      gt\n        /* \"#utility.yul\":5466:5583   */\n      iszero\n      tag_389\n      jumpi\n        /* \"#utility.yul\":5502:5581   */\n      tag_390\n      tag_262\n      jump\t// in\n    tag_390:\n        /* \"#utility.yul\":5466:5583   */\n    tag_389:\n        /* \"#utility.yul\":5616:5620   */\n      0x20\n        /* \"#utility.yul\":5608:5614   */\n      dup4\n        /* \"#utility.yul\":5604:5621   */\n      add\n        /* \"#utility.yul\":5592:5621   */\n      swap2\n      pop\n        /* \"#utility.yul\":5670:5673   */\n      dup4\n        /* \"#utility.yul\":5662:5666   */\n      0x01\n        /* \"#utility.yul\":5654:5660   */\n      dup3\n        /* \"#utility.yul\":5650:5667   */\n      mul\n        /* \"#utility.yul\":5640:5648   */\n      dup4\n        /* \"#utility.yul\":5636:5668   */\n      add\n        /* \"#utility.yul\":5633:5674   */\n      gt\n        /* \"#utility.yul\":5630:5758   */\n      iszero\n      tag_391\n      jumpi\n        /* \"#utility.yul\":5677:5756   */\n      tag_392\n      tag_263\n      jump\t// in\n    tag_392:\n        /* \"#utility.yul\":5630:5758   */\n    tag_391:\n        /* \"#utility.yul\":5211:5764   */\n      swap3\n      pop\n      swap3\n      swap1\n      pop\n      jump\t// out\n        /* \"#utility.yul\":5770:6644   */\n    tag_45:\n        /* \"#utility.yul\":5862:5868   */\n      0x00\n        /* \"#utility.yul\":5870:5876   */\n      dup1\n        /* \"#utility.yul\":5878:5884   */\n      0x00\n        /* \"#utility.yul\":5886:5892   */\n      dup1\n        /* \"#utility.yul\":5935:5937   */\n      0x40\n        /* \"#utility.yul\":5923:5932   */\n      dup6\n        /* \"#utility.yul\":5914:5921   */\n      dup8\n        /* \"#utility.yul\":5910:5933   */\n      sub\n        /* \"#utility.yul\":5906:5938   */\n      slt\n        /* \"#utility.yul\":5903:6022   */\n      iszero\n      tag_394\n      jumpi\n        /* \"#utility.yul\":5941:6020   */\n      tag_395\n      tag_240\n      jump\t// in\n    tag_395:\n        /* \"#utility.yul\":5903:6022   */\n    tag_394:\n        /* \"#utility.yul\":6089:6090   */\n      0x00\n        /* \"#utility.yul\":6078:6087   */\n      dup6\n        /* \"#utility.yul\":6074:6091   */\n      add\n        /* \"#utility.yul\":6061:6092   */\n      calldataload\n        /* \"#utility.yul\":6119:6137   */\n      0xffffffffffffffff\n        /* \"#utility.yul\":6111:6117   */\n      dup2\n        /* \"#utility.yul\":6108:6138   */\n      gt\n        /* \"#utility.yul\":6105:6222   */\n      iszero\n      tag_396\n      jumpi\n        /* \"#utility.yul\":6141:6220   */\n      tag_397\n      tag_241\n      jump\t// in\n    tag_397:\n        /* \"#utility.yul\":6105:6222   */\n    tag_396:\n        /* \"#utility.yul\":6254:6319   */\n      tag_398\n        /* \"#utility.yul\":6311:6318   */\n      dup8\n        /* \"#utility.yul\":6302:6308   */\n      dup3\n        /* \"#utility.yul\":6291:6300   */\n      dup9\n        /* \"#utility.yul\":6287:6309   */\n      add\n        /* \"#utility.yul\":6254:6319   */\n      tag_264\n      jump\t// in\n    tag_398:\n        /* \"#utility.yul\":6236:6319   */\n      swap5\n      pop\n      swap5\n      pop\n        /* \"#utility.yul\":6032:6329   */\n      pop\n        /* \"#utility.yul\":6396:6398   */\n      0x20\n        /* \"#utility.yul\":6385:6394   */\n      dup6\n        /* \"#utility.yul\":6381:6399   */\n      add\n        /* \"#utility.yul\":6368:6400   */\n      calldataload\n        /* \"#utility.yul\":6427:6445   */\n      0xffffffffffffffff\n        /* \"#utility.yul\":6419:6425   */\n      dup2\n        /* \"#utility.yul\":6416:6446   */\n      gt\n        /* \"#utility.yul\":6413:6530   */\n      iszero\n      tag_399\n      jumpi\n        /* \"#utility.yul\":6449:6528   */\n      tag_400\n      tag_241\n      jump\t// in\n    tag_400:\n        /* \"#utility.yul\":6413:6530   */\n    tag_399:\n        /* \"#utility.yul\":6562:6627   */\n      tag_401\n        /* \"#utility.yul\":6619:6626   */\n      dup8\n        /* \"#utility.yul\":6610:6616   */\n      dup3\n        /* \"#utility.yul\":6599:6608   */\n      dup9\n        /* \"#utility.yul\":6595:6617   */\n      add\n        /* \"#utility.yul\":6562:6627   */\n      tag_264\n      jump\t// in\n    tag_401:\n        /* \"#utility.yul\":6544:6627   */\n      swap3\n      pop\n      swap3\n      pop\n        /* \"#utility.yul\":6339:6637   */\n      pop\n        /* \"#utility.yul\":5770:6644   */\n      swap3\n      swap6\n      swap2\n      swap5\n      pop\n      swap3\n      pop\n      jump\t// out\n        /* \"#utility.yul\":6650:6767   */\n    tag_265:\n        /* \"#utility.yul\":6759:6760   */\n      0x00\n        /* \"#utility.yul\":6756:6757   */\n      dup1\n        /* \"#utility.yul\":6749:6761   */\n      revert\n        /* \"#utility.yul\":6813:7052   */\n    tag_266:\n        /* \"#utility.yul\":6893:6898   */\n      0x00\n        /* \"#utility.yul\":6934:6937   */\n      0xe0\n        /* \"#utility.yul\":6925:6931   */\n      dup3\n        /* \"#utility.yul\":6920:6923   */\n      dup5\n        /* \"#utility.yul\":6916:6932   */\n      sub\n        /* \"#utility.yul\":6912:6938   */\n      slt\n        /* \"#utility.yul\":6909:7022   */\n      iszero\n      tag_404\n      jumpi\n        /* \"#utility.yul\":6941:7020   */\n      tag_405\n      tag_265\n      jump\t// in\n    tag_405:\n        /* \"#utility.yul\":6909:7022   */\n    tag_404:\n        /* \"#utility.yul\":7040:7046   */\n      dup2\n        /* \"#utility.yul\":7031:7046   */\n      swap1\n      pop\n        /* \"#utility.yul\":6813:7052   */\n      swap3\n      swap2\n      pop\n      pop\n      jump\t// out\n        /* \"#utility.yul\":7071:7623   */\n    tag_267:\n        /* \"#utility.yul\":7128:7136   */\n      0x00\n        /* \"#utility.yul\":7138:7144   */\n      dup1\n        /* \"#utility.yul\":7188:7191   */\n      dup4\n        /* \"#utility.yul\":7181:7185   */\n      0x1f\n        /* \"#utility.yul\":7173:7179   */\n      dup5\n        /* \"#utility.yul\":7169:7186   */\n      add\n        /* \"#utility.yul\":7165:7192   */\n      slt\n        /* \"#utility.yul\":7155:7277   */\n      tag_407\n      jumpi\n        /* \"#utility.yul\":7196:7275   */\n      tag_408\n      tag_261\n      jump\t// in\n    tag_408:\n        /* \"#utility.yul\":7155:7277   */\n    tag_407:\n        /* \"#utility.yul\":7309:7315   */\n      dup3\n        /* \"#utility.yul\":7296:7316   */\n      calldataload\n        /* \"#utility.yul\":7286:7316   */\n      swap1\n      pop\n        /* \"#utility.yul\":7339:7357   */\n      0xffffffffffffffff\n        /* \"#utility.yul\":7331:7337   */\n      dup2\n        /* \"#utility.yul\":7328:7358   */\n      gt\n        /* \"#utility.yul\":7325:7442   */\n      iszero\n      tag_409\n      jumpi\n        /* \"#utility.yul\":7361:7440   */\n      tag_410\n      tag_262\n      jump\t// in\n    tag_410:\n        /* \"#utility.yul\":7325:7442   */\n    tag_409:\n        /* \"#utility.yul\":7475:7479   */\n      0x20\n        /* \"#utility.yul\":7467:7473   */\n      dup4\n        /* \"#utility.yul\":7463:7480   */\n      add\n        /* \"#utility.yul\":7451:7480   */\n      swap2\n      pop\n        /* \"#utility.yul\":7529:7532   */\n      dup4\n        /* \"#utility.yul\":7521:7525   */\n      0x01\n        /* \"#utility.yul\":7513:7519   */\n      dup3\n        /* \"#utility.yul\":7509:7526   */\n      mul\n        /* \"#utility.yul\":7499:7507   */\n      dup4\n        /* \"#utility.yul\":7495:7527   */\n      add\n        /* \"#utility.yul\":7492:7533   */\n      gt\n        /* \"#utility.yul\":7489:7617   */\n      iszero\n      tag_411\n      jumpi\n        /* \"#utility.yul\":7536:7615   */\n      tag_412\n      tag_263\n      jump\t// in\n    tag_412:\n        /* \"#utility.yul\":7489:7617   */\n    tag_411:\n        /* \"#utility.yul\":7071:7623   */\n      swap3\n      pop\n      swap3\n      swap1\n      pop\n      jump\t// out\n        /* \"#utility.yul\":7629:9164   */\n    tag_50:\n        /* \"#utility.yul\":7780:7786   */\n      0x00\n        /* \"#utility.yul\":7788:7794   */\n      dup1\n        /* \"#utility.yul\":7796:7802   */\n      0x00\n        /* \"#utility.yul\":7804:7810   */\n      dup1\n        /* \"#utility.yul\":7812:7818   */\n      0x00\n        /* \"#utility.yul\":7820:7826   */\n      dup1\n        /* \"#utility.yul\":7828:7834   */\n      0x00\n        /* \"#utility.yul\":7877:7880   */\n      0xa0\n        /* \"#utility.yul\":7865:7874   */\n      dup9\n        /* \"#utility.yul\":7856:7863   */\n      dup11\n        /* \"#utility.yul\":7852:7875   */\n      sub\n        /* \"#utility.yul\":7848:7881   */\n      slt\n        /* \"#utility.yul\":7845:7965   */\n      iszero\n      tag_414\n      jumpi\n        /* \"#utility.yul\":7884:7963   */\n      tag_415\n      tag_240\n      jump\t// in\n    tag_415:\n        /* \"#utility.yul\":7845:7965   */\n    tag_414:\n        /* \"#utility.yul\":8032:8033   */\n      0x00\n        /* \"#utility.yul\":8021:8030   */\n      dup9\n        /* \"#utility.yul\":8017:8034   */\n      add\n        /* \"#utility.yul\":8004:8035   */\n      calldataload\n        /* \"#utility.yul\":8062:8080   */\n      0xffffffffffffffff\n        /* \"#utility.yul\":8054:8060   */\n      dup2\n        /* \"#utility.yul\":8051:8081   */\n      gt\n        /* \"#utility.yul\":8048:8165   */\n      iszero\n      tag_416\n      jumpi\n        /* \"#utility.yul\":8084:8163   */\n      tag_417\n      tag_241\n      jump\t// in\n    tag_417:\n        /* \"#utility.yul\":8048:8165   */\n    tag_416:\n        /* \"#utility.yul\":8189:8276   */\n      tag_418\n        /* \"#utility.yul\":8268:8275   */\n      dup11\n        /* \"#utility.yul\":8259:8265   */\n      dup3\n        /* \"#utility.yul\":8248:8257   */\n      dup12\n        /* \"#utility.yul\":8244:8266   */\n      add\n        /* \"#utility.yul\":8189:8276   */\n      tag_266\n      jump\t// in\n    tag_418:\n        /* \"#utility.yul\":8179:8276   */\n      swap8\n      pop\n        /* \"#utility.yul\":7975:8286   */\n      pop\n        /* \"#utility.yul\":8325:8327   */\n      0x20\n        /* \"#utility.yul\":8351:8404   */\n      tag_419\n        /* \"#utility.yul\":8396:8403   */\n      dup11\n        /* \"#utility.yul\":8387:8393   */\n      dup3\n        /* \"#utility.yul\":8376:8385   */\n      dup12\n        /* \"#utility.yul\":8372:8394   */\n      add\n        /* \"#utility.yul\":8351:8404   */\n      tag_254\n      jump\t// in\n    tag_419:\n        /* \"#utility.yul\":8341:8404   */\n      swap7\n      pop\n        /* \"#utility.yul\":8296:8414   */\n      pop\n        /* \"#utility.yul\":8453:8455   */\n      0x40\n        /* \"#utility.yul\":8479:8532   */\n      tag_420\n        /* \"#utility.yul\":8524:8531   */\n      dup11\n        /* \"#utility.yul\":8515:8521   */\n      dup3\n        /* \"#utility.yul\":8504:8513   */\n      dup12\n        /* \"#utility.yul\":8500:8522   */\n      add\n        /* \"#utility.yul\":8479:8532   */\n      tag_254\n      jump\t// in\n    tag_420:\n        /* \"#utility.yul\":8469:8532   */\n      swap6\n      pop\n        /* \"#utility.yul\":8424:8542   */\n      pop\n        /* \"#utility.yul\":8609:8611   */\n      0x60\n        /* \"#utility.yul\":8598:8607   */\n      dup9\n        /* \"#utility.yul\":8594:8612   */\n      add\n        /* \"#utility.yul\":8581:8613   */\n      calldataload\n        /* \"#utility.yul\":8640:8658   */\n      0xffffffffffffffff\n        /* \"#utility.yul\":8632:8638   */\n      dup2\n        /* \"#utility.yul\":8629:8659   */\n      gt\n        /* \"#utility.yul\":8626:8743   */\n      iszero\n      tag_421\n      jumpi\n        /* \"#utility.yul\":8662:8741   */\n      tag_422\n      tag_241\n      jump\t// in\n    tag_422:\n        /* \"#utility.yul\":8626:8743   */\n    tag_421:\n        /* \"#utility.yul\":8775:8839   */\n      tag_423\n        /* \"#utility.yul\":8831:8838   */\n      dup11\n        /* \"#utility.yul\":8822:8828   */\n      dup3\n        /* \"#utility.yul\":8811:8820   */\n      dup12\n        /* \"#utility.yul\":8807:8829   */\n      add\n        /* \"#utility.yul\":8775:8839   */\n      tag_267\n      jump\t// in\n    tag_423:\n        /* \"#utility.yul\":8757:8839   */\n      swap5\n      pop\n      swap5\n      pop\n        /* \"#utility.yul\":8552:8849   */\n      pop\n        /* \"#utility.yul\":8916:8919   */\n      0x80\n        /* \"#utility.yul\":8905:8914   */\n      dup9\n        /* \"#utility.yul\":8901:8920   */\n      add\n        /* \"#utility.yul\":8888:8921   */\n      calldataload\n        /* \"#utility.yul\":8948:8966   */\n      0xffffffffffffffff\n        /* \"#utility.yul\":8940:8946   */\n      dup2\n        /* \"#utility.yul\":8937:8967   */\n      gt\n        /* \"#utility.yul\":8934:9051   */\n      iszero\n      tag_424\n      jumpi\n        /* \"#utility.yul\":8970:9049   */\n      tag_425\n      tag_241\n      jump\t// in\n    tag_425:\n        /* \"#utility.yul\":8934:9051   */\n    tag_424:\n        /* \"#utility.yul\":9083:9147   */\n      tag_426\n        /* \"#utility.yul\":9139:9146   */\n      dup11\n        /* \"#utility.yul\":9130:9136   */\n      dup3\n        /* \"#utility.yul\":9119:9128   */\n      dup12\n        /* \"#utility.yul\":9115:9137   */\n      add\n        /* \"#utility.yul\":9083:9147   */\n      tag_267\n      jump\t// in\n    tag_426:\n        /* \"#utility.yul\":9065:9147   */\n      swap3\n      pop\n      swap3\n      pop\n        /* \"#utility.yul\":8859:9157   */\n      pop\n        /* \"#utility.yul\":7629:9164   */\n      swap3\n      swap6\n      swap9\n      swap2\n      swap5\n      swap8\n      pop\n      swap3\n      swap6\n      pop\n      jump\t// out\n        /* \"#utility.yul\":9170:9268   */\n    tag_268:\n        /* \"#utility.yul\":9221:9227   */\n      0x00\n        /* \"#utility.yul\":9255:9260   */\n      dup2\n        /* \"#utility.yul\":9249:9261   */\n      mload\n        /* \"#utility.yul\":9239:9261   */\n      swap1\n      pop\n        /* \"#utility.yul\":9170:9268   */\n      swap2\n      swap1\n      pop\n      jump\t// out\n        /* \"#utility.yul\":9274:9442   */\n    tag_269:\n        /* \"#utility.yul\":9357:9368   */\n      0x00\n        /* \"#utility.yul\":9391:9397   */\n      dup3\n        /* \"#utility.yul\":9386:9389   */\n      dup3\n        /* \"#utility.yul\":9379:9398   */\n      mstore\n        /* \"#utility.yul\":9431:9435   */\n      0x20\n        /* \"#utility.yul\":9426:9429   */\n      dup3\n        /* \"#utility.yul\":9422:9436   */\n      add\n        /* \"#utility.yul\":9407:9436   */\n      swap1\n      pop\n        /* \"#utility.yul\":9274:9442   */\n      swap3\n      swap2\n      pop\n      pop\n      jump\t// out\n        /* \"#utility.yul\":9448:9821   */\n    tag_270:\n        /* \"#utility.yul\":9534:9537   */\n      0x00\n        /* \"#utility.yul\":9562:9600   */\n      tag_430\n        /* \"#utility.yul\":9594:9599   */\n      dup3\n        /* \"#utility.yul\":9562:9600   */\n      tag_268\n      jump\t// in\n    tag_430:\n        /* \"#utility.yul\":9616:9686   */\n      tag_431\n        /* \"#utility.yul\":9679:9685   */\n      dup2\n        /* \"#utility.yul\":9674:9677   */\n      dup6\n        /* \"#utility.yul\":9616:9686   */\n      tag_269\n      jump\t// in\n    tag_431:\n        /* \"#utility.yul\":9609:9686   */\n      swap4\n      pop\n        /* \"#utility.yul\":9695:9760   */\n      tag_432\n        /* \"#utility.yul\":9753:9759   */\n      dup2\n        /* \"#utility.yul\":9748:9751   */\n      dup6\n        /* \"#utility.yul\":9741:9745   */\n      0x20\n        /* \"#utility.yul\":9734:9739   */\n      dup7\n        /* \"#utility.yul\":9730:9746   */\n      add\n        /* \"#utility.yul\":9695:9760   */\n      tag_249\n      jump\t// in\n    tag_432:\n        /* \"#utility.yul\":9785:9814   */\n      tag_433\n        /* \"#utility.yul\":9807:9813   */\n      dup2\n        /* \"#utility.yul\":9785:9814   */\n      tag_250\n      jump\t// in\n    tag_433:\n        /* \"#utility.yul\":9780:9783   */\n      dup5\n        /* \"#utility.yul\":9776:9815   */\n      add\n        /* \"#utility.yul\":9769:9815   */\n      swap2\n      pop\n        /* \"#utility.yul\":9538:9821   */\n      pop\n        /* \"#utility.yul\":9448:9821   */\n      swap3\n      swap2\n      pop\n      pop\n      jump\t// out\n        /* \"#utility.yul\":9827:10234   */\n    tag_69:\n        /* \"#utility.yul\":9960:9964   */\n      0x00\n        /* \"#utility.yul\":9998:10000   */\n      0x40\n        /* \"#utility.yul\":9987:9996   */\n      dup3\n        /* \"#utility.yul\":9983:10001   */\n      add\n        /* \"#utility.yul\":9975:10001   */\n      swap1\n      pop\n        /* \"#utility.yul\":10011:10076   */\n      tag_435\n        /* \"#utility.yul\":10073:10074   */\n      0x00\n        /* \"#utility.yul\":10062:10071   */\n      dup4\n        /* \"#utility.yul\":10058:10075   */\n      add\n        /* \"#utility.yul\":10049:10055   */\n      dup6\n        /* \"#utility.yul\":10011:10076   */\n      tag_246\n      jump\t// in\n    tag_435:\n        /* \"#utility.yul\":10123:10132   */\n      dup2\n        /* \"#utility.yul\":10117:10121   */\n      dup2\n        /* \"#utility.yul\":10113:10133   */\n      sub\n        /* \"#utility.yul\":10108:10110   */\n      0x20\n        /* \"#utility.yul\":10097:10106   */\n      dup4\n        /* \"#utility.yul\":10093:10111   */\n      add\n        /* \"#utility.yul\":10086:10134   */\n      mstore\n        /* \"#utility.yul\":10151:10227   */\n      tag_436\n        /* \"#utility.yul\":10222:10226   */\n      dup2\n        /* \"#utility.yul\":10213:10219   */\n      dup5\n        /* \"#utility.yul\":10151:10227   */\n      tag_270\n      jump\t// in\n    tag_436:\n        /* \"#utility.yul\":10143:10227   */\n      swap1\n      pop\n        /* \"#utility.yul\":9827:10234   */\n      swap4\n      swap3\n      pop\n      pop\n      pop\n      jump\t// out\n        /* \"#utility.yul\":10240:11285   */\n    tag_73:\n        /* \"#utility.yul\":10362:10368   */\n      0x00\n        /* \"#utility.yul\":10370:10376   */\n      dup1\n        /* \"#utility.yul\":10378:10384   */\n      0x00\n        /* \"#utility.yul\":10386:10392   */\n      dup1\n        /* \"#utility.yul\":10435:10437   */\n      0x60\n        /* \"#utility.yul\":10423:10432   */\n      dup6\n        /* \"#utility.yul\":10414:10421   */\n      dup8\n        /* \"#utility.yul\":10410:10433   */\n      sub\n        /* \"#utility.yul\":10406:10438   */\n      slt\n        /* \"#utility.yul\":10403:10522   */\n      iszero\n      tag_438\n      jumpi\n        /* \"#utility.yul\":10441:10520   */\n      tag_439\n      tag_240\n      jump\t// in\n    tag_439:\n        /* \"#utility.yul\":10403:10522   */\n    tag_438:\n        /* \"#utility.yul\":10589:10590   */\n      0x00\n        /* \"#utility.yul\":10578:10587   */\n      dup6\n        /* \"#utility.yul\":10574:10591   */\n      add\n        /* \"#utility.yul\":10561:10592   */\n      calldataload\n        /* \"#utility.yul\":10619:10637   */\n      0xffffffffffffffff\n        /* \"#utility.yul\":10611:10617   */\n      dup2\n        /* \"#utility.yul\":10608:10638   */\n      gt\n        /* \"#utility.yul\":10605:10722   */\n      iszero\n      tag_440\n      jumpi\n        /* \"#utility.yul\":10641:10720   */\n      tag_441\n      tag_241\n      jump\t// in\n    tag_441:\n        /* \"#utility.yul\":10605:10722   */\n    tag_440:\n        /* \"#utility.yul\":10746:10833   */\n      tag_442\n        /* \"#utility.yul\":10825:10832   */\n      dup8\n        /* \"#utility.yul\":10816:10822   */\n      dup3\n        /* \"#utility.yul\":10805:10814   */\n      dup9\n        /* \"#utility.yul\":10801:10823   */\n      add\n        /* \"#utility.yul\":10746:10833   */\n      tag_266\n      jump\t// in\n    tag_442:\n        /* \"#utility.yul\":10736:10833   */\n      swap5\n      pop\n        /* \"#utility.yul\":10532:10843   */\n      pop\n        /* \"#utility.yul\":10882:10884   */\n      0x20\n        /* \"#utility.yul\":10908:10961   */\n      tag_443\n        /* \"#utility.yul\":10953:10960   */\n      dup8\n        /* \"#utility.yul\":10944:10950   */\n      dup3\n        /* \"#utility.yul\":10933:10942   */\n      dup9\n        /* \"#utility.yul\":10929:10951   */\n      add\n        /* \"#utility.yul\":10908:10961   */\n      tag_254\n      jump\t// in\n    tag_443:\n        /* \"#utility.yul\":10898:10961   */\n      swap4\n      pop\n        /* \"#utility.yul\":10853:10971   */\n      pop\n        /* \"#utility.yul\":11038:11040   */\n      0x40\n        /* \"#utility.yul\":11027:11036   */\n      dup6\n        /* \"#utility.yul\":11023:11041   */\n      add\n        /* \"#utility.yul\":11010:11042   */\n      calldataload\n        /* \"#utility.yul\":11069:11087   */\n      0xffffffffffffffff\n        /* \"#utility.yul\":11061:11067   */\n      dup2\n        /* \"#utility.yul\":11058:11088   */\n      gt\n        /* \"#utility.yul\":11055:11172   */\n      iszero\n      tag_444\n      jumpi\n        /* \"#utility.yul\":11091:11170   */\n      tag_445\n      tag_241\n      jump\t// in\n    tag_445:\n        /* \"#utility.yul\":11055:11172   */\n    tag_444:\n        /* \"#utility.yul\":11204:11268   */\n      tag_446\n        /* \"#utility.yul\":11260:11267   */\n      dup8\n        /* \"#utility.yul\":11251:11257   */\n      dup3\n        /* \"#utility.yul\":11240:11249   */\n      dup9\n        /* \"#utility.yul\":11236:11258   */\n      add\n        /* \"#utility.yul\":11204:11268   */\n      tag_267\n      jump\t// in\n    tag_446:\n        /* \"#utility.yul\":11186:11268   */\n      swap3\n      pop\n      swap3\n      pop\n        /* \"#utility.yul\":10981:11278   */\n      pop\n        /* \"#utility.yul\":10240:11285   */\n      swap3\n      swap6\n      swap2\n      swap5\n      pop\n      swap3\n      pop\n      jump\t// out\n        /* \"#utility.yul\":11291:11600   */\n    tag_76:\n        /* \"#utility.yul\":11402:11406   */\n      0x00\n        /* \"#utility.yul\":11440:11442   */\n      0x20\n        /* \"#utility.yul\":11429:11438   */\n      dup3\n        /* \"#utility.yul\":11425:11443   */\n      add\n        /* \"#utility.yul\":11417:11443   */\n      swap1\n      pop\n        /* \"#utility.yul\":11489:11498   */\n      dup2\n        /* \"#utility.yul\":11483:11487   */\n      dup2\n        /* \"#utility.yul\":11479:11499   */\n      sub\n        /* \"#utility.yul\":11475:11476   */\n      0x00\n        /* \"#utility.yul\":11464:11473   */\n      dup4\n        /* \"#utility.yul\":11460:11477   */\n      add\n        /* \"#utility.yul\":11453:11500   */\n      mstore\n        /* \"#utility.yul\":11517:11593   */\n      tag_448\n        /* \"#utility.yul\":11588:11592   */\n      dup2\n        /* \"#utility.yul\":11579:11585   */\n      dup5\n        /* \"#utility.yul\":11517:11593   */\n      tag_270\n      jump\t// in\n    tag_448:\n        /* \"#utility.yul\":11509:11593   */\n      swap1\n      pop\n        /* \"#utility.yul\":11291:11600   */\n      swap3\n      swap2\n      pop\n      pop\n      jump\t// out\n        /* \"#utility.yul\":11606:11753   */\n    tag_271:\n        /* \"#utility.yul\":11707:11718   */\n      0x00\n        /* \"#utility.yul\":11744:11747   */\n      dup2\n        /* \"#utility.yul\":11729:11747   */\n      swap1\n      pop\n        /* \"#utility.yul\":11606:11753   */\n      swap3\n      swap2\n      pop\n      pop\n      jump\t// out\n        /* \"#utility.yul\":11759:11905   */\n    tag_272:\n        /* \"#utility.yul\":11856:11862   */\n      dup3\n        /* \"#utility.yul\":11851:11854   */\n      dup2\n        /* \"#utility.yul\":11846:11849   */\n      dup4\n        /* \"#utility.yul\":11833:11863   */\n      calldatacopy\n        /* \"#utility.yul\":11897:11898   */\n      0x00\n        /* \"#utility.yul\":11888:11894   */\n      dup4\n        /* \"#utility.yul\":11883:11886   */\n      dup4\n        /* \"#utility.yul\":11879:11895   */\n      add\n        /* \"#utility.yul\":11872:11899   */\n      mstore\n        /* \"#utility.yul\":11759:11905   */\n      pop\n      pop\n      pop\n      jump\t// out\n        /* \"#utility.yul\":11933:12260   */\n    tag_273:\n        /* \"#utility.yul\":12047:12050   */\n      0x00\n        /* \"#utility.yul\":12068:12156   */\n      tag_452\n        /* \"#utility.yul\":12149:12155   */\n      dup4\n        /* \"#utility.yul\":12144:12147   */\n      dup6\n        /* \"#utility.yul\":12068:12156   */\n      tag_271\n      jump\t// in\n    tag_452:\n        /* \"#utility.yul\":12061:12156   */\n      swap4\n      pop\n        /* \"#utility.yul\":12166:12222   */\n      tag_453\n        /* \"#utility.yul\":12215:12221   */\n      dup4\n        /* \"#utility.yul\":12210:12213   */\n      dup6\n        /* \"#utility.yul\":12203:12208   */\n      dup5\n        /* \"#utility.yul\":12166:12222   */\n      tag_272\n      jump\t// in\n    tag_453:\n        /* \"#utility.yul\":12247:12253   */\n      dup3\n        /* \"#utility.yul\":12242:12245   */\n      dup5\n        /* \"#utility.yul\":12238:12254   */\n      add\n        /* \"#utility.yul\":12231:12254   */\n      swap1\n      pop\n        /* \"#utility.yul\":11933:12260   */\n      swap4\n      swap3\n      pop\n      pop\n      pop\n      jump\t// out\n        /* \"#utility.yul\":12266:12557   */\n    tag_84:\n        /* \"#utility.yul\":12406:12409   */\n      0x00\n        /* \"#utility.yul\":12428:12531   */\n      tag_455\n        /* \"#utility.yul\":12527:12530   */\n      dup3\n        /* \"#utility.yul\":12518:12524   */\n      dup5\n        /* \"#utility.yul\":12510:12516   */\n      dup7\n        /* \"#utility.yul\":12428:12531   */\n      tag_273\n      jump\t// in\n    tag_455:\n        /* \"#utility.yul\":12421:12531   */\n      swap2\n      pop\n        /* \"#utility.yul\":12548:12551   */\n      dup2\n        /* \"#utility.yul\":12541:12551   */\n      swap1\n      pop\n        /* \"#utility.yul\":12266:12557   */\n      swap4\n      swap3\n      pop\n      pop\n      pop\n      jump\t// out\n        /* \"#utility.yul\":12563:12681   */\n    tag_274:\n        /* \"#utility.yul\":12650:12674   */\n      tag_457\n        /* \"#utility.yul\":12668:12673   */\n      dup2\n        /* \"#utility.yul\":12650:12674   */\n      tag_252\n      jump\t// in\n    tag_457:\n        /* \"#utility.yul\":12645:12648   */\n      dup3\n        /* \"#utility.yul\":12638:12675   */\n      mstore\n        /* \"#utility.yul\":12563:12681   */\n      pop\n      pop\n      jump\t// out\n        /* \"#utility.yul\":12687:12805   */\n    tag_275:\n        /* \"#utility.yul\":12774:12798   */\n      tag_459\n        /* \"#utility.yul\":12792:12797   */\n      dup2\n        /* \"#utility.yul\":12774:12798   */\n      tag_256\n      jump\t// in\n    tag_459:\n        /* \"#utility.yul\":12769:12772   */\n      dup3\n        /* \"#utility.yul\":12762:12799   */\n      mstore\n        /* \"#utility.yul\":12687:12805   */\n      pop\n      pop\n      jump\t// out\n        /* \"#utility.yul\":12811:13475   */\n    tag_87:\n        /* \"#utility.yul\":13016:13020   */\n      0x00\n        /* \"#utility.yul\":13054:13057   */\n      0xa0\n        /* \"#utility.yul\":13043:13052   */\n      dup3\n        /* \"#utility.yul\":13039:13058   */\n      add\n        /* \"#utility.yul\":13031:13058   */\n      swap1\n      pop\n        /* \"#utility.yul\":13068:13139   */\n      tag_461\n        /* \"#utility.yul\":13136:13137   */\n      0x00\n        /* \"#utility.yul\":13125:13134   */\n      dup4\n        /* \"#utility.yul\":13121:13138   */\n      add\n        /* \"#utility.yul\":13112:13118   */\n      dup9\n        /* \"#utility.yul\":13068:13139   */\n      tag_274\n      jump\t// in\n    tag_461:\n        /* \"#utility.yul\":13149:13221   */\n      tag_462\n        /* \"#utility.yul\":13217:13219   */\n      0x20\n        /* \"#utility.yul\":13206:13215   */\n      dup4\n        /* \"#utility.yul\":13202:13220   */\n      add\n        /* \"#utility.yul\":13193:13199   */\n      dup8\n        /* \"#utility.yul\":13149:13221   */\n      tag_274\n      jump\t// in\n    tag_462:\n        /* \"#utility.yul\":13231:13303   */\n      tag_463\n        /* \"#utility.yul\":13299:13301   */\n      0x40\n        /* \"#utility.yul\":13288:13297   */\n      dup4\n        /* \"#utility.yul\":13284:13302   */\n      add\n        /* \"#utility.yul\":13275:13281   */\n      dup7\n        /* \"#utility.yul\":13231:13303   */\n      tag_274\n      jump\t// in\n    tag_463:\n        /* \"#utility.yul\":13313:13385   */\n      tag_464\n        /* \"#utility.yul\":13381:13383   */\n      0x60\n        /* \"#utility.yul\":13370:13379   */\n      dup4\n        /* \"#utility.yul\":13366:13384   */\n      add\n        /* \"#utility.yul\":13357:13363   */\n      dup6\n        /* \"#utility.yul\":13313:13385   */\n      tag_260\n      jump\t// in\n    tag_464:\n        /* \"#utility.yul\":13395:13468   */\n      tag_465\n        /* \"#utility.yul\":13463:13466   */\n      0x80\n        /* \"#utility.yul\":13452:13461   */\n      dup4\n        /* \"#utility.yul\":13448:13467   */\n      add\n        /* \"#utility.yul\":13439:13445   */\n      dup5\n        /* \"#utility.yul\":13395:13468   */\n      tag_275\n      jump\t// in\n    tag_465:\n        /* \"#utility.yul\":12811:13475   */\n      swap7\n      swap6\n      pop\n      pop\n      pop\n      pop\n      pop\n      pop\n      jump\t// out\n        /* \"#utility.yul\":13481:13661   */\n    tag_100:\n        /* \"#utility.yul\":13529:13606   */\n      0x4e487b7100000000000000000000000000000000000000000000000000000000\n        /* \"#utility.yul\":13526:13527   */\n      0x00\n        /* \"#utility.yul\":13519:13607   */\n      mstore\n        /* \"#utility.yul\":13626:13630   */\n      0x32\n        /* \"#utility.yul\":13623:13624   */\n      0x04\n        /* \"#utility.yul\":13616:13631   */\n      mstore\n        /* \"#utility.yul\":13650:13654   */\n      0x24\n        /* \"#utility.yul\":13647:13648   */\n      0x00\n        /* \"#utility.yul\":13640:13655   */\n      revert\n        /* \"#utility.yul\":13667:13838   */\n    tag_276:\n        /* \"#utility.yul\":13807:13830   */\n      0x4657443a20696e76616c696420747970656e616d650000000000000000000000\n        /* \"#utility.yul\":13803:13804   */\n      0x00\n        /* \"#utility.yul\":13795:13801   */\n      dup3\n        /* \"#utility.yul\":13791:13805   */\n      add\n        /* \"#utility.yul\":13784:13831   */\n      mstore\n        /* \"#utility.yul\":13667:13838   */\n      pop\n      jump\t// out\n        /* \"#utility.yul\":13844:14210   */\n    tag_277:\n        /* \"#utility.yul\":13986:13989   */\n      0x00\n        /* \"#utility.yul\":14007:14074   */\n      tag_469\n        /* \"#utility.yul\":14071:14073   */\n      0x15\n        /* \"#utility.yul\":14066:14069   */\n      dup4\n        /* \"#utility.yul\":14007:14074   */\n      tag_248\n      jump\t// in\n    tag_469:\n        /* \"#utility.yul\":14000:14074   */\n      swap2\n      pop\n        /* \"#utility.yul\":14083:14176   */\n      tag_470\n        /* \"#utility.yul\":14172:14175   */\n      dup3\n        /* \"#utility.yul\":14083:14176   */\n      tag_276\n      jump\t// in\n    tag_470:\n        /* \"#utility.yul\":14201:14203   */\n      0x20\n        /* \"#utility.yul\":14196:14199   */\n      dup3\n        /* \"#utility.yul\":14192:14204   */\n      add\n        /* \"#utility.yul\":14185:14204   */\n      swap1\n      pop\n        /* \"#utility.yul\":13844:14210   */\n      swap2\n      swap1\n      pop\n      jump\t// out\n        /* \"#utility.yul\":14216:14635   */\n    tag_104:\n        /* \"#utility.yul\":14382:14386   */\n      0x00\n        /* \"#utility.yul\":14420:14422   */\n      0x20\n        /* \"#utility.yul\":14409:14418   */\n      dup3\n        /* \"#utility.yul\":14405:14423   */\n      add\n        /* \"#utility.yul\":14397:14423   */\n      swap1\n      pop\n        /* \"#utility.yul\":14469:14478   */\n      dup2\n        /* \"#utility.yul\":14463:14467   */\n      dup2\n        /* \"#utility.yul\":14459:14479   */\n      sub\n        /* \"#utility.yul\":14455:14456   */\n      0x00\n        /* \"#utility.yul\":14444:14453   */\n      dup4\n        /* \"#utility.yul\":14440:14457   */\n      add\n        /* \"#utility.yul\":14433:14480   */\n      mstore\n        /* \"#utility.yul\":14497:14628   */\n      tag_472\n        /* \"#utility.yul\":14623:14627   */\n      dup2\n        /* \"#utility.yul\":14497:14628   */\n      tag_277\n      jump\t// in\n    tag_472:\n        /* \"#utility.yul\":14489:14628   */\n      swap1\n      pop\n        /* \"#utility.yul\":14216:14635   */\n      swap2\n      swap1\n      pop\n      jump\t// out\n        /* \"#utility.yul\":14641:14821   */\n    tag_278:\n        /* \"#utility.yul\":14689:14766   */\n      0x4e487b7100000000000000000000000000000000000000000000000000000000\n        /* \"#utility.yul\":14686:14687   */\n      0x00\n        /* \"#utility.yul\":14679:14767   */\n      mstore\n        /* \"#utility.yul\":14786:14790   */\n      0x11\n        /* \"#utility.yul\":14783:14784   */\n      0x04\n        /* \"#utility.yul\":14776:14791   */\n      mstore\n        /* \"#utility.yul\":14810:14814   */\n      0x24\n        /* \"#utility.yul\":14807:14808   */\n      0x00\n        /* \"#utility.yul\":14800:14815   */\n      revert\n        /* \"#utility.yul\":14827:15060   */\n    tag_106:\n        /* \"#utility.yul\":14866:14869   */\n      0x00\n        /* \"#utility.yul\":14889:14913   */\n      tag_475\n        /* \"#utility.yul\":14907:14912   */\n      dup3\n        /* \"#utility.yul\":14889:14913   */\n      tag_259\n      jump\t// in\n    tag_475:\n        /* \"#utility.yul\":14880:14913   */\n      swap2\n      pop\n        /* \"#utility.yul\":14935:15001   */\n      0xffffffffffffffffffffffffffffffffffffffffffffffffffffffffffffffff\n        /* \"#utility.yul\":14928:14933   */\n      dup3\n        /* \"#utility.yul\":14925:15002   */\n      sub\n        /* \"#utility.yul\":14922:15025   */\n      tag_476\n      jumpi\n        /* \"#utility.yul\":15005:15023   */\n      tag_477\n      tag_278\n      jump\t// in\n    tag_477:\n        /* \"#utility.yul\":14922:15025   */\n    tag_476:\n        /* \"#utility.yul\":15052:15053   */\n      0x01\n        /* \"#utility.yul\":15045:15050   */\n      dup3\n        /* \"#utility.yul\":15041:15054   */\n      add\n        /* \"#utility.yul\":15034:15054   */\n      swap1\n      pop\n        /* \"#utility.yul\":14827:15060   */\n      swap2\n      swap1\n      pop\n      jump\t// out\n        /* \"#utility.yul\":15066:15214   */\n    tag_279:\n        /* \"#utility.yul\":15168:15179   */\n      0x00\n        /* \"#utility.yul\":15205:15208   */\n      dup2\n        /* \"#utility.yul\":15190:15208   */\n      swap1\n      pop\n        /* \"#utility.yul\":15066:15214   */\n      swap3\n      swap2\n      pop\n      pop\n      jump\t// out\n        /* \"#utility.yul\":15244:15574   */\n    tag_280:\n        /* \"#utility.yul\":15360:15363   */\n      0x00\n        /* \"#utility.yul\":15381:15470   */\n      tag_480\n        /* \"#utility.yul\":15463:15469   */\n      dup4\n        /* \"#utility.yul\":15458:15461   */\n      dup6\n        /* \"#utility.yul\":15381:15470   */\n      tag_279\n      jump\t// in\n    tag_480:\n        /* \"#utility.yul\":15374:15470   */\n      swap4\n      pop\n        /* \"#utility.yul\":15480:15536   */\n      tag_481\n        /* \"#utility.yul\":15529:15535   */\n      dup4\n        /* \"#utility.yul\":15524:15527   */\n      dup6\n        /* \"#utility.yul\":15517:15522   */\n      dup5\n        /* \"#utility.yul\":15480:15536   */\n      tag_272\n      jump\t// in\n    tag_481:\n        /* \"#utility.yul\":15561:15567   */\n      dup3\n        /* \"#utility.yul\":15556:15559   */\n      dup5\n        /* \"#utility.yul\":15552:15568   */\n      add\n        /* \"#utility.yul\":15545:15568   */\n      swap1\n      pop\n        /* \"#utility.yul\":15244:15574   */\n      swap4\n      swap3\n      pop\n      pop\n      pop\n      jump\t// out\n        /* \"#utility.yul\":15580:15735   */\n    tag_281:\n        /* \"#utility.yul\":15720:15723   */\n      0x2800000000000000000000000000000000000000000000000000000000000000\n        /* \"#utility.yul\":15716:15717   */\n      0x00\n        /* \"#utility.yul\":15708:15714   */\n      dup3\n        /* \"#utility.yul\":15704:15718   */\n      add\n        /* \"#utility.yul\":15697:15724   */\n      mstore\n        /* \"#utility.yul\":15580:15735   */\n      pop\n      jump\t// out\n        /* \"#utility.yul\":15745:16161   */\n    tag_282:\n        /* \"#utility.yul\":15905:15908   */\n      0x00\n        /* \"#utility.yul\":15930:16014   */\n      tag_484\n        /* \"#utility.yul\":16012:16013   */\n      0x01\n        /* \"#utility.yul\":16007:16010   */\n      dup4\n        /* \"#utility.yul\":15930:16014   */\n      tag_279\n      jump\t// in\n    tag_484:\n        /* \"#utility.yul\":15923:16014   */\n      swap2\n      pop\n        /* \"#utility.yul\":16027:16120   */\n      tag_485\n        /* \"#utility.yul\":16116:16119   */\n      dup3\n        /* \"#utility.yul\":16027:16120   */\n      tag_281\n      jump\t// in\n    tag_485:\n        /* \"#utility.yul\":16149:16150   */\n      0x01\n        /* \"#utility.yul\":16144:16147   */\n      dup3\n        /* \"#utility.yul\":16140:16151   */\n      add\n        /* \"#utility.yul\":16133:16151   */\n      swap1\n      pop\n        /* \"#utility.yul\":15745:16161   */\n      swap2\n      swap1\n      pop\n      jump\t// out\n        /* \"#utility.yul\":16171:16581   */\n    tag_283:\n        /* \"#utility.yul\":16277:16280   */\n      0x00\n        /* \"#utility.yul\":16309:16348   */\n      tag_487\n        /* \"#utility.yul\":16342:16347   */\n      dup3\n        /* \"#utility.yul\":16309:16348   */\n      tag_247\n      jump\t// in\n    tag_487:\n        /* \"#utility.yul\":16368:16457   */\n      tag_488\n        /* \"#utility.yul\":16450:16456   */\n      dup2\n        /* \"#utility.yul\":16445:16448   */\n      dup6\n        /* \"#utility.yul\":16368:16457   */\n      tag_279\n      jump\t// in\n    tag_488:\n        /* \"#utility.yul\":16361:16457   */\n      swap4\n      pop\n        /* \"#utility.yul\":16470:16535   */\n      tag_489\n        /* \"#utility.yul\":16528:16534   */\n      dup2\n        /* \"#utility.yul\":16523:16526   */\n      dup6\n        /* \"#utility.yul\":16516:16520   */\n      0x20\n        /* \"#utility.yul\":16509:16514   */\n      dup7\n        /* \"#utility.yul\":16505:16521   */\n      add\n        /* \"#utility.yul\":16470:16535   */\n      tag_249\n      jump\t// in\n    tag_489:\n        /* \"#utility.yul\":16564:16570   */\n      dup1\n        /* \"#utility.yul\":16559:16562   */\n      dup5\n        /* \"#utility.yul\":16555:16571   */\n      add\n        /* \"#utility.yul\":16548:16571   */\n      swap2\n      pop\n        /* \"#utility.yul\":16281:16581   */\n      pop\n        /* \"#utility.yul\":16171:16581   */\n      swap3\n      swap2\n      pop\n      pop\n      jump\t// out\n        /* \"#utility.yul\":16591:16750   */\n    tag_284:\n        /* \"#utility.yul\":16735:16738   */\n      0x2c00000000000000000000000000000000000000000000000000000000000000\n        /* \"#utility.yul\":16731:16732   */\n      0x00\n        /* \"#utility.yul\":16723:16729   */\n      dup3\n        /* \"#utility.yul\":16719:16733   */\n      add\n        /* \"#utility.yul\":16712:16739   */\n      mstore\n        /* \"#utility.yul\":16591:16750   */\n      pop\n      jump\t// out\n        /* \"#utility.yul\":16760:17176   */\n    tag_285:\n        /* \"#utility.yul\":16920:16923   */\n      0x00\n        /* \"#utility.yul\":16945:17029   */\n      tag_492\n        /* \"#utility.yul\":17027:17028   */\n      0x01\n        /* \"#utility.yul\":17022:17025   */\n      dup4\n        /* \"#utility.yul\":16945:17029   */\n      tag_279\n      jump\t// in\n    tag_492:\n        /* \"#utility.yul\":16938:17029   */\n      swap2\n      pop\n        /* \"#utility.yul\":17042:17135   */\n      tag_493\n        /* \"#utility.yul\":17131:17134   */\n      dup3\n        /* \"#utility.yul\":17042:17135   */\n      tag_284\n      jump\t// in\n    tag_493:\n        /* \"#utility.yul\":17164:17165   */\n      0x01\n        /* \"#utility.yul\":17159:17162   */\n      dup3\n        /* \"#utility.yul\":17155:17166   */\n      add\n        /* \"#utility.yul\":17148:17166   */\n      swap1\n      pop\n        /* \"#utility.yul\":16760:17176   */\n      swap2\n      swap1\n      pop\n      jump\t// out\n        /* \"#utility.yul\":17186:18381   */\n    tag_108:\n        /* \"#utility.yul\":17636:17639   */\n      0x00\n        /* \"#utility.yul\":17662:17767   */\n      tag_495\n        /* \"#utility.yul\":17763:17766   */\n      dup3\n        /* \"#utility.yul\":17754:17760   */\n      dup8\n        /* \"#utility.yul\":17746:17752   */\n      dup10\n        /* \"#utility.yul\":17662:17767   */\n      tag_280\n      jump\t// in\n    tag_495:\n        /* \"#utility.yul\":17655:17767   */\n      swap2\n      pop\n        /* \"#utility.yul\":17788:17936   */\n      tag_496\n        /* \"#utility.yul\":17932:17935   */\n      dup3\n        /* \"#utility.yul\":17788:17936   */\n      tag_282\n      jump\t// in\n    tag_496:\n        /* \"#utility.yul\":17781:17936   */\n      swap2\n      pop\n        /* \"#utility.yul\":17957:18052   */\n      tag_497\n        /* \"#utility.yul\":18048:18051   */\n      dup3\n        /* \"#utility.yul\":18039:18045   */\n      dup7\n        /* \"#utility.yul\":17957:18052   */\n      tag_283\n      jump\t// in\n    tag_497:\n        /* \"#utility.yul\":17950:18052   */\n      swap2\n      pop\n        /* \"#utility.yul\":18073:18221   */\n      tag_498\n        /* \"#utility.yul\":18217:18220   */\n      dup3\n        /* \"#utility.yul\":18073:18221   */\n      tag_285\n      jump\t// in\n    tag_498:\n        /* \"#utility.yul\":18066:18221   */\n      swap2\n      pop\n        /* \"#utility.yul\":18242:18347   */\n      tag_499\n        /* \"#utility.yul\":18343:18346   */\n      dup3\n        /* \"#utility.yul\":18334:18340   */\n      dup5\n        /* \"#utility.yul\":18326:18332   */\n      dup7\n        /* \"#utility.yul\":18242:18347   */\n      tag_280\n      jump\t// in\n    tag_499:\n        /* \"#utility.yul\":18235:18347   */\n      swap2\n      pop\n        /* \"#utility.yul\":18368:18371   */\n      dup2\n        /* \"#utility.yul\":18361:18371   */\n      swap1\n      pop\n        /* \"#utility.yul\":17186:18381   */\n      swap7\n      swap6\n      pop\n      pop\n      pop\n      pop\n      pop\n      pop\n      jump\t// out\n        /* \"#utility.yul\":18391:18569   */\n    tag_286:\n        /* \"#utility.yul\":18535:18557   */\n      0x4657443a20726571756573742065787069726564000000000000000000000000\n        /* \"#utility.yul\":18531:18532   */\n      0x00\n        /* \"#utility.yul\":18523:18529   */\n      dup3\n        /* \"#utility.yul\":18519:18533   */\n      add\n        /* \"#utility.yul\":18512:18558   */\n      mstore\n        /* \"#utility.yul\":18391:18569   */\n      pop\n      jump\t// out\n        /* \"#utility.yul\":18579:18961   */\n    tag_287:\n        /* \"#utility.yul\":18721:18724   */\n      0x00\n        /* \"#utility.yul\":18746:18813   */\n      tag_502\n        /* \"#utility.yul\":18810:18812   */\n      0x14\n        /* \"#utility.yul\":18805:18808   */\n      dup4\n        /* \"#utility.yul\":18746:18813   */\n      tag_248\n      jump\t// in\n    tag_502:\n        /* \"#utility.yul\":18739:18813   */\n      swap2\n      pop\n        /* \"#utility.yul\":18826:18919   */\n      tag_503\n        /* \"#utility.yul\":18915:18918   */\n      dup3\n        /* \"#utility.yul\":18826:18919   */\n      tag_286\n      jump\t// in\n    tag_503:\n        /* \"#utility.yul\":18948:18950   */\n      0x20\n        /* \"#utility.yul\":18943:18946   */\n      dup3\n        /* \"#utility.yul\":18939:18951   */\n      add\n        /* \"#utility.yul\":18932:18951   */\n      swap1\n      pop\n        /* \"#utility.yul\":18579:18961   */\n      swap2\n      swap1\n      pop\n      jump\t// out\n        /* \"#utility.yul\":18971:19406   */\n    tag_118:\n        /* \"#utility.yul\":19137:19141   */\n      0x00\n        /* \"#utility.yul\":19179:19181   */\n      0x20\n        /* \"#utility.yul\":19168:19177   */\n      dup3\n        /* \"#utility.yul\":19164:19182   */\n      add\n        /* \"#utility.yul\":19156:19182   */\n      swap1\n      pop\n        /* \"#utility.yul\":19232:19241   */\n      dup2\n        /* \"#utility.yul\":19226:19230   */\n      dup2\n        /* \"#utility.yul\":19222:19242   */\n      sub\n        /* \"#utility.yul\":19218:19219   */\n      0x00\n        /* \"#utility.yul\":19207:19216   */\n      dup4\n        /* \"#utility.yul\":19203:19220   */\n      add\n        /* \"#utility.yul\":19196:19243   */\n      mstore\n        /* \"#utility.yul\":19264:19395   */\n      tag_505\n        /* \"#utility.yul\":19390:19394   */\n      dup2\n        /* \"#utility.yul\":19264:19395   */\n      tag_287\n      jump\t// in\n    tag_505:\n        /* \"#utility.yul\":19256:19395   */\n      swap1\n      pop\n        /* \"#utility.yul\":18971:19406   */\n      swap2\n      swap1\n      pop\n      jump\t// out\n        /* \"#utility.yul\":19416:19541   */\n    tag_288:\n        /* \"#utility.yul\":19529:19530   */\n      0x00\n        /* \"#utility.yul\":19526:19527   */\n      dup1\n        /* \"#utility.yul\":19519:19531   */\n      revert\n        /* \"#utility.yul\":19551:19676   */\n    tag_289:\n        /* \"#utility.yul\":19664:19665   */\n      0x00\n        /* \"#utility.yul\":19661:19662   */\n      dup1\n        /* \"#utility.yul\":19654:19666   */\n      revert\n        /* \"#utility.yul\":19686:19811   */\n    tag_290:\n        /* \"#utility.yul\":19799:19800   */\n      0x00\n        /* \"#utility.yul\":19796:19797   */\n      dup1\n        /* \"#utility.yul\":19789:19801   */\n      revert\n        /* \"#utility.yul\":19821:20577   */\n    tag_121:\n        /* \"#utility.yul\":19898:19902   */\n      0x00\n        /* \"#utility.yul\":19904:19910   */\n      dup1\n        /* \"#utility.yul\":19964:19975   */\n      dup4\n        /* \"#utility.yul\":19951:19976   */\n      calldataload\n        /* \"#utility.yul\":20068:20069   */\n      0x01\n        /* \"#utility.yul\":20062:20066   */\n      0x20\n        /* \"#utility.yul\":20058:20070   */\n      sub\n        /* \"#utility.yul\":20047:20055   */\n      dup5\n        /* \"#utility.yul\":20031:20045   */\n      calldatasize\n        /* \"#utility.yul\":20027:20056   */\n      sub\n        /* \"#utility.yul\":20023:20071   */\n      sub\n        /* \"#utility.yul\":20003:20021   */\n      dup2\n        /* \"#utility.yul\":19999:20072   */\n      slt\n        /* \"#utility.yul\":19989:20157   */\n      tag_510\n      jumpi\n        /* \"#utility.yul\":20076:20155   */\n      tag_511\n      tag_288\n      jump\t// in\n    tag_511:\n        /* \"#utility.yul\":19989:20157   */\n    tag_510:\n        /* \"#utility.yul\":20192:20210   */\n      dup1\n        /* \"#utility.yul\":20182:20190   */\n      dup5\n        /* \"#utility.yul\":20178:20211   */\n      add\n        /* \"#utility.yul\":20170:20211   */\n      swap3\n      pop\n        /* \"#utility.yul\":20248:20252   */\n      dup3\n        /* \"#utility.yul\":20235:20253   */\n      calldataload\n        /* \"#utility.yul\":20225:20253   */\n      swap2\n      pop\n        /* \"#utility.yul\":20280:20298   */\n      0xffffffffffffffff\n        /* \"#utility.yul\":20272:20278   */\n      dup3\n        /* \"#utility.yul\":20269:20299   */\n      gt\n        /* \"#utility.yul\":20266:20383   */\n      iszero\n      tag_512\n      jumpi\n        /* \"#utility.yul\":20302:20381   */\n      tag_513\n      tag_289\n      jump\t// in\n    tag_513:\n        /* \"#utility.yul\":20266:20383   */\n    tag_512:\n        /* \"#utility.yul\":20414:20416   */\n      0x20\n        /* \"#utility.yul\":20408:20412   */\n      dup4\n        /* \"#utility.yul\":20404:20417   */\n      add\n        /* \"#utility.yul\":20396:20417   */\n      swap3\n      pop\n        /* \"#utility.yul\":20475:20479   */\n      0x01\n        /* \"#utility.yul\":20467:20473   */\n      dup3\n        /* \"#utility.yul\":20463:20480   */\n      mul\n        /* \"#utility.yul\":20447:20461   */\n      calldatasize\n        /* \"#utility.yul\":20443:20481   */\n      sub\n        /* \"#utility.yul\":20437:20441   */\n      dup4\n        /* \"#utility.yul\":20433:20482   */\n      sgt\n        /* \"#utility.yul\":20430:20566   */\n      iszero\n      tag_514\n      jumpi\n        /* \"#utility.yul\":20485:20564   */\n      tag_515\n      tag_290\n      jump\t// in\n    tag_515:\n        /* \"#utility.yul\":20430:20566   */\n    tag_514:\n        /* \"#utility.yul\":19911:20577   */\n      pop\n        /* \"#utility.yul\":19821:20577   */\n      swap3\n      pop\n      swap3\n      swap1\n      pop\n      jump\t// out\n        /* \"#utility.yul\":20587:20693   */\n    tag_291:\n        /* \"#utility.yul\":20620:20628   */\n      0x00\n        /* \"#utility.yul\":20676:20681   */\n      dup2\n        /* \"#utility.yul\":20672:20674   */\n      0x60\n        /* \"#utility.yul\":20668:20682   */\n      shl\n        /* \"#utility.yul\":20643:20682   */\n      swap1\n      pop\n        /* \"#utility.yul\":20587:20693   */\n      swap2\n      swap1\n      pop\n      jump\t// out\n        /* \"#utility.yul\":20703:20805   */\n    tag_292:\n        /* \"#utility.yul\":20742:20749   */\n      0x00\n        /* \"#utility.yul\":20775:20795   */\n      tag_518\n        /* \"#utility.yul\":20789:20794   */\n      dup3\n        /* \"#utility.yul\":20775:20795   */\n      tag_291\n      jump\t// in\n    tag_518:\n        /* \"#utility.yul\":20764:20795   */\n      swap1\n      pop\n        /* \"#utility.yul\":20703:20805   */\n      swap2\n      swap1\n      pop\n      jump\t// out\n        /* \"#utility.yul\":20815:20923   */\n    tag_293:\n        /* \"#utility.yul\":20854:20861   */\n      0x00\n        /* \"#utility.yul\":20887:20913   */\n      tag_520\n        /* \"#utility.yul\":20907:20912   */\n      dup3\n        /* \"#utility.yul\":20887:20913   */\n      tag_292\n      jump\t// in\n    tag_520:\n        /* \"#utility.yul\":20876:20913   */\n      swap1\n      pop\n        /* \"#utility.yul\":20815:20923   */\n      swap2\n      swap1\n      pop\n      jump\t// out\n        /* \"#utility.yul\":20933:21098   */\n    tag_294:\n        /* \"#utility.yul\":21042:21087   */\n      tag_522\n        /* \"#utility.yul\":21062:21086   */\n      tag_523\n        /* \"#utility.yul\":21080:21085   */\n      dup3\n        /* \"#utility.yul\":21062:21086   */\n      tag_256\n      jump\t// in\n    tag_523:\n        /* \"#utility.yul\":21042:21087   */\n      tag_293\n      jump\t// in\n    tag_522:\n        /* \"#utility.yul\":21037:21040   */\n      dup3\n        /* \"#utility.yul\":21030:21088   */\n      mstore\n        /* \"#utility.yul\":20933:21098   */\n      pop\n      pop\n      jump\t// out\n        /* \"#utility.yul\":21108:21560   */\n    tag_124:\n        /* \"#utility.yul\":21276:21279   */\n      0x00\n        /* \"#utility.yul\":21302:21405   */\n      tag_525\n        /* \"#utility.yul\":21401:21404   */\n      dup3\n        /* \"#utility.yul\":21392:21398   */\n      dup6\n        /* \"#utility.yul\":21384:21390   */\n      dup8\n        /* \"#utility.yul\":21302:21405   */\n      tag_273\n      jump\t// in\n    tag_525:\n        /* \"#utility.yul\":21295:21405   */\n      swap2\n      pop\n        /* \"#utility.yul\":21419:21494   */\n      tag_526\n        /* \"#utility.yul\":21490:21493   */\n      dup3\n        /* \"#utility.yul\":21481:21487   */\n      dup5\n        /* \"#utility.yul\":21419:21494   */\n      tag_294\n      jump\t// in\n    tag_526:\n        /* \"#utility.yul\":21523:21525   */\n      0x14\n        /* \"#utility.yul\":21518:21521   */\n      dup3\n        /* \"#utility.yul\":21514:21526   */\n      add\n        /* \"#utility.yul\":21507:21526   */\n      swap2\n      pop\n        /* \"#utility.yul\":21547:21550   */\n      dup2\n        /* \"#utility.yul\":21540:21550   */\n      swap1\n      pop\n        /* \"#utility.yul\":21108:21560   */\n      swap5\n      swap4\n      pop\n      pop\n      pop\n      pop\n      jump\t// out\n        /* \"#utility.yul\":21570:21781   */\n    tag_126:\n        /* \"#utility.yul\":21610:21613   */\n      0x00\n        /* \"#utility.yul\":21633:21653   */\n      tag_528\n        /* \"#utility.yul\":21651:21652   */\n      dup3\n        /* \"#utility.yul\":21633:21653   */\n      tag_259\n      jump\t// in\n    tag_528:\n        /* \"#utility.yul\":21628:21653   */\n      swap2\n      pop\n        /* \"#utility.yul\":21671:21691   */\n      tag_529\n        /* \"#utility.yul\":21689:21690   */\n      dup4\n        /* \"#utility.yul\":21671:21691   */\n      tag_259\n      jump\t// in\n    tag_529:\n        /* \"#utility.yul\":21666:21691   */\n      swap3\n      pop\n        /* \"#utility.yul\":21718:21719   */\n      dup3\n        /* \"#utility.yul\":21715:21716   */\n      dup3\n        /* \"#utility.yul\":21711:21720   */\n      add\n        /* \"#utility.yul\":21704:21720   */\n      swap1\n      pop\n        /* \"#utility.yul\":21743:21746   */\n      dup1\n        /* \"#utility.yul\":21740:21741   */\n      dup3\n        /* \"#utility.yul\":21737:21747   */\n      gt\n        /* \"#utility.yul\":21734:21770   */\n      iszero\n      tag_530\n      jumpi\n        /* \"#utility.yul\":21750:21768   */\n      tag_531\n      tag_278\n      jump\t// in\n    tag_531:\n        /* \"#utility.yul\":21734:21770   */\n    tag_530:\n        /* \"#utility.yul\":21570:21781   */\n      swap3\n      swap2\n      pop\n      pop\n      jump\t// out\n        /* \"#utility.yul\":21791:22249   */\n    tag_128:\n        /* \"#utility.yul\":21831:21838   */\n      0x00\n        /* \"#utility.yul\":21858:21878   */\n      tag_533\n        /* \"#utility.yul\":21876:21877   */\n      dup3\n        /* \"#utility.yul\":21858:21878   */\n      tag_259\n      jump\t// in\n    tag_533:\n        /* \"#utility.yul\":21853:21878   */\n      swap2\n      pop\n        /* \"#utility.yul\":21896:21916   */\n      tag_534\n        /* \"#utility.yul\":21914:21915   */\n      dup4\n        /* \"#utility.yul\":21896:21916   */\n      tag_259\n      jump\t// in\n    tag_534:\n        /* \"#utility.yul\":21891:21916   */\n      swap3\n      pop\n        /* \"#utility.yul\":21955:21956   */\n      dup3\n        /* \"#utility.yul\":21952:21953   */\n      dup3\n        /* \"#utility.yul\":21948:21957   */\n      mul\n        /* \"#utility.yul\":21981:22011   */\n      tag_535\n        /* \"#utility.yul\":21999:22010   */\n      dup2\n        /* \"#utility.yul\":21981:22011   */\n      tag_259\n      jump\t// in\n    tag_535:\n        /* \"#utility.yul\":21970:22011   */\n      swap2\n      pop\n        /* \"#utility.yul\":22180:22181   */\n      dup3\n        /* \"#utility.yul\":22171:22178   */\n      dup3\n        /* \"#utility.yul\":22167:22182   */\n      div\n        /* \"#utility.yul\":22164:22165   */\n      dup5\n        /* \"#utility.yul\":22161:22183   */\n      eq\n        /* \"#utility.yul\":22137:22138   */\n      dup4\n        /* \"#utility.yul\":22130:22139   */\n      iszero\n        /* \"#utility.yul\":22106:22201   */\n      or\n        /* \"#utility.yul\":22079:22238   */\n      tag_536\n      jumpi\n        /* \"#utility.yul\":22218:22236   */\n      tag_537\n      tag_278\n      jump\t// in\n    tag_537:\n        /* \"#utility.yul\":22079:22238   */\n    tag_536:\n        /* \"#utility.yul\":21839:22249   */\n      pop\n        /* \"#utility.yul\":21791:22249   */\n      swap3\n      swap2\n      pop\n      pop\n      jump\t// out\n        /* \"#utility.yul\":22259:22455   */\n    tag_295:\n        /* \"#utility.yul\":22311:22388   */\n      0x4e487b7100000000000000000000000000000000000000000000000000000000\n        /* \"#utility.yul\":22308:22309   */\n      0x00\n        /* \"#utility.yul\":22301:22389   */\n      mstore\n        /* \"#utility.yul\":22412:22416   */\n      0x12\n        /* \"#utility.yul\":22409:22410   */\n      0x04\n        /* \"#utility.yul\":22402:22417   */\n      mstore\n        /* \"#utility.yul\":22440:22444   */\n      0x24\n        /* \"#utility.yul\":22437:22438   */\n      0x00\n        /* \"#utility.yul\":22430:22445   */\n      revert\n        /* \"#utility.yul\":22465:22670   */\n    tag_130:\n        /* \"#utility.yul\":22505:22506   */\n      0x00\n        /* \"#utility.yul\":22526:22546   */\n      tag_540\n        /* \"#utility.yul\":22544:22545   */\n      dup3\n        /* \"#utility.yul\":22526:22546   */\n      tag_259\n      jump\t// in\n    tag_540:\n        /* \"#utility.yul\":22521:22546   */\n      swap2\n      pop\n        /* \"#utility.yul\":22564:22584   */\n      tag_541\n        /* \"#utility.yul\":22582:22583   */\n      dup4\n        /* \"#utility.yul\":22564:22584   */\n      tag_259\n      jump\t// in\n    tag_541:\n        /* \"#utility.yul\":22559:22584   */\n      swap3\n      pop\n        /* \"#utility.yul\":22607:22608   */\n      dup3\n        /* \"#utility.yul\":22597:22632   */\n      tag_542\n      jumpi\n        /* \"#utility.yul\":22612:22630   */\n      tag_543\n      tag_295\n      jump\t// in\n    tag_543:\n        /* \"#utility.yul\":22597:22632   */\n    tag_542:\n        /* \"#utility.yul\":22658:22659   */\n      dup3\n        /* \"#utility.yul\":22655:22656   */\n      dup3\n        /* \"#utility.yul\":22651:22660   */\n      div\n        /* \"#utility.yul\":22646:22660   */\n      swap1\n      pop\n        /* \"#utility.yul\":22465:22670   */\n      swap3\n      swap2\n      pop\n      pop\n      jump\t// out\n        /* \"#utility.yul\":22680:22859   */\n    tag_296:\n        /* \"#utility.yul\":22824:22847   */\n      0x4657443a20696e73756666696369656e74206761730000000000000000000000\n        /* \"#utility.yul\":22820:22821   */\n      0x00\n        /* \"#utility.yul\":22812:22818   */\n      dup3\n        /* \"#utility.yul\":22808:22822   */\n      add\n        /* \"#utility.yul\":22801:22848   */\n      mstore\n        /* \"#utility.yul\":22680:22859   */\n      pop\n      jump\t// out\n        /* \"#utility.yul\":22869:23251   */\n    tag_297:\n        /* \"#utility.yul\":23011:23014   */\n      0x00\n        /* \"#utility.yul\":23036:23103   */\n      tag_546\n        /* \"#utility.yul\":23100:23102   */\n      0x15\n        /* \"#utility.yul\":23095:23098   */\n      dup4\n        /* \"#utility.yul\":23036:23103   */\n      tag_248\n      jump\t// in\n    tag_546:\n        /* \"#utility.yul\":23029:23103   */\n      swap2\n      pop\n        /* \"#utility.yul\":23116:23209   */\n      tag_547\n        /* \"#utility.yul\":23205:23208   */\n      dup3\n        /* \"#utility.yul\":23116:23209   */\n      tag_296\n      jump\t// in\n    tag_547:\n        /* \"#utility.yul\":23238:23240   */\n      0x20\n        /* \"#utility.yul\":23233:23236   */\n      dup3\n        /* \"#utility.yul\":23229:23241   */\n      add\n        /* \"#utility.yul\":23222:23241   */\n      swap1\n      pop\n        /* \"#utility.yul\":22869:23251   */\n      swap2\n      swap1\n      pop\n      jump\t// out\n        /* \"#utility.yul\":23261:23696   */\n    tag_133:\n        /* \"#utility.yul\":23427:23431   */\n      0x00\n        /* \"#utility.yul\":23469:23471   */\n      0x20\n        /* \"#utility.yul\":23458:23467   */\n      dup3\n        /* \"#utility.yul\":23454:23472   */\n      add\n        /* \"#utility.yul\":23446:23472   */\n      swap1\n      pop\n        /* \"#utility.yul\":23522:23531   */\n      dup2\n        /* \"#utility.yul\":23516:23520   */\n      dup2\n        /* \"#utility.yul\":23512:23532   */\n      sub\n        /* \"#utility.yul\":23508:23509   */\n      0x00\n        /* \"#utility.yul\":23497:23506   */\n      dup4\n        /* \"#utility.yul\":23493:23510   */\n      add\n        /* \"#utility.yul\":23486:23533   */\n      mstore\n        /* \"#utility.yul\":23554:23685   */\n      tag_549\n        /* \"#utility.yul\":23680:23684   */\n      dup2\n        /* \"#utility.yul\":23554:23685   */\n      tag_297\n      jump\t// in\n    tag_549:\n        /* \"#utility.yul\":23546:23685   */\n      swap1\n      pop\n        /* \"#utility.yul\":23261:23696   */\n      swap2\n      swap1\n      pop\n      jump\t// out\n        /* \"#utility.yul\":23706:24112   */\n    tag_298:\n        /* \"#utility.yul\":23810:23813   */\n      0x00\n        /* \"#utility.yul\":23842:23880   */\n      tag_551\n        /* \"#utility.yul\":23874:23879   */\n      dup3\n        /* \"#utility.yul\":23842:23880   */\n      tag_268\n      jump\t// in\n    tag_551:\n        /* \"#utility.yul\":23900:23988   */\n      tag_552\n        /* \"#utility.yul\":23981:23987   */\n      dup2\n        /* \"#utility.yul\":23976:23979   */\n      dup6\n        /* \"#utility.yul\":23900:23988   */\n      tag_271\n      jump\t// in\n    tag_552:\n        /* \"#utility.yul\":23893:23988   */\n      swap4\n      pop\n        /* \"#utility.yul\":24001:24066   */\n      tag_553\n        /* \"#utility.yul\":24059:24065   */\n      dup2\n        /* \"#utility.yul\":24054:24057   */\n      dup6\n        /* \"#utility.yul\":24047:24051   */\n      0x20\n        /* \"#utility.yul\":24040:24045   */\n      dup7\n        /* \"#utility.yul\":24036:24052   */\n      add\n        /* \"#utility.yul\":24001:24066   */\n      tag_249\n      jump\t// in\n    tag_553:\n        /* \"#utility.yul\":24095:24101   */\n      dup1\n        /* \"#utility.yul\":24090:24093   */\n      dup5\n        /* \"#utility.yul\":24086:24102   */\n      add\n        /* \"#utility.yul\":24079:24102   */\n      swap2\n      pop\n        /* \"#utility.yul\":23814:24112   */\n      pop\n        /* \"#utility.yul\":23706:24112   */\n      swap3\n      swap2\n      pop\n      pop\n      jump\t// out\n        /* \"#utility.yul\":24122:24405   */\n    tag_136:\n        /* \"#utility.yul\":24252:24255   */\n      0x00\n        /* \"#utility.yul\":24278:24371   */\n      tag_555\n        /* \"#utility.yul\":24367:24370   */\n      dup3\n        /* \"#utility.yul\":24358:24364   */\n      dup5\n        /* \"#utility.yul\":24278:24371   */\n      tag_298\n      jump\t// in\n    tag_555:\n        /* \"#utility.yul\":24271:24371   */\n      swap2\n      pop\n        /* \"#utility.yul\":24392:24395   */\n      dup2\n        /* \"#utility.yul\":24385:24395   */\n      swap1\n      pop\n        /* \"#utility.yul\":24122:24405   */\n      swap3\n      swap2\n      pop\n      pop\n      jump\t// out\n        /* \"#utility.yul\":24415:24502   */\n    tag_299:\n        /* \"#utility.yul\":24454:24461   */\n      0x00\n        /* \"#utility.yul\":24487:24492   */\n      dup2\n        /* \"#utility.yul\":24476:24492   */\n      swap1\n      pop\n        /* \"#utility.yul\":24415:24502   */\n      swap2\n      swap1\n      pop\n      jump\t// out\n        /* \"#utility.yul\":24512:24677   */\n    tag_300:\n        /* \"#utility.yul\":24621:24666   */\n      tag_558\n        /* \"#utility.yul\":24641:24665   */\n      tag_559\n        /* \"#utility.yul\":24659:24664   */\n      dup3\n        /* \"#utility.yul\":24641:24665   */\n      tag_252\n      jump\t// in\n    tag_559:\n        /* \"#utility.yul\":24621:24666   */\n      tag_299\n      jump\t// in\n    tag_558:\n        /* \"#utility.yul\":24616:24619   */\n      dup3\n        /* \"#utility.yul\":24609:24667   */\n      mstore\n        /* \"#utility.yul\":24512:24677   */\n      pop\n      pop\n      jump\t// out\n        /* \"#utility.yul\":24687:24774   */\n    tag_301:\n        /* \"#utility.yul\":24726:24733   */\n      0x00\n        /* \"#utility.yul\":24759:24764   */\n      dup2\n        /* \"#utility.yul\":24748:24764   */\n      swap1\n      pop\n        /* \"#utility.yul\":24687:24774   */\n      swap2\n      swap1\n      pop\n      jump\t// out\n        /* \"#utility.yul\":24784:24949   */\n    tag_302:\n        /* \"#utility.yul\":24893:24938   */\n      tag_562\n        /* \"#utility.yul\":24913:24937   */\n      tag_563\n        /* \"#utility.yul\":24931:24936   */\n      dup3\n        /* \"#utility.yul\":24913:24937   */\n      tag_259\n      jump\t// in\n    tag_563:\n        /* \"#utility.yul\":24893:24938   */\n      tag_301\n      jump\t// in\n    tag_562:\n        /* \"#utility.yul\":24888:24891   */\n      dup3\n        /* \"#utility.yul\":24881:24939   */\n      mstore\n        /* \"#utility.yul\":24784:24949   */\n      pop\n      pop\n      jump\t// out\n        /* \"#utility.yul\":24959:26454   */\n    tag_150:\n        /* \"#utility.yul\":25323:25326   */\n      0x00\n        /* \"#utility.yul\":25342:25417   */\n      tag_565\n        /* \"#utility.yul\":25413:25416   */\n      dup3\n        /* \"#utility.yul\":25404:25410   */\n      dup14\n        /* \"#utility.yul\":25342:25417   */\n      tag_300\n      jump\t// in\n    tag_565:\n        /* \"#utility.yul\":25446:25448   */\n      0x20\n        /* \"#utility.yul\":25441:25444   */\n      dup3\n        /* \"#utility.yul\":25437:25449   */\n      add\n        /* \"#utility.yul\":25430:25449   */\n      swap2\n      pop\n        /* \"#utility.yul\":25463:25538   */\n      tag_566\n        /* \"#utility.yul\":25534:25537   */\n      dup3\n        /* \"#utility.yul\":25525:25531   */\n      dup13\n        /* \"#utility.yul\":25463:25538   */\n      tag_302\n      jump\t// in\n    tag_566:\n        /* \"#utility.yul\":25567:25569   */\n      0x20\n        /* \"#utility.yul\":25562:25565   */\n      dup3\n        /* \"#utility.yul\":25558:25570   */\n      add\n        /* \"#utility.yul\":25551:25570   */\n      swap2\n      pop\n        /* \"#utility.yul\":25584:25659   */\n      tag_567\n        /* \"#utility.yul\":25655:25658   */\n      dup3\n        /* \"#utility.yul\":25646:25652   */\n      dup12\n        /* \"#utility.yul\":25584:25659   */\n      tag_302\n      jump\t// in\n    tag_567:\n        /* \"#utility.yul\":25688:25690   */\n      0x20\n        /* \"#utility.yul\":25683:25686   */\n      dup3\n        /* \"#utility.yul\":25679:25691   */\n      add\n        /* \"#utility.yul\":25672:25691   */\n      swap2\n      pop\n        /* \"#utility.yul\":25705:25780   */\n      tag_568\n        /* \"#utility.yul\":25776:25779   */\n      dup3\n        /* \"#utility.yul\":25767:25773   */\n      dup11\n        /* \"#utility.yul\":25705:25780   */\n      tag_302\n      jump\t// in\n    tag_568:\n        /* \"#utility.yul\":25809:25811   */\n      0x20\n        /* \"#utility.yul\":25804:25807   */\n      dup3\n        /* \"#utility.yul\":25800:25812   */\n      add\n        /* \"#utility.yul\":25793:25812   */\n      swap2\n      pop\n        /* \"#utility.yul\":25826:25901   */\n      tag_569\n        /* \"#utility.yul\":25897:25900   */\n      dup3\n        /* \"#utility.yul\":25888:25894   */\n      dup10\n        /* \"#utility.yul\":25826:25901   */\n      tag_302\n      jump\t// in\n    tag_569:\n        /* \"#utility.yul\":25930:25932   */\n      0x20\n        /* \"#utility.yul\":25925:25928   */\n      dup3\n        /* \"#utility.yul\":25921:25933   */\n      add\n        /* \"#utility.yul\":25914:25933   */\n      swap2\n      pop\n        /* \"#utility.yul\":25947:26022   */\n      tag_570\n        /* \"#utility.yul\":26018:26021   */\n      dup3\n        /* \"#utility.yul\":26009:26015   */\n      dup9\n        /* \"#utility.yul\":25947:26022   */\n      tag_302\n      jump\t// in\n    tag_570:\n        /* \"#utility.yul\":26051:26053   */\n      0x20\n        /* \"#utility.yul\":26046:26049   */\n      dup3\n        /* \"#utility.yul\":26042:26054   */\n      add\n        /* \"#utility.yul\":26035:26054   */\n      swap2\n      pop\n        /* \"#utility.yul\":26068:26143   */\n      tag_571\n        /* \"#utility.yul\":26139:26142   */\n      dup3\n        /* \"#utility.yul\":26130:26136   */\n      dup8\n        /* \"#utility.yul\":26068:26143   */\n      tag_300\n      jump\t// in\n    tag_571:\n        /* \"#utility.yul\":26172:26174   */\n      0x20\n        /* \"#utility.yul\":26167:26170   */\n      dup3\n        /* \"#utility.yul\":26163:26175   */\n      add\n        /* \"#utility.yul\":26156:26175   */\n      swap2\n      pop\n        /* \"#utility.yul\":26189:26264   */\n      tag_572\n        /* \"#utility.yul\":26260:26263   */\n      dup3\n        /* \"#utility.yul\":26251:26257   */\n      dup7\n        /* \"#utility.yul\":26189:26264   */\n      tag_302\n      jump\t// in\n    tag_572:\n        /* \"#utility.yul\":26293:26295   */\n      0x20\n        /* \"#utility.yul\":26288:26291   */\n      dup3\n        /* \"#utility.yul\":26284:26296   */\n      add\n        /* \"#utility.yul\":26277:26296   */\n      swap2\n      pop\n        /* \"#utility.yul\":26317:26420   */\n      tag_573\n        /* \"#utility.yul\":26416:26419   */\n      dup3\n        /* \"#utility.yul\":26407:26413   */\n      dup5\n        /* \"#utility.yul\":26399:26405   */\n      dup7\n        /* \"#utility.yul\":26317:26420   */\n      tag_273\n      jump\t// in\n    tag_573:\n        /* \"#utility.yul\":26310:26420   */\n      swap2\n      pop\n        /* \"#utility.yul\":26441:26444   */\n      dup2\n        /* \"#utility.yul\":26434:26444   */\n      swap1\n      pop\n        /* \"#utility.yul\":24959:26454   */\n      swap12\n      swap11\n      pop\n      pop\n      pop\n      pop\n      pop\n      pop\n      pop\n      pop\n      pop\n      pop\n      pop\n      jump\t// out\n        /* \"#utility.yul\":26464:26641   */\n    tag_303:\n        /* \"#utility.yul\":26608:26629   */\n      0x4657443a206e6f6e6365206d69736d6174636800000000000000000000000000\n        /* \"#utility.yul\":26604:26605   */\n      0x00\n        /* \"#utility.yul\":26596:26602   */\n      dup3\n        /* \"#utility.yul\":26592:26606   */\n      add\n        /* \"#utility.yul\":26585:26630   */\n      mstore\n        /* \"#utility.yul\":26464:26641   */\n      pop\n      jump\t// out\n        /* \"#utility.yul\":26651:27033   */\n    tag_304:\n        /* \"#utility.yul\":26793:26796   */\n      0x00\n        /* \"#utility.yul\":26818:26885   */\n      tag_576\n        /* \"#utility.yul\":26882:26884   */\n      0x13\n        /* \"#utility.yul\":26877:26880   */\n      dup4\n        /* \"#utility.yul\":26818:26885   */\n      tag_248\n      jump\t// in\n    tag_576:\n        /* \"#utility.yul\":26811:26885   */\n      swap2\n      pop\n        /* \"#utility.yul\":26898:26991   */\n      tag_577\n        /* \"#utility.yul\":26987:26990   */\n      dup3\n        /* \"#utility.yul\":26898:26991   */\n      tag_303\n      jump\t// in\n    tag_577:\n        /* \"#utility.yul\":27020:27022   */\n      0x20\n        /* \"#utility.yul\":27015:27018   */\n      dup3\n        /* \"#utility.yul\":27011:27023   */\n      add\n        /* \"#utility.yul\":27004:27023   */\n      swap1\n      pop\n        /* \"#utility.yul\":26651:27033   */\n      swap2\n      swap1\n      pop\n      jump\t// out\n        /* \"#utility.yul\":27043:27478   */\n    tag_156:\n        /* \"#utility.yul\":27209:27213   */\n      0x00\n        /* \"#utility.yul\":27251:27253   */\n      0x20\n        /* \"#utility.yul\":27240:27249   */\n      dup3\n        /* \"#utility.yul\":27236:27254   */\n      add\n        /* \"#utility.yul\":27228:27254   */\n      swap1\n      pop\n        /* \"#utility.yul\":27304:27313   */\n      dup2\n        /* \"#utility.yul\":27298:27302   */\n      dup2\n        /* \"#utility.yul\":27294:27314   */\n      sub\n        /* \"#utility.yul\":27290:27291   */\n      0x00\n        /* \"#utility.yul\":27279:27288   */\n      dup4\n        /* \"#utility.yul\":27275:27292   */\n      add\n        /* \"#utility.yul\":27268:27315   */\n      mstore\n        /* \"#utility.yul\":27336:27467   */\n      tag_579\n        /* \"#utility.yul\":27462:27466   */\n      dup2\n        /* \"#utility.yul\":27336:27467   */\n      tag_304\n      jump\t// in\n    tag_579:\n        /* \"#utility.yul\":27328:27467   */\n      swap1\n      pop\n        /* \"#utility.yul\":27043:27478   */\n      swap2\n      swap1\n      pop\n      jump\t// out\n        /* \"#utility.yul\":27488:27675   */\n    tag_305:\n        /* \"#utility.yul\":27632:27663   */\n      0x4657443a20756e7265676973746572656420646f6d61696e207365702e000000\n        /* \"#utility.yul\":27628:27629   */\n      0x00\n        /* \"#utility.yul\":27620:27626   */\n      dup3\n        /* \"#utility.yul\":27616:27630   */\n      add\n        /* \"#utility.yul\":27609:27664   */\n      mstore\n        /* \"#utility.yul\":27488:27675   */\n      pop\n      jump\t// out\n        /* \"#utility.yul\":27685:28067   */\n    tag_306:\n        /* \"#utility.yul\":27827:27830   */\n      0x00\n        /* \"#utility.yul\":27852:27919   */\n      tag_582\n        /* \"#utility.yul\":27916:27918   */\n      0x1d\n        /* \"#utility.yul\":27911:27914   */\n      dup4\n        /* \"#utility.yul\":27852:27919   */\n      tag_248\n      jump\t// in\n    tag_582:\n        /* \"#utility.yul\":27845:27919   */\n      swap2\n      pop\n        /* \"#utility.yul\":27932:28025   */\n      tag_583\n        /* \"#utility.yul\":28021:28024   */\n      dup3\n        /* \"#utility.yul\":27932:28025   */\n      tag_305\n      jump\t// in\n    tag_583:\n        /* \"#utility.yul\":28054:28056   */\n      0x20\n        /* \"#utility.yul\":28049:28052   */\n      dup3\n        /* \"#utility.yul\":28045:28057   */\n      add\n        /* \"#utility.yul\":28038:28057   */\n      swap1\n      pop\n        /* \"#utility.yul\":27685:28067   */\n      swap2\n      swap1\n      pop\n      jump\t// out\n        /* \"#utility.yul\":28077:28512   */\n    tag_160:\n        /* \"#utility.yul\":28243:28247   */\n      0x00\n        /* \"#utility.yul\":28285:28287   */\n      0x20\n        /* \"#utility.yul\":28274:28283   */\n      dup3\n        /* \"#utility.yul\":28270:28288   */\n      add\n        /* \"#utility.yul\":28262:28288   */\n      swap1\n      pop\n        /* \"#utility.yul\":28338:28347   */\n      dup2\n        /* \"#utility.yul\":28332:28336   */\n      dup2\n        /* \"#utility.yul\":28328:28348   */\n      sub\n        /* \"#utility.yul\":28324:28325   */\n      0x00\n        /* \"#utility.yul\":28313:28322   */\n      dup4\n        /* \"#utility.yul\":28309:28326   */\n      add\n        /* \"#utility.yul\":28302:28349   */\n      mstore\n        /* \"#utility.yul\":28370:28501   */\n      tag_585\n        /* \"#utility.yul\":28496:28500   */\n      dup2\n        /* \"#utility.yul\":28370:28501   */\n      tag_306\n      jump\t// in\n    tag_585:\n        /* \"#utility.yul\":28362:28501   */\n      swap1\n      pop\n        /* \"#utility.yul\":28077:28512   */\n      swap2\n      swap1\n      pop\n      jump\t// out\n        /* \"#utility.yul\":28522:28706   */\n    tag_307:\n        /* \"#utility.yul\":28666:28694   */\n      0x4657443a20756e72656769737465726564207479706568617368000000000000\n        /* \"#utility.yul\":28662:28663   */\n      0x00\n        /* \"#utility.yul\":28654:28660   */\n      dup3\n        /* \"#utility.yul\":28650:28664   */\n      add\n        /* \"#utility.yul\":28643:28695   */\n      mstore\n        /* \"#utility.yul\":28522:28706   */\n      pop\n      jump\t// out\n        /* \"#utility.yul\":28716:29098   */\n    tag_308:\n        /* \"#utility.yul\":28858:28861   */\n      0x00\n        /* \"#utility.yul\":28883:28950   */\n      tag_588\n        /* \"#utility.yul\":28947:28949   */\n      0x1a\n        /* \"#utility.yul\":28942:28945   */\n      dup4\n        /* \"#utility.yul\":28883:28950   */\n      tag_248\n      jump\t// in\n    tag_588:\n        /* \"#utility.yul\":28876:28950   */\n      swap2\n      pop\n        /* \"#utility.yul\":28963:29056   */\n      tag_589\n        /* \"#utility.yul\":29052:29055   */\n      dup3\n        /* \"#utility.yul\":28963:29056   */\n      tag_307\n      jump\t// in\n    tag_589:\n        /* \"#utility.yul\":29085:29087   */\n      0x20\n        /* \"#utility.yul\":29080:29083   */\n      dup3\n        /* \"#utility.yul\":29076:29088   */\n      add\n        /* \"#utility.yul\":29069:29088   */\n      swap1\n      pop\n        /* \"#utility.yul\":28716:29098   */\n      swap2\n      swap1\n      pop\n      jump\t// out\n        /* \"#utility.yul\":29108:29543   */\n    tag_163:\n        /* \"#utility.yul\":29274:29278   */\n      0x00\n        /* \"#utility.yul\":29316:29318   */\n      0x20\n        /* \"#utility.yul\":29305:29314   */\n      dup3\n        /* \"#utility.yul\":29301:29319   */\n      add\n        /* \"#utility.yul\":29293:29319   */\n      swap1\n      pop\n        /* \"#utility.yul\":29369:29378   */\n      dup2\n        /* \"#utility.yul\":29363:29367   */\n      dup2\n        /* \"#utility.yul\":29359:29379   */\n      sub\n        /* \"#utility.yul\":29355:29356   */\n      0x00\n        /* \"#utility.yul\":29344:29353   */\n      dup4\n        /* \"#utility.yul\":29340:29357   */\n      add\n        /* \"#utility.yul\":29333:29380   */\n      mstore\n        /* \"#utility.yul\":29401:29532   */\n      tag_591\n        /* \"#utility.yul\":29527:29531   */\n      dup2\n        /* \"#utility.yul\":29401:29532   */\n      tag_308\n      jump\t// in\n    tag_591:\n        /* \"#utility.yul\":29393:29532   */\n      swap1\n      pop\n        /* \"#utility.yul\":29108:29543   */\n      swap2\n      swap1\n      pop\n      jump\t// out\n        /* \"#utility.yul\":29553:29775   */\n    tag_309:\n        /* \"#utility.yul\":29697:29763   */\n      0x1901000000000000000000000000000000000000000000000000000000000000\n        /* \"#utility.yul\":29693:29694   */\n      0x00\n        /* \"#utility.yul\":29685:29691   */\n      dup3\n        /* \"#utility.yul\":29681:29695   */\n      add\n        /* \"#utility.yul\":29674:29764   */\n      mstore\n        /* \"#utility.yul\":29553:29775   */\n      pop\n      jump\t// out\n        /* \"#utility.yul\":29785:30201   */\n    tag_310:\n        /* \"#utility.yul\":29945:29948   */\n      0x00\n        /* \"#utility.yul\":29970:30054   */\n      tag_594\n        /* \"#utility.yul\":30052:30053   */\n      0x02\n        /* \"#utility.yul\":30047:30050   */\n      dup4\n        /* \"#utility.yul\":29970:30054   */\n      tag_279\n      jump\t// in\n    tag_594:\n        /* \"#utility.yul\":29963:30054   */\n      swap2\n      pop\n        /* \"#utility.yul\":30067:30160   */\n      tag_595\n        /* \"#utility.yul\":30156:30159   */\n      dup3\n        /* \"#utility.yul\":30067:30160   */\n      tag_309\n      jump\t// in\n    tag_595:\n        /* \"#utility.yul\":30189:30190   */\n      0x02\n        /* \"#utility.yul\":30184:30187   */\n      dup3\n        /* \"#utility.yul\":30180:30191   */\n      add\n        /* \"#utility.yul\":30173:30191   */\n      swap1\n      pop\n        /* \"#utility.yul\":29785:30201   */\n      swap2\n      swap1\n      pop\n      jump\t// out\n        /* \"#utility.yul\":30211:30902   */\n    tag_166:\n        /* \"#utility.yul\":30452:30455   */\n      0x00\n        /* \"#utility.yul\":30478:30626   */\n      tag_597\n        /* \"#utility.yul\":30622:30625   */\n      dup3\n        /* \"#utility.yul\":30478:30626   */\n      tag_310\n      jump\t// in\n    tag_597:\n        /* \"#utility.yul\":30471:30626   */\n      swap2\n      pop\n        /* \"#utility.yul\":30640:30715   */\n      tag_598\n        /* \"#utility.yul\":30711:30714   */\n      dup3\n        /* \"#utility.yul\":30702:30708   */\n      dup6\n        /* \"#utility.yul\":30640:30715   */\n      tag_300\n      jump\t// in\n    tag_598:\n        /* \"#utility.yul\":30744:30746   */\n      0x20\n        /* \"#utility.yul\":30739:30742   */\n      dup3\n        /* \"#utility.yul\":30735:30747   */\n      add\n        /* \"#utility.yul\":30728:30747   */\n      swap2\n      pop\n        /* \"#utility.yul\":30761:30836   */\n      tag_599\n        /* \"#utility.yul\":30832:30835   */\n      dup3\n        /* \"#utility.yul\":30823:30829   */\n      dup5\n        /* \"#utility.yul\":30761:30836   */\n      tag_300\n      jump\t// in\n    tag_599:\n        /* \"#utility.yul\":30865:30867   */\n      0x20\n        /* \"#utility.yul\":30860:30863   */\n      dup3\n        /* \"#utility.yul\":30856:30868   */\n      add\n        /* \"#utility.yul\":30849:30868   */\n      swap2\n      pop\n        /* \"#utility.yul\":30889:30892   */\n      dup2\n        /* \"#utility.yul\":30882:30892   */\n      swap1\n      pop\n        /* \"#utility.yul\":30211:30902   */\n      swap4\n      swap3\n      pop\n      pop\n      pop\n      jump\t// out\n        /* \"#utility.yul\":30912:31093   */\n    tag_311:\n        /* \"#utility.yul\":31056:31081   */\n      0x4657443a207369676e6174757265206d69736d61746368000000000000000000\n        /* \"#utility.yul\":31052:31053   */\n      0x00\n        /* \"#utility.yul\":31044:31050   */\n      dup3\n        /* \"#utility.yul\":31040:31054   */\n      add\n        /* \"#utility.yul\":31033:31082   */\n      mstore\n        /* \"#utility.yul\":30912:31093   */\n      pop\n      jump\t// out\n        /* \"#utility.yul\":31103:31485   */\n    tag_312:\n        /* \"#utility.yul\":31245:31248   */\n      0x00\n        /* \"#utility.yul\":31270:31337   */\n      tag_602\n        /* \"#utility.yul\":31334:31336   */\n      0x17\n        /* \"#utility.yul\":31329:31332   */\n      dup4\n        /* \"#utility.yul\":31270:31337   */\n      tag_248\n      jump\t// in\n    tag_602:\n        /* \"#utility.yul\":31263:31337   */\n      swap2\n      pop\n        /* \"#utility.yul\":31350:31443   */\n      tag_603\n        /* \"#utility.yul\":31439:31442   */\n      dup3\n        /* \"#utility.yul\":31350:31443   */\n      tag_311\n      jump\t// in\n    tag_603:\n        /* \"#utility.yul\":31472:31474   */\n      0x20\n        /* \"#utility.yul\":31467:31470   */\n      dup3\n        /* \"#utility.yul\":31463:31475   */\n      add\n        /* \"#utility.yul\":31456:31475   */\n      swap1\n      pop\n        /* \"#utility.yul\":31103:31485   */\n      swap2\n      swap1\n      pop\n      jump\t// out\n        /* \"#utility.yul\":31495:31930   */\n    tag_173:\n        /* \"#utility.yul\":31661:31665   */\n      0x00\n        /* \"#utility.yul\":31703:31705   */\n      0x20\n        /* \"#utility.yul\":31692:31701   */\n      dup3\n        /* \"#utility.yul\":31688:31706   */\n      add\n        /* \"#utility.yul\":31680:31706   */\n      swap1\n      pop\n        /* \"#utility.yul\":31756:31765   */\n      dup2\n        /* \"#utility.yul\":31750:31754   */\n      dup2\n        /* \"#utility.yul\":31746:31766   */\n      sub\n        /* \"#utility.yul\":31742:31743   */\n      0x00\n        /* \"#utility.yul\":31731:31740   */\n      dup4\n        /* \"#utility.yul\":31727:31744   */\n      add\n        /* \"#utility.yul\":31720:31767   */\n      mstore\n        /* \"#utility.yul\":31788:31919   */\n      tag_605\n        /* \"#utility.yul\":31914:31918   */\n      dup2\n        /* \"#utility.yul\":31788:31919   */\n      tag_312\n      jump\t// in\n    tag_605:\n        /* \"#utility.yul\":31780:31919   */\n      swap1\n      pop\n        /* \"#utility.yul\":31495:31930   */\n      swap2\n      swap1\n      pop\n      jump\t// out\n        /* \"#utility.yul\":31940:32136   */\n    tag_194:\n        /* \"#utility.yul\":31992:32069   */\n      0x4e487b7100000000000000000000000000000000000000000000000000000000\n        /* \"#utility.yul\":31989:31990   */\n      0x00\n        /* \"#utility.yul\":31982:32070   */\n      mstore\n        /* \"#utility.yul\":32093:32097   */\n      0x21\n        /* \"#utility.yul\":32090:32091   */\n      0x04\n        /* \"#utility.yul\":32083:32098   */\n      mstore\n        /* \"#utility.yul\":32121:32125   */\n      0x24\n        /* \"#utility.yul\":32118:32119   */\n      0x00\n        /* \"#utility.yul\":32111:32126   */\n      revert\n        /* \"#utility.yul\":32146:32328   */\n    tag_313:\n        /* \"#utility.yul\":32290:32316   */\n      0x45434453413a20696e76616c6964207369676e61747572650000000000000000\n        /* \"#utility.yul\":32286:32287   */\n      0x00\n        /* \"#utility.yul\":32278:32284   */\n      dup3\n        /* \"#utility.yul\":32274:32288   */\n      add\n        /* \"#utility.yul\":32267:32317   */\n      mstore\n        /* \"#utility.yul\":32146:32328   */\n      pop\n      jump\t// out\n        /* \"#utility.yul\":32338:32720   */\n    tag_314:\n        /* \"#utility.yul\":32480:32483   */\n      0x00\n        /* \"#utility.yul\":32505:32572   */\n      tag_609\n        /* \"#utility.yul\":32569:32571   */\n      0x18\n        /* \"#utility.yul\":32564:32567   */\n      dup4\n        /* \"#utility.yul\":32505:32572   */\n      tag_248\n      jump\t// in\n    tag_609:\n        /* \"#utility.yul\":32498:32572   */\n      swap2\n      pop\n        /* \"#utility.yul\":32585:32678   */\n      tag_610\n        /* \"#utility.yul\":32674:32677   */\n      dup3\n        /* \"#utility.yul\":32585:32678   */\n      tag_313\n      jump\t// in\n    tag_610:\n        /* \"#utility.yul\":32707:32709   */\n      0x20\n        /* \"#utility.yul\":32702:32705   */\n      dup3\n        /* \"#utility.yul\":32698:32710   */\n      add\n        /* \"#utility.yul\":32691:32710   */\n      swap1\n      pop\n        /* \"#utility.yul\":32338:32720   */\n      swap2\n      swap1\n      pop\n      jump\t// out\n        /* \"#utility.yul\":32730:33165   */\n    tag_205:\n        /* \"#utility.yul\":32896:32900   */\n      0x00\n        /* \"#utility.yul\":32938:32940   */\n      0x20\n        /* \"#utility.yul\":32927:32936   */\n      dup3\n        /* \"#utility.yul\":32923:32941   */\n      add\n        /* \"#utility.yul\":32915:32941   */\n      swap1\n      pop\n        /* \"#utility.yul\":32991:33000   */\n      dup2\n        /* \"#utility.yul\":32985:32989   */\n      dup2\n        /* \"#utility.yul\":32981:33001   */\n      sub\n        /* \"#utility.yul\":32977:32978   */\n      0x00\n        /* \"#utility.yul\":32966:32975   */\n      dup4\n        /* \"#utility.yul\":32962:32979   */\n      add\n        /* \"#utility.yul\":32955:33002   */\n      mstore\n        /* \"#utility.yul\":33023:33154   */\n      tag_612\n        /* \"#utility.yul\":33149:33153   */\n      dup2\n        /* \"#utility.yul\":33023:33154   */\n      tag_314\n      jump\t// in\n    tag_612:\n        /* \"#utility.yul\":33015:33154   */\n      swap1\n      pop\n        /* \"#utility.yul\":32730:33165   */\n      swap2\n      swap1\n      pop\n      jump\t// out\n        /* \"#utility.yul\":33175:33364   */\n    tag_315:\n        /* \"#utility.yul\":33319:33352   */\n      0x45434453413a20696e76616c6964207369676e6174757265206c656e67746800\n        /* \"#utility.yul\":33315:33316   */\n      0x00\n        /* \"#utility.yul\":33307:33313   */\n      dup3\n        /* \"#utility.yul\":33303:33317   */\n      add\n        /* \"#utility.yul\":33296:33353   */\n      mstore\n        /* \"#utility.yul\":33175:33364   */\n      pop\n      jump\t// out\n        /* \"#utility.yul\":33374:33756   */\n    tag_316:\n        /* \"#utility.yul\":33516:33519   */\n      0x00\n        /* \"#utility.yul\":33541:33608   */\n      tag_615\n        /* \"#utility.yul\":33605:33607   */\n      0x1f\n        /* \"#utility.yul\":33600:33603   */\n      dup4\n        /* \"#utility.yul\":33541:33608   */\n      tag_248\n      jump\t// in\n    tag_615:\n        /* \"#utility.yul\":33534:33608   */\n      swap2\n      pop\n        /* \"#utility.yul\":33621:33714   */\n      tag_616\n        /* \"#utility.yul\":33710:33713   */\n      dup3\n        /* \"#utility.yul\":33621:33714   */\n      tag_315\n      jump\t// in\n    tag_616:\n        /* \"#utility.yul\":33743:33745   */\n      0x20\n        /* \"#utility.yul\":33738:33741   */\n      dup3\n        /* \"#utility.yul\":33734:33746   */\n      add\n        /* \"#utility.yul\":33727:33746   */\n      swap1\n      pop\n        /* \"#utility.yul\":33374:33756   */\n      swap2\n      swap1\n      pop\n      jump\t// out\n        /* \"#utility.yul\":33766:34201   */\n    tag_213:\n        /* \"#utility.yul\":33932:33936   */\n      0x00\n        /* \"#utility.yul\":33974:33976   */\n      0x20\n        /* \"#utility.yul\":33963:33972   */\n      dup3\n        /* \"#utility.yul\":33959:33977   */\n      add\n        /* \"#utility.yul\":33951:33977   */\n      swap1\n      pop\n        /* \"#utility.yul\":34027:34036   */\n      dup2\n        /* \"#utility.yul\":34021:34025   */\n      dup2\n        /* \"#utility.yul\":34017:34037   */\n      sub\n        /* \"#utility.yul\":34013:34014   */\n      0x00\n        /* \"#utility.yul\":34002:34011   */\n      dup4\n        /* \"#utility.yul\":33998:34015   */\n      add\n        /* \"#utility.yul\":33991:34038   */\n      mstore\n        /* \"#utility.yul\":34059:34190   */\n      tag_618\n        /* \"#utility.yul\":34185:34189   */\n      dup2\n        /* \"#utility.yul\":34059:34190   */\n      tag_316\n      jump\t// in\n    tag_618:\n        /* \"#utility.yul\":34051:34190   */\n      swap1\n      pop\n        /* \"#utility.yul\":33766:34201   */\n      swap2\n      swap1\n      pop\n      jump\t// out\n        /* \"#utility.yul\":34211:34444   */\n    tag_317:\n        /* \"#utility.yul\":34355:34389   */\n      0x45434453413a20696e76616c6964207369676e6174757265202773272076616c\n        /* \"#utility.yul\":34351:34352   */\n      0x00\n        /* \"#utility.yul\":34343:34349   */\n      dup3\n        /* \"#utility.yul\":34339:34353   */\n      add\n        /* \"#utility.yul\":34332:34390   */\n      mstore\n        /* \"#utility.yul\":34428:34432   */\n      0x7565000000000000000000000000000000000000000000000000000000000000\n        /* \"#utility.yul\":34423:34425   */\n      0x20\n        /* \"#utility.yul\":34415:34421   */\n      dup3\n        /* \"#utility.yul\":34411:34426   */\n      add\n        /* \"#utility.yul\":34404:34433   */\n      mstore\n        /* \"#utility.yul\":34211:34444   */\n      pop\n      jump\t// out\n        /* \"#utility.yul\":34454:34836   */\n    tag_318:\n        /* \"#utility.yul\":34596:34599   */\n      0x00\n        /* \"#utility.yul\":34621:34688   */\n      tag_621\n        /* \"#utility.yul\":34685:34687   */\n      0x22\n        /* \"#utility.yul\":34680:34683   */\n      dup4\n        /* \"#utility.yul\":34621:34688   */\n      tag_248\n      jump\t// in\n    tag_621:\n        /* \"#utility.yul\":34614:34688   */\n      swap2\n      pop\n        /* \"#utility.yul\":34701:34794   */\n      tag_622\n        /* \"#utility.yul\":34790:34793   */\n      dup3\n        /* \"#utility.yul\":34701:34794   */\n      tag_317\n      jump\t// in\n    tag_622:\n        /* \"#utility.yul\":34823:34825   */\n      0x40\n        /* \"#utility.yul\":34818:34821   */\n      dup3\n        /* \"#utility.yul\":34814:34826   */\n      add\n        /* \"#utility.yul\":34807:34826   */\n      swap1\n      pop\n        /* \"#utility.yul\":34454:34836   */\n      swap2\n      swap1\n      pop\n      jump\t// out\n        /* \"#utility.yul\":34846:35281   */\n    tag_221:\n        /* \"#utility.yul\":35012:35016   */\n      0x00\n        /* \"#utility.yul\":35054:35056   */\n      0x20\n        /* \"#utility.yul\":35043:35052   */\n      dup3\n        /* \"#utility.yul\":35039:35057   */\n      add\n        /* \"#utility.yul\":35031:35057   */\n      swap1\n      pop\n        /* \"#utility.yul\":35107:35116   */\n      dup2\n        /* \"#utility.yul\":35101:35105   */\n      dup2\n        /* \"#utility.yul\":35097:35117   */\n      sub\n        /* \"#utility.yul\":35093:35094   */\n      0x00\n        /* \"#utility.yul\":35082:35091   */\n      dup4\n        /* \"#utility.yul\":35078:35095   */\n      add\n        /* \"#utility.yul\":35071:35118   */\n      mstore\n        /* \"#utility.yul\":35139:35270   */\n      tag_624\n        /* \"#utility.yul\":35265:35269   */\n      dup2\n        /* \"#utility.yul\":35139:35270   */\n      tag_318\n      jump\t// in\n    tag_624:\n        /* \"#utility.yul\":35131:35270   */\n      swap1\n      pop\n        /* \"#utility.yul\":34846:35281   */\n      swap2\n      swap1\n      pop\n      jump\t// out\n        /* \"#utility.yul\":35291:35524   */\n    tag_319:\n        /* \"#utility.yul\":35435:35469   */\n      0x45434453413a20696e76616c6964207369676e6174757265202776272076616c\n        /* \"#utility.yul\":35431:35432   */\n      0x00\n        /* \"#utility.yul\":35423:35429   */\n      dup3\n        /* \"#utility.yul\":35419:35433   */\n      add\n        /* \"#utility.yul\":35412:35470   */\n      mstore\n        /* \"#utility.yul\":35508:35512   */\n      0x7565000000000000000000000000000000000000000000000000000000000000\n        /* \"#utility.yul\":35503:35505   */\n      0x20\n        /* \"#utility.yul\":35495:35501   */\n      dup3\n        /* \"#utility.yul\":35491:35506   */\n      add\n        /* \"#utility.yul\":35484:35513   */\n      mstore\n        /* \"#utility.yul\":35291:35524   */\n      pop\n      jump\t// out\n        /* \"#utility.yul\":35534:35916   */\n    tag_320:\n        /* \"#utility.yul\":35676:35679   */\n      0x00\n        /* \"#utility.yul\":35701:35768   */\n      tag_627\n        /* \"#utility.yul\":35765:35767   */\n      0x22\n        /* \"#utility.yul\":35760:35763   */\n      dup4\n        /* \"#utility.yul\":35701:35768   */\n      tag_248\n      jump\t// in\n    tag_627:\n        /* \"#utility.yul\":35694:35768   */\n      swap2\n      pop\n        /* \"#utility.yul\":35781:35874   */\n      tag_628\n        /* \"#utility.yul\":35870:35873   */\n      dup3\n        /* \"#utility.yul\":35781:35874   */\n      tag_319\n      jump\t// in\n    tag_628:\n        /* \"#utility.yul\":35903:35905   */\n      0x40\n        /* \"#utility.yul\":35898:35901   */\n      dup3\n        /* \"#utility.yul\":35894:35906   */\n      add\n        /* \"#utility.yul\":35887:35906   */\n      swap1\n      pop\n        /* \"#utility.yul\":35534:35916   */\n      swap2\n      swap1\n      pop\n      jump\t// out\n        /* \"#utility.yul\":35926:36361   */\n    tag_229:\n        /* \"#utility.yul\":36092:36096   */\n      0x00\n        /* \"#utility.yul\":36134:36136   */\n      0x20\n        /* \"#utility.yul\":36123:36132   */\n      dup3\n        /* \"#utility.yul\":36119:36137   */\n      add\n        /* \"#utility.yul\":36111:36137   */\n      swap1\n      pop\n        /* \"#utility.yul\":36187:36196   */\n      dup2\n        /* \"#utility.yul\":36181:36185   */\n      dup2\n        /* \"#utility.yul\":36177:36197   */\n      sub\n        /* \"#utility.yul\":36173:36174   */\n      0x00\n        /* \"#utility.yul\":36162:36171   */\n      dup4\n        /* \"#utility.yul\":36158:36175   */\n      add\n        /* \"#utility.yul\":36151:36198   */\n      mstore\n        /* \"#utility.yul\":36219:36350   */\n      tag_630\n        /* \"#utility.yul\":36345:36349   */\n      dup2\n        /* \"#utility.yul\":36219:36350   */\n      tag_320\n      jump\t// in\n    tag_630:\n        /* \"#utility.yul\":36211:36350   */\n      swap1\n      pop\n        /* \"#utility.yul\":35926:36361   */\n      swap2\n      swap1\n      pop\n      jump\t// out\n        /* \"#utility.yul\":36371:36465   */\n    tag_321:\n        /* \"#utility.yul\":36406:36413   */\n      0x00\n        /* \"#utility.yul\":36450:36454   */\n      0xff\n        /* \"#utility.yul\":36443:36448   */\n      dup3\n        /* \"#utility.yul\":36439:36455   */\n      and\n        /* \"#utility.yul\":36428:36455   */\n      swap1\n      pop\n        /* \"#utility.yul\":36371:36465   */\n      swap2\n      swap1\n      pop\n      jump\t// out\n        /* \"#utility.yul\":36475:36595   */\n    tag_322:\n        /* \"#utility.yul\":36562:36584   */\n      tag_633\n        /* \"#utility.yul\":36578:36583   */\n      dup2\n        /* \"#utility.yul\":36562:36584   */\n      tag_321\n      jump\t// in\n    tag_633:\n        /* \"#utility.yul\":36557:36560   */\n      dup3\n        /* \"#utility.yul\":36550:36585   */\n      mstore\n        /* \"#utility.yul\":36475:36595   */\n      pop\n      pop\n      jump\t// out\n        /* \"#utility.yul\":36605:37174   */\n    tag_235:\n        /* \"#utility.yul\":36778:36782   */\n      0x00\n        /* \"#utility.yul\":36820:36823   */\n      0x80\n        /* \"#utility.yul\":36809:36818   */\n      dup3\n        /* \"#utility.yul\":36805:36824   */\n      add\n        /* \"#utility.yul\":36797:36824   */\n      swap1\n      pop\n        /* \"#utility.yul\":36838:36909   */\n      tag_635\n        /* \"#utility.yul\":36906:36907   */\n      0x00\n        /* \"#utility.yul\":36895:36904   */\n      dup4\n        /* \"#utility.yul\":36891:36908   */\n      add\n        /* \"#utility.yul\":36882:36888   */\n      dup8\n        /* \"#utility.yul\":36838:36909   */\n      tag_274\n      jump\t// in\n    tag_635:\n        /* \"#utility.yul\":36923:36991   */\n      tag_636\n        /* \"#utility.yul\":36987:36989   */\n      0x20\n        /* \"#utility.yul\":36976:36985   */\n      dup4\n        /* \"#utility.yul\":36972:36990   */\n      add\n        /* \"#utility.yul\":36963:36969   */\n      dup7\n        /* \"#utility.yul\":36923:36991   */\n      tag_322\n      jump\t// in\n    tag_636:\n        /* \"#utility.yul\":37005:37077   */\n      tag_637\n        /* \"#utility.yul\":37073:37075   */\n      0x40\n        /* \"#utility.yul\":37062:37071   */\n      dup4\n        /* \"#utility.yul\":37058:37076   */\n      add\n        /* \"#utility.yul\":37049:37055   */\n      dup6\n        /* \"#utility.yul\":37005:37077   */\n      tag_274\n      jump\t// in\n    tag_637:\n        /* \"#utility.yul\":37091:37163   */\n      tag_638\n        /* \"#utility.yul\":37159:37161   */\n      0x60\n        /* \"#utility.yul\":37148:37157   */\n      dup4\n        /* \"#utility.yul\":37144:37162   */\n      add\n        /* \"#utility.yul\":37135:37141   */\n      dup5\n        /* \"#utility.yul\":37091:37163   */\n      tag_274\n      jump\t// in\n    tag_638:\n        /* \"#utility.yul\":36605:37174   */\n      swap6\n      swap5\n      pop\n      pop\n      pop\n      pop\n      pop\n      jump\t// out\n    stop\n    data_33f12fe95872be7be9c474c0e99a56a1b0cad386a14d26df2bb11622e5368f9b 616464726573732066726f6d2c6164647265737320746f2c75696e743235362076616c75652c75696e74323536206761732c75696e74323536206e6f6e63652c627974657320646174612c75696e743235362076616c6964556e74696c54696d65\n    data_8b73c3c69bb8fe3d512ecc4cf759cc79239f7b179b0ffacaa9a75d522b39400f 454950373132446f6d61696e28737472696e67206e616d652c737472696e672076657273696f6e2c75696e7432353620636861696e49642c6164647265737320766572696679696e67436f6e747261637429\n\n    auxdata: 0xa26469706673582212209ec8e8d9b15628ae1cb55aae679789128de574ac50c24dbc5a90ecdf7600058d64736f6c63430008110033\n}\n",
				"bytecode": {
					"linkReferences": {},
					"object": "60806040523480156200001157600080fd5b5060006040518060a00160405280606181526020016200266960619139604051602001620000409190620001f7565b604051602081830303815290604052905062000062816200006960201b60201c565b50620002b1565b600081805190602001209050600160008083815260200190815260200160002060006101000a81548160ff021916908315150217905550807f64d6bce64323458c44643c51fe45113efc882082f7b7fd5f09f0d69d2eedb20283604051620000d291906200028d565b60405180910390a25050565b600081905092915050565b7f466f727761726452657175657374280000000000000000000000000000000000600082015250565b600062000121600f83620000de565b91506200012e82620000e9565b600f82019050919050565b600081519050919050565b60005b838110156200016457808201518184015260208101905062000147565b60008484015250505050565b60006200017d8262000139565b620001898185620000de565b93506200019b81856020860162000144565b80840191505092915050565b7f2900000000000000000000000000000000000000000000000000000000000000600082015250565b6000620001df600183620000de565b9150620001ec82620001a7565b600182019050919050565b6000620002048262000112565b915062000212828462000170565b91506200021f82620001d0565b915081905092915050565b600082825260208201905092915050565b6000601f19601f8301169050919050565b6000620002598262000139565b6200026581856200022a565b93506200027781856020860162000144565b62000282816200023b565b840191505092915050565b60006020820190508181036000830152620002a981846200024c565b905092915050565b6123a880620002c16000396000f3fe6080604052600436106100a05760003560e01c8063ad9f99c711610064578063ad9f99c7146101b7578063c3f28abd146101e0578063c722f1771461020b578063d9210be514610248578063e024dc7f14610271578063e2b62f2d146102a2576100a7565b806301ffc9a7146100ac578063066a310c146100e957806321fe98df146101145780632d0335ab146101515780639c7b45921461018e576100a7565b366100a757005b600080fd5b3480156100b857600080fd5b506100d360048036038101906100ce919061117e565b6102df565b6040516100e091906111c6565b60405180910390f35b3480156100f557600080fd5b506100fe610359565b60405161010b9190611271565b60405180910390f35b34801561012057600080fd5b5061013b600480360381019061013691906112c9565b610375565b60405161014891906111c6565b60405180910390f35b34801561015d57600080fd5b5061017860048036038101906101739190611354565b610395565b604051610185919061139a565b60405180910390f35b34801561019a57600080fd5b506101b560048036038101906101b0919061141a565b6103de565b005b3480156101c357600080fd5b506101de60048036038101906101d99190611515565b6104d4565b005b3480156101ec57600080fd5b506101f56104f5565b6040516102029190611271565b60405180910390f35b34801561021757600080fd5b50610232600480360381019061022d91906112c9565b610511565b60405161023f91906111c6565b60405180910390f35b34801561025457600080fd5b5061026f600480360381019061026a919061141a565b610531565b005b61028b60048036038101906102869190611515565b61069c565b604051610299929190611642565b60405180910390f35b3480156102ae57600080fd5b506102c960048036038101906102c49190611672565b6108cf565b6040516102d69190611702565b60405180910390f35b60007f25e23e64000000000000000000000000000000000000000000000000000000007bffffffffffffffffffffffffffffffffffffffffffffffffffffffff1916827bffffffffffffffffffffffffffffffffffffffffffffffffffffffff19161480610352575061035182610992565b5b9050919050565b6040518060a00160405280606181526020016122c06061913981565b60006020528060005260406000206000915054906101000a900460ff1681565b6000600260008373ffffffffffffffffffffffffffffffffffffffff1673ffffffffffffffffffffffffffffffffffffffff168152602001908152602001600020549050919050565b6000469050600060405180608001604052806052815260200161232160529139805190602001208686604051610415929190611763565b6040518091039020858560405161042d929190611763565b6040518091039020843060405160200161044b95949392919061179a565b6040516020818303038152906040529050600081805190602001209050600180600083815260200190815260200160002060006101000a81548160ff021916908315150217905550807f4bc68689cbe89a4a6333a3ab0a70093874da3e5bfb71e93102027f3f073687d8836040516104c39190611702565b60405180910390a250505050505050565b6104dd876109fc565b6104ec87878787878787610a96565b50505050505050565b6040518060800160405280605281526020016123216052913981565b60016020528060005260406000206000915054906101000a900460ff1681565b60005b84849050811015610647576000858583818110610554576105536117ed565b5b9050013560f81c60f81b90507f2800000000000000000000000000000000000000000000000000000000000000817effffffffffffffffffffffffffffffffffffffffffffffffffffffffffffff1916141580156105f457507f2900000000000000000000000000000000000000000000000000000000000000817effffffffffffffffffffffffffffffffffffffffffffffffffffffffffffff191614155b610633576040517f08c379a000000000000000000000000000000000000000000000000000000000815260040161062a90611868565b60405180910390fd5b50808061063f906118b7565b915050610534565b50600084846040518060a00160405280606181526020016122c060619139858560405160200161067b9594939291906119f8565b604051602081830303815290604052905061069581610cab565b5050505050565b600060606106af89898989898989610a96565b6106b889610d1e565b60008960c0013514806106ce5750428960c00135115b61070d576040517f08c379a000000000000000000000000000000000000000000000000000000000815260040161070490611a8f565b60405180910390fd5b6000808a604001351461072057619c4090505b60008a8060a001906107329190611abe565b8c60000160208101906107459190611354565b60405160200161075793929190611b69565b6040516020818303038152906040529050818b606001356107789190611b93565b6040603f5a6107879190611bc7565b6107919190611c38565b10156107d2576040517f08c379a00000000000000000000000000000000000000000000000000000000081526004016107c990611cb5565b60405180910390fd5b8a60200160208101906107e59190611354565b73ffffffffffffffffffffffffffffffffffffffff168b606001358c60400135836040516108139190611d06565b600060405180830381858888f193505050503d8060008114610851576040519150601f19603f3d011682016040523d82523d6000602084013e610856565b606091505b50809450819550505060008b60400135141580156108745750600047115b156108c1573373ffffffffffffffffffffffffffffffffffffffff166108fc479081150290604051600060405180830381858888f193505050501580156108bf573d6000803e3d6000fd5b505b505097509795505050505050565b6060838560000160208101906108e59190611354565b73ffffffffffffffffffffffffffffffffffffffff1686602001602081019061090e9190611354565b73ffffffffffffffffffffffffffffffffffffffff168760400135886060013589608001358a8060a001906109439190611abe565b604051610951929190611763565b60405180910390208b60c001358a8a6040516020016109799a99989796959493929190611d5f565b6040516020818303038152906040529050949350505050565b60007f01ffc9a7000000000000000000000000000000000000000000000000000000007bffffffffffffffffffffffffffffffffffffffffffffffffffffffff1916827bffffffffffffffffffffffffffffffffffffffffffffffffffffffff1916149050919050565b806080013560026000836000016020810190610a189190611354565b73ffffffffffffffffffffffffffffffffffffffff1673ffffffffffffffffffffffffffffffffffffffff1681526020019081526020016000205414610a93576040517f08c379a0000000000000000000000000000000000000000000000000000000008152600401610a8a90611e4c565b60405180910390fd5b50565b6001600087815260200190815260200160002060009054906101000a900460ff16610af6576040517f08c379a0000000000000000000000000000000000000000000000000000000008152600401610aed90611eb8565b60405180910390fd5b60008086815260200190815260200160002060009054906101000a900460ff16610b55576040517f08c379a0000000000000000000000000000000000000000000000000000000008152600401610b4c90611f24565b60405180910390fd5b600086610b64898888886108cf565b80519060200120604051602001610b7c929190611f90565b604051602081830303815290604052805190602001209050600073ffffffffffffffffffffffffffffffffffffffff163273ffffffffffffffffffffffffffffffffffffffff161480610c625750876000016020810190610bdd9190611354565b73ffffffffffffffffffffffffffffffffffffffff16610c4a84848080601f016020809104026020016040519081016040528093929190818152602001838380828437600081840152601f19601f8201169050808301925050505050505083610dcc90919063ffffffff16565b73ffffffffffffffffffffffffffffffffffffffff16145b610ca1576040517f08c379a0000000000000000000000000000000000000000000000000000000008152600401610c9890612013565b60405180910390fd5b5050505050505050565b600081805190602001209050600160008083815260200190815260200160002060006101000a81548160ff021916908315150217905550807f64d6bce64323458c44643c51fe45113efc882082f7b7fd5f09f0d69d2eedb20283604051610d129190611271565b60405180910390a25050565b806080013560026000836000016020810190610d3a9190611354565b73ffffffffffffffffffffffffffffffffffffffff1673ffffffffffffffffffffffffffffffffffffffff1681526020019081526020016000206000815480929190610d85906118b7565b9190505514610dc9576040517f08c379a0000000000000000000000000000000000000000000000000000000008152600401610dc090611e4c565b60405180910390fd5b50565b6000806000610ddb8585610df3565b91509150610de881610e44565b819250505092915050565b6000806041835103610e345760008060006020860151925060408601519150606086015160001a9050610e2887828585611010565b94509450505050610e3d565b60006002915091505b9250929050565b60006004811115610e5857610e57612033565b5b816004811115610e6b57610e6a612033565b5b031561100d5760016004811115610e8557610e84612033565b5b816004811115610e9857610e97612033565b5b03610ed8576040517f08c379a0000000000000000000000000000000000000000000000000000000008152600401610ecf906120ae565b60405180910390fd5b60026004811115610eec57610eeb612033565b5b816004811115610eff57610efe612033565b5b03610f3f576040517f08c379a0000000000000000000000000000000000000000000000000000000008152600401610f369061211a565b60405180910390fd5b60036004811115610f5357610f52612033565b5b816004811115610f6657610f65612033565b5b03610fa6576040517f08c379a0000000000000000000000000000000000000000000000000000000008152600401610f9d906121ac565b60405180910390fd5b600480811115610fb957610fb8612033565b5b816004811115610fcc57610fcb612033565b5b0361100c576040517f08c379a00000000000000000000000000000000000000000000000000000000081526004016110039061223e565b60405180910390fd5b5b50565b6000807f7fffffffffffffffffffffffffffffff5d576e7357a4501ddfe92f46681b20a08360001c111561104b576000600391509150611113565b601b8560ff16141580156110635750601c8560ff1614155b15611075576000600491509150611113565b60006001878787876040516000815260200160405260405161109a949392919061227a565b6020604051602081039080840390855afa1580156110bc573d6000803e3d6000fd5b505050602060405103519050600073ffffffffffffffffffffffffffffffffffffffff168173ffffffffffffffffffffffffffffffffffffffff160361110a57600060019250925050611113565b80600092509250505b94509492505050565b600080fd5b600080fd5b60007fffffffff0000000000000000000000000000000000000000000000000000000082169050919050565b61115b81611126565b811461116657600080fd5b50565b60008135905061117881611152565b92915050565b6000602082840312156111945761119361111c565b5b60006111a284828501611169565b91505092915050565b60008115159050919050565b6111c0816111ab565b82525050565b60006020820190506111db60008301846111b7565b92915050565b600081519050919050565b600082825260208201905092915050565b60005b8381101561121b578082015181840152602081019050611200565b60008484015250505050565b6000601f19601f8301169050919050565b6000611243826111e1565b61124d81856111ec565b935061125d8185602086016111fd565b61126681611227565b840191505092915050565b6000602082019050818103600083015261128b8184611238565b905092915050565b6000819050919050565b6112a681611293565b81146112b157600080fd5b50565b6000813590506112c38161129d565b92915050565b6000602082840312156112df576112de61111c565b5b60006112ed848285016112b4565b91505092915050565b600073ffffffffffffffffffffffffffffffffffffffff82169050919050565b6000611321826112f6565b9050919050565b61133181611316565b811461133c57600080fd5b50565b60008135905061134e81611328565b92915050565b60006020828403121561136a5761136961111c565b5b60006113788482850161133f565b91505092915050565b6000819050919050565b61139481611381565b82525050565b60006020820190506113af600083018461138b565b92915050565b600080fd5b600080fd5b600080fd5b60008083601f8401126113da576113d96113b5565b5b8235905067ffffffffffffffff8111156113f7576113f66113ba565b5b602083019150836001820283011115611413576114126113bf565b5b9250929050565b600080600080604085870312156114345761143361111c565b5b600085013567ffffffffffffffff81111561145257611451611121565b5b61145e878288016113c4565b9450945050602085013567ffffffffffffffff81111561148157611480611121565b5b61148d878288016113c4565b925092505092959194509250565b600080fd5b600060e082840312156114b6576114b561149b565b5b81905092915050565b60008083601f8401126114d5576114d46113b5565b5b8235905067ffffffffffffffff8111156114f2576114f16113ba565b5b60208301915083600182028301111561150e5761150d6113bf565b5b9250929050565b600080600080600080600060a0888a0312156115345761153361111c565b5b600088013567ffffffffffffffff81111561155257611551611121565b5b61155e8a828b016114a0565b975050602061156f8a828b016112b4565b96505060406115808a828b016112b4565b955050606088013567ffffffffffffffff8111156115a1576115a0611121565b5b6115ad8a828b016114bf565b9450945050608088013567ffffffffffffffff8111156115d0576115cf611121565b5b6115dc8a828b016114bf565b925092505092959891949750929550565b600081519050919050565b600082825260208201905092915050565b6000611614826115ed565b61161e81856115f8565b935061162e8185602086016111fd565b61163781611227565b840191505092915050565b600060408201905061165760008301856111b7565b81810360208301526116698184611609565b90509392505050565b6000806000806060858703121561168c5761168b61111c565b5b600085013567ffffffffffffffff8111156116aa576116a9611121565b5b6116b6878288016114a0565b94505060206116c7878288016112b4565b935050604085013567ffffffffffffffff8111156116e8576116e7611121565b5b6116f4878288016114bf565b925092505092959194509250565b6000602082019050818103600083015261171c8184611609565b905092915050565b600081905092915050565b82818337600083830152505050565b600061174a8385611724565b935061175783858461172f565b82840190509392505050565b600061177082848661173e565b91508190509392505050565b61178581611293565b82525050565b61179481611316565b82525050565b600060a0820190506117af600083018861177c565b6117bc602083018761177c565b6117c9604083018661177c565b6117d6606083018561138b565b6117e3608083018461178b565b9695505050505050565b7f4e487b7100000000000000000000000000000000000000000000000000000000600052603260045260246000fd5b7f4657443a20696e76616c696420747970656e616d650000000000000000000000600082015250565b60006118526015836111ec565b915061185d8261181c565b602082019050919050565b6000602082019050818103600083015261188181611845565b9050919050565b7f4e487b7100000000000000000000000000000000000000000000000000000000600052601160045260246000fd5b60006118c282611381565b91507fffffffffffffffffffffffffffffffffffffffffffffffffffffffffffffffff82036118f4576118f3611888565b5b600182019050919050565b600081905092915050565b600061191683856118ff565b935061192383858461172f565b82840190509392505050565b7f2800000000000000000000000000000000000000000000000000000000000000600082015250565b60006119656001836118ff565b91506119708261192f565b600182019050919050565b6000611986826111e1565b61199081856118ff565b93506119a08185602086016111fd565b80840191505092915050565b7f2c00000000000000000000000000000000000000000000000000000000000000600082015250565b60006119e26001836118ff565b91506119ed826119ac565b600182019050919050565b6000611a0582878961190a565b9150611a1082611958565b9150611a1c828661197b565b9150611a27826119d5565b9150611a3482848661190a565b91508190509695505050505050565b7f4657443a20726571756573742065787069726564000000000000000000000000600082015250565b6000611a796014836111ec565b9150611a8482611a43565b602082019050919050565b60006020820190508181036000830152611aa881611a6c565b9050919050565b600080fd5b600080fd5b600080fd5b60008083356001602003843603038112611adb57611ada611aaf565b5b80840192508235915067ffffffffffffffff821115611afd57611afc611ab4565b5b602083019250600182023603831315611b1957611b18611ab9565b5b509250929050565b60008160601b9050919050565b6000611b3982611b21565b9050919050565b6000611b4b82611b2e565b9050919050565b611b63611b5e82611316565b611b40565b82525050565b6000611b7682858761173e565b9150611b828284611b52565b601482019150819050949350505050565b6000611b9e82611381565b9150611ba983611381565b9250828201905080821115611bc157611bc0611888565b5b92915050565b6000611bd282611381565b9150611bdd83611381565b9250828202611beb81611381565b91508282048414831517611c0257611c01611888565b5b5092915050565b7f4e487b7100000000000000000000000000000000000000000000000000000000600052601260045260246000fd5b6000611c4382611381565b9150611c4e83611381565b925082611c5e57611c5d611c09565b5b828204905092915050565b7f4657443a20696e73756666696369656e74206761730000000000000000000000600082015250565b6000611c9f6015836111ec565b9150611caa82611c69565b602082019050919050565b60006020820190508181036000830152611cce81611c92565b9050919050565b6000611ce0826115ed565b611cea8185611724565b9350611cfa8185602086016111fd565b80840191505092915050565b6000611d128284611cd5565b915081905092915050565b6000819050919050565b611d38611d3382611293565b611d1d565b82525050565b6000819050919050565b611d59611d5482611381565b611d3e565b82525050565b6000611d6b828d611d27565b602082019150611d7b828c611d48565b602082019150611d8b828b611d48565b602082019150611d9b828a611d48565b602082019150611dab8289611d48565b602082019150611dbb8288611d48565b602082019150611dcb8287611d27565b602082019150611ddb8286611d48565b602082019150611dec82848661173e565b91508190509b9a5050505050505050505050565b7f4657443a206e6f6e6365206d69736d6174636800000000000000000000000000600082015250565b6000611e366013836111ec565b9150611e4182611e00565b602082019050919050565b60006020820190508181036000830152611e6581611e29565b9050919050565b7f4657443a20756e7265676973746572656420646f6d61696e207365702e000000600082015250565b6000611ea2601d836111ec565b9150611ead82611e6c565b602082019050919050565b60006020820190508181036000830152611ed181611e95565b9050919050565b7f4657443a20756e72656769737465726564207479706568617368000000000000600082015250565b6000611f0e601a836111ec565b9150611f1982611ed8565b602082019050919050565b60006020820190508181036000830152611f3d81611f01565b9050919050565b7f1901000000000000000000000000000000000000000000000000000000000000600082015250565b6000611f7a6002836118ff565b9150611f8582611f44565b600282019050919050565b6000611f9b82611f6d565b9150611fa78285611d27565b602082019150611fb78284611d27565b6020820191508190509392505050565b7f4657443a207369676e6174757265206d69736d61746368000000000000000000600082015250565b6000611ffd6017836111ec565b915061200882611fc7565b602082019050919050565b6000602082019050818103600083015261202c81611ff0565b9050919050565b7f4e487b7100000000000000000000000000000000000000000000000000000000600052602160045260246000fd5b7f45434453413a20696e76616c6964207369676e61747572650000000000000000600082015250565b60006120986018836111ec565b91506120a382612062565b602082019050919050565b600060208201905081810360008301526120c78161208b565b9050919050565b7f45434453413a20696e76616c6964207369676e6174757265206c656e67746800600082015250565b6000612104601f836111ec565b915061210f826120ce565b602082019050919050565b60006020820190508181036000830152612133816120f7565b9050919050565b7f45434453413a20696e76616c6964207369676e6174757265202773272076616c60008201527f7565000000000000000000000000000000000000000000000000000000000000602082015250565b60006121966022836111ec565b91506121a18261213a565b604082019050919050565b600060208201905081810360008301526121c581612189565b9050919050565b7f45434453413a20696e76616c6964207369676e6174757265202776272076616c60008201527f7565000000000000000000000000000000000000000000000000000000000000602082015250565b60006122286022836111ec565b9150612233826121cc565b604082019050919050565b600060208201905081810360008301526122578161221b565b9050919050565b600060ff82169050919050565b6122748161225e565b82525050565b600060808201905061228f600083018761177c565b61229c602083018661226b565b6122a9604083018561177c565b6122b6606083018461177c565b9594505050505056fe616464726573732066726f6d2c6164647265737320746f2c75696e743235362076616c75652c75696e74323536206761732c75696e74323536206e6f6e63652c627974657320646174612c75696e743235362076616c6964556e74696c54696d65454950373132446f6d61696e28737472696e67206e616d652c737472696e672076657273696f6e2c75696e7432353620636861696e49642c6164647265737320766572696679696e67436f6e747261637429a26469706673582212209ec8e8d9b15628ae1cb55aae679789128de574ac50c24dbc5a90ecdf7600058d64736f6c63430008110033616464726573732066726f6d2c6164647265737320746f2c75696e743235362076616c75652c75696e74323536206761732c75696e74323536206e6f6e63652c627974657320646174612c75696e743235362076616c6964556e74696c54696d65",
					"opcodes": "PUSH1 0x80 PUSH1 0x40 MSTORE CALLVALUE DUP1 ISZERO PUSH3 0x11 JUMPI PUSH1 0x0 DUP1 REVERT JUMPDEST POP PUSH1 0x0 PUSH1 0x40 MLOAD DUP1 PUSH1 0xA0 ADD PUSH1 0x40 MSTORE DUP1 PUSH1 0x61 DUP2 MSTORE PUSH1 0x20 ADD PUSH3 0x2669 PUSH1 0x61 SWAP2 CODECOPY PUSH1 0x40 MLOAD PUSH1 0x20 ADD PUSH3 0x40 SWAP2 SWAP1 PUSH3 0x1F7 JUMP JUMPDEST PUSH1 0x40 MLOAD PUSH1 0x20 DUP2 DUP4 SUB SUB DUP2 MSTORE SWAP1 PUSH1 0x40 MSTORE SWAP1 POP PUSH3 0x62 DUP2 PUSH3 0x69 PUSH1 0x20 SHL PUSH1 0x20 SHR JUMP JUMPDEST POP PUSH3 0x2B1 JUMP JUMPDEST PUSH1 0x0 DUP2 DUP1 MLOAD SWAP1 PUSH1 0x20 ADD KECCAK256 SWAP1 POP PUSH1 0x1 PUSH1 0x0 DUP1 DUP4 DUP2 MSTORE PUSH1 0x20 ADD SWAP1 DUP2 MSTORE PUSH1 0x20 ADD PUSH1 0x0 KECCAK256 PUSH1 0x0 PUSH2 0x100 EXP DUP2 SLOAD DUP2 PUSH1 0xFF MUL NOT AND SWAP1 DUP4 ISZERO ISZERO MUL OR SWAP1 SSTORE POP DUP1 PUSH32 0x64D6BCE64323458C44643C51FE45113EFC882082F7B7FD5F09F0D69D2EEDB202 DUP4 PUSH1 0x40 MLOAD PUSH3 0xD2 SWAP2 SWAP1 PUSH3 0x28D JUMP JUMPDEST PUSH1 0x40 MLOAD DUP1 SWAP2 SUB SWAP1 LOG2 POP POP JUMP JUMPDEST PUSH1 0x0 DUP2 SWAP1 POP SWAP3 SWAP2 POP POP JUMP JUMPDEST PUSH32 0x466F727761726452657175657374280000000000000000000000000000000000 PUSH1 0x0 DUP3 ADD MSTORE POP JUMP JUMPDEST PUSH1 0x0 PUSH3 0x121 PUSH1 0xF DUP4 PUSH3 0xDE JUMP JUMPDEST SWAP2 POP PUSH3 0x12E DUP3 PUSH3 0xE9 JUMP JUMPDEST PUSH1 0xF DUP3 ADD SWAP1 POP SWAP2 SWAP1 POP JUMP JUMPDEST PUSH1 0x0 DUP2 MLOAD SWAP1 POP SWAP2 SWAP1 POP JUMP JUMPDEST PUSH1 0x0 JUMPDEST DUP4 DUP2 LT ISZERO PUSH3 0x164 JUMPI DUP1 DUP3 ADD MLOAD DUP2 DUP5 ADD MSTORE PUSH1 0x20 DUP2 ADD SWAP1 POP PUSH3 0x147 JUMP JUMPDEST PUSH1 0x0 DUP5 DUP5 ADD MSTORE POP POP POP POP JUMP JUMPDEST PUSH1 0x0 PUSH3 0x17D DUP3 PUSH3 0x139 JUMP JUMPDEST PUSH3 0x189 DUP2 DUP6 PUSH3 0xDE JUMP JUMPDEST SWAP4 POP PUSH3 0x19B DUP2 DUP6 PUSH1 0x20 DUP7 ADD PUSH3 0x144 JUMP JUMPDEST DUP1 DUP5 ADD SWAP2 POP POP SWAP3 SWAP2 POP POP JUMP JUMPDEST PUSH32 0x2900000000000000000000000000000000000000000000000000000000000000 PUSH1 0x0 DUP3 ADD MSTORE POP JUMP JUMPDEST PUSH1 0x0 PUSH3 0x1DF PUSH1 0x1 DUP4 PUSH3 0xDE JUMP JUMPDEST SWAP2 POP PUSH3 0x1EC DUP3 PUSH3 0x1A7 JUMP JUMPDEST PUSH1 0x1 DUP3 ADD SWAP1 POP SWAP2 SWAP1 POP JUMP JUMPDEST PUSH1 0x0 PUSH3 0x204 DUP3 PUSH3 0x112 JUMP JUMPDEST SWAP2 POP PUSH3 0x212 DUP3 DUP5 PUSH3 0x170 JUMP JUMPDEST SWAP2 POP PUSH3 0x21F DUP3 PUSH3 0x1D0 JUMP JUMPDEST SWAP2 POP DUP2 SWAP1 POP SWAP3 SWAP2 POP POP JUMP JUMPDEST PUSH1 0x0 DUP3 DUP3 MSTORE PUSH1 0x20 DUP3 ADD SWAP1 POP SWAP3 SWAP2 POP POP JUMP JUMPDEST PUSH1 0x0 PUSH1 0x1F NOT PUSH1 0x1F DUP4 ADD AND SWAP1 POP SWAP2 SWAP1 POP JUMP JUMPDEST PUSH1 0x0 PUSH3 0x259 DUP3 PUSH3 0x139 JUMP JUMPDEST PUSH3 0x265 DUP2 DUP6 PUSH3 0x22A JUMP JUMPDEST SWAP4 POP PUSH3 0x277 DUP2 DUP6 PUSH1 0x20 DUP7 ADD PUSH3 0x144 JUMP JUMPDEST PUSH3 0x282 DUP2 PUSH3 0x23B JUMP JUMPDEST DUP5 ADD SWAP2 POP POP SWAP3 SWAP2 POP POP JUMP JUMPDEST PUSH1 0x0 PUSH1 0x20 DUP3 ADD SWAP1 POP DUP2 DUP2 SUB PUSH1 0x0 DUP4 ADD MSTORE PUSH3 0x2A9 DUP2 DUP5 PUSH3 0x24C JUMP JUMPDEST SWAP1 POP SWAP3 SWAP2 POP POP JUMP JUMPDEST PUSH2 0x23A8 DUP1 PUSH3 0x2C1 PUSH1 0x0 CODECOPY PUSH1 0x0 RETURN INVALID PUSH1 0x80 PUSH1 0x40 MSTORE PUSH1 0x4 CALLDATASIZE LT PUSH2 0xA0 JUMPI PUSH1 0x0 CALLDATALOAD PUSH1 0xE0 SHR DUP1 PUSH4 0xAD9F99C7 GT PUSH2 0x64 JUMPI DUP1 PUSH4 0xAD9F99C7 EQ PUSH2 0x1B7 JUMPI DUP1 PUSH4 0xC3F28ABD EQ PUSH2 0x1E0 JUMPI DUP1 PUSH4 0xC722F177 EQ PUSH2 0x20B JUMPI DUP1 PUSH4 0xD9210BE5 EQ PUSH2 0x248 JUMPI DUP1 PUSH4 0xE024DC7F EQ PUSH2 0x271 JUMPI DUP1 PUSH4 0xE2B62F2D EQ PUSH2 0x2A2 JUMPI PUSH2 0xA7 JUMP JUMPDEST DUP1 PUSH4 0x1FFC9A7 EQ PUSH2 0xAC JUMPI DUP1 PUSH4 0x66A310C EQ PUSH2 0xE9 JUMPI DUP1 PUSH4 0x21FE98DF EQ PUSH2 0x114 JUMPI DUP1 PUSH4 0x2D0335AB EQ PUSH2 0x151 JUMPI DUP1 PUSH4 0x9C7B4592 EQ PUSH2 0x18E JUMPI PUSH2 0xA7 JUMP JUMPDEST CALLDATASIZE PUSH2 0xA7 JUMPI STOP JUMPDEST PUSH1 0x0 DUP1 REVERT JUMPDEST CALLVALUE DUP1 ISZERO PUSH2 0xB8 JUMPI PUSH1 0x0 DUP1 REVERT JUMPDEST POP PUSH2 0xD3 PUSH1 0x4 DUP1 CALLDATASIZE SUB DUP2 ADD SWAP1 PUSH2 0xCE SWAP2 SWAP1 PUSH2 0x117E JUMP JUMPDEST PUSH2 0x2DF JUMP JUMPDEST PUSH1 0x40 MLOAD PUSH2 0xE0 SWAP2 SWAP1 PUSH2 0x11C6 JUMP JUMPDEST PUSH1 0x40 MLOAD DUP1 SWAP2 SUB SWAP1 RETURN JUMPDEST CALLVALUE DUP1 ISZERO PUSH2 0xF5 JUMPI PUSH1 0x0 DUP1 REVERT JUMPDEST POP PUSH2 0xFE PUSH2 0x359 JUMP JUMPDEST PUSH1 0x40 MLOAD PUSH2 0x10B SWAP2 SWAP1 PUSH2 0x1271 JUMP JUMPDEST PUSH1 0x40 MLOAD DUP1 SWAP2 SUB SWAP1 RETURN JUMPDEST CALLVALUE DUP1 ISZERO PUSH2 0x120 JUMPI PUSH1 0x0 DUP1 REVERT JUMPDEST POP PUSH2 0x13B PUSH1 0x4 DUP1 CALLDATASIZE SUB DUP2 ADD SWAP1 PUSH2 0x136 SWAP2 SWAP1 PUSH2 0x12C9 JUMP JUMPDEST PUSH2 0x375 JUMP JUMPDEST PUSH1 0x40 MLOAD PUSH2 0x148 SWAP2 SWAP1 PUSH2 0x11C6 JUMP JUMPDEST PUSH1 0x40 MLOAD DUP1 SWAP2 SUB SWAP1 RETURN JUMPDEST CALLVALUE DUP1 ISZERO PUSH2 0x15D JUMPI PUSH1 0x0 DUP1 REVERT JUMPDEST POP PUSH2 0x178 PUSH1 0x4 DUP1 CALLDATASIZE SUB DUP2 ADD SWAP1 PUSH2 0x173 SWAP2 SWAP1 PUSH2 0x1354 JUMP JUMPDEST PUSH2 0x395 JUMP JUMPDEST PUSH1 0x40 MLOAD PUSH2 0x185 SWAP2 SWAP1 PUSH2 0x139A JUMP JUMPDEST PUSH1 0x40 MLOAD DUP1 SWAP2 SUB SWAP1 RETURN JUMPDEST CALLVALUE DUP1 ISZERO PUSH2 0x19A JUMPI PUSH1 0x0 DUP1 REVERT JUMPDEST POP PUSH2 0x1B5 PUSH1 0x4 DUP1 CALLDATASIZE SUB DUP2 ADD SWAP1 PUSH2 0x1B0 SWAP2 SWAP1 PUSH2 0x141A JUMP JUMPDEST PUSH2 0x3DE JUMP JUMPDEST STOP JUMPDEST CALLVALUE DUP1 ISZERO PUSH2 0x1C3 JUMPI PUSH1 0x0 DUP1 REVERT JUMPDEST POP PUSH2 0x1DE PUSH1 0x4 DUP1 CALLDATASIZE SUB DUP2 ADD SWAP1 PUSH2 0x1D9 SWAP2 SWAP1 PUSH2 0x1515 JUMP JUMPDEST PUSH2 0x4D4 JUMP JUMPDEST STOP JUMPDEST CALLVALUE DUP1 ISZERO PUSH2 0x1EC JUMPI PUSH1 0x0 DUP1 REVERT JUMPDEST POP PUSH2 0x1F5 PUSH2 0x4F5 JUMP JUMPDEST PUSH1 0x40 MLOAD PUSH2 0x202 SWAP2 SWAP1 PUSH2 0x1271 JUMP JUMPDEST PUSH1 0x40 MLOAD DUP1 SWAP2 SUB SWAP1 RETURN JUMPDEST CALLVALUE DUP1 ISZERO PUSH2 0x217 JUMPI PUSH1 0x0 DUP1 REVERT JUMPDEST POP PUSH2 0x232 PUSH1 0x4 DUP1 CALLDATASIZE SUB DUP2 ADD SWAP1 PUSH2 0x22D SWAP2 SWAP1 PUSH2 0x12C9 JUMP JUMPDEST PUSH2 0x511 JUMP JUMPDEST PUSH1 0x40 MLOAD PUSH2 0x23F SWAP2 SWAP1 PUSH2 0x11C6 JUMP JUMPDEST PUSH1 0x40 MLOAD DUP1 SWAP2 SUB SWAP1 RETURN JUMPDEST CALLVALUE DUP1 ISZERO PUSH2 0x254 JUMPI PUSH1 0x0 DUP1 REVERT JUMPDEST POP PUSH2 0x26F PUSH1 0x4 DUP1 CALLDATASIZE SUB DUP2 ADD SWAP1 PUSH2 0x26A SWAP2 SWAP1 PUSH2 0x141A JUMP JUMPDEST PUSH2 0x531 JUMP JUMPDEST STOP JUMPDEST PUSH2 0x28B PUSH1 0x4 DUP1 CALLDATASIZE SUB DUP2 ADD SWAP1 PUSH2 0x286 SWAP2 SWAP1 PUSH2 0x1515 JUMP JUMPDEST PUSH2 0x69C JUMP JUMPDEST PUSH1 0x40 MLOAD PUSH2 0x299 SWAP3 SWAP2 SWAP1 PUSH2 0x1642 JUMP JUMPDEST PUSH1 0x40 MLOAD DUP1 SWAP2 SUB SWAP1 RETURN JUMPDEST CALLVALUE DUP1 ISZERO PUSH2 0x2AE JUMPI PUSH1 0x0 DUP1 REVERT JUMPDEST POP PUSH2 0x2C9 PUSH1 0x4 DUP1 CALLDATASIZE SUB DUP2 ADD SWAP1 PUSH2 0x2C4 SWAP2 SWAP1 PUSH2 0x1672 JUMP JUMPDEST PUSH2 0x8CF JUMP JUMPDEST PUSH1 0x40 MLOAD PUSH2 0x2D6 SWAP2 SWAP1 PUSH2 0x1702 JUMP JUMPDEST PUSH1 0x40 MLOAD DUP1 SWAP2 SUB SWAP1 RETURN JUMPDEST PUSH1 0x0 PUSH32 0x25E23E6400000000000000000000000000000000000000000000000000000000 PUSH28 0xFFFFFFFFFFFFFFFFFFFFFFFFFFFFFFFFFFFFFFFFFFFFFFFFFFFFFFFF NOT AND DUP3 PUSH28 0xFFFFFFFFFFFFFFFFFFFFFFFFFFFFFFFFFFFFFFFFFFFFFFFFFFFFFFFF NOT AND EQ DUP1 PUSH2 0x352 JUMPI POP PUSH2 0x351 DUP3 PUSH2 0x992 JUMP JUMPDEST JUMPDEST SWAP1 POP SWAP2 SWAP1 POP JUMP JUMPDEST PUSH1 0x40 MLOAD DUP1 PUSH1 0xA0 ADD PUSH1 0x40 MSTORE DUP1 PUSH1 0x61 DUP2 MSTORE PUSH1 0x20 ADD PUSH2 0x22C0 PUSH1 0x61 SWAP2 CODECOPY DUP2 JUMP JUMPDEST PUSH1 0x0 PUSH1 0x20 MSTORE DUP1 PUSH1 0x0 MSTORE PUSH1 0x40 PUSH1 0x0 KECCAK256 PUSH1 0x0 SWAP2 POP SLOAD SWAP1 PUSH2 0x100 EXP SWAP1 DIV PUSH1 0xFF AND DUP2 JUMP JUMPDEST PUSH1 0x0 PUSH1 0x2 PUSH1 0x0 DUP4 PUSH20 0xFFFFFFFFFFFFFFFFFFFFFFFFFFFFFFFFFFFFFFFF AND PUSH20 0xFFFFFFFFFFFFFFFFFFFFFFFFFFFFFFFFFFFFFFFF AND DUP2 MSTORE PUSH1 0x20 ADD SWAP1 DUP2 MSTORE PUSH1 0x20 ADD PUSH1 0x0 KECCAK256 SLOAD SWAP1 POP SWAP2 SWAP1 POP JUMP JUMPDEST PUSH1 0x0 CHAINID SWAP1 POP PUSH1 0x0 PUSH1 0x40 MLOAD DUP1 PUSH1 0x80 ADD PUSH1 0x40 MSTORE DUP1 PUSH1 0x52 DUP2 MSTORE PUSH1 0x20 ADD PUSH2 0x2321 PUSH1 0x52 SWAP2 CODECOPY DUP1 MLOAD SWAP1 PUSH1 0x20 ADD KECCAK256 DUP7 DUP7 PUSH1 0x40 MLOAD PUSH2 0x415 SWAP3 SWAP2 SWAP1 PUSH2 0x1763 JUMP JUMPDEST PUSH1 0x40 MLOAD DUP1 SWAP2 SUB SWAP1 KECCAK256 DUP6 DUP6 PUSH1 0x40 MLOAD PUSH2 0x42D SWAP3 SWAP2 SWAP1 PUSH2 0x1763 JUMP JUMPDEST PUSH1 0x40 MLOAD DUP1 SWAP2 SUB SWAP1 KECCAK256 DUP5 ADDRESS PUSH1 0x40 MLOAD PUSH1 0x20 ADD PUSH2 0x44B SWAP6 SWAP5 SWAP4 SWAP3 SWAP2 SWAP1 PUSH2 0x179A JUMP JUMPDEST PUSH1 0x40 MLOAD PUSH1 0x20 DUP2 DUP4 SUB SUB DUP2 MSTORE SWAP1 PUSH1 0x40 MSTORE SWAP1 POP PUSH1 0x0 DUP2 DUP1 MLOAD SWAP1 PUSH1 0x20 ADD KECCAK256 SWAP1 POP PUSH1 0x1 DUP1 PUSH1 0x0 DUP4 DUP2 MSTORE PUSH1 0x20 ADD SWAP1 DUP2 MSTORE PUSH1 0x20 ADD PUSH1 0x0 KECCAK256 PUSH1 0x0 PUSH2 0x100 EXP DUP2 SLOAD DUP2 PUSH1 0xFF MUL NOT AND SWAP1 DUP4 ISZERO ISZERO MUL OR SWAP1 SSTORE POP DUP1 PUSH32 0x4BC68689CBE89A4A6333A3AB0A70093874DA3E5BFB71E93102027F3F073687D8 DUP4 PUSH1 0x40 MLOAD PUSH2 0x4C3 SWAP2 SWAP1 PUSH2 0x1702 JUMP JUMPDEST PUSH1 0x40 MLOAD DUP1 SWAP2 SUB SWAP1 LOG2 POP POP POP POP POP POP POP JUMP JUMPDEST PUSH2 0x4DD DUP8 PUSH2 0x9FC JUMP JUMPDEST PUSH2 0x4EC DUP8 DUP8 DUP8 DUP8 DUP8 DUP8 DUP8 PUSH2 0xA96 JUMP JUMPDEST POP POP POP POP POP POP POP JUMP JUMPDEST PUSH1 0x40 MLOAD DUP1 PUSH1 0x80 ADD PUSH1 0x40 MSTORE DUP1 PUSH1 0x52 DUP2 MSTORE PUSH1 0x20 ADD PUSH2 0x2321 PUSH1 0x52 SWAP2 CODECOPY DUP2 JUMP JUMPDEST PUSH1 0x1 PUSH1 0x20 MSTORE DUP1 PUSH1 0x0 MSTORE PUSH1 0x40 PUSH1 0x0 KECCAK256 PUSH1 0x0 SWAP2 POP SLOAD SWAP1 PUSH2 0x100 EXP SWAP1 DIV PUSH1 0xFF AND DUP2 JUMP JUMPDEST PUSH1 0x0 JUMPDEST DUP5 DUP5 SWAP1 POP DUP2 LT ISZERO PUSH2 0x647 JUMPI PUSH1 0x0 DUP6 DUP6 DUP4 DUP2 DUP2 LT PUSH2 0x554 JUMPI PUSH2 0x553 PUSH2 0x17ED JUMP JUMPDEST JUMPDEST SWAP1 POP ADD CALLDATALOAD PUSH1 0xF8 SHR PUSH1 0xF8 SHL SWAP1 POP PUSH32 0x2800000000000000000000000000000000000000000000000000000000000000 DUP2 PUSH31 0xFFFFFFFFFFFFFFFFFFFFFFFFFFFFFFFFFFFFFFFFFFFFFFFFFFFFFFFFFFFFFF NOT AND EQ ISZERO DUP1 ISZERO PUSH2 0x5F4 JUMPI POP PUSH32 0x2900000000000000000000000000000000000000000000000000000000000000 DUP2 PUSH31 0xFFFFFFFFFFFFFFFFFFFFFFFFFFFFFFFFFFFFFFFFFFFFFFFFFFFFFFFFFFFFFF NOT AND EQ ISZERO JUMPDEST PUSH2 0x633 JUMPI PUSH1 0x40 MLOAD PUSH32 0x8C379A000000000000000000000000000000000000000000000000000000000 DUP2 MSTORE PUSH1 0x4 ADD PUSH2 0x62A SWAP1 PUSH2 0x1868 JUMP JUMPDEST PUSH1 0x40 MLOAD DUP1 SWAP2 SUB SWAP1 REVERT JUMPDEST POP DUP1 DUP1 PUSH2 0x63F SWAP1 PUSH2 0x18B7 JUMP JUMPDEST SWAP2 POP POP PUSH2 0x534 JUMP JUMPDEST POP PUSH1 0x0 DUP5 DUP5 PUSH1 0x40 MLOAD DUP1 PUSH1 0xA0 ADD PUSH1 0x40 MSTORE DUP1 PUSH1 0x61 DUP2 MSTORE PUSH1 0x20 ADD PUSH2 0x22C0 PUSH1 0x61 SWAP2 CODECOPY DUP6 DUP6 PUSH1 0x40 MLOAD PUSH1 0x20 ADD PUSH2 0x67B SWAP6 SWAP5 SWAP4 SWAP3 SWAP2 SWAP1 PUSH2 0x19F8 JUMP JUMPDEST PUSH1 0x40 MLOAD PUSH1 0x20 DUP2 DUP4 SUB SUB DUP2 MSTORE SWAP1 PUSH1 0x40 MSTORE SWAP1 POP PUSH2 0x695 DUP2 PUSH2 0xCAB JUMP JUMPDEST POP POP POP POP POP JUMP JUMPDEST PUSH1 0x0 PUSH1 0x60 PUSH2 0x6AF DUP10 DUP10 DUP10 DUP10 DUP10 DUP10 DUP10 PUSH2 0xA96 JUMP JUMPDEST PUSH2 0x6B8 DUP10 PUSH2 0xD1E JUMP JUMPDEST PUSH1 0x0 DUP10 PUSH1 0xC0 ADD CALLDATALOAD EQ DUP1 PUSH2 0x6CE JUMPI POP TIMESTAMP DUP10 PUSH1 0xC0 ADD CALLDATALOAD GT JUMPDEST PUSH2 0x70D JUMPI PUSH1 0x40 MLOAD PUSH32 0x8C379A000000000000000000000000000000000000000000000000000000000 DUP2 MSTORE PUSH1 0x4 ADD PUSH2 0x704 SWAP1 PUSH2 0x1A8F JUMP JUMPDEST PUSH1 0x40 MLOAD DUP1 SWAP2 SUB SWAP1 REVERT JUMPDEST PUSH1 0x0 DUP1 DUP11 PUSH1 0x40 ADD CALLDATALOAD EQ PUSH2 0x720 JUMPI PUSH2 0x9C40 SWAP1 POP JUMPDEST PUSH1 0x0 DUP11 DUP1 PUSH1 0xA0 ADD SWAP1 PUSH2 0x732 SWAP2 SWAP1 PUSH2 0x1ABE JUMP JUMPDEST DUP13 PUSH1 0x0 ADD PUSH1 0x20 DUP2 ADD SWAP1 PUSH2 0x745 SWAP2 SWAP1 PUSH2 0x1354 JUMP JUMPDEST PUSH1 0x40 MLOAD PUSH1 0x20 ADD PUSH2 0x757 SWAP4 SWAP3 SWAP2 SWAP1 PUSH2 0x1B69 JUMP JUMPDEST PUSH1 0x40 MLOAD PUSH1 0x20 DUP2 DUP4 SUB SUB DUP2 MSTORE SWAP1 PUSH1 0x40 MSTORE SWAP1 POP DUP2 DUP12 PUSH1 0x60 ADD CALLDATALOAD PUSH2 0x778 SWAP2 SWAP1 PUSH2 0x1B93 JUMP JUMPDEST PUSH1 0x40 PUSH1 0x3F GAS PUSH2 0x787 SWAP2 SWAP1 PUSH2 0x1BC7 JUMP JUMPDEST PUSH2 0x791 SWAP2 SWAP1 PUSH2 0x1C38 JUMP JUMPDEST LT ISZERO PUSH2 0x7D2 JUMPI PUSH1 0x40 MLOAD PUSH32 0x8C379A000000000000000000000000000000000000000000000000000000000 DUP2 MSTORE PUSH1 0x4 ADD PUSH2 0x7C9 SWAP1 PUSH2 0x1CB5 JUMP JUMPDEST PUSH1 0x40 MLOAD DUP1 SWAP2 SUB SWAP1 REVERT JUMPDEST DUP11 PUSH1 0x20 ADD PUSH1 0x20 DUP2 ADD SWAP1 PUSH2 0x7E5 SWAP2 SWAP1 PUSH2 0x1354 JUMP JUMPDEST PUSH20 0xFFFFFFFFFFFFFFFFFFFFFFFFFFFFFFFFFFFFFFFF AND DUP12 PUSH1 0x60 ADD CALLDATALOAD DUP13 PUSH1 0x40 ADD CALLDATALOAD DUP4 PUSH1 0x40 MLOAD PUSH2 0x813 SWAP2 SWAP1 PUSH2 0x1D06 JUMP JUMPDEST PUSH1 0x0 PUSH1 0x40 MLOAD DUP1 DUP4 SUB DUP2 DUP6 DUP9 DUP9 CALL SWAP4 POP POP POP POP RETURNDATASIZE DUP1 PUSH1 0x0 DUP2 EQ PUSH2 0x851 JUMPI PUSH1 0x40 MLOAD SWAP2 POP PUSH1 0x1F NOT PUSH1 0x3F RETURNDATASIZE ADD AND DUP3 ADD PUSH1 0x40 MSTORE RETURNDATASIZE DUP3 MSTORE RETURNDATASIZE PUSH1 0x0 PUSH1 0x20 DUP5 ADD RETURNDATACOPY PUSH2 0x856 JUMP JUMPDEST PUSH1 0x60 SWAP2 POP JUMPDEST POP DUP1 SWAP5 POP DUP2 SWAP6 POP POP POP PUSH1 0x0 DUP12 PUSH1 0x40 ADD CALLDATALOAD EQ ISZERO DUP1 ISZERO PUSH2 0x874 JUMPI POP PUSH1 0x0 SELFBALANCE GT JUMPDEST ISZERO PUSH2 0x8C1 JUMPI CALLER PUSH20 0xFFFFFFFFFFFFFFFFFFFFFFFFFFFFFFFFFFFFFFFF AND PUSH2 0x8FC SELFBALANCE SWAP1 DUP2 ISZERO MUL SWAP1 PUSH1 0x40 MLOAD PUSH1 0x0 PUSH1 0x40 MLOAD DUP1 DUP4 SUB DUP2 DUP6 DUP9 DUP9 CALL SWAP4 POP POP POP POP ISZERO DUP1 ISZERO PUSH2 0x8BF JUMPI RETURNDATASIZE PUSH1 0x0 DUP1 RETURNDATACOPY RETURNDATASIZE PUSH1 0x0 REVERT JUMPDEST POP JUMPDEST POP POP SWAP8 POP SWAP8 SWAP6 POP POP POP POP POP POP JUMP JUMPDEST PUSH1 0x60 DUP4 DUP6 PUSH1 0x0 ADD PUSH1 0x20 DUP2 ADD SWAP1 PUSH2 0x8E5 SWAP2 SWAP1 PUSH2 0x1354 JUMP JUMPDEST PUSH20 0xFFFFFFFFFFFFFFFFFFFFFFFFFFFFFFFFFFFFFFFF AND DUP7 PUSH1 0x20 ADD PUSH1 0x20 DUP2 ADD SWAP1 PUSH2 0x90E SWAP2 SWAP1 PUSH2 0x1354 JUMP JUMPDEST PUSH20 0xFFFFFFFFFFFFFFFFFFFFFFFFFFFFFFFFFFFFFFFF AND DUP8 PUSH1 0x40 ADD CALLDATALOAD DUP9 PUSH1 0x60 ADD CALLDATALOAD DUP10 PUSH1 0x80 ADD CALLDATALOAD DUP11 DUP1 PUSH1 0xA0 ADD SWAP1 PUSH2 0x943 SWAP2 SWAP1 PUSH2 0x1ABE JUMP JUMPDEST PUSH1 0x40 MLOAD PUSH2 0x951 SWAP3 SWAP2 SWAP1 PUSH2 0x1763 JUMP JUMPDEST PUSH1 0x40 MLOAD DUP1 SWAP2 SUB SWAP1 KECCAK256 DUP12 PUSH1 0xC0 ADD CALLDATALOAD DUP11 DUP11 PUSH1 0x40 MLOAD PUSH1 0x20 ADD PUSH2 0x979 SWAP11 SWAP10 SWAP9 SWAP8 SWAP7 SWAP6 SWAP5 SWAP4 SWAP3 SWAP2 SWAP1 PUSH2 0x1D5F JUMP JUMPDEST PUSH1 0x40 MLOAD PUSH1 0x20 DUP2 DUP4 SUB SUB DUP2 MSTORE SWAP1 PUSH1 0x40 MSTORE SWAP1 POP SWAP5 SWAP4 POP POP POP POP JUMP JUMPDEST PUSH1 0x0 PUSH32 0x1FFC9A700000000000000000000000000000000000000000000000000000000 PUSH28 0xFFFFFFFFFFFFFFFFFFFFFFFFFFFFFFFFFFFFFFFFFFFFFFFFFFFFFFFF NOT AND DUP3 PUSH28 0xFFFFFFFFFFFFFFFFFFFFFFFFFFFFFFFFFFFFFFFFFFFFFFFFFFFFFFFF NOT AND EQ SWAP1 POP SWAP2 SWAP1 POP JUMP JUMPDEST DUP1 PUSH1 0x80 ADD CALLDATALOAD PUSH1 0x2 PUSH1 0x0 DUP4 PUSH1 0x0 ADD PUSH1 0x20 DUP2 ADD SWAP1 PUSH2 0xA18 SWAP2 SWAP1 PUSH2 0x1354 JUMP JUMPDEST PUSH20 0xFFFFFFFFFFFFFFFFFFFFFFFFFFFFFFFFFFFFFFFF AND PUSH20 0xFFFFFFFFFFFFFFFFFFFFFFFFFFFFFFFFFFFFFFFF AND DUP2 MSTORE PUSH1 0x20 ADD SWAP1 DUP2 MSTORE PUSH1 0x20 ADD PUSH1 0x0 KECCAK256 SLOAD EQ PUSH2 0xA93 JUMPI PUSH1 0x40 MLOAD PUSH32 0x8C379A000000000000000000000000000000000000000000000000000000000 DUP2 MSTORE PUSH1 0x4 ADD PUSH2 0xA8A SWAP1 PUSH2 0x1E4C JUMP JUMPDEST PUSH1 0x40 MLOAD DUP1 SWAP2 SUB SWAP1 REVERT JUMPDEST POP JUMP JUMPDEST PUSH1 0x1 PUSH1 0x0 DUP8 DUP2 MSTORE PUSH1 0x20 ADD SWAP1 DUP2 MSTORE PUSH1 0x20 ADD PUSH1 0x0 KECCAK256 PUSH1 0x0 SWAP1 SLOAD SWAP1 PUSH2 0x100 EXP SWAP1 DIV PUSH1 0xFF AND PUSH2 0xAF6 JUMPI PUSH1 0x40 MLOAD PUSH32 0x8C379A000000000000000000000000000000000000000000000000000000000 DUP2 MSTORE PUSH1 0x4 ADD PUSH2 0xAED SWAP1 PUSH2 0x1EB8 JUMP JUMPDEST PUSH1 0x40 MLOAD DUP1 SWAP2 SUB SWAP1 REVERT JUMPDEST PUSH1 0x0 DUP1 DUP7 DUP2 MSTORE PUSH1 0x20 ADD SWAP1 DUP2 MSTORE PUSH1 0x20 ADD PUSH1 0x0 KECCAK256 PUSH1 0x0 SWAP1 SLOAD SWAP1 PUSH2 0x100 EXP SWAP1 DIV PUSH1 0xFF AND PUSH2 0xB55 JUMPI PUSH1 0x40 MLOAD PUSH32 0x8C379A000000000000000000000000000000000000000000000000000000000 DUP2 MSTORE PUSH1 0x4 ADD PUSH2 0xB4C SWAP1 PUSH2 0x1F24 JUMP JUMPDEST PUSH1 0x40 MLOAD DUP1 SWAP2 SUB SWAP1 REVERT JUMPDEST PUSH1 0x0 DUP7 PUSH2 0xB64 DUP10 DUP9 DUP9 DUP9 PUSH2 0x8CF JUMP JUMPDEST DUP1 MLOAD SWAP1 PUSH1 0x20 ADD KECCAK256 PUSH1 0x40 MLOAD PUSH1 0x20 ADD PUSH2 0xB7C SWAP3 SWAP2 SWAP1 PUSH2 0x1F90 JUMP JUMPDEST PUSH1 0x40 MLOAD PUSH1 0x20 DUP2 DUP4 SUB SUB DUP2 MSTORE SWAP1 PUSH1 0x40 MSTORE DUP1 MLOAD SWAP1 PUSH1 0x20 ADD KECCAK256 SWAP1 POP PUSH1 0x0 PUSH20 0xFFFFFFFFFFFFFFFFFFFFFFFFFFFFFFFFFFFFFFFF AND ORIGIN PUSH20 0xFFFFFFFFFFFFFFFFFFFFFFFFFFFFFFFFFFFFFFFF AND EQ DUP1 PUSH2 0xC62 JUMPI POP DUP8 PUSH1 0x0 ADD PUSH1 0x20 DUP2 ADD SWAP1 PUSH2 0xBDD SWAP2 SWAP1 PUSH2 0x1354 JUMP JUMPDEST PUSH20 0xFFFFFFFFFFFFFFFFFFFFFFFFFFFFFFFFFFFFFFFF AND PUSH2 0xC4A DUP5 DUP5 DUP1 DUP1 PUSH1 0x1F ADD PUSH1 0x20 DUP1 SWAP2 DIV MUL PUSH1 0x20 ADD PUSH1 0x40 MLOAD SWAP1 DUP2 ADD PUSH1 0x40 MSTORE DUP1 SWAP4 SWAP3 SWAP2 SWAP1 DUP2 DUP2 MSTORE PUSH1 0x20 ADD DUP4 DUP4 DUP1 DUP3 DUP5 CALLDATACOPY PUSH1 0x0 DUP2 DUP5 ADD MSTORE PUSH1 0x1F NOT PUSH1 0x1F DUP3 ADD AND SWAP1 POP DUP1 DUP4 ADD SWAP3 POP POP POP POP POP POP POP DUP4 PUSH2 0xDCC SWAP1 SWAP2 SWAP1 PUSH4 0xFFFFFFFF AND JUMP JUMPDEST PUSH20 0xFFFFFFFFFFFFFFFFFFFFFFFFFFFFFFFFFFFFFFFF AND EQ JUMPDEST PUSH2 0xCA1 JUMPI PUSH1 0x40 MLOAD PUSH32 0x8C379A000000000000000000000000000000000000000000000000000000000 DUP2 MSTORE PUSH1 0x4 ADD PUSH2 0xC98 SWAP1 PUSH2 0x2013 JUMP JUMPDEST PUSH1 0x40 MLOAD DUP1 SWAP2 SUB SWAP1 REVERT JUMPDEST POP POP POP POP POP POP POP POP JUMP JUMPDEST PUSH1 0x0 DUP2 DUP1 MLOAD SWAP1 PUSH1 0x20 ADD KECCAK256 SWAP1 POP PUSH1 0x1 PUSH1 0x0 DUP1 DUP4 DUP2 MSTORE PUSH1 0x20 ADD SWAP1 DUP2 MSTORE PUSH1 0x20 ADD PUSH1 0x0 KECCAK256 PUSH1 0x0 PUSH2 0x100 EXP DUP2 SLOAD DUP2 PUSH1 0xFF MUL NOT AND SWAP1 DUP4 ISZERO ISZERO MUL OR SWAP1 SSTORE POP DUP1 PUSH32 0x64D6BCE64323458C44643C51FE45113EFC882082F7B7FD5F09F0D69D2EEDB202 DUP4 PUSH1 0x40 MLOAD PUSH2 0xD12 SWAP2 SWAP1 PUSH2 0x1271 JUMP JUMPDEST PUSH1 0x40 MLOAD DUP1 SWAP2 SUB SWAP1 LOG2 POP POP JUMP JUMPDEST DUP1 PUSH1 0x80 ADD CALLDATALOAD PUSH1 0x2 PUSH1 0x0 DUP4 PUSH1 0x0 ADD PUSH1 0x20 DUP2 ADD SWAP1 PUSH2 0xD3A SWAP2 SWAP1 PUSH2 0x1354 JUMP JUMPDEST PUSH20 0xFFFFFFFFFFFFFFFFFFFFFFFFFFFFFFFFFFFFFFFF AND PUSH20 0xFFFFFFFFFFFFFFFFFFFFFFFFFFFFFFFFFFFFFFFF AND DUP2 MSTORE PUSH1 0x20 ADD SWAP1 DUP2 MSTORE PUSH1 0x20 ADD PUSH1 0x0 KECCAK256 PUSH1 0x0 DUP2 SLOAD DUP1 SWAP3 SWAP2 SWAP1 PUSH2 0xD85 SWAP1 PUSH2 0x18B7 JUMP JUMPDEST SWAP2 SWAP1 POP SSTORE EQ PUSH2 0xDC9 JUMPI PUSH1 0x40 MLOAD PUSH32 0x8C379A000000000000000000000000000000000000000000000000000000000 DUP2 MSTORE PUSH1 0x4 ADD PUSH2 0xDC0 SWAP1 PUSH2 0x1E4C JUMP JUMPDEST PUSH1 0x40 MLOAD DUP1 SWAP2 SUB SWAP1 REVERT JUMPDEST POP JUMP JUMPDEST PUSH1 0x0 DUP1 PUSH1 0x0 PUSH2 0xDDB DUP6 DUP6 PUSH2 0xDF3 JUMP JUMPDEST SWAP2 POP SWAP2 POP PUSH2 0xDE8 DUP2 PUSH2 0xE44 JUMP JUMPDEST DUP2 SWAP3 POP POP POP SWAP3 SWAP2 POP POP JUMP JUMPDEST PUSH1 0x0 DUP1 PUSH1 0x41 DUP4 MLOAD SUB PUSH2 0xE34 JUMPI PUSH1 0x0 DUP1 PUSH1 0x0 PUSH1 0x20 DUP7 ADD MLOAD SWAP3 POP PUSH1 0x40 DUP7 ADD MLOAD SWAP2 POP PUSH1 0x60 DUP7 ADD MLOAD PUSH1 0x0 BYTE SWAP1 POP PUSH2 0xE28 DUP8 DUP3 DUP6 DUP6 PUSH2 0x1010 JUMP JUMPDEST SWAP5 POP SWAP5 POP POP POP POP PUSH2 0xE3D JUMP JUMPDEST PUSH1 0x0 PUSH1 0x2 SWAP2 POP SWAP2 POP JUMPDEST SWAP3 POP SWAP3 SWAP1 POP JUMP JUMPDEST PUSH1 0x0 PUSH1 0x4 DUP2 GT ISZERO PUSH2 0xE58 JUMPI PUSH2 0xE57 PUSH2 0x2033 JUMP JUMPDEST JUMPDEST DUP2 PUSH1 0x4 DUP2 GT ISZERO PUSH2 0xE6B JUMPI PUSH2 0xE6A PUSH2 0x2033 JUMP JUMPDEST JUMPDEST SUB ISZERO PUSH2 0x100D JUMPI PUSH1 0x1 PUSH1 0x4 DUP2 GT ISZERO PUSH2 0xE85 JUMPI PUSH2 0xE84 PUSH2 0x2033 JUMP JUMPDEST JUMPDEST DUP2 PUSH1 0x4 DUP2 GT ISZERO PUSH2 0xE98 JUMPI PUSH2 0xE97 PUSH2 0x2033 JUMP JUMPDEST JUMPDEST SUB PUSH2 0xED8 JUMPI PUSH1 0x40 MLOAD PUSH32 0x8C379A000000000000000000000000000000000000000000000000000000000 DUP2 MSTORE PUSH1 0x4 ADD PUSH2 0xECF SWAP1 PUSH2 0x20AE JUMP JUMPDEST PUSH1 0x40 MLOAD DUP1 SWAP2 SUB SWAP1 REVERT JUMPDEST PUSH1 0x2 PUSH1 0x4 DUP2 GT ISZERO PUSH2 0xEEC JUMPI PUSH2 0xEEB PUSH2 0x2033 JUMP JUMPDEST JUMPDEST DUP2 PUSH1 0x4 DUP2 GT ISZERO PUSH2 0xEFF JUMPI PUSH2 0xEFE PUSH2 0x2033 JUMP JUMPDEST JUMPDEST SUB PUSH2 0xF3F JUMPI PUSH1 0x40 MLOAD PUSH32 0x8C379A000000000000000000000000000000000000000000000000000000000 DUP2 MSTORE PUSH1 0x4 ADD PUSH2 0xF36 SWAP1 PUSH2 0x211A JUMP JUMPDEST PUSH1 0x40 MLOAD DUP1 SWAP2 SUB SWAP1 REVERT JUMPDEST PUSH1 0x3 PUSH1 0x4 DUP2 GT ISZERO PUSH2 0xF53 JUMPI PUSH2 0xF52 PUSH2 0x2033 JUMP JUMPDEST JUMPDEST DUP2 PUSH1 0x4 DUP2 GT ISZERO PUSH2 0xF66 JUMPI PUSH2 0xF65 PUSH2 0x2033 JUMP JUMPDEST JUMPDEST SUB PUSH2 0xFA6 JUMPI PUSH1 0x40 MLOAD PUSH32 0x8C379A000000000000000000000000000000000000000000000000000000000 DUP2 MSTORE PUSH1 0x4 ADD PUSH2 0xF9D SWAP1 PUSH2 0x21AC JUMP JUMPDEST PUSH1 0x40 MLOAD DUP1 SWAP2 SUB SWAP1 REVERT JUMPDEST PUSH1 0x4 DUP1 DUP2 GT ISZERO PUSH2 0xFB9 JUMPI PUSH2 0xFB8 PUSH2 0x2033 JUMP JUMPDEST JUMPDEST DUP2 PUSH1 0x4 DUP2 GT ISZERO PUSH2 0xFCC JUMPI PUSH2 0xFCB PUSH2 0x2033 JUMP JUMPDEST JUMPDEST SUB PUSH2 0x100C JUMPI PUSH1 0x40 MLOAD PUSH32 0x8C379A000000000000000000000000000000000000000000000000000000000 DUP2 MSTORE PUSH1 0x4 ADD PUSH2 0x1003 SWAP1 PUSH2 0x223E JUMP JUMPDEST PUSH1 0x40 MLOAD DUP1 SWAP2 SUB SWAP1 REVERT JUMPDEST JUMPDEST POP JUMP JUMPDEST PUSH1 0x0 DUP1 PUSH32 0x7FFFFFFFFFFFFFFFFFFFFFFFFFFFFFFF5D576E7357A4501DDFE92F46681B20A0 DUP4 PUSH1 0x0 SHR GT ISZERO PUSH2 0x104B JUMPI PUSH1 0x0 PUSH1 0x3 SWAP2 POP SWAP2 POP PUSH2 0x1113 JUMP JUMPDEST PUSH1 0x1B DUP6 PUSH1 0xFF AND EQ ISZERO DUP1 ISZERO PUSH2 0x1063 JUMPI POP PUSH1 0x1C DUP6 PUSH1 0xFF AND EQ ISZERO JUMPDEST ISZERO PUSH2 0x1075 JUMPI PUSH1 0x0 PUSH1 0x4 SWAP2 POP SWAP2 POP PUSH2 0x1113 JUMP JUMPDEST PUSH1 0x0 PUSH1 0x1 DUP8 DUP8 DUP8 DUP8 PUSH1 0x40 MLOAD PUSH1 0x0 DUP2 MSTORE PUSH1 0x20 ADD PUSH1 0x40 MSTORE PUSH1 0x40 MLOAD PUSH2 0x109A SWAP5 SWAP4 SWAP3 SWAP2 SWAP1 PUSH2 0x227A JUMP JUMPDEST PUSH1 0x20 PUSH1 0x40 MLOAD PUSH1 0x20 DUP2 SUB SWAP1 DUP1 DUP5 SUB SWAP1 DUP6 GAS STATICCALL ISZERO DUP1 ISZERO PUSH2 0x10BC JUMPI RETURNDATASIZE PUSH1 0x0 DUP1 RETURNDATACOPY RETURNDATASIZE PUSH1 0x0 REVERT JUMPDEST POP POP POP PUSH1 0x20 PUSH1 0x40 MLOAD SUB MLOAD SWAP1 POP PUSH1 0x0 PUSH20 0xFFFFFFFFFFFFFFFFFFFFFFFFFFFFFFFFFFFFFFFF AND DUP2 PUSH20 0xFFFFFFFFFFFFFFFFFFFFFFFFFFFFFFFFFFFFFFFF AND SUB PUSH2 0x110A JUMPI PUSH1 0x0 PUSH1 0x1 SWAP3 POP SWAP3 POP POP PUSH2 0x1113 JUMP JUMPDEST DUP1 PUSH1 0x0 SWAP3 POP SWAP3 POP POP JUMPDEST SWAP5 POP SWAP5 SWAP3 POP POP POP JUMP JUMPDEST PUSH1 0x0 DUP1 REVERT JUMPDEST PUSH1 0x0 DUP1 REVERT JUMPDEST PUSH1 0x0 PUSH32 0xFFFFFFFF00000000000000000000000000000000000000000000000000000000 DUP3 AND SWAP1 POP SWAP2 SWAP1 POP JUMP JUMPDEST PUSH2 0x115B DUP2 PUSH2 0x1126 JUMP JUMPDEST DUP2 EQ PUSH2 0x1166 JUMPI PUSH1 0x0 DUP1 REVERT JUMPDEST POP JUMP JUMPDEST PUSH1 0x0 DUP2 CALLDATALOAD SWAP1 POP PUSH2 0x1178 DUP2 PUSH2 0x1152 JUMP JUMPDEST SWAP3 SWAP2 POP POP JUMP JUMPDEST PUSH1 0x0 PUSH1 0x20 DUP3 DUP5 SUB SLT ISZERO PUSH2 0x1194 JUMPI PUSH2 0x1193 PUSH2 0x111C JUMP JUMPDEST JUMPDEST PUSH1 0x0 PUSH2 0x11A2 DUP5 DUP3 DUP6 ADD PUSH2 0x1169 JUMP JUMPDEST SWAP2 POP POP SWAP3 SWAP2 POP POP JUMP JUMPDEST PUSH1 0x0 DUP2 ISZERO ISZERO SWAP1 POP SWAP2 SWAP1 POP JUMP JUMPDEST PUSH2 0x11C0 DUP2 PUSH2 0x11AB JUMP JUMPDEST DUP3 MSTORE POP POP JUMP JUMPDEST PUSH1 0x0 PUSH1 0x20 DUP3 ADD SWAP1 POP PUSH2 0x11DB PUSH1 0x0 DUP4 ADD DUP5 PUSH2 0x11B7 JUMP JUMPDEST SWAP3 SWAP2 POP POP JUMP JUMPDEST PUSH1 0x0 DUP2 MLOAD SWAP1 POP SWAP2 SWAP1 POP JUMP JUMPDEST PUSH1 0x0 DUP3 DUP3 MSTORE PUSH1 0x20 DUP3 ADD SWAP1 POP SWAP3 SWAP2 POP POP JUMP JUMPDEST PUSH1 0x0 JUMPDEST DUP4 DUP2 LT ISZERO PUSH2 0x121B JUMPI DUP1 DUP3 ADD MLOAD DUP2 DUP5 ADD MSTORE PUSH1 0x20 DUP2 ADD SWAP1 POP PUSH2 0x1200 JUMP JUMPDEST PUSH1 0x0 DUP5 DUP5 ADD MSTORE POP POP POP POP JUMP JUMPDEST PUSH1 0x0 PUSH1 0x1F NOT PUSH1 0x1F DUP4 ADD AND SWAP1 POP SWAP2 SWAP1 POP JUMP JUMPDEST PUSH1 0x0 PUSH2 0x1243 DUP3 PUSH2 0x11E1 JUMP JUMPDEST PUSH2 0x124D DUP2 DUP6 PUSH2 0x11EC JUMP JUMPDEST SWAP4 POP PUSH2 0x125D DUP2 DUP6 PUSH1 0x20 DUP7 ADD PUSH2 0x11FD JUMP JUMPDEST PUSH2 0x1266 DUP2 PUSH2 0x1227 JUMP JUMPDEST DUP5 ADD SWAP2 POP POP SWAP3 SWAP2 POP POP JUMP JUMPDEST PUSH1 0x0 PUSH1 0x20 DUP3 ADD SWAP1 POP DUP2 DUP2 SUB PUSH1 0x0 DUP4 ADD MSTORE PUSH2 0x128B DUP2 DUP5 PUSH2 0x1238 JUMP JUMPDEST SWAP1 POP SWAP3 SWAP2 POP POP JUMP JUMPDEST PUSH1 0x0 DUP2 SWAP1 POP SWAP2 SWAP1 POP JUMP JUMPDEST PUSH2 0x12A6 DUP2 PUSH2 0x1293 JUMP JUMPDEST DUP2 EQ PUSH2 0x12B1 JUMPI PUSH1 0x0 DUP1 REVERT JUMPDEST POP JUMP JUMPDEST PUSH1 0x0 DUP2 CALLDATALOAD SWAP1 POP PUSH2 0x12C3 DUP2 PUSH2 0x129D JUMP JUMPDEST SWAP3 SWAP2 POP POP JUMP JUMPDEST PUSH1 0x0 PUSH1 0x20 DUP3 DUP5 SUB SLT ISZERO PUSH2 0x12DF JUMPI PUSH2 0x12DE PUSH2 0x111C JUMP JUMPDEST JUMPDEST PUSH1 0x0 PUSH2 0x12ED DUP5 DUP3 DUP6 ADD PUSH2 0x12B4 JUMP JUMPDEST SWAP2 POP POP SWAP3 SWAP2 POP POP JUMP JUMPDEST PUSH1 0x0 PUSH20 0xFFFFFFFFFFFFFFFFFFFFFFFFFFFFFFFFFFFFFFFF DUP3 AND SWAP1 POP SWAP2 SWAP1 POP JUMP JUMPDEST PUSH1 0x0 PUSH2 0x1321 DUP3 PUSH2 0x12F6 JUMP JUMPDEST SWAP1 POP SWAP2 SWAP1 POP JUMP JUMPDEST PUSH2 0x1331 DUP2 PUSH2 0x1316 JUMP JUMPDEST DUP2 EQ PUSH2 0x133C JUMPI PUSH1 0x0 DUP1 REVERT JUMPDEST POP JUMP JUMPDEST PUSH1 0x0 DUP2 CALLDATALOAD SWAP1 POP PUSH2 0x134E DUP2 PUSH2 0x1328 JUMP JUMPDEST SWAP3 SWAP2 POP POP JUMP JUMPDEST PUSH1 0x0 PUSH1 0x20 DUP3 DUP5 SUB SLT ISZERO PUSH2 0x136A JUMPI PUSH2 0x1369 PUSH2 0x111C JUMP JUMPDEST JUMPDEST PUSH1 0x0 PUSH2 0x1378 DUP5 DUP3 DUP6 ADD PUSH2 0x133F JUMP JUMPDEST SWAP2 POP POP SWAP3 SWAP2 POP POP JUMP JUMPDEST PUSH1 0x0 DUP2 SWAP1 POP SWAP2 SWAP1 POP JUMP JUMPDEST PUSH2 0x1394 DUP2 PUSH2 0x1381 JUMP JUMPDEST DUP3 MSTORE POP POP JUMP JUMPDEST PUSH1 0x0 PUSH1 0x20 DUP3 ADD SWAP1 POP PUSH2 0x13AF PUSH1 0x0 DUP4 ADD DUP5 PUSH2 0x138B JUMP JUMPDEST SWAP3 SWAP2 POP POP JUMP JUMPDEST PUSH1 0x0 DUP1 REVERT JUMPDEST PUSH1 0x0 DUP1 REVERT JUMPDEST PUSH1 0x0 DUP1 REVERT JUMPDEST PUSH1 0x0 DUP1 DUP4 PUSH1 0x1F DUP5 ADD SLT PUSH2 0x13DA JUMPI PUSH2 0x13D9 PUSH2 0x13B5 JUMP JUMPDEST JUMPDEST DUP3 CALLDATALOAD SWAP1 POP PUSH8 0xFFFFFFFFFFFFFFFF DUP2 GT ISZERO PUSH2 0x13F7 JUMPI PUSH2 0x13F6 PUSH2 0x13BA JUMP JUMPDEST JUMPDEST PUSH1 0x20 DUP4 ADD SWAP2 POP DUP4 PUSH1 0x1 DUP3 MUL DUP4 ADD GT ISZERO PUSH2 0x1413 JUMPI PUSH2 0x1412 PUSH2 0x13BF JUMP JUMPDEST JUMPDEST SWAP3 POP SWAP3 SWAP1 POP JUMP JUMPDEST PUSH1 0x0 DUP1 PUSH1 0x0 DUP1 PUSH1 0x40 DUP6 DUP8 SUB SLT ISZERO PUSH2 0x1434 JUMPI PUSH2 0x1433 PUSH2 0x111C JUMP JUMPDEST JUMPDEST PUSH1 0x0 DUP6 ADD CALLDATALOAD PUSH8 0xFFFFFFFFFFFFFFFF DUP2 GT ISZERO PUSH2 0x1452 JUMPI PUSH2 0x1451 PUSH2 0x1121 JUMP JUMPDEST JUMPDEST PUSH2 0x145E DUP8 DUP3 DUP9 ADD PUSH2 0x13C4 JUMP JUMPDEST SWAP5 POP SWAP5 POP POP PUSH1 0x20 DUP6 ADD CALLDATALOAD PUSH8 0xFFFFFFFFFFFFFFFF DUP2 GT ISZERO PUSH2 0x1481 JUMPI PUSH2 0x1480 PUSH2 0x1121 JUMP JUMPDEST JUMPDEST PUSH2 0x148D DUP8 DUP3 DUP9 ADD PUSH2 0x13C4 JUMP JUMPDEST SWAP3 POP SWAP3 POP POP SWAP3 SWAP6 SWAP2 SWAP5 POP SWAP3 POP JUMP JUMPDEST PUSH1 0x0 DUP1 REVERT JUMPDEST PUSH1 0x0 PUSH1 0xE0 DUP3 DUP5 SUB SLT ISZERO PUSH2 0x14B6 JUMPI PUSH2 0x14B5 PUSH2 0x149B JUMP JUMPDEST JUMPDEST DUP2 SWAP1 POP SWAP3 SWAP2 POP POP JUMP JUMPDEST PUSH1 0x0 DUP1 DUP4 PUSH1 0x1F DUP5 ADD SLT PUSH2 0x14D5 JUMPI PUSH2 0x14D4 PUSH2 0x13B5 JUMP JUMPDEST JUMPDEST DUP3 CALLDATALOAD SWAP1 POP PUSH8 0xFFFFFFFFFFFFFFFF DUP2 GT ISZERO PUSH2 0x14F2 JUMPI PUSH2 0x14F1 PUSH2 0x13BA JUMP JUMPDEST JUMPDEST PUSH1 0x20 DUP4 ADD SWAP2 POP DUP4 PUSH1 0x1 DUP3 MUL DUP4 ADD GT ISZERO PUSH2 0x150E JUMPI PUSH2 0x150D PUSH2 0x13BF JUMP JUMPDEST JUMPDEST SWAP3 POP SWAP3 SWAP1 POP JUMP JUMPDEST PUSH1 0x0 DUP1 PUSH1 0x0 DUP1 PUSH1 0x0 DUP1 PUSH1 0x0 PUSH1 0xA0 DUP9 DUP11 SUB SLT ISZERO PUSH2 0x1534 JUMPI PUSH2 0x1533 PUSH2 0x111C JUMP JUMPDEST JUMPDEST PUSH1 0x0 DUP9 ADD CALLDATALOAD PUSH8 0xFFFFFFFFFFFFFFFF DUP2 GT ISZERO PUSH2 0x1552 JUMPI PUSH2 0x1551 PUSH2 0x1121 JUMP JUMPDEST JUMPDEST PUSH2 0x155E DUP11 DUP3 DUP12 ADD PUSH2 0x14A0 JUMP JUMPDEST SWAP8 POP POP PUSH1 0x20 PUSH2 0x156F DUP11 DUP3 DUP12 ADD PUSH2 0x12B4 JUMP JUMPDEST SWAP7 POP POP PUSH1 0x40 PUSH2 0x1580 DUP11 DUP3 DUP12 ADD PUSH2 0x12B4 JUMP JUMPDEST SWAP6 POP POP PUSH1 0x60 DUP9 ADD CALLDATALOAD PUSH8 0xFFFFFFFFFFFFFFFF DUP2 GT ISZERO PUSH2 0x15A1 JUMPI PUSH2 0x15A0 PUSH2 0x1121 JUMP JUMPDEST JUMPDEST PUSH2 0x15AD DUP11 DUP3 DUP12 ADD PUSH2 0x14BF JUMP JUMPDEST SWAP5 POP SWAP5 POP POP PUSH1 0x80 DUP9 ADD CALLDATALOAD PUSH8 0xFFFFFFFFFFFFFFFF DUP2 GT ISZERO PUSH2 0x15D0 JUMPI PUSH2 0x15CF PUSH2 0x1121 JUMP JUMPDEST JUMPDEST PUSH2 0x15DC DUP11 DUP3 DUP12 ADD PUSH2 0x14BF JUMP JUMPDEST SWAP3 POP SWAP3 POP POP SWAP3 SWAP6 SWAP9 SWAP2 SWAP5 SWAP8 POP SWAP3 SWAP6 POP JUMP JUMPDEST PUSH1 0x0 DUP2 MLOAD SWAP1 POP SWAP2 SWAP1 POP JUMP JUMPDEST PUSH1 0x0 DUP3 DUP3 MSTORE PUSH1 0x20 DUP3 ADD SWAP1 POP SWAP3 SWAP2 POP POP JUMP JUMPDEST PUSH1 0x0 PUSH2 0x1614 DUP3 PUSH2 0x15ED JUMP JUMPDEST PUSH2 0x161E DUP2 DUP6 PUSH2 0x15F8 JUMP JUMPDEST SWAP4 POP PUSH2 0x162E DUP2 DUP6 PUSH1 0x20 DUP7 ADD PUSH2 0x11FD JUMP JUMPDEST PUSH2 0x1637 DUP2 PUSH2 0x1227 JUMP JUMPDEST DUP5 ADD SWAP2 POP POP SWAP3 SWAP2 POP POP JUMP JUMPDEST PUSH1 0x0 PUSH1 0x40 DUP3 ADD SWAP1 POP PUSH2 0x1657 PUSH1 0x0 DUP4 ADD DUP6 PUSH2 0x11B7 JUMP JUMPDEST DUP2 DUP2 SUB PUSH1 0x20 DUP4 ADD MSTORE PUSH2 0x1669 DUP2 DUP5 PUSH2 0x1609 JUMP JUMPDEST SWAP1 POP SWAP4 SWAP3 POP POP POP JUMP JUMPDEST PUSH1 0x0 DUP1 PUSH1 0x0 DUP1 PUSH1 0x60 DUP6 DUP8 SUB SLT ISZERO PUSH2 0x168C JUMPI PUSH2 0x168B PUSH2 0x111C JUMP JUMPDEST JUMPDEST PUSH1 0x0 DUP6 ADD CALLDATALOAD PUSH8 0xFFFFFFFFFFFFFFFF DUP2 GT ISZERO PUSH2 0x16AA JUMPI PUSH2 0x16A9 PUSH2 0x1121 JUMP JUMPDEST JUMPDEST PUSH2 0x16B6 DUP8 DUP3 DUP9 ADD PUSH2 0x14A0 JUMP JUMPDEST SWAP5 POP POP PUSH1 0x20 PUSH2 0x16C7 DUP8 DUP3 DUP9 ADD PUSH2 0x12B4 JUMP JUMPDEST SWAP4 POP POP PUSH1 0x40 DUP6 ADD CALLDATALOAD PUSH8 0xFFFFFFFFFFFFFFFF DUP2 GT ISZERO PUSH2 0x16E8 JUMPI PUSH2 0x16E7 PUSH2 0x1121 JUMP JUMPDEST JUMPDEST PUSH2 0x16F4 DUP8 DUP3 DUP9 ADD PUSH2 0x14BF JUMP JUMPDEST SWAP3 POP SWAP3 POP POP SWAP3 SWAP6 SWAP2 SWAP5 POP SWAP3 POP JUMP JUMPDEST PUSH1 0x0 PUSH1 0x20 DUP3 ADD SWAP1 POP DUP2 DUP2 SUB PUSH1 0x0 DUP4 ADD MSTORE PUSH2 0x171C DUP2 DUP5 PUSH2 0x1609 JUMP JUMPDEST SWAP1 POP SWAP3 SWAP2 POP POP JUMP JUMPDEST PUSH1 0x0 DUP2 SWAP1 POP SWAP3 SWAP2 POP POP JUMP JUMPDEST DUP3 DUP2 DUP4 CALLDATACOPY PUSH1 0x0 DUP4 DUP4 ADD MSTORE POP POP POP JUMP JUMPDEST PUSH1 0x0 PUSH2 0x174A DUP4 DUP6 PUSH2 0x1724 JUMP JUMPDEST SWAP4 POP PUSH2 0x1757 DUP4 DUP6 DUP5 PUSH2 0x172F JUMP JUMPDEST DUP3 DUP5 ADD SWAP1 POP SWAP4 SWAP3 POP POP POP JUMP JUMPDEST PUSH1 0x0 PUSH2 0x1770 DUP3 DUP5 DUP7 PUSH2 0x173E JUMP JUMPDEST SWAP2 POP DUP2 SWAP1 POP SWAP4 SWAP3 POP POP POP JUMP JUMPDEST PUSH2 0x1785 DUP2 PUSH2 0x1293 JUMP JUMPDEST DUP3 MSTORE POP POP JUMP JUMPDEST PUSH2 0x1794 DUP2 PUSH2 0x1316 JUMP JUMPDEST DUP3 MSTORE POP POP JUMP JUMPDEST PUSH1 0x0 PUSH1 0xA0 DUP3 ADD SWAP1 POP PUSH2 0x17AF PUSH1 0x0 DUP4 ADD DUP9 PUSH2 0x177C JUMP JUMPDEST PUSH2 0x17BC PUSH1 0x20 DUP4 ADD DUP8 PUSH2 0x177C JUMP JUMPDEST PUSH2 0x17C9 PUSH1 0x40 DUP4 ADD DUP7 PUSH2 0x177C JUMP JUMPDEST PUSH2 0x17D6 PUSH1 0x60 DUP4 ADD DUP6 PUSH2 0x138B JUMP JUMPDEST PUSH2 0x17E3 PUSH1 0x80 DUP4 ADD DUP5 PUSH2 0x178B JUMP JUMPDEST SWAP7 SWAP6 POP POP POP POP POP POP JUMP JUMPDEST PUSH32 0x4E487B7100000000000000000000000000000000000000000000000000000000 PUSH1 0x0 MSTORE PUSH1 0x32 PUSH1 0x4 MSTORE PUSH1 0x24 PUSH1 0x0 REVERT JUMPDEST PUSH32 0x4657443A20696E76616C696420747970656E616D650000000000000000000000 PUSH1 0x0 DUP3 ADD MSTORE POP JUMP JUMPDEST PUSH1 0x0 PUSH2 0x1852 PUSH1 0x15 DUP4 PUSH2 0x11EC JUMP JUMPDEST SWAP2 POP PUSH2 0x185D DUP3 PUSH2 0x181C JUMP JUMPDEST PUSH1 0x20 DUP3 ADD SWAP1 POP SWAP2 SWAP1 POP JUMP JUMPDEST PUSH1 0x0 PUSH1 0x20 DUP3 ADD SWAP1 POP DUP2 DUP2 SUB PUSH1 0x0 DUP4 ADD MSTORE PUSH2 0x1881 DUP2 PUSH2 0x1845 JUMP JUMPDEST SWAP1 POP SWAP2 SWAP1 POP JUMP JUMPDEST PUSH32 0x4E487B7100000000000000000000000000000000000000000000000000000000 PUSH1 0x0 MSTORE PUSH1 0x11 PUSH1 0x4 MSTORE PUSH1 0x24 PUSH1 0x0 REVERT JUMPDEST PUSH1 0x0 PUSH2 0x18C2 DUP3 PUSH2 0x1381 JUMP JUMPDEST SWAP2 POP PUSH32 0xFFFFFFFFFFFFFFFFFFFFFFFFFFFFFFFFFFFFFFFFFFFFFFFFFFFFFFFFFFFFFFFF DUP3 SUB PUSH2 0x18F4 JUMPI PUSH2 0x18F3 PUSH2 0x1888 JUMP JUMPDEST JUMPDEST PUSH1 0x1 DUP3 ADD SWAP1 POP SWAP2 SWAP1 POP JUMP JUMPDEST PUSH1 0x0 DUP2 SWAP1 POP SWAP3 SWAP2 POP POP JUMP JUMPDEST PUSH1 0x0 PUSH2 0x1916 DUP4 DUP6 PUSH2 0x18FF JUMP JUMPDEST SWAP4 POP PUSH2 0x1923 DUP4 DUP6 DUP5 PUSH2 0x172F JUMP JUMPDEST DUP3 DUP5 ADD SWAP1 POP SWAP4 SWAP3 POP POP POP JUMP JUMPDEST PUSH32 0x2800000000000000000000000000000000000000000000000000000000000000 PUSH1 0x0 DUP3 ADD MSTORE POP JUMP JUMPDEST PUSH1 0x0 PUSH2 0x1965 PUSH1 0x1 DUP4 PUSH2 0x18FF JUMP JUMPDEST SWAP2 POP PUSH2 0x1970 DUP3 PUSH2 0x192F JUMP JUMPDEST PUSH1 0x1 DUP3 ADD SWAP1 POP SWAP2 SWAP1 POP JUMP JUMPDEST PUSH1 0x0 PUSH2 0x1986 DUP3 PUSH2 0x11E1 JUMP JUMPDEST PUSH2 0x1990 DUP2 DUP6 PUSH2 0x18FF JUMP JUMPDEST SWAP4 POP PUSH2 0x19A0 DUP2 DUP6 PUSH1 0x20 DUP7 ADD PUSH2 0x11FD JUMP JUMPDEST DUP1 DUP5 ADD SWAP2 POP POP SWAP3 SWAP2 POP POP JUMP JUMPDEST PUSH32 0x2C00000000000000000000000000000000000000000000000000000000000000 PUSH1 0x0 DUP3 ADD MSTORE POP JUMP JUMPDEST PUSH1 0x0 PUSH2 0x19E2 PUSH1 0x1 DUP4 PUSH2 0x18FF JUMP JUMPDEST SWAP2 POP PUSH2 0x19ED DUP3 PUSH2 0x19AC JUMP JUMPDEST PUSH1 0x1 DUP3 ADD SWAP1 POP SWAP2 SWAP1 POP JUMP JUMPDEST PUSH1 0x0 PUSH2 0x1A05 DUP3 DUP8 DUP10 PUSH2 0x190A JUMP JUMPDEST SWAP2 POP PUSH2 0x1A10 DUP3 PUSH2 0x1958 JUMP JUMPDEST SWAP2 POP PUSH2 0x1A1C DUP3 DUP7 PUSH2 0x197B JUMP JUMPDEST SWAP2 POP PUSH2 0x1A27 DUP3 PUSH2 0x19D5 JUMP JUMPDEST SWAP2 POP PUSH2 0x1A34 DUP3 DUP5 DUP7 PUSH2 0x190A JUMP JUMPDEST SWAP2 POP DUP2 SWAP1 POP SWAP7 SWAP6 POP POP POP POP POP POP JUMP JUMPDEST PUSH32 0x4657443A20726571756573742065787069726564000000000000000000000000 PUSH1 0x0 DUP3 ADD MSTORE POP JUMP JUMPDEST PUSH1 0x0 PUSH2 0x1A79 PUSH1 0x14 DUP4 PUSH2 0x11EC JUMP JUMPDEST SWAP2 POP PUSH2 0x1A84 DUP3 PUSH2 0x1A43 JUMP JUMPDEST PUSH1 0x20 DUP3 ADD SWAP1 POP SWAP2 SWAP1 POP JUMP JUMPDEST PUSH1 0x0 PUSH1 0x20 DUP3 ADD SWAP1 POP DUP2 DUP2 SUB PUSH1 0x0 DUP4 ADD MSTORE PUSH2 0x1AA8 DUP2 PUSH2 0x1A6C JUMP JUMPDEST SWAP1 POP SWAP2 SWAP1 POP JUMP JUMPDEST PUSH1 0x0 DUP1 REVERT JUMPDEST PUSH1 0x0 DUP1 REVERT JUMPDEST PUSH1 0x0 DUP1 REVERT JUMPDEST PUSH1 0x0 DUP1 DUP4 CALLDATALOAD PUSH1 0x1 PUSH1 0x20 SUB DUP5 CALLDATASIZE SUB SUB DUP2 SLT PUSH2 0x1ADB JUMPI PUSH2 0x1ADA PUSH2 0x1AAF JUMP JUMPDEST JUMPDEST DUP1 DUP5 ADD SWAP3 POP DUP3 CALLDATALOAD SWAP2 POP PUSH8 0xFFFFFFFFFFFFFFFF DUP3 GT ISZERO PUSH2 0x1AFD JUMPI PUSH2 0x1AFC PUSH2 0x1AB4 JUMP JUMPDEST JUMPDEST PUSH1 0x20 DUP4 ADD SWAP3 POP PUSH1 0x1 DUP3 MUL CALLDATASIZE SUB DUP4 SGT ISZERO PUSH2 0x1B19 JUMPI PUSH2 0x1B18 PUSH2 0x1AB9 JUMP JUMPDEST JUMPDEST POP SWAP3 POP SWAP3 SWAP1 POP JUMP JUMPDEST PUSH1 0x0 DUP2 PUSH1 0x60 SHL SWAP1 POP SWAP2 SWAP1 POP JUMP JUMPDEST PUSH1 0x0 PUSH2 0x1B39 DUP3 PUSH2 0x1B21 JUMP JUMPDEST SWAP1 POP SWAP2 SWAP1 POP JUMP JUMPDEST PUSH1 0x0 PUSH2 0x1B4B DUP3 PUSH2 0x1B2E JUMP JUMPDEST SWAP1 POP SWAP2 SWAP1 POP JUMP JUMPDEST PUSH2 0x1B63 PUSH2 0x1B5E DUP3 PUSH2 0x1316 JUMP JUMPDEST PUSH2 0x1B40 JUMP JUMPDEST DUP3 MSTORE POP POP JUMP JUMPDEST PUSH1 0x0 PUSH2 0x1B76 DUP3 DUP6 DUP8 PUSH2 0x173E JUMP JUMPDEST SWAP2 POP PUSH2 0x1B82 DUP3 DUP5 PUSH2 0x1B52 JUMP JUMPDEST PUSH1 0x14 DUP3 ADD SWAP2 POP DUP2 SWAP1 POP SWAP5 SWAP4 POP POP POP POP JUMP JUMPDEST PUSH1 0x0 PUSH2 0x1B9E DUP3 PUSH2 0x1381 JUMP JUMPDEST SWAP2 POP PUSH2 0x1BA9 DUP4 PUSH2 0x1381 JUMP JUMPDEST SWAP3 POP DUP3 DUP3 ADD SWAP1 POP DUP1 DUP3 GT ISZERO PUSH2 0x1BC1 JUMPI PUSH2 0x1BC0 PUSH2 0x1888 JUMP JUMPDEST JUMPDEST SWAP3 SWAP2 POP POP JUMP JUMPDEST PUSH1 0x0 PUSH2 0x1BD2 DUP3 PUSH2 0x1381 JUMP JUMPDEST SWAP2 POP PUSH2 0x1BDD DUP4 PUSH2 0x1381 JUMP JUMPDEST SWAP3 POP DUP3 DUP3 MUL PUSH2 0x1BEB DUP2 PUSH2 0x1381 JUMP JUMPDEST SWAP2 POP DUP3 DUP3 DIV DUP5 EQ DUP4 ISZERO OR PUSH2 0x1C02 JUMPI PUSH2 0x1C01 PUSH2 0x1888 JUMP JUMPDEST JUMPDEST POP SWAP3 SWAP2 POP POP JUMP JUMPDEST PUSH32 0x4E487B7100000000000000000000000000000000000000000000000000000000 PUSH1 0x0 MSTORE PUSH1 0x12 PUSH1 0x4 MSTORE PUSH1 0x24 PUSH1 0x0 REVERT JUMPDEST PUSH1 0x0 PUSH2 0x1C43 DUP3 PUSH2 0x1381 JUMP JUMPDEST SWAP2 POP PUSH2 0x1C4E DUP4 PUSH2 0x1381 JUMP JUMPDEST SWAP3 POP DUP3 PUSH2 0x1C5E JUMPI PUSH2 0x1C5D PUSH2 0x1C09 JUMP JUMPDEST JUMPDEST DUP3 DUP3 DIV SWAP1 POP SWAP3 SWAP2 POP POP JUMP JUMPDEST PUSH32 0x4657443A20696E73756666696369656E74206761730000000000000000000000 PUSH1 0x0 DUP3 ADD MSTORE POP JUMP JUMPDEST PUSH1 0x0 PUSH2 0x1C9F PUSH1 0x15 DUP4 PUSH2 0x11EC JUMP JUMPDEST SWAP2 POP PUSH2 0x1CAA DUP3 PUSH2 0x1C69 JUMP JUMPDEST PUSH1 0x20 DUP3 ADD SWAP1 POP SWAP2 SWAP1 POP JUMP JUMPDEST PUSH1 0x0 PUSH1 0x20 DUP3 ADD SWAP1 POP DUP2 DUP2 SUB PUSH1 0x0 DUP4 ADD MSTORE PUSH2 0x1CCE DUP2 PUSH2 0x1C92 JUMP JUMPDEST SWAP1 POP SWAP2 SWAP1 POP JUMP JUMPDEST PUSH1 0x0 PUSH2 0x1CE0 DUP3 PUSH2 0x15ED JUMP JUMPDEST PUSH2 0x1CEA DUP2 DUP6 PUSH2 0x1724 JUMP JUMPDEST SWAP4 POP PUSH2 0x1CFA DUP2 DUP6 PUSH1 0x20 DUP7 ADD PUSH2 0x11FD JUMP JUMPDEST DUP1 DUP5 ADD SWAP2 POP POP SWAP3 SWAP2 POP POP JUMP JUMPDEST PUSH1 0x0 PUSH2 0x1D12 DUP3 DUP5 PUSH2 0x1CD5 JUMP JUMPDEST SWAP2 POP DUP2 SWAP1 POP SWAP3 SWAP2 POP POP JUMP JUMPDEST PUSH1 0x0 DUP2 SWAP1 POP SWAP2 SWAP1 POP JUMP JUMPDEST PUSH2 0x1D38 PUSH2 0x1D33 DUP3 PUSH2 0x1293 JUMP JUMPDEST PUSH2 0x1D1D JUMP JUMPDEST DUP3 MSTORE POP POP JUMP JUMPDEST PUSH1 0x0 DUP2 SWAP1 POP SWAP2 SWAP1 POP JUMP JUMPDEST PUSH2 0x1D59 PUSH2 0x1D54 DUP3 PUSH2 0x1381 JUMP JUMPDEST PUSH2 0x1D3E JUMP JUMPDEST DUP3 MSTORE POP POP JUMP JUMPDEST PUSH1 0x0 PUSH2 0x1D6B DUP3 DUP14 PUSH2 0x1D27 JUMP JUMPDEST PUSH1 0x20 DUP3 ADD SWAP2 POP PUSH2 0x1D7B DUP3 DUP13 PUSH2 0x1D48 JUMP JUMPDEST PUSH1 0x20 DUP3 ADD SWAP2 POP PUSH2 0x1D8B DUP3 DUP12 PUSH2 0x1D48 JUMP JUMPDEST PUSH1 0x20 DUP3 ADD SWAP2 POP PUSH2 0x1D9B DUP3 DUP11 PUSH2 0x1D48 JUMP JUMPDEST PUSH1 0x20 DUP3 ADD SWAP2 POP PUSH2 0x1DAB DUP3 DUP10 PUSH2 0x1D48 JUMP JUMPDEST PUSH1 0x20 DUP3 ADD SWAP2 POP PUSH2 0x1DBB DUP3 DUP9 PUSH2 0x1D48 JUMP JUMPDEST PUSH1 0x20 DUP3 ADD SWAP2 POP PUSH2 0x1DCB DUP3 DUP8 PUSH2 0x1D27 JUMP JUMPDEST PUSH1 0x20 DUP3 ADD SWAP2 POP PUSH2 0x1DDB DUP3 DUP7 PUSH2 0x1D48 JUMP JUMPDEST PUSH1 0x20 DUP3 ADD SWAP2 POP PUSH2 0x1DEC DUP3 DUP5 DUP7 PUSH2 0x173E JUMP JUMPDEST SWAP2 POP DUP2 SWAP1 POP SWAP12 SWAP11 POP POP POP POP POP POP POP POP POP POP POP JUMP JUMPDEST PUSH32 0x4657443A206E6F6E6365206D69736D6174636800000000000000000000000000 PUSH1 0x0 DUP3 ADD MSTORE POP JUMP JUMPDEST PUSH1 0x0 PUSH2 0x1E36 PUSH1 0x13 DUP4 PUSH2 0x11EC JUMP JUMPDEST SWAP2 POP PUSH2 0x1E41 DUP3 PUSH2 0x1E00 JUMP JUMPDEST PUSH1 0x20 DUP3 ADD SWAP1 POP SWAP2 SWAP1 POP JUMP JUMPDEST PUSH1 0x0 PUSH1 0x20 DUP3 ADD SWAP1 POP DUP2 DUP2 SUB PUSH1 0x0 DUP4 ADD MSTORE PUSH2 0x1E65 DUP2 PUSH2 0x1E29 JUMP JUMPDEST SWAP1 POP SWAP2 SWAP1 POP JUMP JUMPDEST PUSH32 0x4657443A20756E7265676973746572656420646F6D61696E207365702E000000 PUSH1 0x0 DUP3 ADD MSTORE POP JUMP JUMPDEST PUSH1 0x0 PUSH2 0x1EA2 PUSH1 0x1D DUP4 PUSH2 0x11EC JUMP JUMPDEST SWAP2 POP PUSH2 0x1EAD DUP3 PUSH2 0x1E6C JUMP JUMPDEST PUSH1 0x20 DUP3 ADD SWAP1 POP SWAP2 SWAP1 POP JUMP JUMPDEST PUSH1 0x0 PUSH1 0x20 DUP3 ADD SWAP1 POP DUP2 DUP2 SUB PUSH1 0x0 DUP4 ADD MSTORE PUSH2 0x1ED1 DUP2 PUSH2 0x1E95 JUMP JUMPDEST SWAP1 POP SWAP2 SWAP1 POP JUMP JUMPDEST PUSH32 0x4657443A20756E72656769737465726564207479706568617368000000000000 PUSH1 0x0 DUP3 ADD MSTORE POP JUMP JUMPDEST PUSH1 0x0 PUSH2 0x1F0E PUSH1 0x1A DUP4 PUSH2 0x11EC JUMP JUMPDEST SWAP2 POP PUSH2 0x1F19 DUP3 PUSH2 0x1ED8 JUMP JUMPDEST PUSH1 0x20 DUP3 ADD SWAP1 POP SWAP2 SWAP1 POP JUMP JUMPDEST PUSH1 0x0 PUSH1 0x20 DUP3 ADD SWAP1 POP DUP2 DUP2 SUB PUSH1 0x0 DUP4 ADD MSTORE PUSH2 0x1F3D DUP2 PUSH2 0x1F01 JUMP JUMPDEST SWAP1 POP SWAP2 SWAP1 POP JUMP JUMPDEST PUSH32 0x1901000000000000000000000000000000000000000000000000000000000000 PUSH1 0x0 DUP3 ADD MSTORE POP JUMP JUMPDEST PUSH1 0x0 PUSH2 0x1F7A PUSH1 0x2 DUP4 PUSH2 0x18FF JUMP JUMPDEST SWAP2 POP PUSH2 0x1F85 DUP3 PUSH2 0x1F44 JUMP JUMPDEST PUSH1 0x2 DUP3 ADD SWAP1 POP SWAP2 SWAP1 POP JUMP JUMPDEST PUSH1 0x0 PUSH2 0x1F9B DUP3 PUSH2 0x1F6D JUMP JUMPDEST SWAP2 POP PUSH2 0x1FA7 DUP3 DUP6 PUSH2 0x1D27 JUMP JUMPDEST PUSH1 0x20 DUP3 ADD SWAP2 POP PUSH2 0x1FB7 DUP3 DUP5 PUSH2 0x1D27 JUMP JUMPDEST PUSH1 0x20 DUP3 ADD SWAP2 POP DUP2 SWAP1 POP SWAP4 SWAP3 POP POP POP JUMP JUMPDEST PUSH32 0x4657443A207369676E6174757265206D69736D61746368000000000000000000 PUSH1 0x0 DUP3 ADD MSTORE POP JUMP JUMPDEST PUSH1 0x0 PUSH2 0x1FFD PUSH1 0x17 DUP4 PUSH2 0x11EC JUMP JUMPDEST SWAP2 POP PUSH2 0x2008 DUP3 PUSH2 0x1FC7 JUMP JUMPDEST PUSH1 0x20 DUP3 ADD SWAP1 POP SWAP2 SWAP1 POP JUMP JUMPDEST PUSH1 0x0 PUSH1 0x20 DUP3 ADD SWAP1 POP DUP2 DUP2 SUB PUSH1 0x0 DUP4 ADD MSTORE PUSH2 0x202C DUP2 PUSH2 0x1FF0 JUMP JUMPDEST SWAP1 POP SWAP2 SWAP1 POP JUMP JUMPDEST PUSH32 0x4E487B7100000000000000000000000000000000000000000000000000000000 PUSH1 0x0 MSTORE PUSH1 0x21 PUSH1 0x4 MSTORE PUSH1 0x24 PUSH1 0x0 REVERT JUMPDEST PUSH32 0x45434453413A20696E76616C6964207369676E61747572650000000000000000 PUSH1 0x0 DUP3 ADD MSTORE POP JUMP JUMPDEST PUSH1 0x0 PUSH2 0x2098 PUSH1 0x18 DUP4 PUSH2 0x11EC JUMP JUMPDEST SWAP2 POP PUSH2 0x20A3 DUP3 PUSH2 0x2062 JUMP JUMPDEST PUSH1 0x20 DUP3 ADD SWAP1 POP SWAP2 SWAP1 POP JUMP JUMPDEST PUSH1 0x0 PUSH1 0x20 DUP3 ADD SWAP1 POP DUP2 DUP2 SUB PUSH1 0x0 DUP4 ADD MSTORE PUSH2 0x20C7 DUP2 PUSH2 0x208B JUMP JUMPDEST SWAP1 POP SWAP2 SWAP1 POP JUMP JUMPDEST PUSH32 0x45434453413A20696E76616C6964207369676E6174757265206C656E67746800 PUSH1 0x0 DUP3 ADD MSTORE POP JUMP JUMPDEST PUSH1 0x0 PUSH2 0x2104 PUSH1 0x1F DUP4 PUSH2 0x11EC JUMP JUMPDEST SWAP2 POP PUSH2 0x210F DUP3 PUSH2 0x20CE JUMP JUMPDEST PUSH1 0x20 DUP3 ADD SWAP1 POP SWAP2 SWAP1 POP JUMP JUMPDEST PUSH1 0x0 PUSH1 0x20 DUP3 ADD SWAP1 POP DUP2 DUP2 SUB PUSH1 0x0 DUP4 ADD MSTORE PUSH2 0x2133 DUP2 PUSH2 0x20F7 JUMP JUMPDEST SWAP1 POP SWAP2 SWAP1 POP JUMP JUMPDEST PUSH32 0x45434453413A20696E76616C6964207369676E6174757265202773272076616C PUSH1 0x0 DUP3 ADD MSTORE PUSH32 0x7565000000000000000000000000000000000000000000000000000000000000 PUSH1 0x20 DUP3 ADD MSTORE POP JUMP JUMPDEST PUSH1 0x0 PUSH2 0x2196 PUSH1 0x22 DUP4 PUSH2 0x11EC JUMP JUMPDEST SWAP2 POP PUSH2 0x21A1 DUP3 PUSH2 0x213A JUMP JUMPDEST PUSH1 0x40 DUP3 ADD SWAP1 POP SWAP2 SWAP1 POP JUMP JUMPDEST PUSH1 0x0 PUSH1 0x20 DUP3 ADD SWAP1 POP DUP2 DUP2 SUB PUSH1 0x0 DUP4 ADD MSTORE PUSH2 0x21C5 DUP2 PUSH2 0x2189 JUMP JUMPDEST SWAP1 POP SWAP2 SWAP1 POP JUMP JUMPDEST PUSH32 0x45434453413A20696E76616C6964207369676E6174757265202776272076616C PUSH1 0x0 DUP3 ADD MSTORE PUSH32 0x7565000000000000000000000000000000000000000000000000000000000000 PUSH1 0x20 DUP3 ADD MSTORE POP JUMP JUMPDEST PUSH1 0x0 PUSH2 0x2228 PUSH1 0x22 DUP4 PUSH2 0x11EC JUMP JUMPDEST SWAP2 POP PUSH2 0x2233 DUP3 PUSH2 0x21CC JUMP JUMPDEST PUSH1 0x40 DUP3 ADD SWAP1 POP SWAP2 SWAP1 POP JUMP JUMPDEST PUSH1 0x0 PUSH1 0x20 DUP3 ADD SWAP1 POP DUP2 DUP2 SUB PUSH1 0x0 DUP4 ADD MSTORE PUSH2 0x2257 DUP2 PUSH2 0x221B JUMP JUMPDEST SWAP1 POP SWAP2 SWAP1 POP JUMP JUMPDEST PUSH1 0x0 PUSH1 0xFF DUP3 AND SWAP1 POP SWAP2 SWAP1 POP JUMP JUMPDEST PUSH2 0x2274 DUP2 PUSH2 0x225E JUMP JUMPDEST DUP3 MSTORE POP POP JUMP JUMPDEST PUSH1 0x0 PUSH1 0x80 DUP3 ADD SWAP1 POP PUSH2 0x228F PUSH1 0x0 DUP4 ADD DUP8 PUSH2 0x177C JUMP JUMPDEST PUSH2 0x229C PUSH1 0x20 DUP4 ADD DUP7 PUSH2 0x226B JUMP JUMPDEST PUSH2 0x22A9 PUSH1 0x40 DUP4 ADD DUP6 PUSH2 0x177C JUMP JUMPDEST PUSH2 0x22B6 PUSH1 0x60 DUP4 ADD DUP5 PUSH2 0x177C JUMP JUMPDEST SWAP6 SWAP5 POP POP POP POP POP JUMP INVALID PUSH2 0x6464 PUSH19 0x6573732066726F6D2C6164647265737320746F 0x2C PUSH22 0x696E743235362076616C75652C75696E743235362067 PUSH2 0x732C PUSH22 0x696E74323536206E6F6E63652C627974657320646174 PUSH2 0x2C75 PUSH10 0x6E743235362076616C69 PUSH5 0x556E74696C SLOAD PUSH10 0x6D65454950373132446F PUSH14 0x61696E28737472696E67206E616D PUSH6 0x2C737472696E PUSH8 0x2076657273696F6E 0x2C PUSH22 0x696E7432353620636861696E49642C61646472657373 KECCAK256 PUSH23 0x6572696679696E67436F6E747261637429A26469706673 PC 0x22 SLT KECCAK256 SWAP15 0xC8 0xE8 0xD9 0xB1 JUMP 0x28 0xAE SHR 0xB5 GAS 0xAE PUSH8 0x9789128DE574AC50 0xC2 0x4D 0xBC GAS SWAP1 0xEC 0xDF PUSH23 0x58D64736F6C63430008110033616464726573732066 PUSH19 0x6F6D2C6164647265737320746F2C75696E7432 CALLDATALOAD CALLDATASIZE KECCAK256 PUSH23 0x616C75652C75696E74323536206761732C75696E743235 CALLDATASIZE KECCAK256 PUSH15 0x6F6E63652C62797465732064617461 0x2C PUSH22 0x696E743235362076616C6964556E74696C54696D6500 "
				},
				"gasEstimates": {
					"creation": {
						"codeDepositCost": "1825600",
						"executionCost": "infinite",
						"totalCost": "infinite"
					},
					"external": {
						"EIP712_DOMAIN_TYPE()": "infinite",
						"GENERIC_PARAMS()": "infinite",
						"_getEncoded((address,address,uint256,uint256,uint256,bytes,uint256),bytes32,bytes)": "infinite",
						"domains(bytes32)": "2840",
						"execute((address,address,uint256,uint256,uint256,bytes,uint256),bytes32,bytes32,bytes,bytes)": "infinite",
						"getNonce(address)": "2908",
						"registerDomainSeparator(string,string)": "infinite",
						"registerRequestType(string,string)": "infinite",
						"supportsInterface(bytes4)": "728",
						"typeHashes(bytes32)": "2841",
						"verify((address,address,uint256,uint256,uint256,bytes,uint256),bytes32,bytes32,bytes,bytes)": "infinite"
					},
					"internal": {
						"_verifyAndUpdateNonce(struct IForwarder.ForwardRequest calldata)": "infinite",
						"_verifyNonce(struct IForwarder.ForwardRequest calldata)": "infinite",
						"_verifySig(struct IForwarder.ForwardRequest calldata,bytes32,bytes32,bytes calldata,bytes calldata)": "infinite",
						"registerRequestTypeInternal(string memory)": "infinite"
					}
				},
				"methodIdentifiers": {
					"EIP712_DOMAIN_TYPE()": "c3f28abd",
					"GENERIC_PARAMS()": "066a310c",
					"_getEncoded((address,address,uint256,uint256,uint256,bytes,uint256),bytes32,bytes)": "e2b62f2d",
					"domains(bytes32)": "c722f177",
					"execute((address,address,uint256,uint256,uint256,bytes,uint256),bytes32,bytes32,bytes,bytes)": "e024dc7f",
					"getNonce(address)": "2d0335ab",
					"registerDomainSeparator(string,string)": "9c7b4592",
					"registerRequestType(string,string)": "d9210be5",
					"supportsInterface(bytes4)": "01ffc9a7",
					"typeHashes(bytes32)": "21fe98df",
					"verify((address,address,uint256,uint256,uint256,bytes,uint256),bytes32,bytes32,bytes,bytes)": "ad9f99c7"
				}
			},
			"storageLayout": {
				"storage": [
					{
						"astId": 679,
						"contract": "contracts/Forwarder.sol:Forwarder",
						"label": "typeHashes",
						"offset": 0,
						"slot": "0",
						"type": "t_mapping(t_bytes32,t_bool)"
					},
					{
						"astId": 683,
						"contract": "contracts/Forwarder.sol:Forwarder",
						"label": "domains",
						"offset": 0,
						"slot": "1",
						"type": "t_mapping(t_bytes32,t_bool)"
					},
					{
						"astId": 687,
						"contract": "contracts/Forwarder.sol:Forwarder",
						"label": "nonces",
						"offset": 0,
						"slot": "2",
						"type": "t_mapping(t_address,t_uint256)"
					}
				],
				"types": {
					"t_address": {
						"encoding": "inplace",
						"label": "address",
						"numberOfBytes": "20"
					},
					"t_bool": {
						"encoding": "inplace",
						"label": "bool",
						"numberOfBytes": "1"
					},
					"t_bytes32": {
						"encoding": "inplace",
						"label": "bytes32",
						"numberOfBytes": "32"
					},
					"t_mapping(t_address,t_uint256)": {
						"encoding": "mapping",
						"key": "t_address",
						"label": "mapping(address => uint256)",
						"numberOfBytes": "32",
						"value": "t_uint256"
					},
					"t_mapping(t_bytes32,t_bool)": {
						"encoding": "mapping",
						"key": "t_bytes32",
						"label": "mapping(bytes32 => bool)",
						"numberOfBytes": "32",
						"value": "t_bool"
					},
					"t_uint256": {
						"encoding": "inplace",
						"label": "uint256",
						"numberOfBytes": "32"
					}
				}
			},
			"userdoc": {
				"kind": "user",
				"methods": {
					"_getEncoded((address,address,uint256,uint256,uint256,bytes,uint256),bytes32,bytes)": {
						"notice": "Creates a byte array that is a valid ABI encoding of a request of a `RequestType` type. See `execute()`."
					},
					"execute((address,address,uint256,uint256,uint256,bytes,uint256),bytes32,bytes32,bytes,bytes)": {
						"notice": "Executes a transaction specified by the `ForwardRequest`. The transaction is first verified and then executed. The success flag and returned bytes array of the `CALL` are returned as-is. This method would revert only in case of a verification error. All the target errors are reported using the returned success flag and returned bytes array."
					},
					"registerDomainSeparator(string,string)": {
						"notice": "Register a new domain separator.This is necessary for the Forwarder to be able to verify the signatures conforming to the ERC-712.The domain separator must have the following fields: `name`, `version`, `chainId`, `verifyingContract`. The `chainId` is the current network's `chainId`, and the `verifyingContract` is this Forwarder's address. This method accepts the domain name and version to create and register the domain separator value."
					},
					"registerRequestType(string,string)": {
						"notice": "Register a new Request typehash.This is necessary for the Forwarder to be able to verify the signatures conforming to the ERC-712."
					},
					"verify((address,address,uint256,uint256,uint256,bytes,uint256),bytes32,bytes32,bytes,bytes)": {
						"notice": "Verify the transaction is valid and can be executed. Implementations must validate the signature and the nonce of the request are correct. Does not revert and returns successfully if the input is valid. Reverts if any validation has failed. For instance, if either signature or nonce are incorrect. Reverts if `domainSeparator` or `requestTypeHash` are not registered as well."
					}
				},
				"notice": "This implementation of the `IForwarder` interface uses ERC-712 signatures and stored nonces for verification.",
				"version": 1
			}
		}
	}
}