{
  "_format": "hh-sol-artifact-1",
  "contractName": "Deb0xRewardEnding",
  "sourceName": "contracts/Deb0xRewardEnding.sol",
  "abi": [
    {
      "inputs": [
        {
          "internalType": "address",
          "name": "forwarder",
          "type": "address"
        }
      ],
      "stateMutability": "nonpayable",
      "type": "constructor"
    },
    {
      "anonymous": false,
      "inputs": [
        {
          "indexed": true,
          "internalType": "uint256",
          "name": "cycle",
          "type": "uint256"
        },
        {
          "indexed": true,
          "internalType": "address",
          "name": "account",
          "type": "address"
        },
        {
          "indexed": false,
          "internalType": "uint256",
          "name": "fees",
          "type": "uint256"
        }
      ],
      "name": "ClientFeesClaimed",
      "type": "event"
    },
    {
      "anonymous": false,
      "inputs": [
        {
          "indexed": true,
          "internalType": "uint256",
          "name": "cycle",
          "type": "uint256"
        },
        {
          "indexed": true,
          "internalType": "address",
          "name": "account",
          "type": "address"
        },
        {
          "indexed": false,
          "internalType": "uint256",
          "name": "amount",
          "type": "uint256"
        }
      ],
      "name": "ClientRewardsClaimed",
      "type": "event"
    },
    {
      "anonymous": false,
      "inputs": [
        {
          "indexed": true,
          "internalType": "uint256",
          "name": "cycle",
          "type": "uint256"
        },
        {
          "indexed": true,
          "internalType": "address",
          "name": "account",
          "type": "address"
        },
        {
          "indexed": false,
          "internalType": "uint256",
          "name": "fees",
          "type": "uint256"
        }
      ],
      "name": "FeesClaimed",
      "type": "event"
    },
    {
      "anonymous": false,
      "inputs": [
        {
          "indexed": true,
          "internalType": "address",
          "name": "to",
          "type": "address"
        },
        {
          "indexed": true,
          "internalType": "bytes32",
          "name": "value",
          "type": "bytes32"
        }
      ],
      "name": "KeySet",
      "type": "event"
    },
    {
      "anonymous": false,
      "inputs": [
        {
          "indexed": true,
          "internalType": "uint256",
          "name": "cycle",
          "type": "uint256"
        },
        {
          "indexed": false,
          "internalType": "uint256",
          "name": "calculatedCycleReward",
          "type": "uint256"
        },
        {
          "indexed": false,
          "internalType": "uint256",
          "name": "summedCycleStakes",
          "type": "uint256"
        }
      ],
      "name": "NewCycleStarted",
      "type": "event"
    },
    {
      "anonymous": false,
      "inputs": [
        {
          "indexed": true,
          "internalType": "uint256",
          "name": "cycle",
          "type": "uint256"
        },
        {
          "indexed": true,
          "internalType": "address",
          "name": "account",
          "type": "address"
        },
        {
          "indexed": false,
          "internalType": "uint256",
          "name": "reward",
          "type": "uint256"
        }
      ],
      "name": "RewardsClaimed",
      "type": "event"
    },
    {
      "anonymous": false,
      "inputs": [
        {
          "indexed": true,
          "internalType": "uint256",
          "name": "cycle",
          "type": "uint256"
        },
        {
          "indexed": true,
          "internalType": "uint256",
          "name": "sentId",
          "type": "uint256"
        },
        {
          "indexed": true,
          "internalType": "address",
          "name": "feeReceiver",
          "type": "address"
        },
        {
          "indexed": false,
          "internalType": "uint256",
          "name": "msgFee",
          "type": "uint256"
        },
        {
          "indexed": false,
          "internalType": "uint256",
          "name": "nativeTokenFee",
          "type": "uint256"
        }
      ],
      "name": "SendEntryCreated",
      "type": "event"
    },
    {
      "anonymous": false,
      "inputs": [
        {
          "indexed": true,
          "internalType": "address",
          "name": "to",
          "type": "address"
        },
        {
          "indexed": true,
          "internalType": "address",
          "name": "from",
          "type": "address"
        },
        {
          "indexed": true,
          "internalType": "bytes32",
          "name": "hash",
          "type": "bytes32"
        },
        {
          "indexed": false,
          "internalType": "uint256",
          "name": "sentId",
          "type": "uint256"
        },
        {
          "indexed": false,
          "internalType": "uint256",
          "name": "timestamp",
          "type": "uint256"
        },
        {
          "indexed": false,
          "internalType": "bytes32[]",
          "name": "content",
          "type": "bytes32[]"
        }
      ],
      "name": "Sent",
      "type": "event"
    },
    {
      "anonymous": false,
      "inputs": [
        {
          "indexed": true,
          "internalType": "uint256",
          "name": "cycle",
          "type": "uint256"
        },
        {
          "indexed": true,
          "internalType": "address",
          "name": "account",
          "type": "address"
        },
        {
          "indexed": false,
          "internalType": "uint256",
          "name": "amount",
          "type": "uint256"
        }
      ],
      "name": "Staked",
      "type": "event"
    },
    {
      "anonymous": false,
      "inputs": [
        {
          "indexed": true,
          "internalType": "uint256",
          "name": "cycle",
          "type": "uint256"
        },
        {
          "indexed": true,
          "internalType": "address",
          "name": "account",
          "type": "address"
        },
        {
          "indexed": false,
          "internalType": "uint256",
          "name": "amount",
          "type": "uint256"
        }
      ],
      "name": "Unstaked",
      "type": "event"
    },
    {
      "inputs": [],
      "name": "MAX_BPS",
      "outputs": [
        {
          "internalType": "uint16",
          "name": "",
          "type": "uint16"
        }
      ],
      "stateMutability": "view",
      "type": "function"
    },
    {
      "inputs": [],
      "name": "PROTOCOL_FEE",
      "outputs": [
        {
          "internalType": "uint16",
          "name": "",
          "type": "uint16"
        }
      ],
      "stateMutability": "view",
      "type": "function"
    },
    {
      "inputs": [],
      "name": "SCALING_FACTOR",
      "outputs": [
        {
          "internalType": "uint256",
          "name": "",
          "type": "uint256"
        }
      ],
      "stateMutability": "view",
      "type": "function"
    },
    {
      "inputs": [
        {
          "internalType": "address",
          "name": "",
          "type": "address"
        }
      ],
      "name": "accAccruedFees",
      "outputs": [
        {
          "internalType": "uint256",
          "name": "",
          "type": "uint256"
        }
      ],
      "stateMutability": "view",
      "type": "function"
    },
    {
      "inputs": [
        {
          "internalType": "address",
          "name": "",
          "type": "address"
        }
      ],
      "name": "accCycleGasOwed",
      "outputs": [
        {
          "internalType": "uint256",
          "name": "",
          "type": "uint256"
        }
      ],
      "stateMutability": "view",
      "type": "function"
    },
    {
      "inputs": [
        {
          "internalType": "address",
          "name": "",
          "type": "address"
        }
      ],
      "name": "accCycleGasUsed",
      "outputs": [
        {
          "internalType": "uint256",
          "name": "",
          "type": "uint256"
        }
      ],
      "stateMutability": "view",
      "type": "function"
    },
    {
      "inputs": [
        {
          "internalType": "address",
          "name": "",
          "type": "address"
        }
      ],
      "name": "accFirstStake",
      "outputs": [
        {
          "internalType": "uint256",
          "name": "",
          "type": "uint256"
        }
      ],
      "stateMutability": "view",
      "type": "function"
    },
    {
      "inputs": [
        {
          "internalType": "address",
          "name": "",
          "type": "address"
        }
      ],
      "name": "accRewards",
      "outputs": [
        {
          "internalType": "uint256",
          "name": "",
          "type": "uint256"
        }
      ],
      "stateMutability": "view",
      "type": "function"
    },
    {
      "inputs": [
        {
          "internalType": "address",
          "name": "",
          "type": "address"
        }
      ],
      "name": "accSecondStake",
      "outputs": [
        {
          "internalType": "uint256",
          "name": "",
          "type": "uint256"
        }
      ],
      "stateMutability": "view",
      "type": "function"
    },
    {
      "inputs": [
        {
          "internalType": "address",
          "name": "",
          "type": "address"
        },
        {
          "internalType": "uint256",
          "name": "",
          "type": "uint256"
        }
      ],
      "name": "accStakeCycle",
      "outputs": [
        {
          "internalType": "uint256",
          "name": "",
          "type": "uint256"
        }
      ],
      "stateMutability": "view",
      "type": "function"
    },
    {
      "inputs": [
        {
          "internalType": "address",
          "name": "",
          "type": "address"
        }
      ],
      "name": "accWithdrawableStake",
      "outputs": [
        {
          "internalType": "uint256",
          "name": "",
          "type": "uint256"
        }
      ],
      "stateMutability": "view",
      "type": "function"
    },
    {
      "inputs": [],
      "name": "claimClientFees",
      "outputs": [],
      "stateMutability": "nonpayable",
      "type": "function"
    },
    {
      "inputs": [],
      "name": "claimClientRewards",
      "outputs": [],
      "stateMutability": "nonpayable",
      "type": "function"
    },
    {
      "inputs": [],
      "name": "claimFees",
      "outputs": [],
      "stateMutability": "nonpayable",
      "type": "function"
    },
    {
      "inputs": [],
      "name": "claimRewards",
      "outputs": [],
      "stateMutability": "nonpayable",
      "type": "function"
    },
    {
      "inputs": [
        {
          "internalType": "address",
          "name": "",
          "type": "address"
        }
      ],
      "name": "clientAccruedFees",
      "outputs": [
        {
          "internalType": "uint256",
          "name": "",
          "type": "uint256"
        }
      ],
      "stateMutability": "view",
      "type": "function"
    },
    {
      "inputs": [
        {
          "internalType": "address",
          "name": "",
          "type": "address"
        }
      ],
      "name": "clientCycleGasEarned",
      "outputs": [
        {
          "internalType": "uint256",
          "name": "",
          "type": "uint256"
        }
      ],
      "stateMutability": "view",
      "type": "function"
    },
    {
      "inputs": [
        {
          "internalType": "address",
          "name": "",
          "type": "address"
        }
      ],
      "name": "clientLastFeeUpdate",
      "outputs": [
        {
          "internalType": "uint256",
          "name": "",
          "type": "uint256"
        }
      ],
      "stateMutability": "view",
      "type": "function"
    },
    {
      "inputs": [
        {
          "internalType": "address",
          "name": "",
          "type": "address"
        }
      ],
      "name": "clientLastRewardUpdate",
      "outputs": [
        {
          "internalType": "uint256",
          "name": "",
          "type": "uint256"
        }
      ],
      "stateMutability": "view",
      "type": "function"
    },
    {
      "inputs": [
        {
          "internalType": "address",
          "name": "",
          "type": "address"
        }
      ],
      "name": "clientRewards",
      "outputs": [
        {
          "internalType": "uint256",
          "name": "",
          "type": "uint256"
        }
      ],
      "stateMutability": "view",
      "type": "function"
    },
    {
      "inputs": [],
      "name": "currentCycle",
      "outputs": [
        {
          "internalType": "uint256",
          "name": "",
          "type": "uint256"
        }
      ],
      "stateMutability": "view",
      "type": "function"
    },
    {
      "inputs": [],
      "name": "currentCycleReward",
      "outputs": [
        {
          "internalType": "uint256",
          "name": "",
          "type": "uint256"
        }
      ],
      "stateMutability": "view",
      "type": "function"
    },
    {
      "inputs": [],
      "name": "currentStartedCycle",
      "outputs": [
        {
          "internalType": "uint256",
          "name": "",
          "type": "uint256"
        }
      ],
      "stateMutability": "view",
      "type": "function"
    },
    {
      "inputs": [
        {
          "internalType": "uint256",
          "name": "",
          "type": "uint256"
        }
      ],
      "name": "cycleAccruedFees",
      "outputs": [
        {
          "internalType": "uint256",
          "name": "",
          "type": "uint256"
        }
      ],
      "stateMutability": "view",
      "type": "function"
    },
    {
      "inputs": [
        {
          "internalType": "uint256",
          "name": "",
          "type": "uint256"
        }
      ],
      "name": "cycleFeesPerStakeSummed",
      "outputs": [
        {
          "internalType": "uint256",
          "name": "",
          "type": "uint256"
        }
      ],
      "stateMutability": "view",
      "type": "function"
    },
    {
      "inputs": [
        {
          "internalType": "uint256",
          "name": "",
          "type": "uint256"
        }
      ],
      "name": "cycleTotalGasUsed",
      "outputs": [
        {
          "internalType": "uint256",
          "name": "",
          "type": "uint256"
        }
      ],
      "stateMutability": "view",
      "type": "function"
    },
    {
      "inputs": [],
      "name": "dbx",
      "outputs": [
        {
          "internalType": "contract Deb0xERC20",
          "name": "",
          "type": "address"
        }
      ],
      "stateMutability": "view",
      "type": "function"
    },
    {
      "inputs": [],
      "name": "getCurrentCycle",
      "outputs": [
        {
          "internalType": "uint256",
          "name": "",
          "type": "uint256"
        }
      ],
      "stateMutability": "view",
      "type": "function"
    },
    {
      "inputs": [],
      "name": "i_initialTimestamp",
      "outputs": [
        {
          "internalType": "uint256",
          "name": "",
          "type": "uint256"
        }
      ],
      "stateMutability": "view",
      "type": "function"
    },
    {
      "inputs": [],
      "name": "i_periodDuration",
      "outputs": [
        {
          "internalType": "uint256",
          "name": "",
          "type": "uint256"
        }
      ],
      "stateMutability": "view",
      "type": "function"
    },
    {
      "inputs": [
        {
          "internalType": "address",
          "name": "forwarder",
          "type": "address"
        }
      ],
      "name": "isTrustedForwarder",
      "outputs": [
        {
          "internalType": "bool",
          "name": "",
          "type": "bool"
        }
      ],
      "stateMutability": "view",
      "type": "function"
    },
    {
      "inputs": [
        {
          "internalType": "address",
          "name": "",
          "type": "address"
        }
      ],
      "name": "lastActiveCycle",
      "outputs": [
        {
          "internalType": "uint256",
          "name": "",
          "type": "uint256"
        }
      ],
      "stateMutability": "view",
      "type": "function"
    },
    {
      "inputs": [],
      "name": "lastCycleReward",
      "outputs": [
        {
          "internalType": "uint256",
          "name": "",
          "type": "uint256"
        }
      ],
      "stateMutability": "view",
      "type": "function"
    },
    {
      "inputs": [
        {
          "internalType": "address",
          "name": "",
          "type": "address"
        }
      ],
      "name": "lastFeeUpdateCycle",
      "outputs": [
        {
          "internalType": "uint256",
          "name": "",
          "type": "uint256"
        }
      ],
      "stateMutability": "view",
      "type": "function"
    },
    {
      "inputs": [],
      "name": "lastStartedCycle",
      "outputs": [
        {
          "internalType": "uint256",
          "name": "",
          "type": "uint256"
        }
      ],
      "stateMutability": "view",
      "type": "function"
    },
    {
      "inputs": [],
      "name": "pendingFees",
      "outputs": [
        {
          "internalType": "uint256",
          "name": "",
          "type": "uint256"
        }
      ],
      "stateMutability": "view",
      "type": "function"
    },
    {
      "inputs": [],
      "name": "pendingStake",
      "outputs": [
        {
          "internalType": "uint256",
          "name": "",
          "type": "uint256"
        }
      ],
      "stateMutability": "view",
      "type": "function"
    },
    {
      "inputs": [],
      "name": "pendingStakeWithdrawal",
      "outputs": [
        {
          "internalType": "uint256",
          "name": "",
          "type": "uint256"
        }
      ],
      "stateMutability": "view",
      "type": "function"
    },
    {
      "inputs": [],
      "name": "previousStartedCycle",
      "outputs": [
        {
          "internalType": "uint256",
          "name": "",
          "type": "uint256"
        }
      ],
      "stateMutability": "view",
      "type": "function"
    },
    {
      "inputs": [
        {
          "internalType": "address",
          "name": "",
          "type": "address"
        }
      ],
      "name": "publicKeys",
      "outputs": [
        {
          "internalType": "bytes32",
          "name": "",
          "type": "bytes32"
        }
      ],
      "stateMutability": "view",
      "type": "function"
    },
    {
      "inputs": [
        {
          "internalType": "uint256",
          "name": "",
          "type": "uint256"
        }
      ],
      "name": "rewardPerCycle",
      "outputs": [
        {
          "internalType": "uint256",
          "name": "",
          "type": "uint256"
        }
      ],
      "stateMutability": "view",
      "type": "function"
    },
    {
      "inputs": [
        {
          "internalType": "address[]",
          "name": "to",
          "type": "address[]"
        },
        {
          "internalType": "bytes32[][]",
          "name": "crefs",
          "type": "bytes32[][]"
        },
        {
          "internalType": "address",
          "name": "feeReceiver",
          "type": "address"
        },
        {
          "internalType": "uint256",
          "name": "msgFee",
          "type": "uint256"
        },
        {
          "internalType": "uint256",
          "name": "nativeTokenFee",
          "type": "uint256"
        }
      ],
      "name": "send",
      "outputs": [],
      "stateMutability": "payable",
      "type": "function"
    },
    {
      "inputs": [],
      "name": "sentId",
      "outputs": [
        {
          "internalType": "uint256",
          "name": "",
          "type": "uint256"
        }
      ],
      "stateMutability": "view",
      "type": "function"
    },
    {
      "inputs": [
        {
          "internalType": "bytes32",
          "name": "publicKey",
          "type": "bytes32"
        }
      ],
      "name": "setKey",
      "outputs": [],
      "stateMutability": "nonpayable",
      "type": "function"
    },
    {
      "inputs": [
        {
          "internalType": "uint256",
          "name": "amount",
          "type": "uint256"
        }
      ],
      "name": "stake",
      "outputs": [],
      "stateMutability": "nonpayable",
      "type": "function"
    },
    {
      "inputs": [
        {
          "internalType": "uint256",
          "name": "",
          "type": "uint256"
        }
      ],
      "name": "summedCycleStakes",
      "outputs": [
        {
          "internalType": "uint256",
          "name": "",
          "type": "uint256"
        }
      ],
      "stateMutability": "view",
      "type": "function"
    },
    {
      "inputs": [
        {
          "internalType": "uint256",
          "name": "amount",
          "type": "uint256"
        }
      ],
      "name": "unstake",
      "outputs": [],
      "stateMutability": "nonpayable",
      "type": "function"
    }
  ],
  "bytecode": "0x60e06040526001600b553480156200001657600080fd5b506040516200444238038062004442833981016040819052620000399162000110565b6001600160a01b038116608052600160005560405181906200005b9062000102565b604051809103906000f08015801562000078573d6000803e3d6000fd5b50600180546001600160a01b0319166001600160a01b039290921691909117905550504260a0526201518060c05260008052608460028190557fd2ac945fcc0096878c763e37d6929b78378c1a2defabde8ba7ee5ed1d6e7a5b281905560186020527f999d26de3473317ead3eeaf34ca78057f1439db67b6953469c3c96ce9caf6bd75562000142565b6114ab8062002f9783390190565b6000602082840312156200012357600080fd5b81516001600160a01b03811681146200013b57600080fd5b9392505050565b60805160a05160c051612e176200018060003960008181610384015261177c01526000818161050e01526117a001526000610dbe0152612e176000f3fe6080604052600436106102185760003560e01c80630b4501fd1461021d5780630ece21541461024b57806313e6589014610286578063143a1766146102b35780631ed6380f146102e05780631fcd6ca91461030d578063224438d11461033a5780632e17de78146103505780632f7cdab014610372578063372500ab146103a6578063436091c1146103bb578063549af694146103d1578063572b6c05146103fe5780635730c8fd1461042e5780635f5080b41461045b578063654773cd1461047157806368f057691461048657806369ec283e1461049c57806374846d9f146104b15780637d818c23146104c45780638bd95563146104fc57806391b300201461053057806398a5db57146105465780639986314b1461055c578063a3d6f9a914610589578063a694fc3a146105b6578063a707140b146105d6578063a95f1dac14610603578063aabbb1bd14610619578063adc0f68614610651578063bab2f5521461067e578063bc71329014610694578063be26ed7f146106c1578063bebc9dfc146106d6578063c3d2c35514610703578063c4235ae914610723578063ce96c0af14610750578063d294f0931461077d578063d4432e4e14610792578063db80a28c146107a8578063dd23a9bd146107d4578063e60c90c414610801578063ed725e831461082e578063ef4cadc51461085b578063f1b371e21461087e578063fa845ca914610894578063fd967f47146108c1575b600080fd5b34801561022957600080fd5b506102336103e881565b60405161ffff90911681526020015b60405180910390f35b34801561025757600080fd5b506102786102663660046128fd565b601b6020526000908152604090205481565b604051908152602001610242565b34801561029257600080fd5b506102786102a13660046128fd565b60106020526000908152604090205481565b3480156102bf57600080fd5b506102786102ce366004612932565b60176020526000908152604090205481565b3480156102ec57600080fd5b506102786102fb366004612932565b601e6020526000908152604090205481565b34801561031957600080fd5b50610278610328366004612932565b600e6020526000908152604090205481565b34801561034657600080fd5b50610278600a5481565b34801561035c57600080fd5b5061037061036b3660046128fd565b6108d7565b005b34801561037e57600080fd5b506102787f000000000000000000000000000000000000000000000000000000000000000081565b3480156103b257600080fd5b50610370610b7b565b3480156103c757600080fd5b5061027860065481565b3480156103dd57600080fd5b506102786103ec366004612932565b600f6020526000908152604090205481565b34801561040a57600080fd5b5061041e610419366004612932565b610dbc565b6040519015158152602001610242565b34801561043a57600080fd5b50610278610449366004612932565b600d6020526000908152604090205481565b34801561046757600080fd5b5061027860075481565b34801561047d57600080fd5b50610370610dee565b34801561049257600080fd5b5061027860095481565b3480156104a857600080fd5b50610370610f42565b6103706104bf366004612aa2565b611132565b3480156104d057600080fd5b506001546104e4906001600160a01b031681565b6040516001600160a01b039091168152602001610242565b34801561050857600080fd5b506102787f000000000000000000000000000000000000000000000000000000000000000081565b34801561053c57600080fd5b5061027860025481565b34801561055257600080fd5b50610278600b5481565b34801561056857600080fd5b50610278610577366004612932565b60126020526000908152604090205481565b34801561059557600080fd5b506102786105a4366004612932565b600c6020526000908152604090205481565b3480156105c257600080fd5b506103706105d13660046128fd565b61147c565b3480156105e257600080fd5b506102786105f1366004612932565b601a6020526000908152604090205481565b34801561060f57600080fd5b5061027860035481565b34801561062557600080fd5b50610278610634366004612b83565b601d60209081526000928352604080842090915290825290205481565b34801561065d57600080fd5b5061027861066c3660046128fd565b60186020526000908152604090205481565b34801561068a57600080fd5b5061027860055481565b3480156106a057600080fd5b506102786106af366004612932565b60166020526000908152604090205481565b3480156106cd57600080fd5b50610278611778565b3480156106e257600080fd5b506102786106f13660046128fd565b601c6020526000908152604090205481565b34801561070f57600080fd5b5061037061071e3660046128fd565b6117d4565b34801561072f57600080fd5b5061027861073e3660046128fd565b60196020526000908152604090205481565b34801561075c57600080fd5b5061027861076b366004612932565b60136020526000908152604090205481565b34801561078957600080fd5b5061037061183c565b34801561079e57600080fd5b5061027860045481565b3480156107b457600080fd5b506102786107c3366004612932565b602080526000908152604090205481565b3480156107e057600080fd5b506102786107ef366004612932565b60146020526000908152604090205481565b34801561080d57600080fd5b5061027861081c366004612932565b601f6020526000908152604090205481565b34801561083a57600080fd5b50610278610849366004612932565b60156020526000908152604090205481565b34801561086757600080fd5b506102786b1d6329f1c35ca4bfabb9f56160281b81565b34801561088a57600080fd5b5061027860085481565b3480156108a057600080fd5b506102786108af366004612932565b60116020526000908152604090205481565b3480156108cd57600080fd5b5061023361271081565b6002600054036109025760405162461bcd60e51b81526004016108f990612bad565b60405180910390fd5b600260005561090f61194b565b61091761196a565b610927610922611aad565b611acf565b600081116109475760405162461bcd60e51b81526004016108f990612be4565b601e6000610953611aad565b6001600160a01b03166001600160a01b03168152602001908152602001600020548111156109d95760405162461bcd60e51b815260206004820152602d60248201527f44656230783a20616d6f756e742067726561746572207468616e20776974686460448201526c72617761626c65207374616b6560981b60648201526084016108f9565b60085460065403610a015780600960008282546109f69190612c29565b90915550610a289050565b60055460009081526019602052604081208054839290610a22908490612c3c565b90915550505b80601e6000610a35611aad565b6001600160a01b03166001600160a01b031681526020019081526020016000206000828254610a649190612c3c565b9091555081905060156000610a77611aad565b6001600160a01b03166001600160a01b031681526020019081526020016000206000828254610aa69190612c3c565b90915550506001546001600160a01b031663a9059cbb610ac4611aad565b836040518363ffffffff1660e01b8152600401610ae2929190612c4f565b6020604051808303816000875af1158015610b01573d6000803e3d6000fd5b505050506040513d601f19601f82011682018060405250810190610b259190612c68565b50610b2e611aad565b6001600160a01b03166005547f37375b03d8924bd8f076f11f8411b9962aa5c02fb489021507bc6bb6f850e36583604051610b6b91815260200190565b60405180910390a3506001600055565b600260005403610b9d5760405162461bcd60e51b81526004016108f990612bad565b6002600055610baa61194b565b610bb261196a565b610bbd610922611aad565b6000601e6000610bcb611aad565b6001600160a01b03166001600160a01b031681526020019081526020016000205460156000610bf8611aad565b6001600160a01b03166001600160a01b0316815260200190815260200160002054610c239190612c3c565b905060008111610c755760405162461bcd60e51b815260206004820152601d60248201527f44656230783a206163636f756e7420686173206e6f207265776172647300000060448201526064016108f9565b8060156000610c82611aad565b6001600160a01b03166001600160a01b031681526020019081526020016000206000828254610cb19190612c3c565b909155505060085460065403610cde578060096000828254610cd39190612c29565b90915550610d0e9050565b600554600090815260196020526040902054610cfb908290612c3c565b6005546000908152601960205260409020555b6001546001600160a01b0316639a49090e610d27611aad565b836040518363ffffffff1660e01b8152600401610d45929190612c4f565b600060405180830381600087803b158015610d5f57600080fd5b505af1158015610d73573d6000803e3d6000fd5b50505050610d7f611aad565b6001600160a01b03166005547f3300bdb359cfb956935bca32e9db727413eab1ca84341f2e36caea85bb79696883604051610b6b91815260200190565b7f00000000000000000000000000000000000000000000000000000000000000006001600160a01b0390811691161490565b600260005403610e105760405162461bcd60e51b81526004016108f990612bad565b6002600055610e1d61194b565b610e2561196a565b610e35610e30611aad565b6120f0565b600060146000610e43611aad565b6001600160a01b03166001600160a01b0316815260200190815260200160002054905060008111610ec05760405162461bcd60e51b815260206004820152602160248201527f44656230783a20636c69656e7420686173206e6f2061636372756564206665656044820152607360f81b60648201526084016108f9565b600060146000610ece611aad565b6001600160a01b03168152602081019190915260400160002055610ef9610ef3611aad565b8261232a565b610f01611aad565b6001600160a01b0316610f12611778565b6040518381527f71080b6b70140bab68812ff30dd24dd3f4fafdb253085461fcc624ab5f1bbe9b90602001610b6b565b600260005403610f645760405162461bcd60e51b81526004016108f990612bad565b6002600055610f7161194b565b610f7961196a565b610f84610e30611aad565b600060176000610f92611aad565b6001600160a01b03166001600160a01b03168152602001908152602001600020549050600081116110045760405162461bcd60e51b815260206004820152601c60248201527b44656230783a20636c69656e7420686173206e6f207265776172647360201b60448201526064016108f9565b600060176000611012611aad565b6001600160a01b03168152602081019190915260400160002055600854600654036110545780600960008282546110499190612c29565b909155506110849050565b600554600090815260196020526040902054611071908290612c3c565b6005546000908152601960205260409020555b6001546001600160a01b0316639a49090e61109d611aad565b836040518363ffffffff1660e01b81526004016110bb929190612c4f565b600060405180830381600087803b1580156110d557600080fd5b505af11580156110e9573d6000803e3d6000fd5b505050506110f5611aad565b6001600160a01b03166005547f73d4ecbe623e0c89f3cfb75a853104d35d1105e8ec5f0ec6e4bb924da1ffb29283604051610b6b91815260200190565b6002600054036111545760405162461bcd60e51b81526004016108f990612bad565b6002600090815581905a9050848460005a90506127108711156111c55760405162461bcd60e51b815260206004820152602360248201527f44656230783a207265776172642066656573206578636565642031303030302060448201526262707360e81b60648201526084016108f9565b60006111d18b8b6123d1565b90506111db61194b565b6111e361196a565b6111eb6127a1565b6111f6610922611aad565b6111ff896120f0565b6005546011600061120e611aad565b6001600160a01b03166001600160a01b0316815260200190815260200160002081905550886001600160a01b0316816005547f6288811d8cdbed319ad675bb04053011e25d30480e6eb483c02d54ef3bc863f18b8b60405161127a929190918252602082015260400190565b60405180910390a45060005a6112909083612c3c565b90508060106000600554815260200190815260200160002060008282546112b79190612c29565b90915550506001600160a01b038416158015906112d357508215155b156113315760006127106112e78584612c8a565b6112f19190612ca1565b90506112fd8183612c3c565b6001600160a01b0386166000908152600e602052604081208054929450839290919061132a908490612c29565b9091555050505b80600f600061133e611aad565b6001600160a01b03166001600160a01b03168152602001908152602001600020600082825461136d9190612c29565b909155506000945061271093506103e892503a9150505a61138e9086612c3c565b61139a90619b14612c29565b6113a49190612c8a565b6113ae9190612c8a565b6113b89190612ca1565b9050806113c58434612c3c565b10156114285760405162461bcd60e51b815260206004820152602c60248201527f44656230783a2076616c7565206c657373207468616e2072657175697265642060448201526b70726f746f636f6c2066656560a01b60648201526084016108f9565b6005546000908152601b602052604081208054839290611449908490612c29565b9091555061146d9050338461145e8434612c3c565b6114689190612c3c565b61232a565b50506001600055505050505050565b60026000540361149e5760405162461bcd60e51b81526004016108f990612bad565b60026000556114ab61194b565b6114b361196a565b6114be610922611aad565b600081116114de5760405162461bcd60e51b81526004016108f990612be4565b80600460008282546114f09190612c29565b9091555050600554600090611506906001612c29565b90506008546006540361151857506005545b601f6000611524611aad565b6001600160a01b03166001600160a01b0316815260200190815260200160002054811415801561158057506020600061155b611aad565b6001600160a01b03166001600160a01b03168152602001908152602001600020548114155b1561164157601f6000611591611aad565b6001600160a01b03166001600160a01b03168152602001908152602001600020546000036115e55780601f60006115c6611aad565b6001600160a01b03168152602081019190915260400160002055611641565b602060006115f1611aad565b6001600160a01b03166001600160a01b0316815260200190815260200160002054600003611641578060206000611626611aad565b6001600160a01b031681526020810191909152604001600020555b81601d600061164e611aad565b6001600160a01b03166001600160a01b031681526020019081526020016000206000838152602001908152602001600020600082825461168e9190612c29565b90915550506001546001600160a01b03166323b872dd6116ac611aad565b6040516001600160e01b031960e084901b1681526001600160a01b039091166004820152306024820152604481018590526064016020604051808303816000875af11580156116ff573d6000803e3d6000fd5b505050506040513d601f19601f820116820180604052508101906117239190612c68565b5061172c611aad565b6001600160a01b0316817f18dcd430020e4d4899772fd94a8b40451dc5044dfb70bc46b532eeae431c864f8460405161176791815260200190565b60405180910390a350506001600055565b60007f00000000000000000000000000000000000000000000000000000000000000006117c57f000000000000000000000000000000000000000000000000000000000000000042612c3c565b6117cf9190612ca1565b905090565b80600c60006117e1611aad565b6001600160a01b0316815260208101919091526040016000205580611804611aad565b6001600160a01b03167f8e06b8416b712e88dc5bdfc009fcc4de46c26bf894cd73d9a855ceb8170ea78d60405160405180910390a350565b60026000540361185e5760405162461bcd60e51b81526004016108f990612bad565b600260005561186b61194b565b61187361196a565b61187e610922611aad565b60006016600061188c611aad565b6001600160a01b03166001600160a01b03168152602001908152602001600020549050600081116118cf5760405162461bcd60e51b81526004016108f990612be4565b6000601660006118dd611aad565b6001600160a01b03168152602081019190915260400160002055611902610ef3611aad565b61190a611aad565b6001600160a01b031661191b611778565b6040518381527f2227733fc4c8a9034cb58087dcf6995128b9c0233b038b03366aaf30c92b92d690602001610b6b565b6000611955611778565b90506005548111156119675760058190555b50565b6008546005541461198d57600654611983906001612c29565b6007556008546006555b6006546005541180156119c15750601c600060065460016119ae9190612c29565b8152602001908152602001600020546000145b15611aab5760065460009081526019602052604081205415611a3757600654600090815260196020908152604080832054600a54601b9093529220546b1d6329f1c35ca4bfabb9f56160281b91611a1791612c29565b611a219190612c8a565b611a2b9190612ca1565b6000600a559050611a68565b601b6000600654815260200190815260200160002054600a6000828254611a5e9190612c29565b9091555060009150505b6007546000908152601c6020526040902054611a85908290612c29565b601c60006006546001611a989190612c29565b8152602081019190915260400160002055505b565b6000611ab833610dbc565b15611aca575060131936013560601c90565b503390565b6001600160a01b038116600090815260116020526040902054600554118015611b0f57506001600160a01b0381166000908152600f602052604090205415155b15611bb2576001600160a01b038116600081815260116020908152604080832054835260108252808320546018835281842054948452600f90925282205491929091611b5b9190612c8a565b611b659190612ca1565b6001600160a01b038316600090815260156020526040812080549293508392909190611b92908490612c29565b9091555050506001600160a01b0381166000908152600f60205260408120555b600654600554118015611bea5750600654611bce906001612c29565b6001600160a01b0382166000908152601a602052604090205414155b15611ce3576001600160a01b0381166000908152601a60209081526040808320548352601c918290528220546006546b1d6329f1c35ca4bfabb9f56160281b9391929190611c39906001612c29565b815260200190815260200160002054611c529190612c3c565b6001600160a01b038316600090815260156020526040902054611c759190612c8a565b611c7f9190612ca1565b6001600160a01b038216600090815260166020526040902054611ca29190612c29565b6001600160a01b038216600090815260166020526040902055600654611cc9906001612c29565b6001600160a01b0382166000908152601a60205260409020555b6001600160a01b0381166000908152601f602052604090205415801590611d2357506001600160a01b0381166000908152601f6020526040902054600554115b15611967576001600160a01b0381166000818152601d60209081526040808320601f8352818420548452825280832054938352601590915281208054839290611d6d908490612c29565b90915550506001600160a01b0382166000908152601e602052604081208054839290611d9a908490612c29565b90915550506001600160a01b0382166000908152601f6020526040902054600654611dc6906001612c29565b1115611eab576001600160a01b0382166000908152601f60209081526040808320548352601c918290528220546006546b1d6329f1c35ca4bfabb9f56160281b9391929190611e16906001612c29565b815260200190815260200160002054611e2f9190612c3c565b6001600160a01b0384166000908152601d60209081526040808320601f8352818420548452909152902054611e649190612c8a565b611e6e9190612ca1565b6001600160a01b038316600090815260166020526040902054611e919190612c29565b6001600160a01b0383166000908152601660205260409020555b6001600160a01b0382166000818152601d60209081526040808320601f8352818420805485529083528184208490559383529282905580522054156120ec576001600160a01b038216600090815260208052604090205460055411156120c1576001600160a01b0382166000818152601d60209081526040808320828052818420548452825280832054938352601590915281208054839290611f4f908490612c29565b90915550506001600160a01b0383166000908152601e602052604081208054839290611f7c908490612c29565b90915550506001600160a01b0383166000908152602080526040902054600654611fa7906001612c29565b1115612089576001600160a01b038316600090815260208080526040808320548352601c918290528220546006546b1d6329f1c35ca4bfabb9f56160281b9391929190611ff5906001612c29565b81526020019081526020016000205461200e9190612c3c565b6001600160a01b0385166000908152601d602090815260408083208280528184205484529091529020546120429190612c8a565b61204c9190612ca1565b6001600160a01b03841660009081526016602052604090205461206f9190612c29565b6001600160a01b0384166000908152601660205260409020555b50506001600160a01b03166000818152601d602090815260408083208280528184208054855290835290832083905592825280529055565b6001600160a01b0382166000908152602080805260408083208054601f845291842091909155908052555b5050565b6001600160a01b0381166000908152601260205260409020546005541115612206576001600160a01b038116600090815260126020908152604080832054600e9092529091205415801590612152575060008181526010602052604090205415155b156121e85760008181526010602090815260408083205460188352818420546001600160a01b0387168552600e90935290832054909161219191612c8a565b61219b9190612ca1565b6001600160a01b0384166000908152601760205260408120805492935083929091906121c8908490612c29565b9091555050506001600160a01b0382166000908152600e60205260408120555b506005546001600160a01b0382166000908152601260205260409020555b60065460055411801561223e5750600654612222906001612c29565b6001600160a01b03821660009081526013602052604090205414155b15611967576001600160a01b0381166000908152601360209081526040808320548352601c918290528220546006546b1d6329f1c35ca4bfabb9f56160281b939192919061228d906001612c29565b8152602001908152602001600020546122a69190612c3c565b6001600160a01b0383166000908152601760205260409020546122c99190612c8a565b6122d39190612ca1565b6001600160a01b038216600090815260146020526040812080549091906122fb908490612c29565b909155505060065461230e906001612c29565b6001600160a01b03821660009081526013602052604090205550565b6000826001600160a01b03168260405160006040518083038185875af1925050503d8060008114612377576040519150601f19603f3d011682016040523d82523d6000602084013e61237c565b606091505b50509050806123cc5760405162461bcd60e51b815260206004820152601c60248201527b1119588c1e0e8819985a5b1959081d1bc81cd95b9908185b5bdd5b9d60221b60448201526064016108f9565b505050565b6000815183511461243a5760405162461bcd60e51b815260206004820152602d60248201527f44656230783a20637265667320616e6420726563697069656e7473206c656e6760448201526c1d1a1cc81b9bdd08195c5d585b609a1b60648201526084016108f9565b600083511161248b5760405162461bcd60e51b815260206004820152601d60248201527f44656230783a20726563697069656e747320617272617920656d70747900000060448201526064016108f9565b60005b6001845161249c9190612c3c565b81101561254457600083600186516124b49190612c3c565b815181106124c4576124c4612cc3565b602002602001015151116124ea5760405162461bcd60e51b81526004016108f990612cd9565b600883600186516124fb9190612c3c565b8151811061250b5761250b612cc3565b60200260200101515111156125325760405162461bcd60e51b81526004016108f990612d04565b8061253c81612d32565b91505061248e565b5060005b600184516125569190612c3c565b81101561262d57600083828151811061257157612571612cc3565b60200260200101516040516020016125899190612d86565b604051602081830303815290604052805190602001209050806125aa611aad565b6001600160a01b03168684815181106125c5576125c5612cc3565b60200260200101516001600160a01b0316600080516020612dc2833981519152600b54428988815181106125fb576125fb612cc3565b602002602001015160405161261293929190612d99565b60405180910390a4508061262581612d32565b915050612548565b506000826001855161263f9190612c3c565b8151811061264f5761264f612cc3565b60200260200101516040516020016126679190612d86565b604051602081830303815290604052805190602001209050600083600186516126909190612c3c565b815181106126a0576126a0612cc3565b602002602001015151116126c65760405162461bcd60e51b81526004016108f990612cd9565b600883600186516126d79190612c3c565b815181106126e7576126e7612cc3565b602002602001015151111561270e5760405162461bcd60e51b81526004016108f990612d04565b600b8054908190600061272083612d32565b91905055508161272e611aad565b6001600160a01b031661273f611aad565b6001600160a01b0316600080516020612dc283398151915284428960018c516127689190612c3c565b8151811061277857612778612cc3565b602002602001015160405161278f93929190612d99565b60405180910390a49150505b92915050565b6005546000908152601860205260408120549003611aab576002546003819055600090612724906127d490612710612c8a565b6127de9190612ca1565b600281905560058054600090815260186020908152604080832085905592546008556006548252601990522054909150612819908290612c29565b6008546000908152601960205260408120805490919061283a908490612c29565b909155505060045415612876576004546008546000908152601960205260408120805490919061286b908490612c29565b909155505060006004555b600954156128ad57600954600854600090815260196020526040812080549091906128a2908490612c3c565b909155505060006009555b600554600854600090815260196020908152604091829020548251858152918201527f0666a61c1092f5b86c2cfe6ea1ad0d9a36032c4fb92d285b4e43f662d48f19b4910160405180910390a250565b60006020828403121561290f57600080fd5b5035919050565b80356001600160a01b038116811461292d57600080fd5b919050565b60006020828403121561294457600080fd5b61294d82612916565b9392505050565b634e487b7160e01b600052604160045260246000fd5b604051601f8201601f191681016001600160401b038111828210171561299257612992612954565b604052919050565b60006001600160401b038211156129b3576129b3612954565b5060051b60200190565b600082601f8301126129ce57600080fd5b813560206129e36129de8361299a565b61296a565b828152600592831b8501820192828201919087851115612a0257600080fd5b8387015b85811015612a955780356001600160401b03811115612a255760008081fd5b8801603f81018a13612a375760008081fd5b858101356040612a496129de8361299a565b82815291851b8301810191888101908d841115612a665760008081fd5b938201935b83851015612a8457843582529389019390890190612a6b565b885250505093850193508401612a06565b5090979650505050505050565b600080600080600060a08688031215612aba57600080fd5b85356001600160401b0380821115612ad157600080fd5b818801915088601f830112612ae557600080fd5b81356020612af56129de8361299a565b82815260059290921b8401810191818101908c841115612b1457600080fd5b948201945b83861015612b3957612b2a86612916565b82529482019490820190612b19565b99505089013592505080821115612b4f57600080fd5b50612b5c888289016129bd565b945050612b6b60408701612916565b94979396509394606081013594506080013592915050565b60008060408385031215612b9657600080fd5b612b9f83612916565b946020939093013593505050565b6020808252601f908201527f5265656e7472616e637947756172643a207265656e7472616e742063616c6c00604082015260600190565b60208082526015908201527444656230783a20616d6f756e74206973207a65726f60581b604082015260600190565b634e487b7160e01b600052601160045260246000fd5b8082018082111561279b5761279b612c13565b8181038181111561279b5761279b612c13565b6001600160a01b03929092168252602082015260400190565b600060208284031215612c7a57600080fd5b8151801515811461294d57600080fd5b808202811582820484141761279b5761279b612c13565b600082612cbe57634e487b7160e01b600052601260045260246000fd5b500490565b634e487b7160e01b600052603260045260246000fd5b6020808252601190820152702232b1183c1d1032b6b83a3c9031b932b360791b604082015260600190565b60208082526014908201527344656230783a206372656620746f6f206c6f6e6760601b604082015260600190565b600060018201612d4457612d44612c13565b5060010190565b600081518084526020808501945080840160005b83811015612d7b57815187529582019590820190600101612d5f565b509495945050505050565b60208152600061294d6020830184612d4b565b838152826020820152606060408201526000612db86060830184612d4b565b9594505050505056fea33bc9a10d8f3a335b59663beb6a02681748ac0b3db1251c7bb08f3e99dd0bb4a2646970667358221220a2eaa6d658d62bae2752d883a80dafe9c2fbac4e28247c4c2c4e8a3c253fc28964736f6c634300081100336101606040523480156200001257600080fd5b506040518060400160405280601d81526020017f44656230782052657761726420546f6b656e206f6e20506f6c79676f6e00000081525080604051806040016040528060018152602001603160f81b8152506040518060400160405280601d81526020017f44656230782052657761726420546f6b656e206f6e20506f6c79676f6e000000815250604051806040016040528060048152602001630e08884b60e31b8152508160039081620000c891906200021a565b506004620000d782826200021a565b5050825160209384012082519284019290922060e08390526101008190524660a0818152604080517f8b73c3c69bb8fe3d512ecc4cf759cc79239f7b179b0ffacaa9a75d522b39400f818901819052818301979097526060810194909452608080850193909352308483018190528151808603909301835260c0948501909152815191909601209052929092526101205250503361014052620002e6565b634e487b7160e01b600052604160045260246000fd5b600181811c90821680620001a057607f821691505b602082108103620001c157634e487b7160e01b600052602260045260246000fd5b50919050565b601f8211156200021557600081815260208120601f850160051c81016020861015620001f05750805b601f850160051c820191505b818110156200021157828155600101620001fc565b5050505b505050565b81516001600160401b0381111562000236576200023662000175565b6200024e816200024784546200018b565b84620001c7565b602080601f8311600181146200028657600084156200026d5750858301515b600019600386901b1c1916600185901b17855562000211565b600085815260208120601f198616915b82811015620002b75788860151825594840194600190910190840162000296565b5085821015620002d65787850151600019600388901b60f8161c191681555b5050505050600190811b01905550565b60805160a05160c05160e05161010051610120516101405161116362000348600039600081816101a6015261038201526000610a6b01526000610aba01526000610a95015260006109ee01526000610a1801526000610a4201526111636000f3fe608060405234801561001057600080fd5b50600436106100d05760003560e01c806306fdde03146100d5578063095ea7b3146100f357806318160ddd1461011657806323b872dd14610128578063313ce5671461013b5780633644e5151461014a578063395093511461015257806370a08231146101655780637ecebe001461018e5780638da5cb5b146101a157806395d89b41146101e05780639a49090e146101e8578063a457c2d7146101fd578063a9059cbb14610210578063d505accf14610223578063dd62ed3e14610236575b600080fd5b6100dd610249565b6040516100ea9190610f0a565b60405180910390f35b610106610101366004610f74565b6102db565b60405190151581526020016100ea565b6002545b6040519081526020016100ea565b610106610136366004610f9e565b6102f5565b604051601281526020016100ea565b61011a610319565b610106610160366004610f74565b610328565b61011a610173366004610fda565b6001600160a01b031660009081526020819052604090205490565b61011a61019c366004610fda565b61034a565b6101c87f000000000000000000000000000000000000000000000000000000000000000081565b6040516001600160a01b0390911681526020016100ea565b6100dd610368565b6101fb6101f6366004610f74565b610377565b005b61010661020b366004610f74565b61046f565b61010661021e366004610f74565b6104ea565b6101fb610231366004610ffc565b6104f8565b61011a61024436600461106f565b61065c565b606060038054610258906110a2565b80601f0160208091040260200160405190810160405280929190818152602001828054610284906110a2565b80156102d15780601f106102a6576101008083540402835291602001916102d1565b820191906000526020600020905b8154815290600101906020018083116102b457829003601f168201915b5050505050905090565b6000336102e9818585610687565b60019150505b92915050565b6000336103038582856107ab565b61030e858585610825565b506001949350505050565b60006103236109e1565b905090565b6000336102e981858561033b838361065c565b61034591906110d6565b610687565b6001600160a01b0381166000908152600560205260408120546102ef565b606060048054610258906110a2565b336001600160a01b037f000000000000000000000000000000000000000000000000000000000000000016146103ff5760405162461bcd60e51b815260206004820152602260248201527f4442583a2063616c6c6572206973206e6f7420446562307820636f6e747261636044820152613a1760f11b60648201526084015b60405180910390fd5b6a0424e8a4eaca5ed740000061041460025490565b106104615760405162461bcd60e51b815260206004820152601e60248201527f4442583a206d617820737570706c7920616c7265616479206d696e746564000060448201526064016103f6565b61046b8282610b08565b5050565b6000338161047d828661065c565b9050838110156104dd5760405162461bcd60e51b815260206004820152602560248201527f45524332303a2064656372656173656420616c6c6f77616e63652062656c6f77604482015264207a65726f60d81b60648201526084016103f6565b61030e8286868403610687565b6000336102e9818585610825565b834211156105485760405162461bcd60e51b815260206004820152601d60248201527f45524332305065726d69743a206578706972656420646561646c696e6500000060448201526064016103f6565b60007f6e71edae12b1b97f4d1f60370fef10105fa2faae0126114a169c64845d6126c98888886105778c610bd5565b6040805160208101969096526001600160a01b0394851690860152929091166060840152608083015260a082015260c0810186905260e00160405160208183030381529060405280519060200120905060006105d282610bfd565b905060006105e282878787610c4b565b9050896001600160a01b0316816001600160a01b0316146106455760405162461bcd60e51b815260206004820152601e60248201527f45524332305065726d69743a20696e76616c6964207369676e6174757265000060448201526064016103f6565b6106508a8a8a610687565b50505050505050505050565b6001600160a01b03918216600090815260016020908152604080832093909416825291909152205490565b6001600160a01b0383166106e95760405162461bcd60e51b8152602060048201526024808201527f45524332303a20617070726f76652066726f6d20746865207a65726f206164646044820152637265737360e01b60648201526084016103f6565b6001600160a01b03821661074a5760405162461bcd60e51b815260206004820152602260248201527f45524332303a20617070726f766520746f20746865207a65726f206164647265604482015261737360f01b60648201526084016103f6565b6001600160a01b0383811660008181526001602090815260408083209487168084529482529182902085905590518481527f8c5be1e5ebec7d5bd14f71427d1e84f3dd0314c0f7b2291e5b200ac8c7c3b925910160405180910390a3505050565b60006107b7848461065c565b9050600019811461081f57818110156108125760405162461bcd60e51b815260206004820152601d60248201527f45524332303a20696e73756666696369656e7420616c6c6f77616e636500000060448201526064016103f6565b61081f8484848403610687565b50505050565b6001600160a01b0383166108895760405162461bcd60e51b815260206004820152602560248201527f45524332303a207472616e736665722066726f6d20746865207a65726f206164604482015264647265737360d81b60648201526084016103f6565b6001600160a01b0382166108eb5760405162461bcd60e51b815260206004820152602360248201527f45524332303a207472616e7366657220746f20746865207a65726f206164647260448201526265737360e81b60648201526084016103f6565b6001600160a01b038316600090815260208190526040902054818110156109635760405162461bcd60e51b815260206004820152602660248201527f45524332303a207472616e7366657220616d6f756e7420657863656564732062604482015265616c616e636560d01b60648201526084016103f6565b6001600160a01b0380851660009081526020819052604080822085850390559185168152908120805484929061099a9084906110d6565b92505081905550826001600160a01b0316846001600160a01b031660008051602061110e833981519152846040516109d491815260200190565b60405180910390a361081f565b6000306001600160a01b037f000000000000000000000000000000000000000000000000000000000000000016148015610a3a57507f000000000000000000000000000000000000000000000000000000000000000046145b15610a6457507f000000000000000000000000000000000000000000000000000000000000000090565b50604080517f00000000000000000000000000000000000000000000000000000000000000006020808301919091527f0000000000000000000000000000000000000000000000000000000000000000828401527f000000000000000000000000000000000000000000000000000000000000000060608301524660808301523060a0808401919091528351808403909101815260c0909201909252805191012090565b6001600160a01b038216610b5e5760405162461bcd60e51b815260206004820152601f60248201527f45524332303a206d696e7420746f20746865207a65726f20616464726573730060448201526064016103f6565b8060026000828254610b7091906110d6565b90915550506001600160a01b03821660009081526020819052604081208054839290610b9d9084906110d6565b90915550506040518181526001600160a01b0383169060009060008051602061110e8339815191529060200160405180910390a35050565b6001600160a01b03811660009081526005602052604090208054600181018255905b50919050565b60006102ef610c0a6109e1565b8360405161190160f01b6020820152602281018390526042810182905260009060620160405160208183030381529060405280519060200120905092915050565b6000806000610c5c87878787610c73565b91509150610c6981610d56565b5095945050505050565b6000806fa2a8918ca85bafe22016d0b997e4df60600160ff1b03831115610ca05750600090506003610d4d565b8460ff16601b14158015610cb857508460ff16601c14155b15610cc95750600090506004610d4d565b6040805160008082526020820180845289905260ff881692820192909252606081018690526080810185905260019060a0016020604051602081039080840390855afa158015610d1d573d6000803e3d6000fd5b5050604051601f1901519150506001600160a01b038116610d4657600060019250925050610d4d565b9150600090505b94509492505050565b6000816004811115610d6a57610d6a6110f7565b03610d725750565b6001816004811115610d8657610d866110f7565b03610dce5760405162461bcd60e51b815260206004820152601860248201527745434453413a20696e76616c6964207369676e617475726560401b60448201526064016103f6565b6002816004811115610de257610de26110f7565b03610e2f5760405162461bcd60e51b815260206004820152601f60248201527f45434453413a20696e76616c6964207369676e6174757265206c656e6774680060448201526064016103f6565b6003816004811115610e4357610e436110f7565b03610e9b5760405162461bcd60e51b815260206004820152602260248201527f45434453413a20696e76616c6964207369676e6174757265202773272076616c604482015261756560f01b60648201526084016103f6565b6004816004811115610eaf57610eaf6110f7565b03610f075760405162461bcd60e51b815260206004820152602260248201527f45434453413a20696e76616c6964207369676e6174757265202776272076616c604482015261756560f01b60648201526084016103f6565b50565b600060208083528351808285015260005b81811015610f3757858101830151858201604001528201610f1b565b506000604082860101526040601f19601f8301168501019250505092915050565b80356001600160a01b0381168114610f6f57600080fd5b919050565b60008060408385031215610f8757600080fd5b610f9083610f58565b946020939093013593505050565b600080600060608486031215610fb357600080fd5b610fbc84610f58565b9250610fca60208501610f58565b9150604084013590509250925092565b600060208284031215610fec57600080fd5b610ff582610f58565b9392505050565b600080600080600080600060e0888a03121561101757600080fd5b61102088610f58565b965061102e60208901610f58565b95506040880135945060608801359350608088013560ff8116811461105257600080fd5b9699959850939692959460a0840135945060c09093013592915050565b6000806040838503121561108257600080fd5b61108b83610f58565b915061109960208401610f58565b90509250929050565b600181811c908216806110b657607f821691505b602082108103610bf757634e487b7160e01b600052602260045260246000fd5b808201808211156102ef57634e487b7160e01b600052601160045260246000fd5b634e487b7160e01b600052602160045260246000fdfeddf252ad1be2c89b69c2b068fc378daa952ba7f163c4a11628f55a4df523b3efa26469706673582212205f091021fd4b042d65e33a0e5c8e97abd2d0e972e05544ab52c48cb79bc7ad9d64736f6c63430008110033",
  "linkReferences": {},
  "deployedLinkReferences": {}
}