{
  "_format": "hh-sol-artifact-1",
  "contractName": "Math",
  "sourceName": "contracts/Math.sol",
  "abi": [
    {
      "inputs": [
        {
          "internalType": "uint256",
          "name": "x",
          "type": "uint256"
        }
      ],
      "name": "logX64",
      "outputs": [
        {
          "internalType": "int128",
          "name": "",
          "type": "int128"
        }
      ],
      "stateMutability": "pure",
      "type": "function"
    },
    {
      "inputs": [
        {
          "internalType": "uint256",
          "name": "a",
          "type": "uint256"
        },
        {
          "internalType": "uint256",
          "name": "b",
          "type": "uint256"
        }
      ],
      "name": "max",
      "outputs": [
        {
          "internalType": "uint256",
          "name": "",
          "type": "uint256"
        }
      ],
      "stateMutability": "pure",
      "type": "function"
    },
    {
      "inputs": [
        {
          "internalType": "uint256",
          "name": "a",
          "type": "uint256"
        },
        {
          "internalType": "uint256",
          "name": "b",
          "type": "uint256"
        }
      ],
      "name": "min",
      "outputs": [
        {
          "internalType": "uint256",
          "name": "",
          "type": "uint256"
        }
      ],
      "stateMutability": "pure",
      "type": "function"
    }
  ],
  "bytecode": "0x61025f61003a600b82828239805160001a60731461002d57634e487b7160e01b600052600060045260246000fd5b30600052607381538281f3fe730000000000000000000000000000000000000000301460806040526004361061004b5760003560e01c80634793dbab146100505780636d5433e61461007b5780637ae2b5c71461009c575b600080fd5b61006361005e3660046101ee565b6100af565b604051600f9190910b81526020015b60405180910390f35b61008e610089366004610207565b6100c8565b604051908152602001610072565b61008e6100aa366004610207565b6100df565b60006100c26100bd836100f7565b610114565b92915050565b6000818311156100d95750816100c2565b50919050565b6000818311156100f05750806100c2565b5090919050565b600060016001603f1b0382111561010d57600080fd5b5060401b90565b60008082600f0b1361012557600080fd5b6000600f83900b600160401b811261013f576040918201911d5b600160201b8112610152576020918201911d5b620100008112610164576010918201911d5b6101008112610175576008918201911d5b60108112610185576004918201911d5b60048112610195576002918201911d5b600281126101a4576001820191505b603f19820160401b600f85900b607f8490031b6001603f1b5b60008113156101e35790800260ff81901c8281029390930192607f011c9060011d6101bd565b509095945050505050565b60006020828403121561020057600080fd5b5035919050565b6000806040838503121561021a57600080fd5b5050803592602090910135915056fea2646970667358221220d7e08dc6753abb20d47424835a9cfadbba19ece5c41b281ab8931bb22844b96064736f6c63430008110033",
  "linkReferences": {},
  "deployedLinkReferences": {}
}