{
  "_format": "hh-sol-artifact-1",
  "contractName": "Deb0xViews",
  "sourceName": "contracts/Deb0xViews.sol",
  "abi": [
    {
      "inputs": [
        {
          "internalType": "contract Deb0x",
          "name": "_deb0x",
          "type": "address"
        }
      ],
      "stateMutability": "nonpayable",
      "type": "constructor"
    },
    {
      "inputs": [],
      "name": "calculateCycleReward",
      "outputs": [
        {
          "internalType": "uint256",
          "name": "",
          "type": "uint256"
        }
      ],
      "stateMutability": "view",
      "type": "function"
    },
    {
      "inputs": [],
      "name": "deb0xContractBalance",
      "outputs": [
        {
          "internalType": "uint256",
          "name": "",
          "type": "uint256"
        }
      ],
      "stateMutability": "view",
      "type": "function"
    },
    {
      "inputs": [
        {
          "internalType": "address",
          "name": "staker",
          "type": "address"
        }
      ],
      "name": "getAccWithdrawableStake",
      "outputs": [
        {
          "internalType": "uint256",
          "name": "",
          "type": "uint256"
        }
      ],
      "stateMutability": "view",
      "type": "function"
    },
    {
      "inputs": [
        {
          "internalType": "address",
          "name": "account",
          "type": "address"
        }
      ],
      "name": "getUnclaimedFees",
      "outputs": [
        {
          "internalType": "uint256",
          "name": "",
          "type": "uint256"
        }
      ],
      "stateMutability": "view",
      "type": "function"
    },
    {
      "inputs": [
        {
          "internalType": "address",
          "name": "account",
          "type": "address"
        }
      ],
      "name": "getUnclaimedRewards",
      "outputs": [
        {
          "internalType": "uint256",
          "name": "",
          "type": "uint256"
        }
      ],
      "stateMutability": "view",
      "type": "function"
    }
  ],
  "bytecode": "0x608060405234801561001057600080fd5b50604051611d1a380380611d1a83398101604081905261002f91610054565b600080546001600160a01b0319166001600160a01b0392909216919091179055610084565b60006020828403121561006657600080fd5b81516001600160a01b038116811461007d57600080fd5b9392505050565b611c87806100936000396000f3fe608060405234801561001057600080fd5b50600436106100575760003560e01c806369a69e291461005c578063bf992dea14610081578063cdd5c81f14610094578063d6aef1c6146100a7578063e10bf06a146100af575b600080fd5b61006f61006a366004611b60565b6100c1565b60405190815260200160405180910390f35b61006f61008f366004611b60565b610569565b61006f6100a2366004611b60565b61162e565b61006f611ad5565b6000546001600160a01b03163161006f565b60008054604051631ed6380f60e01b815282916001600160a01b031690631ed6380f906100f2908690600401611b90565b602060405180830381865afa15801561010f573d6000803e3d6000fd5b505050506040513d601f19601f820116820180604052508101906101339190611ba4565b60005460405163ed725e8360e01b81526001600160a01b039091169063ed725e8390610163908790600401611b90565b602060405180830381865afa158015610180573d6000803e3d6000fd5b505050506040513d601f19601f820116820180604052508101906101a49190611ba4565b6101ae9190611bd3565b905060008060009054906101000a90046001600160a01b03166001600160a01b031663be26ed7f6040518163ffffffff1660e01b8152600401602060405180830381865afa158015610204573d6000803e3d6000fd5b505050506040513d601f19601f820116820180604052508101906102289190611ba4565b60005460405163fa845ca960e01b81529192506001600160a01b03169063fa845ca990610259908790600401611b90565b602060405180830381865afa158015610276573d6000803e3d6000fd5b505050506040513d601f19601f8201168201806040525081019061029a9190611ba4565b811180156103175750600054604051631526bda560e21b81526001600160a01b039091169063549af694906102d3908790600401611b90565b602060405180830381865afa1580156102f0573d6000803e3d6000fd5b505050506040513d601f19601f820116820180604052508101906103149190611ba4565b15155b15610562576000805460405163fa845ca960e01b81526001600160a01b03909116906313e6589090829063fa845ca990610355908a90600401611b90565b602060405180830381865afa158015610372573d6000803e3d6000fd5b505050506040513d601f19601f820116820180604052508101906103969190611ba4565b6040518263ffffffff1660e01b81526004016103b491815260200190565b602060405180830381865afa1580156103d1573d6000803e3d6000fd5b505050506040513d601f19601f820116820180604052508101906103f59190611ba4565b60005460405163fa845ca960e01b81526001600160a01b039091169063adc0f68690829063fa845ca99061042d908b90600401611b90565b602060405180830381865afa15801561044a573d6000803e3d6000fd5b505050506040513d601f19601f8201168201806040525081019061046e9190611ba4565b6040518263ffffffff1660e01b815260040161048c91815260200190565b602060405180830381865afa1580156104a9573d6000803e3d6000fd5b505050506040513d601f19601f820116820180604052508101906104cd9190611ba4565b600054604051631526bda560e21b81526001600160a01b039091169063549af694906104fd908a90600401611b90565b602060405180830381865afa15801561051a573d6000803e3d6000fd5b505050506040513d601f19601f8201168201806040525081019061053e9190611ba4565b6105489190611bec565b6105529190611c03565b905061055e8184611c25565b9250505b5092915050565b600080546040805163be26ed7f60e01b8152905183926001600160a01b03169163be26ed7f9160048083019260209291908290030181865afa1580156105b3573d6000803e3d6000fd5b505050506040513d601f19601f820116820180604052508101906105d79190611ba4565b60008054604051630bc7132960e41b815292935090916001600160a01b039091169063bc7132909061060d908790600401611b90565b602060405180830381865afa15801561062a573d6000803e3d6000fd5b505050506040513d601f19601f8201168201806040525081019061064e9190611ba4565b905060008060008054906101000a90046001600160a01b03166001600160a01b0316635f5080b46040518163ffffffff1660e01b8152600401602060405180830381865afa1580156106a4573d6000803e3d6000fd5b505050506040513d601f19601f820116820180604052508101906106c89190611ba4565b905060008060009054906101000a90046001600160a01b03166001600160a01b031663436091c16040518163ffffffff1660e01b8152600401602060405180830381865afa15801561071e573d6000803e3d6000fd5b505050506040513d601f19601f820116820180604052508101906107429190611ba4565b905060008054906101000a90046001600160a01b03166001600160a01b031663f1b371e26040518163ffffffff1660e01b8152600401602060405180830381865afa158015610795573d6000803e3d6000fd5b505050506040513d601f19601f820116820180604052508101906107b99190611ba4565b8514610844576107ca816001611c25565b915060008054906101000a90046001600160a01b03166001600160a01b031663f1b371e26040518163ffffffff1660e01b8152600401602060405180830381865afa15801561081d573d6000803e3d6000fd5b505050506040513d601f19601f820116820180604052508101906108419190611ba4565b90505b80851180156108cb57506000546001600160a01b031663bebc9dfc61086a836001611c25565b6040518263ffffffff1660e01b815260040161088891815260200190565b602060405180830381865afa1580156108a5573d6000803e3d6000fd5b505050506040513d601f19601f820116820180604052508101906108c99190611ba4565b155b15610ba7576000805460405163c4235ae960e01b8152600481018490526001600160a01b039091169063c4235ae990602401602060405180830381865afa15801561091a573d6000803e3d6000fd5b505050506040513d601f19601f8201168201806040525081019061093e9190611ba4565b15610b285760005460405163c4235ae960e01b8152600481018490526001600160a01b039091169063c4235ae990602401602060405180830381865afa15801561098c573d6000803e3d6000fd5b505050506040513d601f19601f820116820180604052508101906109b09190611ba4565b60008054906101000a90046001600160a01b03166001600160a01b031663ef4cadc56040518163ffffffff1660e01b8152600401602060405180830381865afa158015610a01573d6000803e3d6000fd5b505050506040513d601f19601f82011682018060405250810190610a259190611ba4565b60008054906101000a90046001600160a01b03166001600160a01b031663224438d16040518163ffffffff1660e01b8152600401602060405180830381865afa158015610a76573d6000803e3d6000fd5b505050506040513d601f19601f82011682018060405250810190610a9a9190611ba4565b6000546040516303b3885560e21b8152600481018790526001600160a01b0390911690630ece215490602401602060405180830381865afa158015610ae3573d6000803e3d6000fd5b505050506040513d601f19601f82011682018060405250810190610b079190611ba4565b610b119190611c25565b610b1b9190611bec565b610b259190611c03565b90505b600054604051632faf277f60e21b81526004810185905282916001600160a01b03169063bebc9dfc90602401602060405180830381865afa158015610b71573d6000803e3d6000fd5b505050506040513d601f19601f82011682018060405250810190610b959190611ba4565b610b9f9190611c25565b935050610c7f565b600054604080516317d4202d60e21b815290516001600160a01b039092169163bebc9dfc918391635f5080b4916004808201926020929091908290030181865afa158015610bf9573d6000803e3d6000fd5b505050506040513d601f19601f82011682018060405250810190610c1d9190611ba4565b6040518263ffffffff1660e01b8152600401610c3b91815260200190565b602060405180830381865afa158015610c58573d6000803e3d6000fd5b505050506040513d601f19601f82011682018060405250810190610c7c9190611ba4565b92505b6000610c8a886100c1565b90508186118015610d155750610ca1826001611c25565b60005460405163a707140b60e01b81526001600160a01b039091169063a707140b90610cd1908c90600401611b90565b602060405180830381865afa158015610cee573d6000803e3d6000fd5b505050506040513d601f19601f82011682018060405250810190610d129190611ba4565b14155b15610e925760008054906101000a90046001600160a01b03166001600160a01b031663ef4cadc56040518163ffffffff1660e01b8152600401602060405180830381865afa158015610d6b573d6000803e3d6000fd5b505050506040513d601f19601f82011682018060405250810190610d8f9190611ba4565b60005460405163a707140b60e01b81526001600160a01b039091169063bebc9dfc90829063a707140b90610dc7908e90600401611b90565b602060405180830381865afa158015610de4573d6000803e3d6000fd5b505050506040513d601f19601f82011682018060405250810190610e089190611ba4565b6040518263ffffffff1660e01b8152600401610e2691815260200190565b602060405180830381865afa158015610e43573d6000803e3d6000fd5b505050506040513d601f19601f82011682018060405250810190610e679190611ba4565b610e719086611bd3565b610e7b9083611bec565b610e859190611c03565b610e8f9086611c25565b94505b600054604051633983243160e21b81526001600160a01b039091169063e60c90c490610ec2908b90600401611b90565b602060405180830381865afa158015610edf573d6000803e3d6000fd5b505050506040513d601f19601f82011682018060405250810190610f039190611ba4565b15801590610f805750600054604051633983243160e21b81526001600160a01b039091169063e60c90c490610f3c908b90600401611b90565b602060405180830381865afa158015610f59573d6000803e3d6000fd5b505050506040513d601f19601f82011682018060405250810190610f7d9190611ba4565b86115b80156110055750600054604051633983243160e21b81526001600160a01b039091169063e60c90c490610fb7908b90600401611b90565b602060405180830381865afa158015610fd4573d6000803e3d6000fd5b505050506040513d601f19601f82011682018060405250810190610ff89190611ba4565b611003836001611c25565b115b156116225760008054906101000a90046001600160a01b03166001600160a01b031663ef4cadc56040518163ffffffff1660e01b8152600401602060405180830381865afa15801561105b573d6000803e3d6000fd5b505050506040513d601f19601f8201168201806040525081019061107f9190611ba4565b600054604051633983243160e21b81526001600160a01b039091169063bebc9dfc90829063e60c90c4906110b7908e90600401611b90565b602060405180830381865afa1580156110d4573d6000803e3d6000fd5b505050506040513d601f19601f820116820180604052508101906110f89190611ba4565b6040518263ffffffff1660e01b815260040161111691815260200190565b602060405180830381865afa158015611133573d6000803e3d6000fd5b505050506040513d601f19601f820116820180604052508101906111579190611ba4565b6111619086611bd3565b600054604051633983243160e21b81526001600160a01b039091169063aabbb1bd908c90839063e60c90c49061119b908490600401611b90565b602060405180830381865afa1580156111b8573d6000803e3d6000fd5b505050506040513d601f19601f820116820180604052508101906111dc9190611ba4565b6040518363ffffffff1660e01b81526004016111f9929190611c38565b602060405180830381865afa158015611216573d6000803e3d6000fd5b505050506040513d601f19601f8201168201806040525081019061123a9190611ba4565b6112449190611bec565b61124e9190611c03565b6112589086611c25565b6000546040516336e028a360e21b81529196506001600160a01b03169063db80a28c90611289908b90600401611b90565b602060405180830381865afa1580156112a6573d6000803e3d6000fd5b505050506040513d601f19601f820116820180604052508101906112ca9190611ba4565b1580159061134757506000546040516336e028a360e21b81526001600160a01b039091169063db80a28c90611303908b90600401611b90565b602060405180830381865afa158015611320573d6000803e3d6000fd5b505050506040513d601f19601f820116820180604052508101906113449190611ba4565b86115b80156113cc57506000546040516336e028a360e21b81526001600160a01b039091169063db80a28c9061137e908b90600401611b90565b602060405180830381865afa15801561139b573d6000803e3d6000fd5b505050506040513d601f19601f820116820180604052508101906113bf9190611ba4565b6113ca836001611c25565b115b156116225760008054906101000a90046001600160a01b03166001600160a01b031663ef4cadc56040518163ffffffff1660e01b8152600401602060405180830381865afa158015611422573d6000803e3d6000fd5b505050506040513d601f19601f820116820180604052508101906114469190611ba4565b6000546040516336e028a360e21b81526001600160a01b039091169063bebc9dfc90829063db80a28c9061147e908e90600401611b90565b602060405180830381865afa15801561149b573d6000803e3d6000fd5b505050506040513d601f19601f820116820180604052508101906114bf9190611ba4565b6040518263ffffffff1660e01b81526004016114dd91815260200190565b602060405180830381865afa1580156114fa573d6000803e3d6000fd5b505050506040513d601f19601f8201168201806040525081019061151e9190611ba4565b6115289086611bd3565b6000546040516336e028a360e21b81526001600160a01b039091169063aabbb1bd908c90839063db80a28c90611562908490600401611b90565b602060405180830381865afa15801561157f573d6000803e3d6000fd5b505050506040513d601f19601f820116820180604052508101906115a39190611ba4565b6040518363ffffffff1660e01b81526004016115c0929190611c38565b602060405180830381865afa1580156115dd573d6000803e3d6000fd5b505050506040513d601f19601f820116820180604052508101906116019190611ba4565b61160b9190611bec565b6116159190611c03565b61161f9086611c25565b94505b50929695505050505050565b600080546040805163be26ed7f60e01b8152905183926001600160a01b03169163be26ed7f9160048083019260209291908290030181865afa158015611678573d6000803e3d6000fd5b505050506040513d601f19601f8201168201806040525081019061169c9190611ba4565b60008054604051633983243160e21b815292935090916001600160a01b039091169063e60c90c4906116d2908790600401611b90565b602060405180830381865afa1580156116ef573d6000803e3d6000fd5b505050506040513d601f19601f820116820180604052508101906117139190611ba4565b158015906117905750600054604051633983243160e21b81526001600160a01b039091169063e60c90c49061174c908790600401611b90565b602060405180830381865afa158015611769573d6000803e3d6000fd5b505050506040513d601f19601f8201168201806040525081019061178d9190611ba4565b82115b15611a5257600054604051633983243160e21b81526001600160a01b039091169063aabbb1bd908690839063e60c90c4906117cf908490600401611b90565b602060405180830381865afa1580156117ec573d6000803e3d6000fd5b505050506040513d601f19601f820116820180604052508101906118109190611ba4565b6040518363ffffffff1660e01b815260040161182d929190611c38565b602060405180830381865afa15801561184a573d6000803e3d6000fd5b505050506040513d601f19601f8201168201806040525081019061186e9190611ba4565b6118789082611c25565b6000546040516336e028a360e21b81529192506001600160a01b03169063db80a28c906118a9908790600401611b90565b602060405180830381865afa1580156118c6573d6000803e3d6000fd5b505050506040513d601f19601f820116820180604052508101906118ea9190611ba4565b1580159061196757506000546040516336e028a360e21b81526001600160a01b039091169063db80a28c90611923908790600401611b90565b602060405180830381865afa158015611940573d6000803e3d6000fd5b505050506040513d601f19601f820116820180604052508101906119649190611ba4565b82115b15611a52576000546040516336e028a360e21b81526001600160a01b039091169063aabbb1bd908690839063db80a28c906119a6908490600401611b90565b602060405180830381865afa1580156119c3573d6000803e3d6000fd5b505050506040513d601f19601f820116820180604052508101906119e79190611ba4565b6040518363ffffffff1660e01b8152600401611a04929190611c38565b602060405180830381865afa158015611a21573d6000803e3d6000fd5b505050506040513d601f19601f82011682018060405250810190611a459190611ba4565b611a4f9082611c25565b90505b600054604051631ed6380f60e01b815282916001600160a01b031690631ed6380f90611a82908890600401611b90565b602060405180830381865afa158015611a9f573d6000803e3d6000fd5b505050506040513d601f19601f82011682018060405250810190611ac39190611ba4565b611acd9190611c25565b949350505050565b6000805460408051632a57c76b60e21b81529051612724926001600160a01b03169163a95f1dac9160048083019260209291908290030181865afa158015611b21573d6000803e3d6000fd5b505050506040513d601f19601f82011682018060405250810190611b459190611ba4565b611b5190612710611bec565b611b5b9190611c03565b905090565b600060208284031215611b7257600080fd5b81356001600160a01b0381168114611b8957600080fd5b9392505050565b6001600160a01b0391909116815260200190565b600060208284031215611bb657600080fd5b5051919050565b634e487b7160e01b600052601160045260246000fd5b81810381811115611be657611be6611bbd565b92915050565b8082028115828204841417611be657611be6611bbd565b600082611c2057634e487b7160e01b600052601260045260246000fd5b500490565b80820180821115611be657611be6611bbd565b6001600160a01b0392909216825260208201526040019056fea26469706673582212200a2d484360b42197b3bde0d64543c6396376234c965b409271dd1b6d18cf5bf764736f6c63430008110033",
  "linkReferences": {},
  "deployedLinkReferences": {}
}