{
  "_format": "hh-sol-artifact-1",
  "contractName": "Deb0xViews",
  "sourceName": "contracts/Deb0xViews.sol",
  "abi": [
    {
      "inputs": [
        {
          "internalType": "contract Deb0x",
          "name": "_deb0x",
          "type": "address"
        }
      ],
      "stateMutability": "nonpayable",
      "type": "constructor"
    },
    {
      "inputs": [],
      "name": "calculateCycleReward",
      "outputs": [
        {
          "internalType": "uint256",
          "name": "",
          "type": "uint256"
        }
      ],
      "stateMutability": "view",
      "type": "function"
    },
    {
      "inputs": [],
      "name": "deb0xContractBalance",
      "outputs": [
        {
          "internalType": "uint256",
          "name": "",
          "type": "uint256"
        }
      ],
      "stateMutability": "view",
      "type": "function"
    },
    {
      "inputs": [
        {
          "internalType": "address",
          "name": "staker",
          "type": "address"
        }
      ],
      "name": "getAccWithdrawableStake",
      "outputs": [
        {
          "internalType": "uint256",
          "name": "",
          "type": "uint256"
        }
      ],
      "stateMutability": "view",
      "type": "function"
    },
    {
      "inputs": [
        {
          "internalType": "address",
          "name": "account",
          "type": "address"
        }
      ],
      "name": "getUnclaimedFees",
      "outputs": [
        {
          "internalType": "uint256",
          "name": "",
          "type": "uint256"
        }
      ],
      "stateMutability": "view",
      "type": "function"
    },
    {
      "inputs": [
        {
          "internalType": "address",
          "name": "account",
          "type": "address"
        }
      ],
      "name": "getUnclaimedRewards",
      "outputs": [
        {
          "internalType": "uint256",
          "name": "",
          "type": "uint256"
        }
      ],
      "stateMutability": "view",
      "type": "function"
    }
  ],
  "bytecode": "0x608060405234801561001057600080fd5b50604051611c9f380380611c9f83398101604081905261002f91610054565b600080546001600160a01b0319166001600160a01b0392909216919091179055610084565b60006020828403121561006657600080fd5b81516001600160a01b038116811461007d57600080fd5b9392505050565b611c0c806100936000396000f3fe608060405234801561001057600080fd5b50600436106100575760003560e01c806369a69e291461005c578063bf992dea14610081578063cdd5c81f14610094578063d6aef1c6146100a7578063e10bf06a146100af575b600080fd5b61006f61006a366004611ae5565b6100c1565b60405190815260200160405180910390f35b61006f61008f366004611ae5565b6104ee565b61006f6100a2366004611ae5565b6115b3565b61006f611a5a565b6000546001600160a01b03163161006f565b6000805460405163ed725e8360e01b815282916001600160a01b03169063ed725e83906100f2908690600401611b15565b602060405180830381865afa15801561010f573d6000803e3d6000fd5b505050506040513d601f19601f820116820180604052508101906101339190611b29565b905060008060009054906101000a90046001600160a01b03166001600160a01b031663be26ed7f6040518163ffffffff1660e01b8152600401602060405180830381865afa158015610189573d6000803e3d6000fd5b505050506040513d601f19601f820116820180604052508101906101ad9190611b29565b60005460405163fa845ca960e01b81529192506001600160a01b03169063fa845ca9906101de908790600401611b15565b602060405180830381865afa1580156101fb573d6000803e3d6000fd5b505050506040513d601f19601f8201168201806040525081019061021f9190611b29565b8111801561029c5750600054604051631526bda560e21b81526001600160a01b039091169063549af69490610258908790600401611b15565b602060405180830381865afa158015610275573d6000803e3d6000fd5b505050506040513d601f19601f820116820180604052508101906102999190611b29565b15155b156104e7576000805460405163fa845ca960e01b81526001600160a01b03909116906313e6589090829063fa845ca9906102da908a90600401611b15565b602060405180830381865afa1580156102f7573d6000803e3d6000fd5b505050506040513d601f19601f8201168201806040525081019061031b9190611b29565b6040518263ffffffff1660e01b815260040161033991815260200190565b602060405180830381865afa158015610356573d6000803e3d6000fd5b505050506040513d601f19601f8201168201806040525081019061037a9190611b29565b60005460405163fa845ca960e01b81526001600160a01b039091169063adc0f68690829063fa845ca9906103b2908b90600401611b15565b602060405180830381865afa1580156103cf573d6000803e3d6000fd5b505050506040513d601f19601f820116820180604052508101906103f39190611b29565b6040518263ffffffff1660e01b815260040161041191815260200190565b602060405180830381865afa15801561042e573d6000803e3d6000fd5b505050506040513d601f19601f820116820180604052508101906104529190611b29565b600054604051631526bda560e21b81526001600160a01b039091169063549af69490610482908a90600401611b15565b602060405180830381865afa15801561049f573d6000803e3d6000fd5b505050506040513d601f19601f820116820180604052508101906104c39190611b29565b6104cd9190611b58565b6104d79190611b75565b90506104e38184611b97565b9250505b5092915050565b600080546040805163be26ed7f60e01b8152905183926001600160a01b03169163be26ed7f9160048083019260209291908290030181865afa158015610538573d6000803e3d6000fd5b505050506040513d601f19601f8201168201806040525081019061055c9190611b29565b60008054604051630bc7132960e41b815292935090916001600160a01b039091169063bc71329090610592908790600401611b15565b602060405180830381865afa1580156105af573d6000803e3d6000fd5b505050506040513d601f19601f820116820180604052508101906105d39190611b29565b905060008060008054906101000a90046001600160a01b03166001600160a01b0316635f5080b46040518163ffffffff1660e01b8152600401602060405180830381865afa158015610629573d6000803e3d6000fd5b505050506040513d601f19601f8201168201806040525081019061064d9190611b29565b905060008060009054906101000a90046001600160a01b03166001600160a01b031663436091c16040518163ffffffff1660e01b8152600401602060405180830381865afa1580156106a3573d6000803e3d6000fd5b505050506040513d601f19601f820116820180604052508101906106c79190611b29565b905060008054906101000a90046001600160a01b03166001600160a01b031663f1b371e26040518163ffffffff1660e01b8152600401602060405180830381865afa15801561071a573d6000803e3d6000fd5b505050506040513d601f19601f8201168201806040525081019061073e9190611b29565b85146107c95761074f816001611b97565b915060008054906101000a90046001600160a01b03166001600160a01b031663f1b371e26040518163ffffffff1660e01b8152600401602060405180830381865afa1580156107a2573d6000803e3d6000fd5b505050506040513d601f19601f820116820180604052508101906107c69190611b29565b90505b808511801561085057506000546001600160a01b031663bebc9dfc6107ef836001611b97565b6040518263ffffffff1660e01b815260040161080d91815260200190565b602060405180830381865afa15801561082a573d6000803e3d6000fd5b505050506040513d601f19601f8201168201806040525081019061084e9190611b29565b155b15610b2c576000805460405163c4235ae960e01b8152600481018490526001600160a01b039091169063c4235ae990602401602060405180830381865afa15801561089f573d6000803e3d6000fd5b505050506040513d601f19601f820116820180604052508101906108c39190611b29565b15610aad5760005460405163c4235ae960e01b8152600481018490526001600160a01b039091169063c4235ae990602401602060405180830381865afa158015610911573d6000803e3d6000fd5b505050506040513d601f19601f820116820180604052508101906109359190611b29565b60008054906101000a90046001600160a01b03166001600160a01b031663ef4cadc56040518163ffffffff1660e01b8152600401602060405180830381865afa158015610986573d6000803e3d6000fd5b505050506040513d601f19601f820116820180604052508101906109aa9190611b29565b60008054906101000a90046001600160a01b03166001600160a01b031663224438d16040518163ffffffff1660e01b8152600401602060405180830381865afa1580156109fb573d6000803e3d6000fd5b505050506040513d601f19601f82011682018060405250810190610a1f9190611b29565b6000546040516303b3885560e21b8152600481018790526001600160a01b0390911690630ece215490602401602060405180830381865afa158015610a68573d6000803e3d6000fd5b505050506040513d601f19601f82011682018060405250810190610a8c9190611b29565b610a969190611b97565b610aa09190611b58565b610aaa9190611b75565b90505b600054604051632faf277f60e21b81526004810185905282916001600160a01b03169063bebc9dfc90602401602060405180830381865afa158015610af6573d6000803e3d6000fd5b505050506040513d601f19601f82011682018060405250810190610b1a9190611b29565b610b249190611b97565b935050610c04565b600054604080516317d4202d60e21b815290516001600160a01b039092169163bebc9dfc918391635f5080b4916004808201926020929091908290030181865afa158015610b7e573d6000803e3d6000fd5b505050506040513d601f19601f82011682018060405250810190610ba29190611b29565b6040518263ffffffff1660e01b8152600401610bc091815260200190565b602060405180830381865afa158015610bdd573d6000803e3d6000fd5b505050506040513d601f19601f82011682018060405250810190610c019190611b29565b92505b6000610c0f886100c1565b90508186118015610c9a5750610c26826001611b97565b60005460405163a707140b60e01b81526001600160a01b039091169063a707140b90610c56908c90600401611b15565b602060405180830381865afa158015610c73573d6000803e3d6000fd5b505050506040513d601f19601f82011682018060405250810190610c979190611b29565b14155b15610e175760008054906101000a90046001600160a01b03166001600160a01b031663ef4cadc56040518163ffffffff1660e01b8152600401602060405180830381865afa158015610cf0573d6000803e3d6000fd5b505050506040513d601f19601f82011682018060405250810190610d149190611b29565b60005460405163a707140b60e01b81526001600160a01b039091169063bebc9dfc90829063a707140b90610d4c908e90600401611b15565b602060405180830381865afa158015610d69573d6000803e3d6000fd5b505050506040513d601f19601f82011682018060405250810190610d8d9190611b29565b6040518263ffffffff1660e01b8152600401610dab91815260200190565b602060405180830381865afa158015610dc8573d6000803e3d6000fd5b505050506040513d601f19601f82011682018060405250810190610dec9190611b29565b610df69086611baa565b610e009083611b58565b610e0a9190611b75565b610e149086611b97565b94505b600054604051633983243160e21b81526001600160a01b039091169063e60c90c490610e47908b90600401611b15565b602060405180830381865afa158015610e64573d6000803e3d6000fd5b505050506040513d601f19601f82011682018060405250810190610e889190611b29565b15801590610f055750600054604051633983243160e21b81526001600160a01b039091169063e60c90c490610ec1908b90600401611b15565b602060405180830381865afa158015610ede573d6000803e3d6000fd5b505050506040513d601f19601f82011682018060405250810190610f029190611b29565b86115b8015610f8a5750600054604051633983243160e21b81526001600160a01b039091169063e60c90c490610f3c908b90600401611b15565b602060405180830381865afa158015610f59573d6000803e3d6000fd5b505050506040513d601f19601f82011682018060405250810190610f7d9190611b29565b610f88836001611b97565b115b156115a75760008054906101000a90046001600160a01b03166001600160a01b031663ef4cadc56040518163ffffffff1660e01b8152600401602060405180830381865afa158015610fe0573d6000803e3d6000fd5b505050506040513d601f19601f820116820180604052508101906110049190611b29565b600054604051633983243160e21b81526001600160a01b039091169063bebc9dfc90829063e60c90c49061103c908e90600401611b15565b602060405180830381865afa158015611059573d6000803e3d6000fd5b505050506040513d601f19601f8201168201806040525081019061107d9190611b29565b6040518263ffffffff1660e01b815260040161109b91815260200190565b602060405180830381865afa1580156110b8573d6000803e3d6000fd5b505050506040513d601f19601f820116820180604052508101906110dc9190611b29565b6110e69086611baa565b600054604051633983243160e21b81526001600160a01b039091169063aabbb1bd908c90839063e60c90c490611120908490600401611b15565b602060405180830381865afa15801561113d573d6000803e3d6000fd5b505050506040513d601f19601f820116820180604052508101906111619190611b29565b6040518363ffffffff1660e01b815260040161117e929190611bbd565b602060405180830381865afa15801561119b573d6000803e3d6000fd5b505050506040513d601f19601f820116820180604052508101906111bf9190611b29565b6111c99190611b58565b6111d39190611b75565b6111dd9086611b97565b6000546040516336e028a360e21b81529196506001600160a01b03169063db80a28c9061120e908b90600401611b15565b602060405180830381865afa15801561122b573d6000803e3d6000fd5b505050506040513d601f19601f8201168201806040525081019061124f9190611b29565b158015906112cc57506000546040516336e028a360e21b81526001600160a01b039091169063db80a28c90611288908b90600401611b15565b602060405180830381865afa1580156112a5573d6000803e3d6000fd5b505050506040513d601f19601f820116820180604052508101906112c99190611b29565b86115b801561135157506000546040516336e028a360e21b81526001600160a01b039091169063db80a28c90611303908b90600401611b15565b602060405180830381865afa158015611320573d6000803e3d6000fd5b505050506040513d601f19601f820116820180604052508101906113449190611b29565b61134f836001611b97565b115b156115a75760008054906101000a90046001600160a01b03166001600160a01b031663ef4cadc56040518163ffffffff1660e01b8152600401602060405180830381865afa1580156113a7573d6000803e3d6000fd5b505050506040513d601f19601f820116820180604052508101906113cb9190611b29565b6000546040516336e028a360e21b81526001600160a01b039091169063bebc9dfc90829063db80a28c90611403908e90600401611b15565b602060405180830381865afa158015611420573d6000803e3d6000fd5b505050506040513d601f19601f820116820180604052508101906114449190611b29565b6040518263ffffffff1660e01b815260040161146291815260200190565b602060405180830381865afa15801561147f573d6000803e3d6000fd5b505050506040513d601f19601f820116820180604052508101906114a39190611b29565b6114ad9086611baa565b6000546040516336e028a360e21b81526001600160a01b039091169063aabbb1bd908c90839063db80a28c906114e7908490600401611b15565b602060405180830381865afa158015611504573d6000803e3d6000fd5b505050506040513d601f19601f820116820180604052508101906115289190611b29565b6040518363ffffffff1660e01b8152600401611545929190611bbd565b602060405180830381865afa158015611562573d6000803e3d6000fd5b505050506040513d601f19601f820116820180604052508101906115869190611b29565b6115909190611b58565b61159a9190611b75565b6115a49086611b97565b94505b50929695505050505050565b600080546040805163be26ed7f60e01b8152905183926001600160a01b03169163be26ed7f9160048083019260209291908290030181865afa1580156115fd573d6000803e3d6000fd5b505050506040513d601f19601f820116820180604052508101906116219190611b29565b60008054604051633983243160e21b815292935090916001600160a01b039091169063e60c90c490611657908790600401611b15565b602060405180830381865afa158015611674573d6000803e3d6000fd5b505050506040513d601f19601f820116820180604052508101906116989190611b29565b158015906117155750600054604051633983243160e21b81526001600160a01b039091169063e60c90c4906116d1908790600401611b15565b602060405180830381865afa1580156116ee573d6000803e3d6000fd5b505050506040513d601f19601f820116820180604052508101906117129190611b29565b82115b156119d757600054604051633983243160e21b81526001600160a01b039091169063aabbb1bd908690839063e60c90c490611754908490600401611b15565b602060405180830381865afa158015611771573d6000803e3d6000fd5b505050506040513d601f19601f820116820180604052508101906117959190611b29565b6040518363ffffffff1660e01b81526004016117b2929190611bbd565b602060405180830381865afa1580156117cf573d6000803e3d6000fd5b505050506040513d601f19601f820116820180604052508101906117f39190611b29565b6117fd9082611b97565b6000546040516336e028a360e21b81529192506001600160a01b03169063db80a28c9061182e908790600401611b15565b602060405180830381865afa15801561184b573d6000803e3d6000fd5b505050506040513d601f19601f8201168201806040525081019061186f9190611b29565b158015906118ec57506000546040516336e028a360e21b81526001600160a01b039091169063db80a28c906118a8908790600401611b15565b602060405180830381865afa1580156118c5573d6000803e3d6000fd5b505050506040513d601f19601f820116820180604052508101906118e99190611b29565b82115b156119d7576000546040516336e028a360e21b81526001600160a01b039091169063aabbb1bd908690839063db80a28c9061192b908490600401611b15565b602060405180830381865afa158015611948573d6000803e3d6000fd5b505050506040513d601f19601f8201168201806040525081019061196c9190611b29565b6040518363ffffffff1660e01b8152600401611989929190611bbd565b602060405180830381865afa1580156119a6573d6000803e3d6000fd5b505050506040513d601f19601f820116820180604052508101906119ca9190611b29565b6119d49082611b97565b90505b600054604051631ed6380f60e01b815282916001600160a01b031690631ed6380f90611a07908890600401611b15565b602060405180830381865afa158015611a24573d6000803e3d6000fd5b505050506040513d601f19601f82011682018060405250810190611a489190611b29565b611a529190611b97565b949350505050565b6000805460408051632a57c76b60e21b81529051612724926001600160a01b03169163a95f1dac9160048083019260209291908290030181865afa158015611aa6573d6000803e3d6000fd5b505050506040513d601f19601f82011682018060405250810190611aca9190611b29565b611ad690612710611b58565b611ae09190611b75565b905090565b600060208284031215611af757600080fd5b81356001600160a01b0381168114611b0e57600080fd5b9392505050565b6001600160a01b0391909116815260200190565b600060208284031215611b3b57600080fd5b5051919050565b634e487b7160e01b600052601160045260246000fd5b8082028115828204841417611b6f57611b6f611b42565b92915050565b600082611b9257634e487b7160e01b600052601260045260246000fd5b500490565b80820180821115611b6f57611b6f611b42565b81810381811115611b6f57611b6f611b42565b6001600160a01b0392909216825260208201526040019056fea2646970667358221220bb9c77adb7e17d4aee2db3090c9b552e6d88509fdcbf7c86dabe93701ac56a1e64736f6c63430008110033",
  "linkReferences": {},
  "deployedLinkReferences": {}
}