{
  "_format": "hh-sol-artifact-1",
  "contractName": "Deb0xERC20",
  "sourceName": "contracts/Deb0xERC20.sol",
  "abi": [
    {
      "inputs": [],
      "stateMutability": "nonpayable",
      "type": "constructor"
    },
    {
      "anonymous": false,
      "inputs": [
        {
          "indexed": true,
          "internalType": "address",
          "name": "owner",
          "type": "address"
        },
        {
          "indexed": true,
          "internalType": "address",
          "name": "spender",
          "type": "address"
        },
        {
          "indexed": false,
          "internalType": "uint256",
          "name": "value",
          "type": "uint256"
        }
      ],
      "name": "Approval",
      "type": "event"
    },
    {
      "anonymous": false,
      "inputs": [
        {
          "indexed": true,
          "internalType": "address",
          "name": "from",
          "type": "address"
        },
        {
          "indexed": true,
          "internalType": "address",
          "name": "to",
          "type": "address"
        },
        {
          "indexed": false,
          "internalType": "uint256",
          "name": "value",
          "type": "uint256"
        }
      ],
      "name": "Transfer",
      "type": "event"
    },
    {
      "inputs": [],
      "name": "DOMAIN_SEPARATOR",
      "outputs": [
        {
          "internalType": "bytes32",
          "name": "",
          "type": "bytes32"
        }
      ],
      "stateMutability": "view",
      "type": "function"
    },
    {
      "inputs": [
        {
          "internalType": "address",
          "name": "owner",
          "type": "address"
        },
        {
          "internalType": "address",
          "name": "spender",
          "type": "address"
        }
      ],
      "name": "allowance",
      "outputs": [
        {
          "internalType": "uint256",
          "name": "",
          "type": "uint256"
        }
      ],
      "stateMutability": "view",
      "type": "function"
    },
    {
      "inputs": [
        {
          "internalType": "address",
          "name": "spender",
          "type": "address"
        },
        {
          "internalType": "uint256",
          "name": "amount",
          "type": "uint256"
        }
      ],
      "name": "approve",
      "outputs": [
        {
          "internalType": "bool",
          "name": "",
          "type": "bool"
        }
      ],
      "stateMutability": "nonpayable",
      "type": "function"
    },
    {
      "inputs": [
        {
          "internalType": "address",
          "name": "account",
          "type": "address"
        }
      ],
      "name": "balanceOf",
      "outputs": [
        {
          "internalType": "uint256",
          "name": "",
          "type": "uint256"
        }
      ],
      "stateMutability": "view",
      "type": "function"
    },
    {
      "inputs": [],
      "name": "decimals",
      "outputs": [
        {
          "internalType": "uint8",
          "name": "",
          "type": "uint8"
        }
      ],
      "stateMutability": "view",
      "type": "function"
    },
    {
      "inputs": [
        {
          "internalType": "address",
          "name": "spender",
          "type": "address"
        },
        {
          "internalType": "uint256",
          "name": "subtractedValue",
          "type": "uint256"
        }
      ],
      "name": "decreaseAllowance",
      "outputs": [
        {
          "internalType": "bool",
          "name": "",
          "type": "bool"
        }
      ],
      "stateMutability": "nonpayable",
      "type": "function"
    },
    {
      "inputs": [
        {
          "internalType": "address",
          "name": "spender",
          "type": "address"
        },
        {
          "internalType": "uint256",
          "name": "addedValue",
          "type": "uint256"
        }
      ],
      "name": "increaseAllowance",
      "outputs": [
        {
          "internalType": "bool",
          "name": "",
          "type": "bool"
        }
      ],
      "stateMutability": "nonpayable",
      "type": "function"
    },
    {
      "inputs": [
        {
          "internalType": "address",
          "name": "account",
          "type": "address"
        },
        {
          "internalType": "uint256",
          "name": "amount",
          "type": "uint256"
        }
      ],
      "name": "mintReward",
      "outputs": [],
      "stateMutability": "nonpayable",
      "type": "function"
    },
    {
      "inputs": [],
      "name": "name",
      "outputs": [
        {
          "internalType": "string",
          "name": "",
          "type": "string"
        }
      ],
      "stateMutability": "view",
      "type": "function"
    },
    {
      "inputs": [
        {
          "internalType": "address",
          "name": "owner",
          "type": "address"
        }
      ],
      "name": "nonces",
      "outputs": [
        {
          "internalType": "uint256",
          "name": "",
          "type": "uint256"
        }
      ],
      "stateMutability": "view",
      "type": "function"
    },
    {
      "inputs": [],
      "name": "owner",
      "outputs": [
        {
          "internalType": "address",
          "name": "",
          "type": "address"
        }
      ],
      "stateMutability": "view",
      "type": "function"
    },
    {
      "inputs": [
        {
          "internalType": "address",
          "name": "owner",
          "type": "address"
        },
        {
          "internalType": "address",
          "name": "spender",
          "type": "address"
        },
        {
          "internalType": "uint256",
          "name": "value",
          "type": "uint256"
        },
        {
          "internalType": "uint256",
          "name": "deadline",
          "type": "uint256"
        },
        {
          "internalType": "uint8",
          "name": "v",
          "type": "uint8"
        },
        {
          "internalType": "bytes32",
          "name": "r",
          "type": "bytes32"
        },
        {
          "internalType": "bytes32",
          "name": "s",
          "type": "bytes32"
        }
      ],
      "name": "permit",
      "outputs": [],
      "stateMutability": "nonpayable",
      "type": "function"
    },
    {
      "inputs": [],
      "name": "symbol",
      "outputs": [
        {
          "internalType": "string",
          "name": "",
          "type": "string"
        }
      ],
      "stateMutability": "view",
      "type": "function"
    },
    {
      "inputs": [],
      "name": "totalSupply",
      "outputs": [
        {
          "internalType": "uint256",
          "name": "",
          "type": "uint256"
        }
      ],
      "stateMutability": "view",
      "type": "function"
    },
    {
      "inputs": [
        {
          "internalType": "address",
          "name": "to",
          "type": "address"
        },
        {
          "internalType": "uint256",
          "name": "amount",
          "type": "uint256"
        }
      ],
      "name": "transfer",
      "outputs": [
        {
          "internalType": "bool",
          "name": "",
          "type": "bool"
        }
      ],
      "stateMutability": "nonpayable",
      "type": "function"
    },
    {
      "inputs": [
        {
          "internalType": "address",
          "name": "from",
          "type": "address"
        },
        {
          "internalType": "address",
          "name": "to",
          "type": "address"
        },
        {
          "internalType": "uint256",
          "name": "amount",
          "type": "uint256"
        }
      ],
      "name": "transferFrom",
      "outputs": [
        {
          "internalType": "bool",
          "name": "",
          "type": "bool"
        }
      ],
      "stateMutability": "nonpayable",
      "type": "function"
    }
  ],
  "bytecode": "0x6101606040523480156200001257600080fd5b506040518060400160405280601d81526020017f44656230782052657761726420546f6b656e206f6e20506f6c79676f6e00000081525080604051806040016040528060018152602001603160f81b8152506040518060400160405280601d81526020017f44656230782052657761726420546f6b656e206f6e20506f6c79676f6e000000815250604051806040016040528060048152602001630e08884b60e31b8152508160039081620000c891906200021a565b506004620000d782826200021a565b5050825160209384012082519284019290922060e08390526101008190524660a0818152604080517f8b73c3c69bb8fe3d512ecc4cf759cc79239f7b179b0ffacaa9a75d522b39400f818901819052818301979097526060810194909452608080850193909352308483018190528151808603909301835260c0948501909152815191909601209052929092526101205250503361014052620002e6565b634e487b7160e01b600052604160045260246000fd5b600181811c90821680620001a057607f821691505b602082108103620001c157634e487b7160e01b600052602260045260246000fd5b50919050565b601f8211156200021557600081815260208120601f850160051c81016020861015620001f05750805b601f850160051c820191505b818110156200021157828155600101620001fc565b5050505b505050565b81516001600160401b0381111562000236576200023662000175565b6200024e816200024784546200018b565b84620001c7565b602080601f8311600181146200028657600084156200026d5750858301515b600019600386901b1c1916600185901b17855562000211565b600085815260208120601f198616915b82811015620002b75788860151825594840194600190910190840162000296565b5085821015620002d65787850151600019600388901b60f8161c191681555b5050505050600190811b01905550565b60805160a05160c05160e05161010051610120516101405161116362000348600039600081816101a6015261038201526000610a6b01526000610aba01526000610a95015260006109ee01526000610a1801526000610a4201526111636000f3fe608060405234801561001057600080fd5b50600436106100d05760003560e01c806306fdde03146100d5578063095ea7b3146100f357806318160ddd1461011657806323b872dd14610128578063313ce5671461013b5780633644e5151461014a578063395093511461015257806370a08231146101655780637ecebe001461018e5780638da5cb5b146101a157806395d89b41146101e05780639a49090e146101e8578063a457c2d7146101fd578063a9059cbb14610210578063d505accf14610223578063dd62ed3e14610236575b600080fd5b6100dd610249565b6040516100ea9190610f0a565b60405180910390f35b610106610101366004610f74565b6102db565b60405190151581526020016100ea565b6002545b6040519081526020016100ea565b610106610136366004610f9e565b6102f5565b604051601281526020016100ea565b61011a610319565b610106610160366004610f74565b610328565b61011a610173366004610fda565b6001600160a01b031660009081526020819052604090205490565b61011a61019c366004610fda565b61034a565b6101c87f000000000000000000000000000000000000000000000000000000000000000081565b6040516001600160a01b0390911681526020016100ea565b6100dd610368565b6101fb6101f6366004610f74565b610377565b005b61010661020b366004610f74565b61046f565b61010661021e366004610f74565b6104ea565b6101fb610231366004610ffc565b6104f8565b61011a61024436600461106f565b61065c565b606060038054610258906110a2565b80601f0160208091040260200160405190810160405280929190818152602001828054610284906110a2565b80156102d15780601f106102a6576101008083540402835291602001916102d1565b820191906000526020600020905b8154815290600101906020018083116102b457829003601f168201915b5050505050905090565b6000336102e9818585610687565b60019150505b92915050565b6000336103038582856107ab565b61030e858585610825565b506001949350505050565b60006103236109e1565b905090565b6000336102e981858561033b838361065c565b61034591906110d6565b610687565b6001600160a01b0381166000908152600560205260408120546102ef565b606060048054610258906110a2565b336001600160a01b037f000000000000000000000000000000000000000000000000000000000000000016146103ff5760405162461bcd60e51b815260206004820152602260248201527f4442583a2063616c6c6572206973206e6f7420446562307820636f6e747261636044820152613a1760f11b60648201526084015b60405180910390fd5b6a0424e8a4eaca5ed740000061041460025490565b106104615760405162461bcd60e51b815260206004820152601e60248201527f4442583a206d617820737570706c7920616c7265616479206d696e746564000060448201526064016103f6565b61046b8282610b08565b5050565b6000338161047d828661065c565b9050838110156104dd5760405162461bcd60e51b815260206004820152602560248201527f45524332303a2064656372656173656420616c6c6f77616e63652062656c6f77604482015264207a65726f60d81b60648201526084016103f6565b61030e8286868403610687565b6000336102e9818585610825565b834211156105485760405162461bcd60e51b815260206004820152601d60248201527f45524332305065726d69743a206578706972656420646561646c696e6500000060448201526064016103f6565b60007f6e71edae12b1b97f4d1f60370fef10105fa2faae0126114a169c64845d6126c98888886105778c610bd5565b6040805160208101969096526001600160a01b0394851690860152929091166060840152608083015260a082015260c0810186905260e00160405160208183030381529060405280519060200120905060006105d282610bfd565b905060006105e282878787610c4b565b9050896001600160a01b0316816001600160a01b0316146106455760405162461bcd60e51b815260206004820152601e60248201527f45524332305065726d69743a20696e76616c6964207369676e6174757265000060448201526064016103f6565b6106508a8a8a610687565b50505050505050505050565b6001600160a01b03918216600090815260016020908152604080832093909416825291909152205490565b6001600160a01b0383166106e95760405162461bcd60e51b8152602060048201526024808201527f45524332303a20617070726f76652066726f6d20746865207a65726f206164646044820152637265737360e01b60648201526084016103f6565b6001600160a01b03821661074a5760405162461bcd60e51b815260206004820152602260248201527f45524332303a20617070726f766520746f20746865207a65726f206164647265604482015261737360f01b60648201526084016103f6565b6001600160a01b0383811660008181526001602090815260408083209487168084529482529182902085905590518481527f8c5be1e5ebec7d5bd14f71427d1e84f3dd0314c0f7b2291e5b200ac8c7c3b925910160405180910390a3505050565b60006107b7848461065c565b9050600019811461081f57818110156108125760405162461bcd60e51b815260206004820152601d60248201527f45524332303a20696e73756666696369656e7420616c6c6f77616e636500000060448201526064016103f6565b61081f8484848403610687565b50505050565b6001600160a01b0383166108895760405162461bcd60e51b815260206004820152602560248201527f45524332303a207472616e736665722066726f6d20746865207a65726f206164604482015264647265737360d81b60648201526084016103f6565b6001600160a01b0382166108eb5760405162461bcd60e51b815260206004820152602360248201527f45524332303a207472616e7366657220746f20746865207a65726f206164647260448201526265737360e81b60648201526084016103f6565b6001600160a01b038316600090815260208190526040902054818110156109635760405162461bcd60e51b815260206004820152602660248201527f45524332303a207472616e7366657220616d6f756e7420657863656564732062604482015265616c616e636560d01b60648201526084016103f6565b6001600160a01b0380851660009081526020819052604080822085850390559185168152908120805484929061099a9084906110d6565b92505081905550826001600160a01b0316846001600160a01b031660008051602061110e833981519152846040516109d491815260200190565b60405180910390a361081f565b6000306001600160a01b037f000000000000000000000000000000000000000000000000000000000000000016148015610a3a57507f000000000000000000000000000000000000000000000000000000000000000046145b15610a6457507f000000000000000000000000000000000000000000000000000000000000000090565b50604080517f00000000000000000000000000000000000000000000000000000000000000006020808301919091527f0000000000000000000000000000000000000000000000000000000000000000828401527f000000000000000000000000000000000000000000000000000000000000000060608301524660808301523060a0808401919091528351808403909101815260c0909201909252805191012090565b6001600160a01b038216610b5e5760405162461bcd60e51b815260206004820152601f60248201527f45524332303a206d696e7420746f20746865207a65726f20616464726573730060448201526064016103f6565b8060026000828254610b7091906110d6565b90915550506001600160a01b03821660009081526020819052604081208054839290610b9d9084906110d6565b90915550506040518181526001600160a01b0383169060009060008051602061110e8339815191529060200160405180910390a35050565b6001600160a01b03811660009081526005602052604090208054600181018255905b50919050565b60006102ef610c0a6109e1565b8360405161190160f01b6020820152602281018390526042810182905260009060620160405160208183030381529060405280519060200120905092915050565b6000806000610c5c87878787610c73565b91509150610c6981610d56565b5095945050505050565b6000806fa2a8918ca85bafe22016d0b997e4df60600160ff1b03831115610ca05750600090506003610d4d565b8460ff16601b14158015610cb857508460ff16601c14155b15610cc95750600090506004610d4d565b6040805160008082526020820180845289905260ff881692820192909252606081018690526080810185905260019060a0016020604051602081039080840390855afa158015610d1d573d6000803e3d6000fd5b5050604051601f1901519150506001600160a01b038116610d4657600060019250925050610d4d565b9150600090505b94509492505050565b6000816004811115610d6a57610d6a6110f7565b03610d725750565b6001816004811115610d8657610d866110f7565b03610dce5760405162461bcd60e51b815260206004820152601860248201527745434453413a20696e76616c6964207369676e617475726560401b60448201526064016103f6565b6002816004811115610de257610de26110f7565b03610e2f5760405162461bcd60e51b815260206004820152601f60248201527f45434453413a20696e76616c6964207369676e6174757265206c656e6774680060448201526064016103f6565b6003816004811115610e4357610e436110f7565b03610e9b5760405162461bcd60e51b815260206004820152602260248201527f45434453413a20696e76616c6964207369676e6174757265202773272076616c604482015261756560f01b60648201526084016103f6565b6004816004811115610eaf57610eaf6110f7565b03610f075760405162461bcd60e51b815260206004820152602260248201527f45434453413a20696e76616c6964207369676e6174757265202776272076616c604482015261756560f01b60648201526084016103f6565b50565b600060208083528351808285015260005b81811015610f3757858101830151858201604001528201610f1b565b506000604082860101526040601f19601f8301168501019250505092915050565b80356001600160a01b0381168114610f6f57600080fd5b919050565b60008060408385031215610f8757600080fd5b610f9083610f58565b946020939093013593505050565b600080600060608486031215610fb357600080fd5b610fbc84610f58565b9250610fca60208501610f58565b9150604084013590509250925092565b600060208284031215610fec57600080fd5b610ff582610f58565b9392505050565b600080600080600080600060e0888a03121561101757600080fd5b61102088610f58565b965061102e60208901610f58565b95506040880135945060608801359350608088013560ff8116811461105257600080fd5b9699959850939692959460a0840135945060c09093013592915050565b6000806040838503121561108257600080fd5b61108b83610f58565b915061109960208401610f58565b90509250929050565b600181811c908216806110b657607f821691505b602082108103610bf757634e487b7160e01b600052602260045260246000fd5b808201808211156102ef57634e487b7160e01b600052601160045260246000fd5b634e487b7160e01b600052602160045260246000fdfeddf252ad1be2c89b69c2b068fc378daa952ba7f163c4a11628f55a4df523b3efa26469706673582212205f091021fd4b042d65e33a0e5c8e97abd2d0e972e05544ab52c48cb79bc7ad9d64736f6c63430008110033",
  "linkReferences": {},
  "deployedLinkReferences": {}
}