{
  "_format": "hh-sol-artifact-1",
  "contractName": "Deb0x",
  "sourceName": "contracts/Deb0x.sol",
  "abi": [
    {
      "inputs": [
        {
          "internalType": "address",
          "name": "forwarder",
          "type": "address"
        }
      ],
      "stateMutability": "nonpayable",
      "type": "constructor"
    },
    {
      "anonymous": false,
      "inputs": [
        {
          "indexed": true,
          "internalType": "uint256",
          "name": "cycle",
          "type": "uint256"
        },
        {
          "indexed": true,
          "internalType": "address",
          "name": "account",
          "type": "address"
        },
        {
          "indexed": false,
          "internalType": "uint256",
          "name": "fees",
          "type": "uint256"
        }
      ],
      "name": "ClientFeesClaimed",
      "type": "event"
    },
    {
      "anonymous": false,
      "inputs": [
        {
          "indexed": true,
          "internalType": "uint256",
          "name": "cycle",
          "type": "uint256"
        },
        {
          "indexed": true,
          "internalType": "address",
          "name": "account",
          "type": "address"
        },
        {
          "indexed": false,
          "internalType": "uint256",
          "name": "amount",
          "type": "uint256"
        }
      ],
      "name": "ClientRewardsClaimed",
      "type": "event"
    },
    {
      "anonymous": false,
      "inputs": [
        {
          "indexed": true,
          "internalType": "uint256",
          "name": "cycle",
          "type": "uint256"
        },
        {
          "indexed": true,
          "internalType": "address",
          "name": "account",
          "type": "address"
        },
        {
          "indexed": false,
          "internalType": "uint256",
          "name": "fees",
          "type": "uint256"
        }
      ],
      "name": "FeesClaimed",
      "type": "event"
    },
    {
      "anonymous": false,
      "inputs": [
        {
          "indexed": true,
          "internalType": "address",
          "name": "to",
          "type": "address"
        },
        {
          "indexed": true,
          "internalType": "bytes32",
          "name": "value",
          "type": "bytes32"
        }
      ],
      "name": "KeySet",
      "type": "event"
    },
    {
      "anonymous": false,
      "inputs": [
        {
          "indexed": true,
          "internalType": "uint256",
          "name": "cycle",
          "type": "uint256"
        },
        {
          "indexed": false,
          "internalType": "uint256",
          "name": "calculatedCycleReward",
          "type": "uint256"
        },
        {
          "indexed": false,
          "internalType": "uint256",
          "name": "summedCycleStakes",
          "type": "uint256"
        }
      ],
      "name": "NewCycleStarted",
      "type": "event"
    },
    {
      "anonymous": false,
      "inputs": [
        {
          "indexed": true,
          "internalType": "uint256",
          "name": "cycle",
          "type": "uint256"
        },
        {
          "indexed": true,
          "internalType": "address",
          "name": "account",
          "type": "address"
        },
        {
          "indexed": false,
          "internalType": "uint256",
          "name": "reward",
          "type": "uint256"
        }
      ],
      "name": "RewardsClaimed",
      "type": "event"
    },
    {
      "anonymous": false,
      "inputs": [
        {
          "indexed": true,
          "internalType": "uint256",
          "name": "cycle",
          "type": "uint256"
        },
        {
          "indexed": true,
          "internalType": "uint256",
          "name": "sentId",
          "type": "uint256"
        },
        {
          "indexed": true,
          "internalType": "address",
          "name": "feeReceiver",
          "type": "address"
        },
        {
          "indexed": false,
          "internalType": "uint256",
          "name": "msgFee",
          "type": "uint256"
        },
        {
          "indexed": false,
          "internalType": "uint256",
          "name": "nativeTokenFee",
          "type": "uint256"
        }
      ],
      "name": "SendEntryCreated",
      "type": "event"
    },
    {
      "anonymous": false,
      "inputs": [
        {
          "indexed": true,
          "internalType": "address",
          "name": "to",
          "type": "address"
        },
        {
          "indexed": true,
          "internalType": "address",
          "name": "from",
          "type": "address"
        },
        {
          "indexed": true,
          "internalType": "bytes32",
          "name": "hash",
          "type": "bytes32"
        },
        {
          "indexed": false,
          "internalType": "uint256",
          "name": "sentId",
          "type": "uint256"
        },
        {
          "indexed": false,
          "internalType": "uint256",
          "name": "timestamp",
          "type": "uint256"
        },
        {
          "indexed": false,
          "internalType": "bytes32[]",
          "name": "content",
          "type": "bytes32[]"
        }
      ],
      "name": "Sent",
      "type": "event"
    },
    {
      "anonymous": false,
      "inputs": [
        {
          "indexed": true,
          "internalType": "uint256",
          "name": "cycle",
          "type": "uint256"
        },
        {
          "indexed": true,
          "internalType": "address",
          "name": "account",
          "type": "address"
        },
        {
          "indexed": false,
          "internalType": "uint256",
          "name": "amount",
          "type": "uint256"
        }
      ],
      "name": "Staked",
      "type": "event"
    },
    {
      "anonymous": false,
      "inputs": [
        {
          "indexed": true,
          "internalType": "uint256",
          "name": "cycle",
          "type": "uint256"
        },
        {
          "indexed": true,
          "internalType": "address",
          "name": "account",
          "type": "address"
        },
        {
          "indexed": false,
          "internalType": "uint256",
          "name": "amount",
          "type": "uint256"
        }
      ],
      "name": "Unstaked",
      "type": "event"
    },
    {
      "inputs": [],
      "name": "MAX_BPS",
      "outputs": [
        {
          "internalType": "uint16",
          "name": "",
          "type": "uint16"
        }
      ],
      "stateMutability": "view",
      "type": "function"
    },
    {
      "inputs": [],
      "name": "PROTOCOL_FEE",
      "outputs": [
        {
          "internalType": "uint16",
          "name": "",
          "type": "uint16"
        }
      ],
      "stateMutability": "view",
      "type": "function"
    },
    {
      "inputs": [],
      "name": "SCALING_FACTOR",
      "outputs": [
        {
          "internalType": "uint256",
          "name": "",
          "type": "uint256"
        }
      ],
      "stateMutability": "view",
      "type": "function"
    },
    {
      "inputs": [
        {
          "internalType": "address",
          "name": "",
          "type": "address"
        }
      ],
      "name": "accAccruedFees",
      "outputs": [
        {
          "internalType": "uint256",
          "name": "",
          "type": "uint256"
        }
      ],
      "stateMutability": "view",
      "type": "function"
    },
    {
      "inputs": [
        {
          "internalType": "address",
          "name": "",
          "type": "address"
        }
      ],
      "name": "accCycleGasOwed",
      "outputs": [
        {
          "internalType": "uint256",
          "name": "",
          "type": "uint256"
        }
      ],
      "stateMutability": "view",
      "type": "function"
    },
    {
      "inputs": [
        {
          "internalType": "address",
          "name": "",
          "type": "address"
        }
      ],
      "name": "accCycleGasUsed",
      "outputs": [
        {
          "internalType": "uint256",
          "name": "",
          "type": "uint256"
        }
      ],
      "stateMutability": "view",
      "type": "function"
    },
    {
      "inputs": [
        {
          "internalType": "address",
          "name": "",
          "type": "address"
        }
      ],
      "name": "accFirstStake",
      "outputs": [
        {
          "internalType": "uint256",
          "name": "",
          "type": "uint256"
        }
      ],
      "stateMutability": "view",
      "type": "function"
    },
    {
      "inputs": [
        {
          "internalType": "address",
          "name": "",
          "type": "address"
        }
      ],
      "name": "accRewards",
      "outputs": [
        {
          "internalType": "uint256",
          "name": "",
          "type": "uint256"
        }
      ],
      "stateMutability": "view",
      "type": "function"
    },
    {
      "inputs": [
        {
          "internalType": "address",
          "name": "",
          "type": "address"
        }
      ],
      "name": "accSecondStake",
      "outputs": [
        {
          "internalType": "uint256",
          "name": "",
          "type": "uint256"
        }
      ],
      "stateMutability": "view",
      "type": "function"
    },
    {
      "inputs": [
        {
          "internalType": "address",
          "name": "",
          "type": "address"
        },
        {
          "internalType": "uint256",
          "name": "",
          "type": "uint256"
        }
      ],
      "name": "accStakeCycle",
      "outputs": [
        {
          "internalType": "uint256",
          "name": "",
          "type": "uint256"
        }
      ],
      "stateMutability": "view",
      "type": "function"
    },
    {
      "inputs": [
        {
          "internalType": "address",
          "name": "",
          "type": "address"
        }
      ],
      "name": "accWithdrawableStake",
      "outputs": [
        {
          "internalType": "uint256",
          "name": "",
          "type": "uint256"
        }
      ],
      "stateMutability": "view",
      "type": "function"
    },
    {
      "inputs": [],
      "name": "claimClientFees",
      "outputs": [],
      "stateMutability": "nonpayable",
      "type": "function"
    },
    {
      "inputs": [],
      "name": "claimClientRewards",
      "outputs": [],
      "stateMutability": "nonpayable",
      "type": "function"
    },
    {
      "inputs": [],
      "name": "claimFees",
      "outputs": [],
      "stateMutability": "nonpayable",
      "type": "function"
    },
    {
      "inputs": [],
      "name": "claimRewards",
      "outputs": [],
      "stateMutability": "nonpayable",
      "type": "function"
    },
    {
      "inputs": [
        {
          "internalType": "address",
          "name": "",
          "type": "address"
        }
      ],
      "name": "clientAccruedFees",
      "outputs": [
        {
          "internalType": "uint256",
          "name": "",
          "type": "uint256"
        }
      ],
      "stateMutability": "view",
      "type": "function"
    },
    {
      "inputs": [
        {
          "internalType": "address",
          "name": "",
          "type": "address"
        }
      ],
      "name": "clientCycleGasEarned",
      "outputs": [
        {
          "internalType": "uint256",
          "name": "",
          "type": "uint256"
        }
      ],
      "stateMutability": "view",
      "type": "function"
    },
    {
      "inputs": [
        {
          "internalType": "address",
          "name": "",
          "type": "address"
        }
      ],
      "name": "clientLastFeeUpdate",
      "outputs": [
        {
          "internalType": "uint256",
          "name": "",
          "type": "uint256"
        }
      ],
      "stateMutability": "view",
      "type": "function"
    },
    {
      "inputs": [
        {
          "internalType": "address",
          "name": "",
          "type": "address"
        }
      ],
      "name": "clientLastRewardUpdate",
      "outputs": [
        {
          "internalType": "uint256",
          "name": "",
          "type": "uint256"
        }
      ],
      "stateMutability": "view",
      "type": "function"
    },
    {
      "inputs": [
        {
          "internalType": "address",
          "name": "",
          "type": "address"
        }
      ],
      "name": "clientRewards",
      "outputs": [
        {
          "internalType": "uint256",
          "name": "",
          "type": "uint256"
        }
      ],
      "stateMutability": "view",
      "type": "function"
    },
    {
      "inputs": [],
      "name": "currentCycle",
      "outputs": [
        {
          "internalType": "uint256",
          "name": "",
          "type": "uint256"
        }
      ],
      "stateMutability": "view",
      "type": "function"
    },
    {
      "inputs": [],
      "name": "currentCycleReward",
      "outputs": [
        {
          "internalType": "uint256",
          "name": "",
          "type": "uint256"
        }
      ],
      "stateMutability": "view",
      "type": "function"
    },
    {
      "inputs": [],
      "name": "currentStartedCycle",
      "outputs": [
        {
          "internalType": "uint256",
          "name": "",
          "type": "uint256"
        }
      ],
      "stateMutability": "view",
      "type": "function"
    },
    {
      "inputs": [
        {
          "internalType": "uint256",
          "name": "",
          "type": "uint256"
        }
      ],
      "name": "cycleAccruedFees",
      "outputs": [
        {
          "internalType": "uint256",
          "name": "",
          "type": "uint256"
        }
      ],
      "stateMutability": "view",
      "type": "function"
    },
    {
      "inputs": [
        {
          "internalType": "uint256",
          "name": "",
          "type": "uint256"
        }
      ],
      "name": "cycleFeesPerStakeSummed",
      "outputs": [
        {
          "internalType": "uint256",
          "name": "",
          "type": "uint256"
        }
      ],
      "stateMutability": "view",
      "type": "function"
    },
    {
      "inputs": [
        {
          "internalType": "uint256",
          "name": "",
          "type": "uint256"
        }
      ],
      "name": "cycleTotalGasUsed",
      "outputs": [
        {
          "internalType": "uint256",
          "name": "",
          "type": "uint256"
        }
      ],
      "stateMutability": "view",
      "type": "function"
    },
    {
      "inputs": [],
      "name": "dbx",
      "outputs": [
        {
          "internalType": "contract Deb0xERC20",
          "name": "",
          "type": "address"
        }
      ],
      "stateMutability": "view",
      "type": "function"
    },
    {
      "inputs": [],
      "name": "getCurrentCycle",
      "outputs": [
        {
          "internalType": "uint256",
          "name": "",
          "type": "uint256"
        }
      ],
      "stateMutability": "view",
      "type": "function"
    },
    {
      "inputs": [],
      "name": "i_initialTimestamp",
      "outputs": [
        {
          "internalType": "uint256",
          "name": "",
          "type": "uint256"
        }
      ],
      "stateMutability": "view",
      "type": "function"
    },
    {
      "inputs": [],
      "name": "i_periodDuration",
      "outputs": [
        {
          "internalType": "uint256",
          "name": "",
          "type": "uint256"
        }
      ],
      "stateMutability": "view",
      "type": "function"
    },
    {
      "inputs": [
        {
          "internalType": "address",
          "name": "forwarder",
          "type": "address"
        }
      ],
      "name": "isTrustedForwarder",
      "outputs": [
        {
          "internalType": "bool",
          "name": "",
          "type": "bool"
        }
      ],
      "stateMutability": "view",
      "type": "function"
    },
    {
      "inputs": [
        {
          "internalType": "address",
          "name": "",
          "type": "address"
        }
      ],
      "name": "lastActiveCycle",
      "outputs": [
        {
          "internalType": "uint256",
          "name": "",
          "type": "uint256"
        }
      ],
      "stateMutability": "view",
      "type": "function"
    },
    {
      "inputs": [],
      "name": "lastCycleReward",
      "outputs": [
        {
          "internalType": "uint256",
          "name": "",
          "type": "uint256"
        }
      ],
      "stateMutability": "view",
      "type": "function"
    },
    {
      "inputs": [
        {
          "internalType": "address",
          "name": "",
          "type": "address"
        }
      ],
      "name": "lastFeeUpdateCycle",
      "outputs": [
        {
          "internalType": "uint256",
          "name": "",
          "type": "uint256"
        }
      ],
      "stateMutability": "view",
      "type": "function"
    },
    {
      "inputs": [],
      "name": "lastStartedCycle",
      "outputs": [
        {
          "internalType": "uint256",
          "name": "",
          "type": "uint256"
        }
      ],
      "stateMutability": "view",
      "type": "function"
    },
    {
      "inputs": [],
      "name": "pendingFees",
      "outputs": [
        {
          "internalType": "uint256",
          "name": "",
          "type": "uint256"
        }
      ],
      "stateMutability": "view",
      "type": "function"
    },
    {
      "inputs": [],
      "name": "pendingStake",
      "outputs": [
        {
          "internalType": "uint256",
          "name": "",
          "type": "uint256"
        }
      ],
      "stateMutability": "view",
      "type": "function"
    },
    {
      "inputs": [],
      "name": "pendingStakeWithdrawal",
      "outputs": [
        {
          "internalType": "uint256",
          "name": "",
          "type": "uint256"
        }
      ],
      "stateMutability": "view",
      "type": "function"
    },
    {
      "inputs": [],
      "name": "previousStartedCycle",
      "outputs": [
        {
          "internalType": "uint256",
          "name": "",
          "type": "uint256"
        }
      ],
      "stateMutability": "view",
      "type": "function"
    },
    {
      "inputs": [
        {
          "internalType": "address",
          "name": "",
          "type": "address"
        }
      ],
      "name": "publicKeys",
      "outputs": [
        {
          "internalType": "bytes32",
          "name": "",
          "type": "bytes32"
        }
      ],
      "stateMutability": "view",
      "type": "function"
    },
    {
      "inputs": [
        {
          "internalType": "uint256",
          "name": "",
          "type": "uint256"
        }
      ],
      "name": "rewardPerCycle",
      "outputs": [
        {
          "internalType": "uint256",
          "name": "",
          "type": "uint256"
        }
      ],
      "stateMutability": "view",
      "type": "function"
    },
    {
      "inputs": [
        {
          "internalType": "address[]",
          "name": "to",
          "type": "address[]"
        },
        {
          "internalType": "bytes32[][]",
          "name": "crefs",
          "type": "bytes32[][]"
        },
        {
          "internalType": "address",
          "name": "feeReceiver",
          "type": "address"
        },
        {
          "internalType": "uint256",
          "name": "msgFee",
          "type": "uint256"
        },
        {
          "internalType": "uint256",
          "name": "nativeTokenFee",
          "type": "uint256"
        }
      ],
      "name": "send",
      "outputs": [],
      "stateMutability": "payable",
      "type": "function"
    },
    {
      "inputs": [],
      "name": "sentId",
      "outputs": [
        {
          "internalType": "uint256",
          "name": "",
          "type": "uint256"
        }
      ],
      "stateMutability": "view",
      "type": "function"
    },
    {
      "inputs": [
        {
          "internalType": "bytes32",
          "name": "publicKey",
          "type": "bytes32"
        }
      ],
      "name": "setKey",
      "outputs": [],
      "stateMutability": "nonpayable",
      "type": "function"
    },
    {
      "inputs": [
        {
          "internalType": "uint256",
          "name": "amount",
          "type": "uint256"
        }
      ],
      "name": "stake",
      "outputs": [],
      "stateMutability": "nonpayable",
      "type": "function"
    },
    {
      "inputs": [
        {
          "internalType": "uint256",
          "name": "",
          "type": "uint256"
        }
      ],
      "name": "summedCycleStakes",
      "outputs": [
        {
          "internalType": "uint256",
          "name": "",
          "type": "uint256"
        }
      ],
      "stateMutability": "view",
      "type": "function"
    },
    {
      "inputs": [
        {
          "internalType": "uint256",
          "name": "amount",
          "type": "uint256"
        }
      ],
      "name": "unstake",
      "outputs": [],
      "stateMutability": "nonpayable",
      "type": "function"
    }
  ],
  "bytecode": "0x60e06040526001600b553480156200001657600080fd5b50604051620042cd380380620042cd833981016040819052620000399162000116565b6001600160a01b0381166080526001600055604051620000599062000108565b604051809103906000f08015801562000076573d6000803e3d6000fd5b50600180546001600160a01b0319166001600160a01b0392909216919091179055504260a0526201518060c05269021e19e0c9bab24000006002819055600080527fd2ac945fcc0096878c763e37d6929b78378c1a2defabde8ba7ee5ed1d6e7a5b281905560186020527f999d26de3473317ead3eeaf34ca78057f1439db67b6953469c3c96ce9caf6bd75562000148565b6113cc8062002f0183390190565b6000602082840312156200012957600080fd5b81516001600160a01b03811681146200014157600080fd5b9392505050565b60805160a05160c051612d7b620001866000396000818161038401526116e201526000818161050e015261170601526000610d9a0152612d7b6000f3fe6080604052600436106102185760003560e01c80630b4501fd1461021d5780630ece21541461024b57806313e6589014610286578063143a1766146102b35780631ed6380f146102e05780631fcd6ca91461030d578063224438d11461033a5780632e17de78146103505780632f7cdab014610372578063372500ab146103a6578063436091c1146103bb578063549af694146103d1578063572b6c05146103fe5780635730c8fd1461042e5780635f5080b41461045b578063654773cd1461047157806368f057691461048657806369ec283e1461049c57806374846d9f146104b15780637d818c23146104c45780638bd95563146104fc57806391b300201461053057806398a5db57146105465780639986314b1461055c578063a3d6f9a914610589578063a694fc3a146105b6578063a707140b146105d6578063a95f1dac14610603578063aabbb1bd14610619578063adc0f68614610651578063bab2f5521461067e578063bc71329014610694578063be26ed7f146106c1578063bebc9dfc146106d6578063c3d2c35514610703578063c4235ae914610723578063ce96c0af14610750578063d294f0931461077d578063d4432e4e14610792578063db80a28c146107a8578063dd23a9bd146107d4578063e60c90c414610801578063ed725e831461082e578063ef4cadc51461085b578063f1b371e21461087e578063fa845ca914610894578063fd967f47146108c1575b600080fd5b34801561022957600080fd5b506102336103e881565b60405161ffff90911681526020015b60405180910390f35b34801561025757600080fd5b50610278610266366004612898565b601b6020526000908152604090205481565b604051908152602001610242565b34801561029257600080fd5b506102786102a1366004612898565b60106020526000908152604090205481565b3480156102bf57600080fd5b506102786102ce3660046128cd565b60176020526000908152604090205481565b3480156102ec57600080fd5b506102786102fb3660046128cd565b601e6020526000908152604090205481565b34801561031957600080fd5b506102786103283660046128cd565b600e6020526000908152604090205481565b34801561034657600080fd5b50610278600a5481565b34801561035c57600080fd5b5061037061036b366004612898565b6108d7565b005b34801561037e57600080fd5b506102787f000000000000000000000000000000000000000000000000000000000000000081565b3480156103b257600080fd5b50610370610b61565b3480156103c757600080fd5b5061027860065481565b3480156103dd57600080fd5b506102786103ec3660046128cd565b600f6020526000908152604090205481565b34801561040a57600080fd5b5061041e6104193660046128cd565b610d98565b6040519015158152602001610242565b34801561043a57600080fd5b506102786104493660046128cd565b600d6020526000908152604090205481565b34801561046757600080fd5b5061027860075481565b34801561047d57600080fd5b50610370610dca565b34801561049257600080fd5b5061027860095481565b3480156104a857600080fd5b50610370610eff565b6103706104bf366004612a3d565b6110d0565b3480156104d057600080fd5b506001546104e4906001600160a01b031681565b6040516001600160a01b039091168152602001610242565b34801561050857600080fd5b506102787f000000000000000000000000000000000000000000000000000000000000000081565b34801561053c57600080fd5b5061027860025481565b34801561055257600080fd5b50610278600b5481565b34801561056857600080fd5b506102786105773660046128cd565b60126020526000908152604090205481565b34801561059557600080fd5b506102786105a43660046128cd565b600c6020526000908152604090205481565b3480156105c257600080fd5b506103706105d1366004612898565b6113ff565b3480156105e257600080fd5b506102786105f13660046128cd565b601a6020526000908152604090205481565b34801561060f57600080fd5b5061027860035481565b34801561062557600080fd5b50610278610634366004612b1e565b601d60209081526000928352604080842090915290825290205481565b34801561065d57600080fd5b5061027861066c366004612898565b60186020526000908152604090205481565b34801561068a57600080fd5b5061027860055481565b3480156106a057600080fd5b506102786106af3660046128cd565b60166020526000908152604090205481565b3480156106cd57600080fd5b506102786116de565b3480156106e257600080fd5b506102786106f1366004612898565b601c6020526000908152604090205481565b34801561070f57600080fd5b5061037061071e366004612898565b61173a565b34801561072f57600080fd5b5061027861073e366004612898565b60196020526000908152604090205481565b34801561075c57600080fd5b5061027861076b3660046128cd565b60136020526000908152604090205481565b34801561078957600080fd5b506103706117a2565b34801561079e57600080fd5b5061027860045481565b3480156107b457600080fd5b506102786107c33660046128cd565b602080526000908152604090205481565b3480156107e057600080fd5b506102786107ef3660046128cd565b60146020526000908152604090205481565b34801561080d57600080fd5b5061027861081c3660046128cd565b601f6020526000908152604090205481565b34801561083a57600080fd5b506102786108493660046128cd565b60156020526000908152604090205481565b34801561086757600080fd5b506102786b1d6329f1c35ca4bfabb9f56160281b81565b34801561088a57600080fd5b5061027860085481565b3480156108a057600080fd5b506102786108af3660046128cd565b60116020526000908152604090205481565b3480156108cd57600080fd5b5061023361271081565b6108df611892565b6108e76118eb565b6108ef611906565b6108ff6108fa611a48565b611a6a565b600081116109285760405162461bcd60e51b815260040161091f90612b48565b60405180910390fd5b601e6000610934611a48565b6001600160a01b03166001600160a01b03168152602001908152602001600020548111156109ba5760405162461bcd60e51b815260206004820152602d60248201527f44656230783a20616d6f756e742067726561746572207468616e20776974686460448201526c72617761626c65207374616b6560981b606482015260840161091f565b600854600654036109e25780600960008282546109d79190612b8d565b90915550610a099050565b60055460009081526019602052604081208054839290610a03908490612ba0565b90915550505b80601e6000610a16611a48565b6001600160a01b03166001600160a01b031681526020019081526020016000206000828254610a459190612ba0565b9091555081905060156000610a58611a48565b6001600160a01b03166001600160a01b031681526020019081526020016000206000828254610a879190612ba0565b90915550506001546001600160a01b031663a9059cbb610aa5611a48565b836040518363ffffffff1660e01b8152600401610ac3929190612bb3565b6020604051808303816000875af1158015610ae2573d6000803e3d6000fd5b505050506040513d601f19601f82011682018060405250810190610b069190612bcc565b50610b0f611a48565b6001600160a01b03166005547f37375b03d8924bd8f076f11f8411b9962aa5c02fb489021507bc6bb6f850e36583604051610b4c91815260200190565b60405180910390a3610b5e6001600055565b50565b610b69611892565b610b716118eb565b610b79611906565b610b846108fa611a48565b6000601e6000610b92611a48565b6001600160a01b03166001600160a01b031681526020019081526020016000205460156000610bbf611a48565b6001600160a01b03166001600160a01b0316815260200190815260200160002054610bea9190612ba0565b905060008111610c3c5760405162461bcd60e51b815260206004820152601d60248201527f44656230783a206163636f756e7420686173206e6f2072657761726473000000604482015260640161091f565b8060156000610c49611a48565b6001600160a01b03166001600160a01b031681526020019081526020016000206000828254610c789190612ba0565b909155505060085460065403610ca5578060096000828254610c9a9190612b8d565b90915550610cd59050565b600554600090815260196020526040902054610cc2908290612ba0565b6005546000908152601960205260409020555b6001546001600160a01b0316639a49090e610cee611a48565b836040518363ffffffff1660e01b8152600401610d0c929190612bb3565b600060405180830381600087803b158015610d2657600080fd5b505af1158015610d3a573d6000803e3d6000fd5b50505050610d46611a48565b6001600160a01b03166005547f3300bdb359cfb956935bca32e9db727413eab1ca84341f2e36caea85bb79696883604051610d8391815260200190565b60405180910390a350610d966001600055565b565b7f00000000000000000000000000000000000000000000000000000000000000006001600160a01b0390811691161490565b610dd2611892565b610dda6118eb565b610de2611906565b610df2610ded611a48565b61208b565b600060146000610e00611a48565b6001600160a01b03166001600160a01b0316815260200190815260200160002054905060008111610e7d5760405162461bcd60e51b815260206004820152602160248201527f44656230783a20636c69656e7420686173206e6f2061636372756564206665656044820152607360f81b606482015260840161091f565b600060146000610e8b611a48565b6001600160a01b03168152602081019190915260400160002055610eb6610eb0611a48565b826122c5565b610ebe611a48565b6001600160a01b0316610ecf6116de565b6040518381527f71080b6b70140bab68812ff30dd24dd3f4fafdb253085461fcc624ab5f1bbe9b90602001610d83565b610f07611892565b610f0f6118eb565b610f17611906565b610f22610ded611a48565b600060176000610f30611a48565b6001600160a01b03166001600160a01b0316815260200190815260200160002054905060008111610fa25760405162461bcd60e51b815260206004820152601c60248201527b44656230783a20636c69656e7420686173206e6f207265776172647360201b604482015260640161091f565b600060176000610fb0611a48565b6001600160a01b0316815260208101919091526040016000205560085460065403610ff2578060096000828254610fe79190612b8d565b909155506110229050565b60055460009081526019602052604090205461100f908290612ba0565b6005546000908152601960205260409020555b6001546001600160a01b0316639a49090e61103b611a48565b836040518363ffffffff1660e01b8152600401611059929190612bb3565b600060405180830381600087803b15801561107357600080fd5b505af1158015611087573d6000803e3d6000fd5b50505050611093611a48565b6001600160a01b03166005547f73d4ecbe623e0c89f3cfb75a853104d35d1105e8ec5f0ec6e4bb924da1ffb29283604051610d8391815260200190565b6110d8611892565b8060005a9050848460005a90506127108711156111435760405162461bcd60e51b815260206004820152602360248201527f44656230783a207265776172642066656573206578636565642031303030302060448201526262707360e81b606482015260840161091f565b600061114f8b8b61236c565b90506111596118eb565b611161611906565b61116961273c565b6111746108fa611a48565b61117d8961208b565b6005546011600061118c611a48565b6001600160a01b03166001600160a01b0316815260200190815260200160002081905550886001600160a01b0316816005547f6288811d8cdbed319ad675bb04053011e25d30480e6eb483c02d54ef3bc863f18b8b6040516111f8929190918252602082015260400190565b60405180910390a45060005a61120e9083612ba0565b90508060106000600554815260200190815260200160002060008282546112359190612b8d565b90915550506001600160a01b0384161580159061125157508215155b156112af5760006127106112658584612bee565b61126f9190612c05565b905061127b8183612ba0565b6001600160a01b0386166000908152600e60205260408120805492945083929091906112a8908490612b8d565b9091555050505b80600f60006112bc611a48565b6001600160a01b03166001600160a01b0316815260200190815260200160002060008282546112eb9190612b8d565b909155506000945061271093506103e892503a9150505a61130c9086612ba0565b61131890619b14612b8d565b6113229190612bee565b61132c9190612bee565b6113369190612c05565b9050806113438434612ba0565b10156113a65760405162461bcd60e51b815260206004820152602c60248201527f44656230783a2076616c7565206c657373207468616e2072657175697265642060448201526b70726f746f636f6c2066656560a01b606482015260840161091f565b6005546000908152601b6020526040812080548392906113c7908490612b8d565b909155506113eb905033846113dc8434612ba0565b6113e69190612ba0565b6122c5565b5050506113f86001600055565b5050505050565b611407611892565b61140f6118eb565b611417611906565b6114226108fa611a48565b600081116114425760405162461bcd60e51b815260040161091f90612b48565b80600460008282546114549190612b8d565b909155505060055460009061146a906001612b8d565b90506008546006540361147c57506005545b601f6000611488611a48565b6001600160a01b03166001600160a01b031681526020019081526020016000205481141580156114e45750602060006114bf611a48565b6001600160a01b03166001600160a01b03168152602001908152602001600020548114155b156115a557601f60006114f5611a48565b6001600160a01b03166001600160a01b03168152602001908152602001600020546000036115495780601f600061152a611a48565b6001600160a01b031681526020810191909152604001600020556115a5565b60206000611555611a48565b6001600160a01b03166001600160a01b03168152602001908152602001600020546000036115a557806020600061158a611a48565b6001600160a01b031681526020810191909152604001600020555b81601d60006115b2611a48565b6001600160a01b03166001600160a01b03168152602001908152602001600020600083815260200190815260200160002060008282546115f29190612b8d565b90915550506001546001600160a01b03166323b872dd611610611a48565b6040516001600160e01b031960e084901b1681526001600160a01b039091166004820152306024820152604481018590526064016020604051808303816000875af1158015611663573d6000803e3d6000fd5b505050506040513d601f19601f820116820180604052508101906116879190612bcc565b50611690611a48565b6001600160a01b0316817f18dcd430020e4d4899772fd94a8b40451dc5044dfb70bc46b532eeae431c864f846040516116cb91815260200190565b60405180910390a350610b5e6001600055565b60007f000000000000000000000000000000000000000000000000000000000000000061172b7f000000000000000000000000000000000000000000000000000000000000000042612ba0565b6117359190612c05565b905090565b80600c6000611747611a48565b6001600160a01b031681526020810191909152604001600020558061176a611a48565b6001600160a01b03167f8e06b8416b712e88dc5bdfc009fcc4de46c26bf894cd73d9a855ceb8170ea78d60405160405180910390a350565b6117aa611892565b6117b26118eb565b6117ba611906565b6117c56108fa611a48565b6000601660006117d3611a48565b6001600160a01b03166001600160a01b03168152602001908152602001600020549050600081116118165760405162461bcd60e51b815260040161091f90612b48565b600060166000611824611a48565b6001600160a01b03168152602081019190915260400160002055611849610eb0611a48565b611851611a48565b6001600160a01b03166118626116de565b6040518381527f2227733fc4c8a9034cb58087dcf6995128b9c0233b038b03366aaf30c92b92d690602001610d83565b6002600054036118e45760405162461bcd60e51b815260206004820152601f60248201527f5265656e7472616e637947756172643a207265656e7472616e742063616c6c00604482015260640161091f565b6002600055565b60006118f56116de565b9050600554811115610b5e57600555565b600854600554146119295760065461191f906001612b8d565b6007556008546006555b60065460055411801561195d5750601c6000600654600161194a9190612b8d565b8152602001908152602001600020546000145b15610d9657600654600090815260196020526040812054156119d357600654600090815260196020908152604080832054600a54601b9093529220546b1d6329f1c35ca4bfabb9f56160281b916119b391612b8d565b6119bd9190612bee565b6119c79190612c05565b6000600a559050611a04565b601b6000600654815260200190815260200160002054600a60008282546119fa9190612b8d565b9091555060009150505b6007546000908152601c6020526040902054611a21908290612b8d565b601c60006006546001611a349190612b8d565b815260208101919091526040016000205550565b6000611a5333610d98565b15611a65575060131936013560601c90565b503390565b6001600160a01b038116600090815260116020526040902054600554118015611aaa57506001600160a01b0381166000908152600f602052604090205415155b15611b4d576001600160a01b038116600081815260116020908152604080832054835260108252808320546018835281842054948452600f90925282205491929091611af69190612bee565b611b009190612c05565b6001600160a01b038316600090815260156020526040812080549293508392909190611b2d908490612b8d565b9091555050506001600160a01b0381166000908152600f60205260408120555b600654600554118015611b855750600654611b69906001612b8d565b6001600160a01b0382166000908152601a602052604090205414155b15611c7e576001600160a01b0381166000908152601a60209081526040808320548352601c918290528220546006546b1d6329f1c35ca4bfabb9f56160281b9391929190611bd4906001612b8d565b815260200190815260200160002054611bed9190612ba0565b6001600160a01b038316600090815260156020526040902054611c109190612bee565b611c1a9190612c05565b6001600160a01b038216600090815260166020526040902054611c3d9190612b8d565b6001600160a01b038216600090815260166020526040902055600654611c64906001612b8d565b6001600160a01b0382166000908152601a60205260409020555b6001600160a01b0381166000908152601f602052604090205415801590611cbe57506001600160a01b0381166000908152601f6020526040902054600554115b15610b5e576001600160a01b0381166000818152601d60209081526040808320601f8352818420548452825280832054938352601590915281208054839290611d08908490612b8d565b90915550506001600160a01b0382166000908152601e602052604081208054839290611d35908490612b8d565b90915550506001600160a01b0382166000908152601f6020526040902054600654611d61906001612b8d565b1115611e46576001600160a01b0382166000908152601f60209081526040808320548352601c918290528220546006546b1d6329f1c35ca4bfabb9f56160281b9391929190611db1906001612b8d565b815260200190815260200160002054611dca9190612ba0565b6001600160a01b0384166000908152601d60209081526040808320601f8352818420548452909152902054611dff9190612bee565b611e099190612c05565b6001600160a01b038316600090815260166020526040902054611e2c9190612b8d565b6001600160a01b0383166000908152601660205260409020555b6001600160a01b0382166000818152601d60209081526040808320601f835281842080548552908352818420849055938352928290558052205415612087576001600160a01b0382166000908152602080526040902054600554111561205c576001600160a01b0382166000818152601d60209081526040808320828052818420548452825280832054938352601590915281208054839290611eea908490612b8d565b90915550506001600160a01b0383166000908152601e602052604081208054839290611f17908490612b8d565b90915550506001600160a01b0383166000908152602080526040902054600654611f42906001612b8d565b1115612024576001600160a01b038316600090815260208080526040808320548352601c918290528220546006546b1d6329f1c35ca4bfabb9f56160281b9391929190611f90906001612b8d565b815260200190815260200160002054611fa99190612ba0565b6001600160a01b0385166000908152601d60209081526040808320828052818420548452909152902054611fdd9190612bee565b611fe79190612c05565b6001600160a01b03841660009081526016602052604090205461200a9190612b8d565b6001600160a01b0384166000908152601660205260409020555b50506001600160a01b03166000818152601d602090815260408083208280528184208054855290835290832083905592825280529055565b6001600160a01b0382166000908152602080805260408083208054601f845291842091909155908052555b5050565b6001600160a01b03811660009081526012602052604090205460055411156121a1576001600160a01b038116600090815260126020908152604080832054600e90925290912054158015906120ed575060008181526010602052604090205415155b156121835760008181526010602090815260408083205460188352818420546001600160a01b0387168552600e90935290832054909161212c91612bee565b6121369190612c05565b6001600160a01b038416600090815260176020526040812080549293508392909190612163908490612b8d565b9091555050506001600160a01b0382166000908152600e60205260408120555b506005546001600160a01b0382166000908152601260205260409020555b6006546005541180156121d957506006546121bd906001612b8d565b6001600160a01b03821660009081526013602052604090205414155b15610b5e576001600160a01b0381166000908152601360209081526040808320548352601c918290528220546006546b1d6329f1c35ca4bfabb9f56160281b9391929190612228906001612b8d565b8152602001908152602001600020546122419190612ba0565b6001600160a01b0383166000908152601760205260409020546122649190612bee565b61226e9190612c05565b6001600160a01b03821660009081526014602052604081208054909190612296908490612b8d565b90915550506006546122a9906001612b8d565b6001600160a01b03821660009081526013602052604090205550565b6000826001600160a01b03168260405160006040518083038185875af1925050503d8060008114612312576040519150601f19603f3d011682016040523d82523d6000602084013e612317565b606091505b50509050806123675760405162461bcd60e51b815260206004820152601c60248201527b1119588c1e0e8819985a5b1959081d1bc81cd95b9908185b5bdd5b9d60221b604482015260640161091f565b505050565b600081518351146123d55760405162461bcd60e51b815260206004820152602d60248201527f44656230783a20637265667320616e6420726563697069656e7473206c656e6760448201526c1d1a1cc81b9bdd08195c5d585b609a1b606482015260840161091f565b60008351116124265760405162461bcd60e51b815260206004820152601d60248201527f44656230783a20726563697069656e747320617272617920656d707479000000604482015260640161091f565b60005b600184516124379190612ba0565b8110156124df576000836001865161244f9190612ba0565b8151811061245f5761245f612c27565b602002602001015151116124855760405162461bcd60e51b815260040161091f90612c3d565b600883600186516124969190612ba0565b815181106124a6576124a6612c27565b60200260200101515111156124cd5760405162461bcd60e51b815260040161091f90612c68565b806124d781612c96565b915050612429565b5060005b600184516124f19190612ba0565b8110156125c857600083828151811061250c5761250c612c27565b60200260200101516040516020016125249190612cea565b60405160208183030381529060405280519060200120905080612545611a48565b6001600160a01b031686848151811061256057612560612c27565b60200260200101516001600160a01b0316600080516020612d26833981519152600b544289888151811061259657612596612c27565b60200260200101516040516125ad93929190612cfd565b60405180910390a450806125c081612c96565b9150506124e3565b50600082600185516125da9190612ba0565b815181106125ea576125ea612c27565b60200260200101516040516020016126029190612cea565b6040516020818303038152906040528051906020012090506000836001865161262b9190612ba0565b8151811061263b5761263b612c27565b602002602001015151116126615760405162461bcd60e51b815260040161091f90612c3d565b600883600186516126729190612ba0565b8151811061268257612682612c27565b60200260200101515111156126a95760405162461bcd60e51b815260040161091f90612c68565b600b805490819060006126bb83612c96565b9190505550816126c9611a48565b6001600160a01b03166126da611a48565b6001600160a01b0316600080516020612d2683398151915284428960018c516127039190612ba0565b8151811061271357612713612c27565b602002602001015160405161272a93929190612cfd565b60405180910390a49150505b92915050565b6005546000908152601860205260408120549003610d965760025460038190556000906127249061276f90612710612bee565b6127799190612c05565b6002819055600580546000908152601860209081526040808320859055925460085560065482526019905220549091506127b4908290612b8d565b600854600090815260196020526040812080549091906127d5908490612b8d565b9091555050600454156128115760045460085460009081526019602052604081208054909190612806908490612b8d565b909155505060006004555b60095415612848576009546008546000908152601960205260408120805490919061283d908490612ba0565b909155505060006009555b600554600854600090815260196020908152604091829020548251858152918201527f0666a61c1092f5b86c2cfe6ea1ad0d9a36032c4fb92d285b4e43f662d48f19b4910160405180910390a250565b6000602082840312156128aa57600080fd5b5035919050565b80356001600160a01b03811681146128c857600080fd5b919050565b6000602082840312156128df57600080fd5b6128e8826128b1565b9392505050565b634e487b7160e01b600052604160045260246000fd5b604051601f8201601f191681016001600160401b038111828210171561292d5761292d6128ef565b604052919050565b60006001600160401b0382111561294e5761294e6128ef565b5060051b60200190565b600082601f83011261296957600080fd5b8135602061297e61297983612935565b612905565b828152600592831b850182019282820191908785111561299d57600080fd5b8387015b85811015612a305780356001600160401b038111156129c05760008081fd5b8801603f81018a136129d25760008081fd5b8581013560406129e461297983612935565b82815291851b8301810191888101908d841115612a015760008081fd5b938201935b83851015612a1f57843582529389019390890190612a06565b8852505050938501935084016129a1565b5090979650505050505050565b600080600080600060a08688031215612a5557600080fd5b85356001600160401b0380821115612a6c57600080fd5b818801915088601f830112612a8057600080fd5b81356020612a9061297983612935565b82815260059290921b8401810191818101908c841115612aaf57600080fd5b948201945b83861015612ad457612ac5866128b1565b82529482019490820190612ab4565b99505089013592505080821115612aea57600080fd5b50612af788828901612958565b945050612b06604087016128b1565b94979396509394606081013594506080013592915050565b60008060408385031215612b3157600080fd5b612b3a836128b1565b946020939093013593505050565b60208082526015908201527444656230783a20616d6f756e74206973207a65726f60581b604082015260600190565b634e487b7160e01b600052601160045260246000fd5b8082018082111561273657612736612b77565b8181038181111561273657612736612b77565b6001600160a01b03929092168252602082015260400190565b600060208284031215612bde57600080fd5b815180151581146128e857600080fd5b808202811582820484141761273657612736612b77565b600082612c2257634e487b7160e01b600052601260045260246000fd5b500490565b634e487b7160e01b600052603260045260246000fd5b6020808252601190820152702232b1183c1d1032b6b83a3c9031b932b360791b604082015260600190565b60208082526014908201527344656230783a206372656620746f6f206c6f6e6760601b604082015260600190565b600060018201612ca857612ca8612b77565b5060010190565b600081518084526020808501945080840160005b83811015612cdf57815187529582019590820190600101612cc3565b509495945050505050565b6020815260006128e86020830184612caf565b838152826020820152606060408201526000612d1c6060830184612caf565b9594505050505056fea33bc9a10d8f3a335b59663beb6a02681748ac0b3db1251c7bb08f3e99dd0bb4a2646970667358221220bfe39aa67e6bfe8703afa61dc43ab5ca29849af0352c601e3525b7085d28818864736f6c634300081100336101606040523480156200001257600080fd5b506040518060400160405280601d81526020017f44656230782052657761726420546f6b656e206f6e20506f6c79676f6e00000081525080604051806040016040528060018152602001603160f81b8152506040518060400160405280601d81526020017f44656230782052657761726420546f6b656e206f6e20506f6c79676f6e000000815250604051806040016040528060048152602001630e08884b60e31b8152508160039081620000c891906200021a565b506004620000d782826200021a565b5050825160209384012082519284019290922060e08390526101008190524660a0818152604080517f8b73c3c69bb8fe3d512ecc4cf759cc79239f7b179b0ffacaa9a75d522b39400f818901819052818301979097526060810194909452608080850193909352308483018190528151808603909301835260c0948501909152815191909601209052929092526101205250503361014052620002e6565b634e487b7160e01b600052604160045260246000fd5b600181811c90821680620001a057607f821691505b602082108103620001c157634e487b7160e01b600052602260045260246000fd5b50919050565b601f8211156200021557600081815260208120601f850160051c81016020861015620001f05750805b601f850160051c820191505b818110156200021157828155600101620001fc565b5050505b505050565b81516001600160401b0381111562000236576200023662000175565b6200024e816200024784546200018b565b84620001c7565b602080601f8311600181146200028657600084156200026d5750858301515b600019600386901b1c1916600185901b17855562000211565b600085815260208120601f198616915b82811015620002b75788860151825594840194600190910190840162000296565b5085821015620002d65787850151600019600388901b60f8161c191681555b5050505050600190811b01905550565b60805160a05160c05160e05161010051610120516101405161108462000348600039600081816101a6015261038201526000610a4101526000610a9001526000610a6b015260006109c4015260006109ee01526000610a1801526110846000f3fe608060405234801561001057600080fd5b50600436106100d05760003560e01c806306fdde03146100d5578063095ea7b3146100f357806318160ddd1461011657806323b872dd14610128578063313ce5671461013b5780633644e5151461014a578063395093511461015257806370a08231146101655780637ecebe001461018e5780638da5cb5b146101a157806395d89b41146101e05780639a49090e146101e8578063a457c2d7146101fd578063a9059cbb14610210578063d505accf14610223578063dd62ed3e14610236575b600080fd5b6100dd610249565b6040516100ea9190610e2b565b60405180910390f35b610106610101366004610e95565b6102db565b60405190151581526020016100ea565b6002545b6040519081526020016100ea565b610106610136366004610ebf565b6102f5565b604051601281526020016100ea565b61011a610319565b610106610160366004610e95565b610328565b61011a610173366004610efb565b6001600160a01b031660009081526020819052604090205490565b61011a61019c366004610efb565b61034a565b6101c87f000000000000000000000000000000000000000000000000000000000000000081565b6040516001600160a01b0390911681526020016100ea565b6100dd610368565b6101fb6101f6366004610e95565b610377565b005b61010661020b366004610e95565b61046f565b61010661021e366004610e95565b6104ea565b6101fb610231366004610f1d565b6104f8565b61011a610244366004610f90565b61065c565b60606003805461025890610fc3565b80601f016020809104026020016040519081016040528092919081815260200182805461028490610fc3565b80156102d15780601f106102a6576101008083540402835291602001916102d1565b820191906000526020600020905b8154815290600101906020018083116102b457829003601f168201915b5050505050905090565b6000336102e9818585610687565b60019150505b92915050565b6000336103038582856107ab565b61030e858585610825565b506001949350505050565b60006103236109b7565b905090565b6000336102e981858561033b838361065c565b6103459190610ff7565b610687565b6001600160a01b0381166000908152600560205260408120546102ef565b60606004805461025890610fc3565b336001600160a01b037f000000000000000000000000000000000000000000000000000000000000000016146103ff5760405162461bcd60e51b815260206004820152602260248201527f4442583a2063616c6c6572206973206e6f7420446562307820636f6e747261636044820152613a1760f11b60648201526084015b60405180910390fd5b6a0424e8a4eaca5ed740000061041460025490565b106104615760405162461bcd60e51b815260206004820152601e60248201527f4442583a206d617820737570706c7920616c7265616479206d696e746564000060448201526064016103f6565b61046b8282610ade565b5050565b6000338161047d828661065c565b9050838110156104dd5760405162461bcd60e51b815260206004820152602560248201527f45524332303a2064656372656173656420616c6c6f77616e63652062656c6f77604482015264207a65726f60d81b60648201526084016103f6565b61030e8286868403610687565b6000336102e9818585610825565b834211156105485760405162461bcd60e51b815260206004820152601d60248201527f45524332305065726d69743a206578706972656420646561646c696e6500000060448201526064016103f6565b60007f6e71edae12b1b97f4d1f60370fef10105fa2faae0126114a169c64845d6126c98888886105778c610b8b565b6040805160208101969096526001600160a01b0394851690860152929091166060840152608083015260a082015260c0810186905260e00160405160208183030381529060405280519060200120905060006105d282610bb3565b905060006105e282878787610c01565b9050896001600160a01b0316816001600160a01b0316146106455760405162461bcd60e51b815260206004820152601e60248201527f45524332305065726d69743a20696e76616c6964207369676e6174757265000060448201526064016103f6565b6106508a8a8a610687565b50505050505050505050565b6001600160a01b03918216600090815260016020908152604080832093909416825291909152205490565b6001600160a01b0383166106e95760405162461bcd60e51b8152602060048201526024808201527f45524332303a20617070726f76652066726f6d20746865207a65726f206164646044820152637265737360e01b60648201526084016103f6565b6001600160a01b03821661074a5760405162461bcd60e51b815260206004820152602260248201527f45524332303a20617070726f766520746f20746865207a65726f206164647265604482015261737360f01b60648201526084016103f6565b6001600160a01b0383811660008181526001602090815260408083209487168084529482529182902085905590518481527f8c5be1e5ebec7d5bd14f71427d1e84f3dd0314c0f7b2291e5b200ac8c7c3b925910160405180910390a3505050565b60006107b7848461065c565b9050600019811461081f57818110156108125760405162461bcd60e51b815260206004820152601d60248201527f45524332303a20696e73756666696369656e7420616c6c6f77616e636500000060448201526064016103f6565b61081f8484848403610687565b50505050565b6001600160a01b0383166108895760405162461bcd60e51b815260206004820152602560248201527f45524332303a207472616e736665722066726f6d20746865207a65726f206164604482015264647265737360d81b60648201526084016103f6565b6001600160a01b0382166108eb5760405162461bcd60e51b815260206004820152602360248201527f45524332303a207472616e7366657220746f20746865207a65726f206164647260448201526265737360e81b60648201526084016103f6565b6001600160a01b038316600090815260208190526040902054818110156109635760405162461bcd60e51b815260206004820152602660248201527f45524332303a207472616e7366657220616d6f756e7420657863656564732062604482015265616c616e636560d01b60648201526084016103f6565b6001600160a01b038481166000818152602081815260408083208787039055938716808352918490208054870190559251858152909260008051602061102f833981519152910160405180910390a361081f565b6000306001600160a01b037f000000000000000000000000000000000000000000000000000000000000000016148015610a1057507f000000000000000000000000000000000000000000000000000000000000000046145b15610a3a57507f000000000000000000000000000000000000000000000000000000000000000090565b50604080517f00000000000000000000000000000000000000000000000000000000000000006020808301919091527f0000000000000000000000000000000000000000000000000000000000000000828401527f000000000000000000000000000000000000000000000000000000000000000060608301524660808301523060a0808401919091528351808403909101815260c0909201909252805191012090565b6001600160a01b038216610b345760405162461bcd60e51b815260206004820152601f60248201527f45524332303a206d696e7420746f20746865207a65726f20616464726573730060448201526064016103f6565b8060026000828254610b469190610ff7565b90915550506001600160a01b0382166000818152602081815260408083208054860190555184815260008051602061102f833981519152910160405180910390a35050565b6001600160a01b03811660009081526005602052604090208054600181018255905b50919050565b60006102ef610bc06109b7565b8360405161190160f01b6020820152602281018390526042810182905260009060620160405160208183030381529060405280519060200120905092915050565b6000806000610c1287878787610c29565b91509150610c1f81610ce3565b5095945050505050565b6000806fa2a8918ca85bafe22016d0b997e4df60600160ff1b03831115610c565750600090506003610cda565b6040805160008082526020820180845289905260ff881692820192909252606081018690526080810185905260019060a0016020604051602081039080840390855afa158015610caa573d6000803e3d6000fd5b5050604051601f1901519150506001600160a01b038116610cd357600060019250925050610cda565b9150600090505b94509492505050565b6000816004811115610cf757610cf7611018565b03610cff5750565b6001816004811115610d1357610d13611018565b03610d5b5760405162461bcd60e51b815260206004820152601860248201527745434453413a20696e76616c6964207369676e617475726560401b60448201526064016103f6565b6002816004811115610d6f57610d6f611018565b03610dbc5760405162461bcd60e51b815260206004820152601f60248201527f45434453413a20696e76616c6964207369676e6174757265206c656e6774680060448201526064016103f6565b6003816004811115610dd057610dd0611018565b03610e285760405162461bcd60e51b815260206004820152602260248201527f45434453413a20696e76616c6964207369676e6174757265202773272076616c604482015261756560f01b60648201526084016103f6565b50565b600060208083528351808285015260005b81811015610e5857858101830151858201604001528201610e3c565b506000604082860101526040601f19601f8301168501019250505092915050565b80356001600160a01b0381168114610e9057600080fd5b919050565b60008060408385031215610ea857600080fd5b610eb183610e79565b946020939093013593505050565b600080600060608486031215610ed457600080fd5b610edd84610e79565b9250610eeb60208501610e79565b9150604084013590509250925092565b600060208284031215610f0d57600080fd5b610f1682610e79565b9392505050565b600080600080600080600060e0888a031215610f3857600080fd5b610f4188610e79565b9650610f4f60208901610e79565b95506040880135945060608801359350608088013560ff81168114610f7357600080fd5b9699959850939692959460a0840135945060c09093013592915050565b60008060408385031215610fa357600080fd5b610fac83610e79565b9150610fba60208401610e79565b90509250929050565b600181811c90821680610fd757607f821691505b602082108103610bad57634e487b7160e01b600052602260045260246000fd5b808201808211156102ef57634e487b7160e01b600052601160045260246000fd5b634e487b7160e01b600052602160045260246000fdfeddf252ad1be2c89b69c2b068fc378daa952ba7f163c4a11628f55a4df523b3efa26469706673582212201fb07bcb0b368ff9c6844846e1f8990721e25cf0ea9fb51e0670189d6a8af8e264736f6c63430008110033",
  "linkReferences": {},
  "deployedLinkReferences": {}
}